:020000040800F2
:100000004004002045010008A7130008A9130008B8
:10001000AD130008B1130008B5130008000000007C
:10002000000000000000000000000000B9130008FC
:10003000BB13000800000000BD130008BF13000838
:100040005F0100085F0100085F0100085F01000810
:100050005F0100085F010008911300085F010008BC
:100060005F0100085F0100085F0100085F010008F0
:100070005F0100085F0100085F0100085F010008E0
:100080005F0100085F0100085F0100085F010008D0
:100090005F0100085F0100085F0100085F010008C0
:1000A0005F0100085F0100085F0100085F010008B0
:1000B0005F0100085F0100085F0100085F010008A0
:1000C0005F0100085F0100085F0100085F01000890
:1000D0005F0100085F0100085F0100085F01000880
:1000E0005F0100085F0100085F0100085F01000870
:1000F0005F0100085F0100085F0100085F01000860
:100100005F0100085F0100085F0100085F0100084F
:100110005F0100085F0100085F0100085F0100083F
:100120005F0100085F0100085F0100085F0100082F
:10013000DFF80CD001F016FE004800474910000817
:10014000400400200648804706480047FEE7FEE7D7
:10015000FEE7FEE7FEE7FEE7FEE7FEE7FEE7FEE777
:1001600047020008310100080CB500200190009002
:100170006C48006840F480306A49086000BF6948F4
:10018000006800F4003000900198401C0190009835
:1001900018B90198B0F5A06FF1D16248006800F479
:1001A000003010B10120009001E000200090009884
:1001B000012843D15C48006840F010005A490860AB
:1001C0000846006820F0030008600846006840F018
:1001D0000200086053484068524948600846406839
:1001E00048600846406840F48060486008464068BF
:1001F00020F47C1048600846406840F4E8104860ED
:100200000846006840F08070086000BF45480068FC
:1002100000F000700028F9D04248406820F0030048
:10022000404948600846406840F00200486000BF0E
:100230003C48406800F00C000828F9D10CBD10B50E
:10024000FFF792FF10BD10B53648006840F001007E
:1002500034490860084640683449084031494860DC
:1002600008460068324908402E4908600846006880
:1002700020F4802008600846406820F4FE004860B2
:100280004FF41F008860FFF7DAFF4FF00060294944
:10029000086010BD10B5002100200022214B5B68D2
:1002A00003F00C0121B1042906D0082928D107E068
:1002B000214B224C236027E01F4B204C236023E07E
:1002C000184B5B6803F47010164B5B6803F48032C4
:1002D000022303EB904022B9194B4343174C236090
:1002E0000DE0104B5B6803F4003323B1144B434320
:1002F000124C236003E0104B4343104C236003E097
:100300000D4B0E4C236000BF00BF064B5B68C3F370
:1003100003130C4CE15C094B1B68CB40074C23607A
:1003200010BD000000100240002002400000FFF855
:10033000FFFFF6FE08ED00E000127A00000000204A
:1003400000093D000400002031490143314A116099
:10035000704770B5002100230F22C47804B32D4CE0
:10036000246804F4E064C4F5E064210AC1F10403E4
:10037000CA40447804FA03F1847814402143090107
:10038000254C0678A155047804F01F050124AC40E3
:1003900005786D11AD0005F1E025C5F8004109E0D3
:1003A000047804F01F050124AC401C4D067876113A
:1003B00045F8264070BD1A4A0A400243154B1B1FE0
:1003C0001A60704739B1134A121D12680243114B6B
:1003D0001B1D1A6006E00F4A121D126882430D4B66
:1003E0001B1D1A607047042808D14FF0E0210969ED
:1003F00041F004014FF0E022116107E04FF0E021ED
:10040000096921F004014FF0E022116170470000FA
:100410000000FA050CED00E000E400E080E100E0FF
:1004200080FFFF1F002044490860091D0860091D66
:100430000860091D086041483F4914310860704751
:1004400000213D498279002A3AD00A4612680368A1
:100450009A430B461A600A1D126803689A430B1DE3
:100460001A60027911440A6803681A430A60324A22
:100470000832126803689A432F4B08331A601A1D1A
:10048000126803689A432C4B0C331A604279102A85
:100490000ED11A1F126803681A43274B08331A60DB
:1004A0001A1D126803681A43234B0C331A600DE0BF
:1004B0002149427911440A6803681A430A6005E039
:1004C000027911440A6803689A430A607047002160
:1004D000016001710C214171002181717047164941
:1004E000103109680143144A103211607047014607
:1004F0000020114A143212680A400AB1012000E0BB
:10050000002070470C4914310860704701460020F4
:100510000022094B1B6803EA0102074B14331B68D6
:100520000B4013B10AB1012000E0002070470249DE
:10053000143108607047000000040140FFFF0F0005
:1005400010B50446CC48844208D10121042000F0B3
:100550002DFB0021042000F029FB46E0C74884421F
:1005600008D10121082000F021FB0021082000F023
:100570001DFB3AE0C248844208D10121102000F05E
:1005800015FB0021102000F011FB2EE0BD48844235
:1005900008D10121202000F009FB0021202000F0DB
:1005A00005FB22E0B848844208D10121402000F038
:1005B000FDFA0021402000F0F9FA16E0B348844229
:1005C00008D10121802000F0F1FA0021802000F004
:1005D000EDFA0AE0AE48844207D10121801500F00F
:1005E000E5FA0021A01500F0E1FA10BD10B50121D7
:1005F000084600F0DBFA0021012000F0D7FA10BD18
:100600002DE9F041024600250026002000230024A9
:10061000002791F803C00CF00F0591F803C00CF00F
:10062000100CBCF1000F03D091F802C04CEA050594
:1006300091F800C0BCF1000F31D0146800202BE00D
:100640004FF0010C0CFA00F3B1F800C00CEA0306FD
:100650009E4220D183004FF00F0C0CFA03F7BC43ED
:1006600005FA03FC4CEA040491F803C0BCF1280F1E
:1006700006D14FF0010C0CFA00FCC2F814C00AE0DD
:1006800091F803C0BCF1480F05D14FF0010C0CFAF2
:1006900000FCC2F810C0401C0828D1D31460B1F887
:1006A00000C0BCF1FF0F34DD546800202EE000F1E3
:1006B000080C4FF0010808FA0CF3B1F800C00CEA7E
:1006C00003069E4221D183004FF00F0C0CFA03F772
:1006D000BC4305FA03FC4CEA040491F803C0BCF1E6
:1006E000280F05D100F1080C08FA0CF8C2F81480A4
:1006F00091F803C0BCF1480F07D100F1080C4FF08E
:10070000010808FA0CF8C2F81080401C0828CED363
:100710005460BDE8F0814FF6FF71018002218170C5
:100720000421C17070470246002093680B400BB152
:10073000012000E0002070470146886880B27047C1
:1007400002460020D3680B400BB1012000E00020DE
:1007500070470146C86880B27047016170474161C7
:1007600070470AB1016100E041617047C1607047A4
:100770004FF480320A4382618161826182698269B9
:10078000704702460020434B18684FF680731840AC
:1007900040EA021008433F4B186070473E49C86169
:1007A0007047F0B50A46002300240021002500F020
:1007B0000046B6F1004F02D1364EF16901E0354EE8
:1007C0007168C0F3034583B200F44016B6F5401FCC
:1007D00008D121F070612F4E766826F070662D4F9B
:1007E0007E6012E000F48016B6F5801F06D1032665
:1007F00006FA05F4A14341F0706106E0460D3601AA
:1008000003FA06F6B14341F0706122B1460D36019C
:1008100003FA06F6314300F00046B6F1004F02D16C
:100820001C4EF16101E01B4E7160F0BD30B500223D
:100830008B071C0F0F2303FA04F2164B08338C109E
:1008400053F824309343134C08348D1044F825306A
:1008500023468C1053F824308C07240F00FA04F43C
:1008600023430C4C08348D1044F8253030BD0A4920
:10087000DC3108607047000000080140000C0140B6
:10088000001001400014014000180140001C01400C
:10089000002001400000014000002042DF480068C5
:1008A00040F00100DD49086008464068DC49084026
:1008B000DA49486008460068DA490840D7490860C4
:1008C0000846006820F4802008600846406820F44C
:1008D000FE0048604FF41F0088607047CF490968E8
:1008E00021F48031CD4A11601146096821F480213C
:1008F0001160B0F5803F03D0B0F5802F0ED106E037
:10090000C649096841F48031C44A116007E0C3490F
:10091000096841F4A021C14A116000E000BF00BF96
:10092000704710B501460022002300204A11012A19
:1009300002D1BA4C236806E0022A02D1B74C236ADE
:1009400001E0B64C636A01F01F02012494401C4090
:100950000CB1012000E0002010BD38B5002000904F
:100960000024002500BF3120FFF7DBFF054600987B
:10097000401C00900098B0F5A06F01D0002DF2D07F
:100980003120FFF7CEFF08B1012400E0002420460B
:1009900038BD01460020A14A106820F0F80040EA66
:1009A000C10010607047A0490860704702460020EF
:1009B0009A4B586820F47C1042EA01031843974B85
:1009C0005860704798490866704701460020934A6E
:1009D000506820F003000843506070478F4840681B
:1009E00000F00C007047014600208C4A506820F04F
:1009F000F00008435060704701460020874A506865
:100A000020F4E06008435060704701460020834AAC
:100A1000506820F4605040EAC1005060704729B12E
:100A20007E4A527A02437D4B5A7204E07B4A527AE4
:100A300082437A4B5A7270477B49D83108607047BD
:100A400001460020754A506820F440400843506039
:100A500070470021714A20321170704A82F82010CC
:100A6000012802D004280AD104E001216B4A203277
:100A7000117005E00521694A2032117000E000BFC5
:100A800000BF70476949086070476449096A0143BB
:100A9000624A11627047654944390860704730B551
:100AA00000210022002400235C4D6D6805F00C013C
:100AB00021B1042905D0082923D105E05C4D05604A
:100AC00022E05B4D05601FE0544D6D6805F4701227
:100AD000524D6D6805F48034022505EB92421CB935
:100AE000544D554305600BE04C4D6D6805F40035E1
:100AF0001DB1504D5543056002E04D4D5543056015
:100B000002E04B4D056000BF00BF444D6D6805F02D
:100B1000F0010909484D6B5C0568DD4045603F4DBB
:100B20006D6805F4E061090A434D6B5C4568DD4082
:100B300085603A4D6D6805F46051C90A3E4D6B5CA5
:100B40004568DD40C560354D6D6805F44041890B51
:100B50003A4D6B5CC568B5FBF3F5056130BD29B155
:100B60002E4A526902432D4B5A6104E02B4A5269C6
:100B700082432A4B5A61704729B1284A926902433D
:100B8000264B9A6104E0254A92698243234B9A617D
:100B9000704729B1214AD2690243204BDA6104E04F
:100BA0001E4AD26982431D4BDA61704729B11B4A44
:100BB000D2680243194BDA6004E0184AD2688243D3
:100BC000164BDA60704729B1144A12690243134B7D
:100BD0001A6104E0114A12698243104B1A6170478E
:100BE00012494039086070470F49C86470470B4983
:100BF000C87170470948406A40F0807007494862F0
:100C0000704701460020054A92680A400AB1012057
:100C100000E00020704701498872704700100240D0
:100C20000000FFF8FFFFF6FE00004242800442424F
:100C300000127A0000093D0014000020240000206A
:100C400010B50446FB48844209D101218803FFF70F
:100C5000ADFF00214FF48040FFF7A8FF32E0F648D7
:100C6000844209D101214804FFF7ADFF00214FF470
:100C70000030FFF7A8FF25E0F048844209D10121A8
:100C80008804FFF7A0FF00214FF48020FFF79BFFAF
:100C900018E0EB48844209D10121C804FFF793FF13
:100CA00000214FF40020FFF78EFF0BE0E54884425F
:100CB00008D101210805FFF786FF00214FF48010BD
:100CC000FFF781FF10BD2DE9F04786B005460E46BF
:100CD0000024A24600BFA1460027B08900B100BF92
:100CE0002F462C8A4CF6FF700440F08804432C8277
:100CF000AC894EF6F3100440B088318908437189FD
:100D000008430443AC81AC8A4FF6FF400440B089ED
:100D10000443AC8201A8FFF7C2FEC648874202D155
:100D2000DDF810A001E0DDF80CA0A88900F4004077
:100D300040B10AEBCA0000EB0A1031684900B0FB71
:100D4000F1F807E00AEBCA0000EB0A1031688900ED
:100D5000B0FBF1F86420B8FBF0F004012009642135
:100D600001FB1089A88900F4004040B1322000EB5B
:100D7000C900B0FBF1F000F00700044308E03220A6
:100D800000EB09106421B0FBF1F000F00F00044308
:100D90002C8106B0BDE8F0874FF4165101600021A8
:100DA0008180C18001810C214181002181817047B6
:100DB00010B502460020108A4FF2FF0318400B883E
:100DC0004C8823438C882343CC88234318431082C8
:100DD00010BD0021018041808180C180704721B118
:100DE000828942F40052828104E082894DF6FF73C9
:100DF0001A4082817047F0B5034600240026002582
:100E0000002040F66A17B94200D100BF1846C1F36E
:100E1000421401F01F06012707FA06F5012C01D143
:100E20000C3004E0022C01D1103000E014301AB173
:100E300007682F43076002E00768AF430760F0BD13
:100E40001AB1838A0B43838202E0838A8B438382B5
:100E50007047028A4FF6F0731A400282028A0A43F0
:100E60000282704782894FF2FF731A408281828921
:100E70000A438281704721B1828942F00202828155
:100E800004E082894FF6FD731A4082817047028A1E
:100E90004FF6DF731A400282028A0A4302827047C9
:100EA00021B1028A42F48042028204E0028A4BF6B7
:100EB000FF731A4002827047C1F3080282807047B4
:100EC00001468888C0F308007047818941F001011C
:100ED00081817047028BD2B20283028B42EA0122E7
:100EE00002837047028B02F47F420283028B0A4323
:100EF0000283704721B1828A42F02002828204E09C
:100F0000828A4FF6DF731A408282704721B1828A4B
:100F100042F01002828204E0828A4FF6EF731A4098
:100F20008282704721B1828A42F00802828204E004
:100F3000828A4FF6F7731A408282704721B1828904
:100F400042F40042828103E08289C2F30E02828170
:100F5000704721B1828A42F40062828204E0828A70
:100F60004FF2FF731A4082827047828A4FF6FB73FA
:100F70001A408282828A0A438282704721B1828A21
:100F800042F00202828204E0828A4FF6FD731A4028
:100F90008282704702460020B1F5007F00D100BF79
:100FA00013880B400BB1012000E00020704701F4D2
:100FB0000072B2F5007F00D100BFCA4302807047C3
:100FC00070B50246002400230025002040F66A1672
:100FD000B14200D100BFC1F3421501F01F03012649
:100FE00006FA03F3012D02D19689334006E0022D63
:100FF00002D1168A334001E0968A33400C12012652
:1010000006FA04F41688344013B10CB1012000E054
:10101000002070BD10B50022002340F66A14A142E2
:1010200000D100BF0A1201249440A3B2DC43048023
:1010300010BD00000038014000440040004800405E
:10104000004C00400050004000F0EAF800F0D3F9F6
:101050000CA001F073F811A001F070F806E015A0E3
:1010600001F06CF84FF4167000F0ACF800F015FACF
:101070000028F4D016A001F061F801E000F0FAFABF
:10108000FCE7000020BBB6D3ADCAB9D3C3D2B0BB16
:10109000F0BFAAB7A2B0E50D0A00000020CAD6CA68
:1010A000C6CAB6B1F0B4ABB8D0C6F7CAB5D1E90D6F
:1010B0000A00000050414A37363230553220B3F52D
:1010C000CABCBBAFCAA7B0DC2121210D0A000000B9
:1010D00050414A37363230553220B3F5CABCBBAF27
:1010E000B3C9B9A60D0A000030B50146B1F1807F41
:1010F00001D3012030BD21F07F40401E4FF0E0229F
:10110000506150170F22002807DA13071D0E3E4BBF
:1011100000F00F04241F1D5503E013071C0E3B4B6A
:101120001C5400BF00204FF0E022906107201061A6
:101130000020DFE710B5364800683649B0FBF1F40F
:101140002046FFF7D1FF08B100BFFEE710BD01B593
:101150003149009808604FF0E020006940F001003C
:101160004FF0E021086100BF2B4800680028FBD148
:1011700008BD2948006820B127480068401E26495C
:101180000860704731B5224800682449B0FBF1F58A
:101190002846FFF7A9FF002408E000BF4FF0E02039
:1011A000006900F480300028F8D0641C0098844264
:1011B000F3D34FF0E020006920F001004FF0E02170
:1011C000086138BD31B5124800684FF47A71B0FB40
:1011D000F1F52846FFF788FF002408E000BF4FF034
:1011E000E020006900F480300028F8D0641C0098EA
:1011F0008442F3D34FF0E020006920F001004FF06B
:10120000E021086138BD000018ED00E000E400E0D6
:1012100000000020A08601002800002040420F00AE
:1012200000B585B001210420FFF7A6FC0121880349
:10123000FFF7A2FC4FF40070ADF8100018208DF8F5
:10124000130003208DF8120004A94F48FFF7D8F9C6
:101250004FF48060ADF8100004208DF8130004A94D
:101260004948FFF7CDF94FF4E13000900020ADF888
:101270000400ADF80600ADF80800ADF80C000C2035
:10128000ADF80A0069464148FFF71DFD01213F48BE
:10129000FFF7A5FD05B000BD70B504460D46294613
:1012A0002046FFF709FE00BF80212046FFF772FEAF
:1012B0000028F9D070BD2DE9F04107460D461646CD
:1012C000002405E0295D3846FFF7E6FF601CC4B244
:1012D000B442F7DB00BF40213846FFF75BFE002831
:1012E000F9D0BDE8F08170B506460C46002500BF78
:1012F000615D3046FFF7D0FF6D1C605D0028F7D1BF
:1013000000BF40213046FFF745FE0028F9D070BDF0
:101310002DE9F04105460C46260AE7B2314628463B
:10132000FFF7CAFD00BF80212846FFF733FE0028E3
:10133000F9D039462846FFF7BFFD00BF8021284677
:10134000FFF728FE0028F9D0BDE8F08170B504460B
:101350000D46E1B20D48FFF7AFFD00BF80210B48FD
:10136000FFF718FE0028F9D0204670BD10B50446DE
:1013700000BF20210548FFF70DFE0028F9D00348E3
:10138000FFF79EFD10BD000000080140003801403D
:1013900010B50120FFF7BAF820B101200849087004
:1013A000FFF7C5F810BD704700BFFEE700BFFEE7BE
:1013B00000BFFEE700BFFEE7704770477047704709
:1013C0002C00002008B54FF4C060FEF7BDFF0620DA
:1013D0008DF8000001208DF801008DF802008DF8D5
:1013E00003006846FEF7B5FF28208DF80000684628
:1013F000FEF7AFFF08BD0EB501210520FFF7BCFBCE
:10140000FFF7E0FF0120ADF8080004208DF80B0085
:1014100002A90B48FFF7F4F800210846FFF706FA87
:101420000120009000208DF8040008208DF80500B0
:1014300001208DF806006846FFF702F80EBD000097
:101440000008014010B5044614B1012C0AD104E093
:101450000021EF2000F027FB04E00121EF2000F045
:1014600022FB00BF00BF10BD10B50A2400F08BFBAB
:101470000520FFF7A7FE00F086FB0520FFF7A2FE80
:101480000020FFF7DFFF002000F02AFB0446202C9D
:1014900001D0002010BD0120FCE770B500F0AAF9D2
:1014A000FFF7E2FF05460DB9002070BD0020FFF7F1
:1014B000C9FF00240AE07F4A02EB440251787D4ACA
:1014C00012F8140000F0EFFA601CC4B2332CF2D30F
:1014D0000020FFF7B7FF0120E7E7F8B500200090F4
:1014E000FFF7B0FF00240AE0734A02EB4402517890
:1014F000714A12F8140000F0D6FA601CC4B21E2C17
:10150000F2D30020FFF79EFF6CA000F017FE5AE018
:101510007048007858B100206E49087000214120C1
:1015200000F0C1FA0021422000F0BDFA4CE06A460A
:101530000221432000F0F6FA0546002D43D19DF824
:1015400000009DF8011040EA0126002E3BD0102E2D
:1015500023D008DC012E10D0022E12D0042E14D07D
:10156000082E2ED115E0202E1BD0402E1DD0802E0F
:101570001FD0B6F5807F24D11FE057A000F0DEFD1C
:1015800020E057A000F0DAFD1CE057A000F0D6FDE7
:1015900018E057A000F0D2FD14E057A000F0CEFDF7
:1015A00010E058A000F0CAFD0CE059A000F0C6FD04
:1015B00008E05AA000F0C2FD04E05CA000F0BEFD0F
:1015C00000E000BF00BFA3E700BFF8BDF8B50020F2
:1015D000009000250026FFF735FF00240AE0554A59
:1015E00002EB44025178534A12F8140000F05BFAFF
:1015F000601CC4B2232CF2D30020FFF723FF2FA0DE
:1016000000F09CFD28E03348007818B100203149F3
:10161000087022E0B02000F063FA0546B12000F027
:101620005FFA8DF80000B22000F05AFA8DF8010040
:101630009DF800009DF8011001F00F0140EA01261D
:1016400029463DA000F07AFD314641A000F076FD2C
:101650004FF4FA70FFF7B6FDD5E700BFF8BD10B53F
:101660003FA000F06BFD46A000F068FD4DA000F02B
:1016700065FD10BD08B5FFF7F2FF1AE0694652A0FC
:1016800000F08CFA51A0009900F058FD0098012854
:1016900002D0022806D102E0FFF71FFF06E0FFF7A5
:1016A00095FF03E04EA000F049FD00BF00BFFFF72B
:1016B000D6FFE3E7D02200087C230008B0B44B45F6
:1016C0005931BCFCCDCBB3F6B5B1C7B0C4A3CABDCC
:1016D0000D0A00002C00002055700D0A00000000CB
:1016E000446F776D0D0A00004C6566740D0A0000AA
:1016F00052696768740D0A00466F72776172640DF3
:101700000A0000004261636B776172640D0A000099
:10171000436C6F636B776973650D0A00416E746982
:10172000436C6F636B776973650D0A00576176656B
:101730000D0A0000362300086F626A5F62726967F3
:1017400068746E6573733A2025640D0A000000000A
:101750006F626A5F73697A653A2025640D0A00003A
:10176000202020D6B8C1EE2020202D2D2D2D2D2D6E
:10177000202020202020B9A6C4DC200D0A00000073
:10178000202020203120202020202D2D2D2D2D2DFA
:1017900020202020CAD6CAC6BCECB2E2C4A3CABD6F
:1017A000200D0A00202020203220202020202D2D56
:1017B0002D2D2D2D20202020BDD3BDFCBCECB2E270
:1017C000C4A3CABD200D0A0025640000BDD3CAD53C
:1017D000B5BDD7D6B7FBA3BA25640D0A000000003B
:1017E000C7EBCAE4C8EBBACFB7A8D6B8C1EEA3A17D
:1017F0000D0A000008B501210820FFF7BDF94FF4DC
:101800004060ADF8000003208DF8020010208DF834
:1018100003006946E048FEF7F3FE4FF44061DE48FE
:10182000FEF79BFF08BD10B5DB48001D006820F4E3
:101830007040D949091D08600846006840F44050CE
:101840000860C814D44910310860401008600420B2
:10185000FFF798FC4FF40060CF4914310860042072
:10186000FFF790FC4FF48060CB491431086010BD45
:1018700010B5C948001D006820F47040C649091D14
:1018800008600846006840F4405008600815C249E6
:1018900014310860400008600420FFF773FC4FF427
:1018A0008060BD4910310860400008600420FFF7E7
:1018B00069FC10BD10B50024B748001D006820F475
:1018C0007040B549091D08600846006840F40040B2
:1018D0000860C814B049103108600320FFF752FCBB
:1018E0004FF48060AC49103108600320FFF74AFCD8
:1018F00007E0601CC4B2FA2C03DDFFF7B9FF01203A
:1019000010BDA5480830006800F400600028F0D140
:101910004FF48060A049143108600020F0E710B552
:101920004FF480609C49143108609B48001D00689A
:1019300020F470409849091D08600846006840F48A
:1019400040500860C8149449143108600320FFF720
:1019500019FC4FF480609049103108600320FFF7B4
:1019600011FC4FF480608C491431086010BD10B533
:101970004FF480608849143108608748001D006872
:1019800020F470408449091D08600846006840F44E
:1019900040500860C8148049103108600220FFF7E9
:1019A000F1FB4FF480607C49103108600220FFF7A2
:1019B000E9FB4FF4806078491431086010BD70B5C0
:1019C00004467548001D006820F470407249091DE6
:1019D00008600846006840F44050086008156E49E9
:1019E00014310860002523E0E00928B14FF40060BD
:1019F00069491031086004E04FF400606649143111
:101A000008606006040E0520FFF7BCFB4FF4806001
:101A10006149103108600520FFF7B4FB4FF4806086
:101A20005D49143108600520FFF7ACFB681CC5B2A6
:101A3000082DD9DB70BD70B5054600245648001D41
:101A4000006820F470405449091D08600846006889
:101A500040F40040086000261BE04FF480604E49CF
:101A6000143108600420FFF78DFB4FF480604A4971
:101A7000103108606006040E47480830006800F422
:101A8000006008B1601CC4B20420FFF77BFB701C2F
:101A9000C6B2082EE1DB15B9FFF769FF01E0FFF7D9
:101AA0003EFF204670BD70B505460C46FFF7BBFEF5
:101AB000E620FFF784FFFFF7FDFE18B1FFF7D8FE21
:101AC000012070BD2846FFF77AFFFFF7F3FE20469E
:101AD000FFF775FFFFF7EEFEFFF7CAFE0020F0E705
:101AE00070B50446FFF79FFEE620FFF768FFFFF79B
:101AF000E1FE18B1FFF7BCFE002070BD2046FFF7E5
:101B00005EFFFFF7D7FEFFF78EFEE720FFF757FFD8
:101B1000FFF7D0FE0020FFF78EFF0546FFF7A8FE77
:101B20002846EAE770B506460C461546FFF77BFEE9
:101B3000E620FFF744FFFFF7BDFE18B1FFF798FE60
:101B4000012070BD3046FFF73AFFFFF7B3FEFFF705
:101B50006AFEE720FFF733FFFFF7ACFE0DE0012C34
:101B600004D10020FFF767FF287003E00120FFF792
:101B700062FF28706D1C601E84B2002CEFD1FFF74D
:101B800077FE0020DDE710B5FFF74DFEE620FFF7FA
:101B900016FFFFF76DFE10BD000C01400FB400B53D
:101BA00089B00BA800906A4603480A9900F0D0F863
:101BB00009B05DF814FB0000300000202DE9FF5F44
:101BC0001D464FF0FF3BD5E9014691465F464FF079
:101BD0000008A9697F1C01988847296A82468847BE
:101BE0000028F6D1BAF1FF3F0CD024F4C064002ED7
:101BF00019DD600614D5BAF12B0F09D0BAF12D0FFB
:101C00000ED103E0584604B0BDE8F09F44F4806470
:101C1000A9697F1C01988847761E8246002E02DD46
:101C2000BAF1300F03D0B9F1000F26D032E0A96924
:101C3000761E44F400747F1C019888478246002E6B
:101C400005DDBAF1780F06D0BAF1580F03D0B9F11B
:101C5000000F10D01EE0B9F1000F02D0B9F1100F43
:101C600018D1A969761E24F400747F1C0198884756
:101C70008246102002E0082000E00A20814609E0A8
:101C800008FB0908A969761E44F400747F1C0198BA
:101C900088478246002E05DD4946504600F04AF846
:101CA0000028EDDAE96901988847A00502D46FF0B1
:101CB0000100A8E7E00725D1600613D5600502D52D
:101CC000C8F1000000E0404629680A1D2A60096842
:101CD000220501D5087015E0220701D5088011E022
:101CE00008600FE02868011D29600068210502D501
:101CF00080F8008006E0210702D5A0F8008001E00E
:101D0000C0F8008038467EE730B50B46014600201B
:101D10002022012409E021FA02F59D4205D303FAAD
:101D200002F5491B04FA02F52844151EA2F101022E
:101D3000F1DC30BD3A2800D2303820F02002412AB0
:101D400001D3A2F13700884201D34FF0FF30704732
:101D5000024B9361024BD36100F032B86D1300085F
:101D6000A51D0008064C074D06E0E06840F00103A1
:101D700094E8070098471034AC42F6D3FEF7DCF93C
:101D8000F823000818240008094910B508784C1CED
:101D900018B1401E0870205C10BD00210720ABBEAA
:101DA000207010BD02490878421C0A70704700007C
:101DB000380000200268114413780160184670470B
:101DC000D160044951610449116200211161114639
:101DD00000F00AB8B51D0008DD1D0008C0B24FF4C0
:101DE000F05100F097B900002DE9F34F8BB04FF0A0
:101DF000000801F10C000C464FF0010B46460DF1B6
:101E0000080A01906269012101989047051E2DD0B2
:101E1000252D2CD0216A8847C0B162690121019823
:101E20009047216A88470028F7D1411E62690198CE
:101E3000904700E0761CA1690B988847216A884783
:101E40000028F7D1E1690B988847DBE7A1690B9877
:101E500088470746A84201D1761CD3E7E1690B9871
:101E600088477F1C02D1B8F1000F6FD046E10027F0
:101E700062693D463946019890472A2804D1626933
:101E80000121019890470125DFF8849262690121C0
:101E900001989047A0F130010A290AD24F45E5DCAC
:101EA00007EB870100EB4107303FDFD445F0100519
:101EB000ECE7E90601D46FF000476C280AD04C2803
:101EC00014D0682815D06A280DD074281CD07A2820
:101ED0001AD01DE062690121019890476C2802D058
:101EE00045F0040514E045F002050DE045F020053D
:101EF0000AE06269012101989047682802D045F004
:101F0000080505E045F400656269012101989047E4
:101F1000C4E9015765283DD019DC58287AD00CDC7B
:101F2000452837D004DC252826D0412831D131E09E
:101F300046282FD047282CD12CE05B2877D0612869
:101F400028D063287CD0642823D15AE0D0E06F28C1
:101F500048D008DC66281DD067281BD0692821D00E
:101F60006E2816D127E0702845D0732868D07528D0
:101F700047D078280DD14DE0A1690B9888470546D8
:101F800025283FF469AFE1690B9888476D1C3FF441
:101F90006AAFB3E023466A466FF001000B99AFF3D6
:101FA00000809EE045F040006060A80723464FF0A7
:101FB000000236D43EE0E8077FF447AF2068011DF9
:101FC00021600068290501D506701BE7290701D5A6
:101FD000068017E7A90703D5F117C0E9006111E7EB
:101FE00006600FE745F040006060A80723464FF009
:101FF000080216D41EE040F60E0125EA01006060DA
:1020000016E045F040006060A80723464FF00A0242
:1020100007D40FE045F040006060A80708D52346CC
:1020200010226FF001000B99AFF3008059E007E038
:10203000234610226FF001000B99FFF7BFFD50E01F
:102040004FF000094F464B46632802D05B2806D06C
:1020500040E0E80601D40120A06001273AE062696F
:102060000121019890475E2805D14FF0010962696E
:10207000494601989047216939B900210A465346DB
:1020800043F82120491C0829FADBB0B3216969B95A
:10209000C11700EBD16253110AEB830122F01F023A
:1020A000821A01200B68904003430B606269012192
:1020B000019890475D28E8D1B9F1000F09D00020C0
:1020C000514651F82020D24341F82020401C0828D6
:1020D000F7DB02AB224600976FF001000B99AFF3DC
:1020E000008000280CDA401C08D1BBF1000F05D09D
:1020F0004FF0FF300DB0BDE8F08FFFE74046F9E745
:10210000E90701D108F1010806444FF0000B79E618
:10211000CCCCCC0C7F2801D9002208E0064A02EB87
:102120005002C007127800D1120902F00F020120FC
:102130009040084070470000B82300080FB4054BDA
:1021400010B503A9044A029800F018F810BC5DF815
:1021500014FB00004D1300083400002002E008C802
:10216000121F08C1002AFAD170477047002001E011
:1021700001C1121F002AFBD1704700002DE9FF4F5B
:1021800089B09B460446002506E025280BD05A4618
:102190000B999047641C6D1C20780028F5D10DB078
:1021A0002846BDE8F08F0027B8460122474900E0E5
:1021B000074314F8013F203B02FA03F00842F7D12D
:1021C00020782E2819D114F8010F47F004072A2887
:1021D0000ED06FF02F022078A0F1300109290CD821
:1021E00008EB880102EB410100EB0108641CF2E7F7
:1021F0000A98641C50F8048B0A9020780028CED0EE
:10220000642808D0692806D075281ED05A460B9934
:1022100090476D1C58E00A994FF00A0901C90A91CC
:10222000002802DA40422D2102E0390504D52B2195
:102230008DF82010012103E0F90704D02021F7E7F1
:102240008A4608AE0DE00021FAE70A994FF00A0924
:1022500001C90A91F7E74946FFF756FD303106F804
:10226000011D0028F7D1ADEB060000F12009780729
:1022700001D44FF00108C84502DDA8EB090000E0D9
:1022800000208046002706E008A85A46C05D0B994A
:1022900090476D1C7F1C5745F6DB04E030205A4602
:1022A0000B9990476D1CB8F10001A8F10108F5DC0D
:1022B00005E016F8010B5A460B9990476D1CB9F1D1
:1022C0000001A9F10109F4DC641C65E7092801009B
:1022D000EF0037073817390641004200462D470FF7
:1022E000483C49004A1E4C2051105E106027804235
:1022F000814482048B019006950A960C97059A14E6
:102300009C3FA519CC19CD0BCE13CF64D021EF0182
:10231000020F0310040225012739287F29083EFFF8
:102320005E3D6596679769CD6A016D2C6E017201FD
:10233000733574007701EF0041004200483C4900CA
:102340005113832084208500861087008805891812
:102350008A109FF869966A02EF01011E020F0310AE
:1023600004024150433465CE660B67CE680B69E9C1
:102370006A056B506CC36D506EC37405EF0041006D
:102380004200EF00483C4900511083209FF9EF01C3
:10239000011E020F0310040241404330659666009F
:1023A0006797680169CD6A016BB06C046D2C6E0192
:1023B0007400EF0041FF4201DDDDDDDDDCBBBBDD94
:1023C000DDDDDDDDDDDDDDDD9888888888888888D5
:1023D00077777777778888888555555666666666F5
:1023E00066666666666888888333333222222222D4
:1023F000222222222228888D182400080000002092
:102400003C0000005C210008542400083C0000202F
:10241000040400006C21000800A24A04000000002F
:102420000000000001020304060708090000000084
:102430000102030401020304060708090204060856
:10244000000000000000000000000000000000008C
:042450000000000088
:0400000508000131BD
:00000001FF
