:020000040800F2
:10000000D0080020D50100088F17000887170008C6
:100010008B1700086D0400081D1A0008000000007E
:10002000000000000000000000000000B9170008F8
:100030007104000800000000EB010008ED01000859
:10004000EF010008EF010008EF010008EF010008D0
:10005000EF010008EF010008EF010008EF010008C0
:10006000EF010008EF010008EF010008EF010008B0
:10007000EF010008EF010008EF010008EF010008A0
:10008000EF010008EF010008EF010008EF01000890
:10009000EF010008EF010008EF010008EF01000880
:1000A000EF010008EF010008EF010008EF01000870
:1000B000EF010008EF010008EF010008EF01000860
:1000C000EF010008EF010008EF010008EF01000850
:1000D000EF0100080D1A0008EF010008EF01000809
:1000E000EF010008EF010008EF010008EF01000830
:1000F000EF010008EF010008EF010008EF01000820
:10010000EF010008EF010008EF010008EF0100080F
:10011000EF010008EF010008EF010008EF010008FF
:10012000EF010008EF010008EF010008EF010008EF
:1001300000F002F800F03FF80AA090E8000C8244BA
:100140008344AAF10107DA4501D100F034F8AFF297
:10015000090EBAE80F0013F0010F18BFFB1A43F0A5
:1001600001031847C08A0000E08A0000103A24BF4B
:1001700078C878C1FAD8520724BF30C830C144BF0C
:1001800004680C607047000000230024002500264E
:10019000103A28BF78C1FBD8520728BF30C148BFEA
:1001A0000B607047782900F07780002070471FB5FA
:1001B0001FBD10B510BD00F027F91146FFF7F7FF7E
:1001C00005F038FB00F045F903B4FFF7F2FF03BC7C
:1001D00001F042FC0948804709480047FEE7FEE776
:1001E000FEE7FEE7FEE7FEE7FEE7FEE7FEE7FEE7E7
:1001F00004480549054A064B70470000BB17000834
:1002000031010008D0020020D0080020D0040020D6
:10021000D0040020704700000FB4044910B503AAB1
:10022000029800F0C3F810BC5DF814FB0800002031
:100230002DE9F0410E460446002020622046E16888
:10024000884730B3252805D0D4E901219047206A9A
:10025000401CF2E7E168204600278847050018D0D7
:10026000A5F14100192802D820354FF40067324625
:10027000294620462760FFF795FF40B1012804D0AA
:10028000F61D26F007060836D8E7361DD6E72846BD
:10029000DAE7206ABDE8F08170B504460D462146D4
:1002A0001068AFF300802188090502D50F4A7A440F
:1002B00002E00E4A7A440E32002104F1240305E0E4
:1002C00000F00F060009965D5E54491C0028F7D126
:1002D00020780023000704D5702D02D009B1022335
:1002E00011322046BDE8704000F006B84A8900008F
:1002F00070477047704770472DE9F0470D469946A3
:100300009246044600F124080168880604D5E06995
:1003100021F01001216000E00120A84201DD471B0F
:1003200000E00027A1697A1902EB0900081AA06110
:100330002078C00602D42046AFF30080002608E0F3
:10034000D4E901211AF806009047206A401C761C67
:1003500020624E45F4DB2078C0060AD52046AFF374
:10036000008006E0D4E9012130209047206A401C3B
:100370002062381EA7F10107F4DC07E0D4E901216F
:1003800018F805009047206A401C2062281EA5F13D
:100390000105F3DC2046AFF300802078000602D58B
:1003A0000220BDE8F0870120FBE70000074B70B595
:1003B0000D467B4400F011F80446284600F020F872
:1003C00010B14FF0FF3070BD204670BDAF1E000071
:1003D00001694A1C02610878704700B58FB0CDE909
:1003E00001310021059105497944CDE903101146F9
:1003F0006846FFF71DFF0FB000BD0000E5FFFFFFDF
:10040000007B00F080007047754600F02BF8AE4688
:1004100005006946534620F00700854618B020B510
:10042000FFF7E6FEBDE820404FF000064FF0000762
:100430004FF000084FF0000B21F00701AC46ACE88C
:10044000C009ACE8C009ACE8C009ACE8C0098D46F9
:10045000704710B50446AFF300802046BDE8104059
:10046000FFF7B2BE004870476C02002000BFFEE7F5
:100470007047000070B50446B3F5804F13D1D1E941
:10048000000540EA05108D6840EA05208D69284383
:100490008D8940EA054054F82250064E35402843E5
:1004A00044F8220003E06FF0704044F8220000207E
:1004B00070BD00000000F0CF70B50246086852F829
:1004C000200020F001000E6842F826008868082805
:1004D00001D1402300E00023486818438E68304370
:1004E000CE6830430E6930434E693043CE693043A5
:1004F0000E6A30434E6A30438E6A3043CE6A3043D0
:100500000E6B40EA060488690443486B0443074DB8
:1005100045F4806545F4E025086852F82000A843BA
:1005200020430E6842F82600002070BD7FFB0800C3
:1005300010B50346D1E9000440EA04108C6840EA93
:1005400004208C8940EA0444088A401E44EA00548E
:10055000087D801E44EA00608C692043541C53F8D7
:10056000244004F040442043541C43F8240000205D
:1005700010BD000070B50446002594F82100022843
:1005800003D00420A0630125C1E02068006820F0AA
:100590000E00216808602068006820F001002168D2
:1005A00008605C492068884252D95A4978392068E5
:1005B000884201D1012047E05649643920688842C9
:1005C00001D1102040E0534950392068884201D1C0
:1005D000801539E04F493C392068884201D18014A8
:1005E00032E04C4928392068884202D14FF48030EB
:1005F0002AE0484914392068884202D14FF480101B
:1006000022E044492068884201D140041CE042496C
:100610002068884201D1012016E03F49143120684A
:10062000884201D110200FE03B49283120688842E0
:1006300001D1801508E038493C312068884201D159
:10064000801401E04FF480303349091F086051E005
:10065000304978392068884201D1012047E02D498E
:1006600064392068884201D1102040E0294950397E
:100670002068884201D1801539E026493C3920683C
:10068000884201D1801432E022492839206888420A
:1006900002D14FF480302AE01E4914392068884284
:1006A00002D14FF4801022E01A492068884201D11B
:1006B00040041CE018492068884201D1012016E05E
:1006C000154914312068884201D110200FE01249E9
:1006D00028312068884201D1801508E00E493C315C
:1006E0002068884201D1801401E04FF4803009492C
:1006F00080394860012084F8210000BF002084F880
:10070000200000BF606B10B12046616B884728460F
:1007100070BD000080000240080402402DE9F84747
:10072000024600239C467BE14FF0010808FA03F4DF
:10073000D1F8008008EA0400A0427DD1DFF8F4A2DD
:10074000D1F80480A8EB0A09D0453AD014DCB8F1FE
:10075000030F50D009DCB8F1000F31D0B8F1010F10
:100760001CD0B8F1020F49D120E0B8F1110F18D018
:10077000B8F1120F42D11EE0B9F5881F25D006DC72
:10078000B9F5803F20D0B9F5801F37D11AE0B9F50F
:10079000001F18D0B9F5041F30D117E0D1F80CC0F4
:1007A0002DE0D1F80C8008F1040C28E0D1F80C8081
:1007B00008F1080C23E0D1F80C8008F10C0C1EE0C5
:1007C00000BF00BF00BF00BF00BF00BFD1F808805E
:1007D000B8F1000F02D14FF0040C0BE0D1F8088003
:1007E000B8F1010F03D14FF0080C146102E04FF093
:1007F000080C546103E04FF0000C00E000BF00BFA4
:10080000FF2801D8904601E002F104084646FF287F
:1008100002D84FEA830803E0A3F108084FEA8808EA
:100820004746D6F800804FF00F0909FA07F928EA81
:1008300009080CFA07F900E07AE048EA0908C6F866
:100840000080D1F8048008F08058B8F1805F6FD143
:1008500000BFDFF8E481D8F8188048F00108DFF81D
:10086000D891C9F81880C846D8F8188008F001084F
:10087000CDF8008000BF00BF4FEAB9384FEA9309B6
:1008800058F829504FEA83784FEA18794FF00F084B
:1008900008FA09F825EA0805DFF8A081424502D1E7
:1008A0004FF0000824E0DFF89881424502D14FF074
:1008B00001081DE0DFF88C81424502D14FF00208AB
:1008C00016E0DFF88481424502D14FF003080FE0C3
:1008D000DFF87881424502D14FF0040808E0DFF8E4
:1008E0007081424502D14FF0050801E04FF0060843
:1008F0004FEA83794FEA197908FA09F848EA0505B9
:10090000DFF850814FEA930948F82950D1F8048064
:1009100008F48038B8F5803F0BD1DFF83C81D8F877
:10092000008048EA0008DFF83091C9F800800AE04A
:1009300075E0DFF82481D8F8008028EA0008DFF8A5
:100940001891C9F80080D1F8048008F40038B8F58F
:10095000003F0ED1DFF8008108F10408D8F80080CC
:1009600048EA0008DFF8F09009F10409C9F80080AE
:100970000DE0DFF8E48008F10408D8F8008028EAE8
:100980000008DFF8D49009F10409C9F80080D1F813
:10099000048008F48018B8F5801F0ED1DFF8B88005
:1009A00008F10808D8F8008048EA0008DFF8A890A5
:1009B00009F10809C9F800800DE0DFF89C8008F112
:1009C0000808D8F8008028EA0008DFF88C9009F1C0
:1009D0000809C9F80080D1F8048008F40018B8F5B7
:1009E000001F0ED1DFF8708008F10C08D8F80080E5
:1009F00048EA0008DFF8609009F10C09C9F80080A6
:100A00000DE0DFF8548008F10C08D8F8008028EADF
:100A10000008DFF8449009F10C09C9F800805B1C5C
:100A2000D1F8008028FA03F8B8F1000F7FF47CAE0B
:100A3000BDE8F887000011100010024000080140D6
:100A4000000C01400010014000140140001801405A
:100A5000001C014008000140000401400246936868
:100A60000B400BB1012000E00020704710B5C268B8
:100A700021EA020302EA010443EA0443036110BDD0
:100A80000AB1016101E00B0403617047014800688D
:100A9000704700001000002010B50848006840F0C2
:100AA000100006490860052000F080F80F2000F0D3
:100AB00007F800F02BF8002010BD000000200240D5
:100AC00070B504460E4800784FF47A71B1FBF0F02F
:100AD0000C490968B1FBF0F5284600F073FC08B139
:100AE000012070BD102C07D200222146501E00F0BC
:100AF0001EF80548046001E00120F2E70020F0E75D
:100B0000180000200000002014000020704701465B
:100B10000846002809DB00F01F0301229A40430920
:100B20009B0003F1E023C3F8002100BF70472DE9CB
:100B3000F05F80460D461646002700F071FF07461D
:100B400039462A46334601F00700C0F1070ABAF1D8
:100B5000040F02D94FF0040A01E0C0F1070AD146A0
:100B600000F1040ABAF1070F02D24FF0000A01E0C7
:100B7000A0F1030AD4464FF0010A0AFA09FAAAF1D1
:100B8000010A0AEA020A0AFA0CFA4FF0010B0BFA00
:100B90000CFBABF1010B0BEA030B4AEA0B042146F9
:100BA000404600F045FFBDE8F09F000000BF00F0A8
:100BB0000702064B19684FF6FF031940044B0B431D
:100BC00043EA0221014B196000BF70470CED00E0C1
:100BD0000000FA0570B504460D460CB9012070BD41
:100BE0005A48006800F00700A8420ED25748006833
:100BF00020F007002843554908600846006800F0C7
:100C00000700A84201D00120E9E7207800F00200A7
:100C100002281DD1207800F00400042805D14C489A
:100C2000406840F4E0604A494860207800F00800DD
:100C3000082805D14648406840F46050444948605F
:100C40004348406820F0F000A168084340494860EC
:100C5000207800F0010078B36068012806D13C4894
:100C6000006800F4003090B90120B8E760680228FD
:100C700006D13748006800F0007040B90120AEE7A7
:100C80003348006800F0020008B90120A7E73048A7
:100C9000406820F00300616808432D494860FFF771
:100CA000F5FE064609E0FFF7F1FE801B41F28831B0
:100CB000884202D9032092E707E02548406800F007
:100CC0000C006168B0EB810FEDD12048006800F0A6
:100CD0000700A8420ED91D48006820F007002843ED
:100CE0001A4908600846006800F00700A84201D0D1
:100CF000012074E7207800F00400042807D114488C
:100D0000406820F4E060E1680843114948602078B9
:100D100000F00800082808D10D48406820F4605011
:100D2000216940EAC1000A49486000F03FF80849DB
:100D30004968C1F30311074A515CC840064908607D
:100D400006480068FFF7BCFE002048E7002002408C
:100D500000100240645C0008000000201400002025
:100D600001480068704700000000002000B5FFF750
:100D7000F7FF04494968C1F30221034A515CC840A6
:100D800000BD000000100240745C000800B5FFF7D1
:100D9000E7FF04494968C1F3C221034A515CC840D6
:100DA00000BD000000100240745C0008F0B585B082
:100DB0000FF26C0C9CE8E01001A8A0E8E0101CA564
:100DC0002D68009500210022002300240020194DE9
:100DD000696801F00C05F5B1042D02D0082D19D178
:100DE00001E0154819E001ADC1F38346AC5D01F4A3
:100DF000803555B10F4D6D68C5F340451DF8052090
:100E00000D4D6543B5FBF2F302E00C4D04FB05F319
:100E1000184602E000BF084800BF00BF05B0F0BDA3
:100E200002030405060708090A0B0C0D0E0F10102B
:100E3000010200000010024000127A0000093D008B
:100E4000F8B504460CB90120F8BD207800F0010087
:100E5000002878D0F848406800F00C0004280CD036
:100E6000F548406800F00C00082811D1F2484068AD
:100E700000F48030B0F5803F0AD1EF48006800F4FC
:100E8000003000285FD0606800285CD10120DBE7DB
:100E900000BF6068B0F5803F06D1E748006840F4C5
:100EA0008030E549086028E0606858B9E248006889
:100EB00020F48030E04908600846006820F4802073
:100EC00008601AE06068B0F5A02F0BD1DA4800681E
:100ED00040F48020D84908600846006840F480301B
:100EE00008600AE0D448006820F48030D2490860E5
:100EF0000846006820F48020086000BF606888B160
:100F0000FFF7C4FD054606E0FFF7C0FD401B64285F
:100F100001D9032098E7C848006800F40030002891
:100F2000F2D010E0FFF7B2FD054606E0FFF7AEFD98
:100F3000401B642801D9032086E7BF48006800F4FD
:100F400000300028F2D1207800F00200022857D1AA
:100F5000B948406800F00C0050B1B748406800F054
:100F60000C00082818D1B448406800F4803098B9C3
:100F7000B148006800F0020020B12069012801D0CA
:100F8000012061E7AC48006820F0F800616940EAA0
:100F9000C100A949086033E02069E8B10120A749F0
:100FA0000860FFF773FD054606E0FFF76FFD401B85
:100FB000022801D9032047E79F48006800F002009B
:100FC0000028F2D09C48006820F0F800616940EAEF
:100FD000C1009949086013E0002098490860FFF7B4
:100FE00055FD054606E0FFF751FD401B022801D9DB
:100FF000032029E79048006800F002000028F2D1A1
:10100000207800F0080008282DD1A069B8B101208F
:101010008B490860FFF73AFD054606E0FFF736FD0D
:10102000401B022801D903200EE78348406A00F0E4
:1010300002000028F2D0012000F0AAFB13E00020FB
:101040007F490860FFF722FD054606E0FFF71EFD19
:10105000401B022801D90320F6E67748406A00F0D9
:1010600002000028F2D1207800F00400042873D197
:1010700000277148C06900F0805070B900BF6E4809
:10108000C06940F080506C49C8610846C06900F0F2
:101090008050009000BF00BF01276A48006800F43C
:1010A0008070B0B96748006840F480706549086096
:1010B000FFF7ECFC054606E0FFF7E8FC401B642860
:1010C00001D90320C0E65F48006800F48070002862
:1010D000F2D000BFE068012806D15748006A40F00E
:1010E00001005549086227E0E06858B95248006A93
:1010F00020F00100504908620846006A20F0040010
:10110000086219E0E06805280BD14B48006A40F0FE
:101110000400494908620846006A40F0010008627C
:101120000AE04548006A20F0010043490862084689
:10113000006A20F00400086200BFE068A0B1FFF779
:10114000A5FC054609E0FFF7A1FC401B41F28831F0
:10115000884202D9032077E622E03748006A00F08F
:1011600002000028EFD012E0FFF790FC054608E0EF
:10117000FFF78CFC401B41F28831884201D90320E3
:1011800062E62D48006A00F002000028F0D1012F2D
:1011900005D12948C06920F080502749C86100BFA7
:1011A000E069C8B32448406800F00C00082860D00B
:1011B000E069022848D1002020490866FFF766FC54
:1011C000054606E0FFF762FC401B022801D9032018
:1011D0003AE61948006800F000700028F2D1206A51
:1011E000B0F5803F07D11448406820F40030A16872
:1011F000084311494860D4E9080108430E49496889
:1012000021F4741108430C49486001200B49086619
:10121000FFF73CFC054607E03DE0FFF737FC401BCD
:10122000022801D903200FE60348006800F000708F
:101230000028F2D02FE000000010024000004242DF
:101240008004424200700040002014490866FFF705
:101250001DFC054606E0FFF719FC401B022801D9DA
:101260000320F1E50E48006800F000700028F2D17C
:1012700011E0E069012800D1E6E50948466806F476
:101280008031206A814204D106F47011606A814283
:1012900001D00120D8E50020D6E500000000424240
:1012A0000010024070B504460E4615461CB1A069F8
:1012B000B0F5807F01D1012070BD94F8410028B9BC
:1012C000002084F84000204600F020F804F10801D6
:1012D0002068FFF7F1F83146A2682068FFF728F987
:1012E0002946236BD4E90102FFF7C4F8A1682068FE
:1012F00050F8210040F00100A268216841F8220066
:10130000012084F841000020D6E7000010B586B027
:10131000044600BF1E48406940F480701C49486183
:101320000846406900F48070019000BF00BF00BF14
:101330000846806940F0200088610846806900F016
:101340002000019000BF00BF00BF0846806940F048
:10135000400088610846806900F04000019000BFAD
:1013600000BF4CF203700290022003900120049011
:101370000320059002A90748FFF7D0F94FF68070C7
:10138000029002A90448FFF7C9F906B010BD000099
:10139000001002400014014000180140042808D148
:1013A0004FF0E021096941F004014FF0E0221161A2
:1013B00007E04FF0E021096921F004014FF0E0223D
:1013C0001161704770B504462546681EB0F1807FF4
:1013D00001D301200FE0681E4FF0E02148610F218A
:1013E0004FF0FF3000F024FB00204FF0E021886137
:1013F00007200861002070BD704700002DE9F0470C
:101400000446206805682068C668206847694FF070
:101410000008C14605F00F08B8F1000F0AD105F029
:10142000200038B106F0200020B1204600F0F0F98D
:10143000BDE8F087B8F1000F71D007F0010018B9CE
:1014400006F4907000286AD005F0010030B106F46F
:10145000807018B1E06B40F00100E06305F004001B
:1014600030B107F0010018B1E06B40F00200E0631A
:1014700005F0020030B107F0010018B1E06B40F058
:101480000400E06305F0080048B106F0200010B940
:1014900007F0010018B1E06B40F00800E063E06B7A
:1014A00068B305F0200028B106F0200010B12046F6
:1014B00000F0AEF920684069C0F38019E06B00F0DD
:1014C000080010B9B9F1000F22D0204600F080F9D1
:1014D0002068406900F04000B0B12068406920F009
:1014E000400021684861606B50B11848616B4863E7
:1014F000606BFFF73FF810B1606B416B88470CE001
:101500002046FFF779FF08E02046FFF775FF04E06B
:101510002046FFF771FF0020E06389E7FFE705F051
:10152000800030B106F0800018B1204600F03EFA8D
:101530007EE705F0400030B106F0400018B12046CB
:1015400000F056F974E700BF72E70000BD1700080D
:1015500010B504460CB9012010BDA06900B100E02F
:1015600000BF94F8390028B9002084F838002046DC
:1015700000F028F8242084F839002068C06820F49E
:1015800000502168C860204600F092F92068006988
:1015900020F49040216808612068406920F02A000A
:1015A000216848612068C06840F400502168C86024
:1015B0000020E063202084F8390084F83A000020FD
:1015C000CAE7000010B586B0044628492068884262
:1015D0004AD100BF00BF2648806940F0040024497A
:1015E00088610846806900F00400019000BF00BFD8
:1015F00000BF00BF00BF0846806940F0040088615A
:101600000846806900F00400019000BF00BF00BFE1
:1016100000BF00BF0846806940F4804088610846EA
:10162000806900F48040019000BF00BF00BF4815F2
:10163000029002200390012004900320059002A94B
:101640000C48FFF76BF84FF4806002900020039085
:1016500002A90848FFF762F82520FFF758FA03228D
:1016600011462520FFF763FA06B010BD003801408F
:10167000001002400008014010B5034693F83A00FC
:1016800020282FD101B10AB9012010BD00BF93F865
:101690003800012801D10220F7E7012083F8380043
:1016A00000BF99629A85DA850020D863222083F8EA
:1016B0003A0000BF002083F8380000BF1868C068F7
:1016C00040F480701C68E0601868406940F00100D8
:1016D0001C6860611868C06840F020001C68E06009
:1016E0000020D2E70220D0E710B504462049206848
:1016F00088423BD11F48008800F4004088BB1D4849
:10170000008800F4804070B11B4800780A2803D09C
:1017100000201849088024E01648008840F4004062
:10172000144908801DE0144800780D2806D111489E
:10173000008840F480400F49088012E00E4800788D
:101740000C490988C1F30D010C4A5054094800881E
:10175000401C0849088008460088C72801DD002091
:101760000880012204490648FFF786FF10BD0000EB
:10177000003801400C0000200E0000200C01002069
:10178000D4010020704700BFFEE700BFFEE77047AE
:1017900008B508490968C9084FF47A72B1FBF2F13B
:1017A0004143009100BF00BF00994A1E00920029EA
:1017B000F9D108BD000000207047704770B505469C
:1017C0006C6A0020E085E0842046FFF715FE70BDBE
:1017D0000168C96821F490710268D16001684969A3
:1017E00021F0010102685161202180F83A10704710
:1017F00010B504462068C06820F040002168C86029
:10180000202084F839002046FFF7BCFF002010BDDF
:1018100070B5044694F83A00222847D1A068B0F584
:10182000805F0CD1206950B90025A66A2068406805
:10183000C0F308003080A06A801CA06215E0A56A91
:101840000026A068B0F5805F03D0A06828B92069A1
:1018500018B920684068287004E02068406800F0EB
:101860007F002870A06A401CA062E08D401E80B2FC
:10187000E085C8B92068C06820F020002168C860F1
:101880002068C06820F480702168C86020684069C2
:1018900020F0010021684861202084F83A002046A9
:1018A000FFF722FF002070BD0020FCE70220FAE7CE
:1018B00070B504462168096921F44051E26811437A
:1018C000226811612269A1681143626941EA020537
:1018D0002168C96841F20C62914329432268D160B2
:1018E0002168496921F44071A2691143226851615C
:1018F0002D4A2168914202D1FFF748FA01E0FFF733
:1019000035FA00EBC00101EB001162689200B1FBF7
:10191000F2F100EBC00202EB001263689B00B2FB25
:10192000F3F26423B2FBF3F202EBC20303EB021205
:10193000A1EB8201322202EB01116422B1FBF2F130
:1019400001F0F00100EBC00202EB001263689B00A3
:10195000B2FBF3F26423B2FBF3F201EB021200EBF1
:10196000C00101EB001163689B00B1FBF3F100EBD8
:10197000C00303EB00136668B600B3FBF6F36426FE
:10198000B3FBF6F303EBC30606EB0313A1EB8301F2
:10199000322303EB01116423B1FBF3F101F00F01DA
:1019A00011442268916070BD00380140014691F8F1
:1019B0003900212828D18868B0F5805F0BD10869EB
:1019C00048B90A6A1088C0F308000B685860086AB2
:1019D000801C086205E00B6A581C086218780B68C6
:1019E0005860C88C401E80B2C88458B90868C06866
:1019F00020F080000B68D8600868C06840F04000A4
:101A00000B68D860002070470220FCE710B5024840
:101A1000FFF7F4FC10BD0000D401002000BFFEE77A
:101A200002480068C0F30220704700000CED00E09F
:101A300010B5002804DB0A07130E054A135406E00C
:101A40000A07140E034A00F00F031B1FD45410BDE5
:101A500000E400E018ED00E000BF704738B5044630
:101A60000CB9022038BD002000F06AFA6A46432112
:101A7000732000F05AFA05460DF10102442173204B
:101A800000F053FA2844C5B20DB10120EAE7BDF8D1
:101A9000000010281FD008DC012810D0022811D027
:101AA000042812D0082825D112E0202816D040287A
:101AB00017D0802818D0B0F5807F1BD117E0002008
:101AC000207019E00120207016E00220207013E041
:101AD0000320207010E0042020700DE0052020700D
:101AE0000AE00620207007E00720207004E00820AC
:101AF000207001E00120B5E700BF0020B2E708B583
:101B0000002000F01DFA6A460021732000F00DFA53
:101B10009DF80000202801D0012008BD0020FCE72E
:101B200010B500BF00224FF400611148FEF7A8FF76
:101B300000BF00F01FF800BF012291020C48FEF721
:101B40009FFF00BF00F016F800BF00224FF4806135
:101B50000748FEF795FF00BF00F00CF800BF012218
:101B6000D1020348FEF78CFF00BF00F003F810BD60
:101B7000000C014010B5022000F066FA10BD000014
:101B800000B585B00020019002900390049000BF42
:101B900000BF1A48806940F008001849886108466B
:101BA000806900F00800009000BF00BF00BF00BFC8
:101BB00000BF0846806940F00800886108468069D7
:101BC00000F00800009000BF00BF00BF08150190A2
:101BD0000120029003900320049001A90848FEF719
:101BE0009DFD4FF4006001901120029001A904486E
:101BF000FEF794FD00F0B6F805B000BD00100240FD
:101C0000000C014010B500BF0122D1020C48FEF7C4
:101C100037FF00BFFFF7AEFF00BF01229102084867
:101C2000FEF72EFF00BFFFF7A5FF00BF00224FF415
:101C300080610348FEF724FF00BFFFF79BFF10BD44
:101C4000000C014070B50546002400261EE0600629
:101C5000040E00BF012291021148FEF711FF00BFE0
:101C6000FFF788FF4FF400610D48FEF7F7FE08B15B
:101C7000601CC4B200BF00224FF480610848FEF728
:101C8000FFFE00BFFFF776FF701CC6B2082EDEDB3A
:101C900015B9FFF7B7FF01E0FFF742FF204670BD1F
:101CA000000C014070B50446002526E000BFE009A5
:101CB00028B10122D1021648FEF7E2FE05E000221B
:101CC0004FF400611248FEF7DBFE00BFFFF752FF42
:101CD00000BF012291020E48FEF7D2FE00BFFFF7BF
:101CE00049FF00BF00224FF480610948FEF7C8FE9B
:101CF00000BF6006040E681CC5B2082DD6DB00BF0D
:101D00000122D1020248FEF7BBFE00BF70BD0000F9
:101D1000000C014010B500BF0122D1021048FEF7AF
:101D2000AFFE00BF00BF012291020D48FEF7A8FEE2
:101D300000BFFFF71FFF00BF00224FF400610848FB
:101D4000FEF79EFE00BFFFF715FF00BF00224FF415
:101D500080610348FEF794FE00BFFFF70BFF10BD44
:101D6000000C014010B500BF00224FF400610C4888
:101D7000FEF786FE00BFFFF7FDFE00BF01229102C5
:101D80000748FEF77DFE00BFFFF7F4FE00BF01220B
:101D9000D1020348FEF774FE00BFFFF7EBFE10BD53
:101DA000000C014070B50024002500BF0122D102C3
:101DB0001548FEF765FE00BFFFF7DCFE00BF0122FD
:101DC00091021148FEF75CFE00BFFFF7D3FE07E06B
:101DD000601CC4B2FA2C03DDFFF7C4FF012506E046
:101DE0004FF400610848FEF739FE0028F0D100BF2B
:101DF00000BF00224FF480610348FEF741FE00BFA0
:101E0000FFF7B8FE284670BD000C014010B5012058
:101E100000F0FEF8FFF7B4FEFFF771FE04460CB1C8
:101E2000012010BD00F002F80020FAE710B50024F0
:101E30000BE0074800EB44004278054810F8141006
:101E4000732000F0C6F8601CC4B2332CF1D310BD6F
:101E5000240000202DE9F041074617B1012F06D1DB
:101E600002E00D4D232605E00C4D1E2602E0022067
:101E7000BDE8F08100BF002409E005EB4400427892
:101E800015F81410732000F0A4F8601CC4B2B4421A
:101E9000F3DB0020ECE700008A000020D0000020E7
:101EA0002DE9F04105460F4614461E46FFF732FF66
:101EB000002141EA4501C8B2FFF7F4FEFFF772FFC7
:101EC000012804D1FFF74EFF0320BDE8F08138461A
:101ED000FFF7E8FEFFF766FF012803D1FFF742FF97
:101EE0000320F2E7FFF716FF012101EB4501C8B21D
:101EF000FFF7D8FEFFF756FF012803D1FFF732FFA7
:101F00000320E2E70BE0012C01DD012100E00021CC
:101F10000846FFF797FE3070601EC4B2761C002C96
:101F2000F1D1FFF71FFF0020CFE770B505460E4641
:101F300014462346012231462846FFF7B1FF70BD03
:101F400010B5044614B1012C02D100E000BF00E03E
:101F500010BD00BF2246EF21732000F03AF800BF09
:101F6000F6E72DE9F04105460E4617469846FFF77D
:101F7000D1FE002141EA4501C8B2FFF793FEFFF709
:101F800011FF012804D1FFF7EDFE0320BDE8F08129
:101F90003046FFF787FEFFF705FF012803D1FFF763
:101FA000E1FE0320F2E700240DE018F80400FFF73B
:101FB00079FEFFF7F7FE012803D1FFF7D3FE0320D8
:101FC000E4E7601CC4B2BC42EFDBFFF7CBFE0020AD
:101FD000DCE737B504460D4602AB01222946204610
:101FE000FFF7BFFF3EBD000010B5044600204FF0D4
:101FF000E0210861FFF7D2F92046E11704EB5171A7
:10200000C1F3CF01014A118010BD0000040000207F
:1020100070B504464FF47A7094FBF0F594FBF0F140
:1020200000FB114603E0074800F00EF86D1E002D7E
:10203000F9D12EB14FF47A7106FB01F000F004F8EB
:1020400070BD000040420F000146114A12884A4309
:102050004FF0E0235A6100229A611A46126942F059
:1020600001021A6100BF4FF0E022106900F0010286
:102070001AB100F48032002AF5D04FF0E022126944
:1020800022F001024FF0E0231A6100229A617047AA
:102090000400002008B5FFF7B9FE04466CB12EA07D
:1020A000FEF7BAF808E000BF20213248FEF7DEFC58
:1020B00000BFC820FFF7ACFFF5E70120FFF7CAFE1D
:1020C00004466CB12CA0FEF7A7F808E000BF202161
:1020D0002848FEF7CBFC00BFC820FFF799FFF5E7C3
:1020E0002CA0FEF799F836E06846FFF7B7FC0446E7
:1020F000002C30D19DF8000009282AD2DFE800F03A
:1021000005090D1115191D2125002AA0FEF784F8D7
:1021100020E02CA0FEF780F81CE02EA0FEF77CF853
:1021200018E030A0FEF778F814E033A0FEF774F85A
:1021300010E036A0FEF770F80CE039A0FEF76CF85E
:1021400008E03DA0FEF768F804E042A0FEF764F85E
:1021500000E000BF00BFC7E741544B2D4D53373659
:10216000323020696E6974206661696C6564210D86
:102170000A000000000C014041544B5F4D533736BC
:10218000323020636F6E666967206661696C6564D2
:10219000210D0A0041544B2D4D5337363230206308
:1021A0006F6E666967207375636365646465642137
:1021B0000D0A0000476573747572653A2055700DFD
:1021C0000A000000476573747572653A20446F77A2
:1021D0006E0D0A00476573747572653A204C65662A
:1021E000740D0A00476573747572653A2052696709
:1021F00068740D0A00000000476573747572653AD3
:1022000020466F72776172640D0A0000476573742F
:102210007572653A204261636B776172640D0A00E2
:10222000476573747572653A20436C6F636B7769A9
:1022300073650D0A00000000476573747572653A96
:1022400020416E7469636C6F636B776973650D0A07
:1022500000000000476573747572653A2057617617
:10226000650D0A0000BF054A126802F04002002A0C
:10227000F9D0C2B2014B1B1D1A60704700380140F3
:1022800000B585B000BF00BF3648806940F040000F
:10229000344988610846806900F04000009000BF22
:1022A00000BF00BF00BF00BF0846806940F040008B
:1022B00088610846806900F04000009000BF00BFC0
:1022C00000BF00BF00BF0846806940F04000886141
:1022D0000846806900F04000009000BF00BF00BFCA
:1022E00000BF00BF0846806940F0040088610846CE
:1022F000806900F00400009000BF00BF00BF102004
:10230000019000200290012003900320049001A975
:102310001548FEF703FA08200190002002900120E2
:1023200003900320049001A90F48FEF7F7F9042059
:10233000019000200290012003900320049001A945
:102340000948FEF7EBF901200190002002900220DD
:1023500003900320049001A90448FEF7DFF905B0BB
:1023600000BD0000001002400018014000080140BC
:1023700070B5044600260948058840884543002179
:10238000084603F055F803F0FBF900BF02E00448EB
:102390000480761CAE42FAD370BD00005C020020BF
:1023A0000008006C10B5044658488471002C58D1C0
:1023B000F020564908804FF4A07048800846808875
:1023C00045F21051884210D14FF430504F490881E6
:1023D0004FF4285048814FF42C5088814FF4F0700E
:1023E00008804FF4487048801AE04848808841F6D9
:1023F000631188420DD12C20444908812B2048814B
:102400002A2088814FF4F07008804FF4487048808B
:1024100006E02C203D4908812A2048812B20888114
:102420003A48808845F21031884205D03748808884
:1024300047F29671884206D14FF4A0703349088064
:102440004FF4F07048803148808849F60601884290
:1024500058D14FF4F0702D4908804FF448704880EF
:1024600050E04FF4A07029490880F02048800846C9
:10247000808845F21051884210D14FF430502349E2
:1024800008814FF4285048814FF42C5088814FF434
:10249000487008804FF4F070488020E01B48808826
:1024A00041F66311884205D01848808849F6060134
:1024B00088420DD12C20154908812A2048812B20E3
:1024C00088814FF4487008804FF4F070488006E02F
:1024D0002C200E4908812A2048812B2088810B4816
:1024E000808845F21031884205D00848808847F23C
:1024F0009671884206D14FF4F070044908804FF479
:10250000A0704880002002F075FE10BD5C02002023
:1025100070B505460E4614463146284602F088FF3F
:1025200003F02EF901490C8070BD00000008006C1A
:1025300010B5CF2003F018F9002003F009F9C120ED
:1025400003F006F9302003F003F9ED2003F00CF955
:10255000642003F0FDF8032003F0FAF8122003F0E2
:10256000F7F8812003F0F4F8E82003F0FDF8852067
:1025700003F0EEF8102003F0EBF87A2003F0E8F80F
:10258000CB2003F0F1F8392003F0E2F82C2003F01F
:10259000DFF8002003F0DCF8342003F0D9F8022043
:1025A00003F0D6F8F72003F0DFF8202003F0D0F88E
:1025B000EA2003F0D9F8002003F0CAF8002003F065
:1025C000C7F8C02003F0D0F81B2003F0C1F8C120E9
:1025D00003F0CAF8012003F0BBF8C52003F0C4F8EB
:1025E000302003F0B5F8302003F0B2F8C72003F034
:1025F000BBF8B72003F0ACF8362003F0B5F848205C
:1026000003F0A6F83A2003F0AFF8552003F0A0F845
:10261000B12003F0A9F8002003F09AF81A2003F083
:1026200097F8B62003F0A0F80A2003F091F8A22052
:1026300003F08EF8F22003F097F8002003F088F8FA
:10264000262003F091F8012003F082F8E02003F047
:102650008BF80F2003F07CF82A2003F079F828206B
:1026600003F076F8082003F073F80E2003F070F8FA
:10267000082003F06DF8542003F06AF8A92003F055
:1026800067F8432003F064F80A2003F061F80F2094
:1026900003F05EF8002003F05BF8002003F058F828
:1026A000002003F055F8002003F052F8E12003F079
:1026B0005BF8002003F04CF8152003F049F81720D0
:1026C00003F046F8072003F043F8112003F040F828
:1026D000062003F03DF82B2003F03AF8562003F0D3
:1026E00037F83C2003F034F8052003F031F81020CF
:1026F00003F02EF80F2003F02BF83F2003F028F80A
:102700003F2003F025F80F2003F022F82B2003F0E0
:102710002BF8002003F01CF8002003F019F801202A
:1027200003F016F83F2003F013F82A2003F01CF8FA
:10273000002003F00DF8002003F00AF8002003F059
:1027400007F8EF2003F004F8112003F00DF87820CB
:10275000FFF75EFC292003F007F810BD10B5FF203D
:1027600003F002F8FF2002F0F3FF982002F0F0FFE0
:10277000062002F0EDFFBC2002F0F6FF012002F07F
:10278000E7FF0F2002F0E4FF612002F0E1FFFF20ED
:1027900002F0DEFF012002F0DBFF012002F0D8FF93
:1027A0000B2002F0D5FF102002F0D2FF372002F0FC
:1027B000CFFF632002F0CCFFFF2002F0C9FFFF2013
:1027C00002F0C6FF012002F0C3FF012002F0C0FFAB
:1027D000002002F0BDFF002002F0BAFFFF2002F04F
:1027E000B7FF522002F0B4FF012002F0B1FF002039
:1027F00002F0AEFF402002F0ABFFBD2002F0B4FFBC
:10280000012002F0A5FF232002F0A2FF452002F0E4
:102810009FFF672002F09CFF012002F099FF232018
:1028200002F096FF452002F093FF672002F090FF30
:10283000BE2002F099FF002002F08AFF012002F082
:1028400087FFAB2002F084FF602002F081FF22208E
:1028500002F07EFF222002F07BFF222002F078FFB0
:10286000222002F075FF222002F072FFC72002F042
:102870007BFF362002F06CFFED2002F075FF7F2019
:1028800002F066FF0F2002F063FFC02002F06CFF31
:102890000F2002F05DFF0B2002F05AFF0A2002F029
:1028A00057FFFC2002F060FF082002F051FFDF20FC
:1028B00002F05AFF002002F04BFF002002F048FF18
:1028C000002002F045FF002002F042FF002002F04D
:1028D0003FFF202002F03CFFF32002F045FF742070
:1028E00002F036FFB42002F03FFF002002F030FF7C
:1028F000002002F02DFF002002F02AFFF72002F056
:1029000033FF822002F024FFB12002F02DFF0020CF
:1029100002F01EFF132002F01BFF132002F018FF2D
:10292000F22002F021FF802002F012FF042002F0CA
:102930000FFF402002F00CFF282002F009FFC12009
:1029400002F012FF172002F003FF882002F000FFC0
:10295000882002F0FDFE202002F0FAFEE02002F0C6
:1029600003FF002002F0F4FE0A2002F0F1FE122024
:1029700002F0EEFE102002F0EBFE0E2002F0E8FE68
:10298000202002F0E5FECC2002F0E2FE072002F05B
:10299000DFFE062002F0DCFE0B2002F0D9FE0E2046
:1029A00002F0D6FE0F2002F0D3FE0D2002F0D0FE82
:1029B000152002F0CDFE102002F0CAFE002002F029
:1029C000C7FEE12002F0D0FE002002F0C1FE0B2085
:1029D00002F0BEFE132002F0BBFE0D2002F0B8FE96
:1029E0000E2002F0B5FE1B2002F0B2FE712002F0B4
:1029F000AFFE062002F0ACFE062002F0A9FE0A207F
:102A000002F0A6FE0F2002F0A3FE0E2002F0A0FEB0
:102A10000F2002F09DFE152002F09AFE0C2002F01D
:102A200097FE002002F094FE2A2002F09DFE002076
:102A300002F08EFE002002F08BFE012002F088FEE4
:102A4000DF2002F085FE2B2002F08EFE002002F037
:102A50007FFE002002F07CFE032002F079FE1F20A2
:102A600002F076FE3A2002F07FFE552002F070FE62
:102A7000362002F079FE002002F06AFE112002F0FA
:102A800073FE7820FFF7C4FA292002F06DFE1420AF
:102A9000FFF7BEFA2C2002F067FE10BD10B5ED2046
:102AA00002F062FE012002F053FEFE2002F050FE12
:102AB000EE2002F059FEDE2002F04AFE212002F054
:102AC00047FEF12002F050FE012002F041FEDF201F
:102AD00002F04AFE102002F03BFEC42002F044FE49
:102AE0008F2002F035FEC62002F03EFE002002F0EC
:102AF0002FFEE22002F02CFEE22002F029FEE2206E
:102B000002F026FEBF2002F02FFEAA2002F020FED7
:102B1000B02002F029FE0D2002F01AFE002002F083
:102B200017FE0D2002F014FE002002F011FE11200D
:102B300002F00EFE002002F00BFE192002F008FE4B
:102B4000002002F005FE212002F002FE002002F02B
:102B5000FFFD2D2002F0FCFD002002F0F9FD3D20DC
:102B600002F0F6FD002002F0F3FD5D2002F0F0FD22
:102B7000002002F0EDFD5D2002F0EAFD002002F0F1
:102B8000E7FDB12002F0F0FD802002F0E1FD002021
:102B900002F0DEFD8B2002F0DBFD002002F0D8FD0C
:102BA000962002F0D5FD002002F0D2FDB22002F006
:102BB000DBFD002002F0CCFD002002F0C9FD022068
:102BC00002F0C6FD002002F0C3FD032002F0C0FDAC
:102BD000002002F0BDFDB32002F0C6FD002002F08F
:102BE000B7FD002002F0B4FD002002F0B1FD00208E
:102BF00002F0AEFD002002F0ABFD002002F0A8FDC7
:102C0000002002F0A5FD002002F0A2FD002002F04D
:102C10009FFD002002F09CFD002002F099FD0020A5
:102C200002F096FD002002F093FD002002F090FDDE
:102C3000002002F08DFD002002F08AFD002002F04D
:102C400087FD002002F084FD002002F081FD0020BD
:102C500002F07EFD002002F07BFD002002F078FDF6
:102C6000002002F075FD002002F072FDB42002F099
:102C70007BFD8B2002F06CFD002002F069FD9620A8
:102C800002F066FD002002F063FDA12002F060FD6D
:102C9000002002F05DFDB52002F066FD022002F08A
:102CA00057FD002002F054FD032002F051FD0020EA
:102CB00002F04EFD042002F04BFD002002F048FD22
:102CC000B62002F051FD002002F042FD002002F08B
:102CD0003FFDB72002F048FD002002F039FD002042
:102CE00002F036FD3F2002F033FD002002F030FDFF
:102CF0005E2002F02DFD002002F02AFD642002F08B
:102D000027FD002002F024FD8C2002F021FD002090
:102D100002F01EFDAC2002F01BFD002002F018FDA9
:102D2000DC2002F015FD002002F012FD702002F000
:102D30000FFD002002F00CFD902002F009FD0020A4
:102D400002F006FDEB2002F003FD002002F000FD82
:102D5000DC2002F0FDFC002002F0FAFCB82002F0BA
:102D600003FD002002F0F4FC002002F0F1FC002042
:102D700002F0EEFC002002F0EBFC002002F0E8FC88
:102D8000002002F0E5FC002002F0E2FC002002F04E
:102D9000DFFCBA2002F0E8FC242002F0D9FC00207D
:102DA00002F0D6FC002002F0D3FC002002F0D0FCA0
:102DB000C12002F0D9FC202002F0CAFC002002F061
:102DC000C7FC542002F0C4FC002002F0C1FCFF202C
:102DD00002F0BEFC002002F0BBFCC22002F0C4FCEA
:102DE0000A2002F0B5FC002002F0B2FC042002F040
:102DF000AFFC002002F0ACFCC32002F0B5FC3C208C
:102E000002F0A6FC002002F0A3FC3A2002F0A0FC95
:102E1000002002F09DFC392002F09AFC002002F014
:102E200097FC372002F094FC002002F091FC3C203B
:102E300002F08EFC002002F08BFC362002F088FCB1
:102E4000002002F085FC322002F082FC002002F01B
:102E50007FFC2F2002F07CFC002002F079FC2C206B
:102E600002F076FC002002F073FC292002F070FCD6
:102E7000002002F06DFC262002F06AFC002002F027
:102E800067FC242002F064FC002002F061FC242096
:102E900002F05EFC002002F05BFC232002F058FCF4
:102EA000002002F055FC3C2002F052FC002002F011
:102EB0004FFC362002F04CFC002002F049FC32208E
:102EC00002F046FC002002F043FC2F2002F040FC00
:102ED000002002F03DFC2C2002F03AFC002002F021
:102EE00037FC292002F034FC002002F031FC2620BF
:102EF00002F02EFC002002F02BFC242002F028FC23
:102F0000002002F025FC242002F022FC002002F028
:102F10001FFC232002F01CFC002002F019FCC4203E
:102F200002F022FC622002F013FC002002F010FCF0
:102F3000052002F00DFC002002F00AFC842002F0C3
:102F400007FC002002F004FCF02002F001FC00204D
:102F500002F0FEFB182002F0FBFB002002F0F8FB61
:102F6000A42002F0F5FB002002F0F2FB182002F092
:102F7000EFFB002002F0ECFB502002F0E9FB002008
:102F800002F0E6FB0C2002F0E3FB002002F0E0FB85
:102F9000172002F0DDFB002002F0DAFB952002F0A2
:102FA000D7FB002002F0D4FBF32002F0D1FB00207D
:102FB00002F0CEFBE62002F0CBFB002002F0C8FBC3
:102FC000C52002F0D1FB322002F0C2FB002002F04B
:102FD000BFFB442002F0BCFB002002F0B9FB6520DF
:102FE00002F0B6FB002002F0B3FB762002F0B0FB4B
:102FF000002002F0ADFB882002F0AAFB002002F0C6
:10300000A7FBC62002F0B0FB202002F0A1FB0020AD
:1030100002F09EFB172002F09BFB002002F098FBC1
:10302000012002F095FB002002F092FBC72002F085
:103030009BFB002002F08CFB002002F089FB0020AB
:1030400002F086FB002002F083FBC82002F08CFB1C
:10305000002002F07DFB002002F07AFB002002F04D
:1030600077FB002002F074FBC92002F07DFB0020FA
:1030700002F06EFB002002F06BFB002002F068FB08
:10308000002002F065FB002002F062FB002002F04D
:103090005FFB002002F05CFB002002F059FB0020E7
:1030A00002F056FB002002F053FB002002F050FB20
:1030B000002002F04DFB002002F04AFB002002F04D
:1030C00047FB002002F044FB002002F041FBE0201F
:1030D00002F04AFB162002F03BFB002002F038FB16
:1030E0001C2002F035FB002002F032FB212002F010
:1030F0002FFB002002F02CFB362002F029FB0020E1
:1031000002F026FB462002F023FB002002F020FB09
:10311000522002F01DFB002002F01AFB642002F096
:1031200017FB002002F014FB7A2002F011FB0020B4
:1031300002F00EFB8B2002F00BFB002002F008FBDC
:10314000992002F005FB002002F002FBA82002F00B
:10315000FFFA002002F0FCFAB92002F0F9FA002090
:1031600002F0F6FAC42002F0F3FA002002F0F0FABE
:10317000CA2002F0EDFA002002F0EAFAD22002F0B2
:10318000E7FA002002F0E4FAD92002F0E1FA002088
:1031900002F0DEFAE02002F0DBFA002002F0D8FABA
:1031A000F32002F0D5FA002002F0D2FAE12002F07A
:1031B000DBFA162002F0CCFA002002F0C9FA1C203B
:1031C00002F0C6FA002002F0C3FA222002F0C0FA90
:1031D000002002F0BDFA362002F0BAFA002002F018
:1031E000B7FA452002F0B4FA002002F0B1FA5220FA
:1031F00002F0AEFA002002F0ABFA642002F0A8FA66
:10320000002002F0A5FA7A2002F0A2FA002002F0D3
:103210009FFA8B2002F09CFA002002F099FA992084
:1032200002F096FA002002F093FAA82002F090FA39
:10323000002002F08DFAB92002F08AFA002002F094
:1032400087FAC42002F084FA002002F081FACA2032
:1032500002F07EFA002002F07BFAD22002F078FA27
:10326000002002F075FAD82002F072FA002002F075
:103270006FFAE02002F06CFA002002F069FAF32005
:1032800002F066FA002002F063FAE22002F06CFA23
:10329000052002F05DFA002002F05AFA0B2002F03D
:1032A00057FA002002F054FA1B2002F051FA0020D5
:1032B00002F04EFA342002F04BFA002002F048FAF5
:1032C000442002F045FA002002F042FA4F2002F0BA
:1032D0003FFA002002F03CFA612002F039FA0020A7
:1032E00002F036FA792002F033FA002002F030FAC8
:1032F000882002F02DFA002002F02AFA972002F02E
:1033000027FA002002F024FAA62002F021FA002079
:1033100002F01EFAB72002F01BFA002002F018FAA1
:10332000C22002F015FA002002F012FAC72002F0C3
:103330000FFA002002F00CFAD12002F009FA002066
:1033400002F006FAD62002F003FA002002F000FA9A
:10335000DD2002F0FDF9002002F0FAF9F32002F07E
:10336000F7F9002002F0F4F9E32002F0FDF905205E
:1033700002F0EEF9002002F0EBF90A2002F0E8F981
:10338000002002F0E5F91C2002F0E2F9002002F032
:10339000DFF9332002F0DCF9002002F0D9F94420F3
:1033A00002F0D6F9002002F0D3F9502002F0D0F953
:1033B000002002F0CDF9622002F0CAF9002002F0EC
:1033C000C7F9782002F0C4F9002002F0C1F9882082
:1033D00002F0BEF9002002F0BBF9972002F0B8F924
:1033E000002002F0B5F9A62002F0B2F9002002F0A8
:1033F000AFF9B72002F0ACF9002002F0A9F9C22021
:1034000002F0A6F9002002F0A3F9C72002F0A0F90B
:10341000002002F09DF9D12002F09AF9002002F07C
:1034200097F9D52002F094F9002002F091F9DD20FF
:1034300002F08EF9002002F08BF9F32002F088F9F7
:10344000002002F085F9E42002F08EF9012002F05C
:103450007FF9002002F07CF9012002F079F90020C8
:1034600002F076F9022002F073F9002002F070F900
:103470002A2002F06DF9002002F06AF93C2002F0E7
:1034800067F9002002F064F94B2002F061F9002096
:1034900002F05EF95D2002F05BF9002002F058F9BD
:1034A000742002F055F9002002F052F9842002F055
:1034B0004FF9002002F04CF9932002F049F9002066
:1034C00002F046F9A22002F043F9002002F040F990
:1034D000B32002F03DF9002002F03AF9BE2002F0DC
:1034E00037F9002002F034F9C42002F031F900204D
:1034F00002F02EF9CD2002F02BF9002002F028F97D
:10350000D32002F025F9002002F022F9DD2002F09C
:103510001FF9002002F01CF9F32002F019F9002035
:1035200002F016F9E52002F01FF9002002F010F970
:10353000002002F00DF9002002F00AF9002002F04C
:1035400007F9022002F004F9002002F001F9292015
:1035500002F0FEF8002002F0FBF83C2002F0F8F840
:10356000002002F0F5F84B2002F0F2F8002002F003
:10357000EFF85D2002F0ECF8002002F0E9F874208A
:1035800002F0E6F8002002F0E3F8842002F0E0F810
:10359000002002F0DDF8932002F0DAF8002002F0BB
:1035A000D7F8A22002F0D4F8002002F0D1F8B3201E
:1035B00002F0CEF8002002F0CBF8BE2002F0C8F8EE
:1035C000002002F0C5F8C42002F0C2F8002002F08A
:1035D000BFF8CD2002F0BCF8002002F0B9F8D320EB
:1035E00002F0B6F8002002F0B3F8DC2002F0B0F8E8
:1035F000002002F0ADF8F32002F0AAF8002002F05B
:10360000A7F8E62002F0B0F8112002F0A1F800209F
:1036100002F09EF8342002F09BF8002002F098F8A7
:10362000562002F095F8002002F092F8762002F081
:103630008FF8002002F08CF8772002F089F8002043
:1036400002F086F8662002F083F8002002F080F88D
:10365000882002F07DF8002002F07AF8992002F02C
:1036600077F8002002F074F8BB2002F071F8002017
:1036700002F06EF8992002F06BF8002002F068F872
:10368000662002F065F8002002F062F8552002F092
:103690005FF8002002F05CF8552002F059F8002095
:1036A00002F056F8452002F053F8002002F050F8DE
:1036B000432002F04DF8002002F04AF8442002F0C6
:1036C00047F8002002F044F8E72002F04DF83220DD
:1036D00002F03EF8002002F03BF8552002F038F8E6
:1036E000002002F035F8762002F032F8002002F0D7
:1036F0002FF8662002F02CF8002002F029F867204D
:1037000002F026F8002002F023F8672002F020F8EB
:10371000002002F01DF8872002F01AF8002002F0C5
:1037200017F8992002F014F8002002F011F8BB20DD
:1037300002F00EF8002002F00BF8992002F008F8D1
:10374000002002F005F8772002F002F8002001F0D6
:10375000FFFF442001F0FCFF002001F0F9FF56209C
:1037600001F0F6FF002001F0F3FF232001F0F0FF4D
:10377000002001F0EDFF332001F0EAFF002001F00E
:10378000E7FF452001F0E4FF002001F0E1FFE82021
:1037900001F0EAFF002001F0DBFF002001F0D8FF7C
:1037A000992001F0D5FF002001F0D2FF872001F021
:1037B000CFFF002001F0CCFF882001F0C9FF0020DE
:1037C00001F0C6FF772001F0C3FF002001F0C0FF29
:1037D000662001F0BDFF002001F0BAFF882001F053
:1037E000B7FF002001F0B4FFAA2001F0B1FF0020D4
:1037F00001F0AEFFBB2001F0ABFF002001F0A8FFFD
:10380000992001F0A5FF002001F0A2FF662001F041
:103810009FFF002001F09CFF552001F099FF002040
:1038200001F096FF552001F093FF002001F090FF7A
:10383000442001F08DFF002001F08AFF442001F0B8
:1038400087FF002001F084FF552001F081FF002058
:1038500001F07EFFE92001F087FFAA2001F078FF48
:10386000002001F075FF002001F072FF002001F040
:103870006FFF002001F078FFAA2001F069FFCF2040
:1038800001F072FF002001F063FF002001F060FFF3
:10389000002001F05DFF002001F05AFF002001F040
:1038A00057FF002001F054FF002001F051FF0020DD
:1038B00001F04EFF002001F04BFF002001F048FF17
:1038C000002001F045FF002001F042FF002001F040
:1038D0003FFF002001F03CFF002001F039FF0020F5
:1038E00001F036FF002001F033FFF02001F03CFF33
:1038F000002001F02DFF502001F02AFF002001F0F0
:1039000027FF002001F024FF002001F021FFF32019
:1039100001F02AFF002001F01BFFF92001F024FF35
:10392000062001F015FF102001F012FF292001F000
:103930000FFF002001F00CFF3A2001F015FF552089
:1039400001F006FF112001F00FFF6420FEF760FB7D
:10395000292001F009FF352001F006FF002001F0C9
:10396000F7FE512001F000FFFF2001F0F1FE53208F
:1039700001F0FAFE2C2001F0EBFE552001F0F4FEE0
:10398000822001F0E5FE2C2001F0EEFE10BD10B506
:1039900055214FF4704001F0FDFEAA214FF20100C5
:1039A00001F0F8FE52214FF2020001F0F3FE08216F
:1039B0004FF2030001F0EEFE01214FF2040001F08E
:1039C000E9FE0D214FF4304001F0E4FE0D214BF2F1
:1039D000010001F0DFFE0D214BF2020001F0DAFEE2
:1039E00034214FF4364001F0D5FE34214BF2016012
:1039F00001F0D0FE34214BF2026001F0CBFE0D212C
:103A00004FF4314001F0C6FE0D214BF2011001F0E0
:103A1000C1FE0D214BF2021001F0BCFE34214FF427
:103A2000374001F0B7FE34214BF2017001F0B2FED5
:103A300034214BF2027001F0ADFE00214FF4324010
:103A400001F0A8FE00214BF2012001F0A3FE0021AD
:103A50004BF2022001F09EFE24214FF4384001F089
:103A600099FE24214BF6010001F094FE24214BF62F
:103A7000020001F08FFE01214FF43F4001F08AFE69
:103A80000F214FF4334001F085FE0F214BF201303E
:103A900001F080FE0F214BF2023001F07BFE342159
:103AA0004FF4394001F076FE34214BF6011001F05D
:103AB00071FE34214BF6021001F06CFE08214FF428
:103AC000354001F067FE08214BF2015001F062FE23
:103AD00008214BF2025001F05DFE03214FF44240F9
:103AE00001F058FE24214FF43A4001F053FE242106
:103AF0004BF6012001F04EFE24214BF6022001F08E
:103B000049FE00214FF43C4001F044FE78214BF681
:103B1000014001F03FFE00214BF6024001F03AFE69
:103B200000214FF43D4001F035FE78214BF6015065
:103B300001F030FE00214BF6025001F02BFE002177
:103B40004FF43E4001F026FE64214BF6016001F087
:103B500021FE00214FF4514001F01CFE33214DF2B3
:103B6000011001F017FE00214DF2021001F012FECB
:103B700034214DF2031001F00DFE00214DF204102E
:103B800001F008FE3A214DF2051001F003FE00217C
:103B90004DF2061001F0FEFD4A214DF2071001F032
:103BA000F9FD00214DF2081001F0F4FD5C214DF209
:103BB000091001F0EFFD00214DF20A1001F0EAFDBD
:103BC00081214DF20B1001F0E5FD00214DF20C10AA
:103BD00001F0E0FDA6214DF20D1001F0DBFD00210A
:103BE0004DF20E1001F0D6FDE5214DF20F1001F05F
:103BF000D1FD01214DF2101001F0CCFD13214DF249
:103C0000111001F0C7FD01214DF2121001F0C2FDAB
:103C100054214DF2131001F0BDFD01214DF214109D
:103C200001F0B8FD82214DF2151001F0B3FD012124
:103C30004DF2161001F0AEFDCA214DF2171001F041
:103C4000A9FD02214DF2181001F0A4FD00214DF252
:103C5000191001F09FFD02214DF21A1001F09AFD9A
:103C600001214DF21B1001F095FD02214DF21C10B7
:103C700001F090FD34214DF21D1001F08BFD022169
:103C80004DF21E1001F086FD67214DF21F1001F06C
:103C900081FD02214DF2201001F07CFD84214DF2C6
:103CA000211001F077FD02214DF2221001F072FD8A
:103CB000A4214DF2231001F06DFD02214DF22410DC
:103CC00001F068FDB7214DF2251001F063FD0221DE
:103CD0004DF2261001F05EFDCF214DF2271001F0CC
:103CE00059FD02214DF2281001F054FDDE214DF264
:103CF000291001F04FFD02214DF22A1001F04AFD7A
:103D0000F2214DF22B1001F045FD02214DF22C1055
:103D100001F040FDFE214DF22D1001F03BFD03218D
:103D20004DF22E1001F036FD10214DF22F1001F052
:103D300031FD03214DF2301001F02CFD33214DF205
:103D4000311001F027FD03214DF2321001F022FD68
:103D50006D214DF2331001F01DFD00214FF4524052
:103D600001F018FD33214DF2012001F013FD002177
:103D70004DF2022001F00EFD34214DF2032001F03E
:103D800009FD00214DF2042001F004FD3A214DF21D
:103D9000052001F0FFFC00214DF2062001F0FAFCA5
:103DA0004A214DF2072001F0F5FC00214DF20820D8
:103DB00001F0F0FC5C214DF2092001F0EBFC002148
:103DC0004DF20A2001F0E6FC81214DF20B2001F0BA
:103DD000E1FC00214DF20C2001F0DCFCA6214DF2AB
:103DE0000D2001F0D7FC00214DF20E2001F0D2FC95
:103DF000E5214DF20F2001F0CDFC01214DF2102004
:103E000001F0C8FC13214DF2112001F0C3FC012187
:103E10004DF2122001F0BEFC54214DF2132001F0AE
:103E2000B9FC01214DF2142001F0B4FC82214DF2C5
:103E3000152001F0AFFC01214DF2162001F0AAFC83
:103E4000CA214DF2172001F0A5FC02214DF21820E5
:103E500001F0A0FC00214DF2192001F09BFC022191
:103E60004DF21A2001F096FC01214DF21B2001F0C9
:103E700091FC02214DF21C2001F08CFC34214DF20A
:103E80001D2001F087FC02214DF21E2001F082FC72
:103E900067214DF21F2001F07DFC02214DF2202010
:103EA00001F078FC84214DF2212001F073FC022105
:103EB0004DF2222001F06EFCA4214DF2232001F0EE
:103EC00069FC02214DF2242001F064FCB7214DF27F
:103ED000252001F05FFC02214DF2262001F05AFC62
:103EE000CF214DF2272001F055FC02214DF2282070
:103EF00001F050FCDE214DF2292001F04BFC0221A3
:103F00004DF22A2001F046FCF2214DF22B2001F067
:103F100041FC02214DF22C2001F03CFCFE214DF22F
:103F20002D2001F037FC03214DF22E2001F032FC50
:103F300010214DF22F2001F02DFC03214DF23020F5
:103F400001F028FC33214DF2312001F023FC032144
:103F50004DF2322001F01EFC6D214DF2332001F0B4
:103F600019FC00214FF4534001F014FC33214DF2B1
:103F7000013001F00FFC00214DF2023001F00AFC8B
:103F800034214DF2033001F005FC00214DF20430E4
:103F900001F000FC3A214DF2053001F0FBFB00215D
:103FA0004DF2063001F0F6FB4A214DF2073001F0E8
:103FB000F1FB00214DF2083001F0ECFB5C214DF2E9
:103FC000093001F0E7FB00214DF20A3001F0E2FB7D
:103FD00081214DF20B3001F0DDFB00214DF20C3060
:103FE00001F0D8FBA6214DF20D3001F0D3FB0021EA
:103FF0004DF20E3001F0CEFBE5214DF20F3001F015
:10400000C9FB01214DF2103001F0C4FB13214DF228
:10401000113001F0BFFB01214DF2123001F0BAFB6B
:1040200054214DF2133001F0B5FB01214DF2143053
:1040300001F0B0FB82214DF2153001F0ABFB012104
:104040004DF2163001F0A6FBCA214DF2173001F0F7
:10405000A1FB02214DF2183001F09CFB00214DF232
:10406000193001F097FB02214DF21A3001F092FB5A
:1040700001214DF21B3001F08DFB02214DF21C306D
:1040800001F088FB34214DF21D3001F083FB022149
:104090004DF21E3001F07EFB67214DF21F3001F022
:1040A00079FB02214DF2203001F074FB84214DF2A6
:1040B000213001F06FFB02214DF2223001F06AFB4A
:1040C000A4214DF2233001F065FB02214DF2243092
:1040D00001F060FBB7214DF2253001F05BFB0221BE
:1040E0004DF2263001F056FBCF214DF2273001F082
:1040F00051FB02214DF2283001F04CFBDE214DF244
:10410000293001F047FB02214DF22A3001F042FB39
:10411000F2214DF22B3001F03DFB02214DF22C300B
:1041200001F038FBFE214DF22D3001F033FB03216D
:104130004DF22E3001F02EFB10214DF22F3001F008
:1041400029FB03214DF2303001F024FB33214DF2E5
:10415000313001F01FFB03214DF2323001F01AFB28
:104160006D214DF2333001F015FB00214FF4544026
:1041700001F010FB33214DF2014001F00BFB002157
:104180004DF2024001F006FB34214DF2034001F0F4
:1041900001FB00214DF2044001F0FCFA3A214DF2FE
:1041A000054001F0F7FA00214DF2064001F0F2FA65
:1041B0004A214DF2074001F0EDFA00214DF208408E
:1041C00001F0E8FA5C214DF2094001F0E3FA002128
:1041D0004DF20A4001F0DEFA81214DF20B4001F070
:1041E000D9FA00214DF20C4001F0D4FAA6214DF28B
:1041F0000D4001F0CFFA00214DF20E4001F0CAFA55
:10420000E5214DF20F4001F0C5FA01214DF21040B9
:1042100001F0C0FA13214DF2114001F0BBFA012167
:104220004DF2124001F0B6FA54214DF2134001F064
:10423000B1FA01214DF2144001F0ACFA82214DF2A5
:10424000154001F0A7FA01214DF2164001F0A2FA43
:10425000CA214DF2174001F09DFA02214DF218409B
:1042600001F098FA00214DF2194001F093FA022171
:104270004DF21A4001F08EFA01214DF21B4001F07F
:1042800089FA02214DF21C4001F084FA34214DF2EA
:104290001D4001F07FFA02214DF21E4001F07AFA32
:1042A00067214DF21F4001F075FA02214DF22040C6
:1042B00001F070FA84214DF2214001F06BFA0221E5
:1042C0004DF2224001F066FAA4214DF2234001F0A4
:1042D00061FA02214DF2244001F05CFAB7214DF25F
:1042E000254001F057FA02214DF2264001F052FA22
:1042F000CF214DF2274001F04DFA02214DF2284026
:1043000001F048FADE214DF2294001F043FA022182
:104310004DF22A4001F03EFAF2214DF22B4001F01D
:1043200039FA02214DF22C4001F034FAFE214DF20F
:104330002D4001F02FFA03214DF22E4001F02AFA10
:1043400010214DF22F4001F025FA03214DF23040AB
:1043500001F020FA33214DF2314001F01BFA032124
:104360004DF2324001F016FA6D214DF2334001F06A
:1043700011FA00214FF4554001F00CFA33214DF2AF
:10438000015001F007FA00214DF2025001F002FA4B
:1043900034214DF2035001F0FDF900214DF204509B
:1043A00001F0F8F93A214DF2055001F0F3F900213E
:1043B0004DF2065001F0EEF94A214DF2075001F09E
:1043C000E9F900214DF2085001F0E4F95C214DF2C9
:1043D000095001F0DFF900214DF20A5001F0DAF93D
:1043E00081214DF20B5001F0D5F900214DF20C5016
:1043F00001F0D0F9A6214DF20D5001F0CBF90021CA
:104400004DF20E5001F0C6F9E5214DF20F5001F0CA
:10441000C1F901214DF2105001F0BCF913214DF208
:10442000115001F0B7F901214DF2125001F0B2F92B
:1044300054214DF2135001F0ADF901214DF2145009
:1044400001F0A8F982214DF2155001F0A3F90121E4
:104450004DF2165001F09EF9CA214DF2175001F0AD
:1044600099F902214DF2185001F094F900214DF212
:10447000195001F08FF902214DF21A5001F08AF91A
:1044800001214DF21B5001F085F902214DF21C5023
:1044900001F080F934214DF21D5001F07BF9022129
:1044A0004DF21E5001F076F967214DF21F5001F0D8
:1044B00071F902214DF2205001F06CF984214DF286
:1044C000215001F067F902214DF2225001F062F90A
:1044D000A4214DF2235001F05DF902214DF2245048
:1044E00001F058F9B7214DF2255001F053F902219E
:1044F0004DF2265001F04EF9CF214DF2275001F038
:1045000049F902214DF2285001F044F9DE214DF223
:10451000295001F03FF902214DF22A5001F03AF9F9
:10452000F2214DF22B5001F035F902214DF22C50C1
:1045300001F030F9FE214DF22D5001F02BF903214D
:104540004DF22E5001F026F910214DF22F5001F0BE
:1045500021F903214DF2305001F01CF933214DF2C5
:10456000315001F017F903214DF2325001F012F9E8
:104570006D214DF2335001F00DF900214FF45640FA
:1045800001F008F933214DF2016001F003F9002137
:104590004DF2026001F0FEF834214DF2036001F0AB
:1045A000F9F800214DF2046001F0F4F83A214DF2DF
:1045B000056001F0EFF800214DF2066001F0EAF825
:1045C0004A214DF2076001F0E5F800214DF2086044
:1045D00001F0E0F85C214DF2096001F0DBF8002108
:1045E0004DF20A6001F0D6F881214DF20B6001F026
:1045F000D1F800214DF20C6001F0CCF8A6214DF26B
:104600000D6001F0C7F800214DF20E6001F0C2F814
:10461000E5214DF20F6001F0BDF801214DF210606F
:1046200001F0B8F813214DF2116001F0B3F8012147
:104630004DF2126001F0AEF854214DF2136001F01A
:10464000A9F801214DF2146001F0A4F882214DF285
:10465000156001F09FF801214DF2166001F09AF803
:10466000CA214DF2176001F095F802214DF2186051
:1046700001F090F800214DF2196001F08BF8022151
:104680004DF21A6001F086F801214DF21B6001F035
:1046900081F802214DF21C6001F07CF834214DF2CA
:1046A0001D6001F077F802214DF21E6001F072F8F2
:1046B00067214DF21F6001F06DF802214DF220607C
:1046C00001F068F884214DF2216001F063F80221C5
:1046D0004DF2226001F05EF8A4214DF2236001F05A
:1046E00059F802214DF2246001F054F8B7214DF23F
:1046F000256001F04FF802214DF2266001F04AF8E2
:10470000CF214DF2276001F045F802214DF22860DB
:1047100001F040F8DE214DF2296001F03BF8022162
:104720004DF22A6001F036F8F2214DF22B6001F0D3
:1047300031F802214DF22C6001F02CF8FE214DF2EF
:104740002D6001F027F803214DF22E6001F022F8D0
:1047500010214DF22F6001F01DF803214DF2306061
:1047600001F018F833214DF2316001F013F8032104
:104770004DF2326001F00EF86D214DF2336001F020
:1047800009F855214FF4704001F004F8AA214FF2C6
:10479000010000F0FFFF52214FF2020000F0FAFF8B
:1047A00008214FF2030000F0F5FF00214FF2040052
:1047B00000F0F0FFCC214FF4314000F0EBFF00217E
:1047C0004BF2011000F0E6FF05214FF4364000F0F7
:1047D000E1FF70214FF4374000F0DCFF70214BF215
:1047E000017000F0D7FF01214FF4384000F0D2FFF4
:1047F00003214BF6010000F0CDFF03214BF6020030
:1048000000F0C8FF03214BF6030000F0C3FF0221B4
:104810004FF43C4000F0BEFF00214BF6014000F099
:10482000B9FF00214BF6024000F0B4FFD0214FF455
:10483000494000F0AFFF02214CF6011000F0AAFF42
:1048400050214CF6021000F0A5FF50214CF6031049
:1048500000F0A0FF50214CF6041000F09BFF002157
:104860004FF4545000F096FF55214FF4685000F07B
:1048700091FF4FF4885000F077FF7820FDF7E4FBBC
:104880004FF4245000F070FF10BD10B5E22000F08E
:104890006BFF1D2000F05CFF022000F059FF042098
:1048A00000F056FF6420FDF7CFFBE02000F05CFF36
:1048B000012000F04DFF0A20FDF7AAFBE02000F0E8
:1048C00053FF032000F044FF0C20FDF7A1FB012063
:1048D00000F04AFF0A20FDF79BFBE62000F044FFB2
:1048E0002F2000F035FFFF2000F032FFFF2000F006
:1048F0002FFFB02000F038FF202000F029FF00201B
:1049000000F026FF032000F023FF40F21F3000F0EC
:104910001FFF012000F01CFF40F2DF1000F018FF25
:10492000002000F015FFB42000F01EFF042000F06E
:104930000FFF40F21F4000F00BFF002000F008FFC7
:104940002E2000F005FF002000F002FF002000F004
:10495000FFFE002000F0FCFE002000F0F9FEB62073
:1049600000F002FF022000F0F3FE4FF4037000F0AD
:10497000EFFE002000F0ECFE172000F0E9FE15200D
:1049800000F0E6FE002000F0E3FE002000F0E0FE74
:10499000F02000F0E9FE032000F0DAFE292000F00C
:1049A000E3FED02000F0E0FE002000F0D1FEBE20AB
:1049B00000F0DAFE052000F0CBFEFE2000F0C8FE7D
:1049C000012000F0C5FE002000F0C2FE002000F033
:1049D000BFFE002000F0BCFEB82000F0C5FE0320A2
:1049E00000F0B6FE012000F0B3FEBA2000F0BCFEDD
:1049F000012000F0ADFE10BD10B5112000F0B4FE96
:104A00007820FDF705FB362000F0AEFE002000F018
:104A10009FFE3A2000F0A8FE052000F099FEB2208B
:104A200000F0A2FE0C2000F093FE0C2000F090FE9F
:104A3000002000F08DFE332000F08AFE332000F0CD
:104A400087FEB72000F090FE352000F081FEBB20ED
:104A500000F08AFE322000F07BFEC02000F084FED1
:104A60000C2000F075FEC22000F07EFE012000F058
:104A70006FFEC32000F078FE102000F069FEC42015
:104A800000F072FE202000F063FEC62000F06CFEF5
:104A90000F2000F05DFED02000F066FEA42000F0A4
:104AA00057FEA12000F054FEE02000F05DFED02073
:104AB00000F04EFE002000F04BFE022000F048FE09
:104AC000072000F045FE0A2000F042FE282000F0FA
:104AD0003FFE322000F03CFE442000F039FE422030
:104AE00000F036FE062000F033FE0E2000F030FE0F
:104AF000122000F02DFE142000F02AFE172000F0F6
:104B000027FEE12000F030FED02000F021FE002042
:104B100000F01EFE022000F01BFE072000F018FE31
:104B20000A2000F015FE282000F012FE312000F0CF
:104B30000FFE542000F00CFE472000F009FE0E206E
:104B400000F006FE1C2000F003FE172000F000FE1F
:104B50001B2000F0FDFD1E2000F0FAFD2A2000F0D1
:104B600003FE002000F0F4FD002000F0F1FD002025
:104B700000F0EEFDEF2000F0EBFD2B2000F0F4FD47
:104B8000002000F0E5FD002000F0E2FD012000F033
:104B9000DFFD3F2000F0DCFD292000F0E5FD10BD29
:104BA00010B5112000F0E0FD7820FDF731FA362035
:104BB00000F0DAFD482000F0CBFD3A2000F0D4FDF3
:104BC000552000F0C5FDF02000F0CEFDC32000F020
:104BD000BFFDF02000F0C8FD962000F0B9FDB42024
:104BE00000F0C2FD012000F0B3FDB62000F0BCFDD6
:104BF0000A2000F0ADFDA22000F0AAFDB72000F0D1
:104C0000B3FDC62000F0A4FDB92000F0ADFD0220E8
:104C100000F09EFDE02000F09BFDC02000F0A4FD10
:104C2000802000F095FD162000F092FDC12000F0DC
:104C30009BFD192000F08CFDC22000F095FDA720FF
:104C400000F086FDC52000F08FFD162000F080FDED
:104C5000E82000F089FD402000F07AFD8A2000F075
:104C600077FD002000F074FD002000F071FD292088
:104C700000F06EFD192000F06BFDA52000F068FD2E
:104C8000332000F065FDE02000F06EFDF02000F024
:104C90005FFD072000F05CFD0D2000F059FD0420B1
:104CA00000F056FD052000F053FD142000F050FDEB
:104CB000362000F04DFD542000F04AFD4C2000F05D
:104CC00047FD382000F044FD132000F041FD142082
:104CD00000F03EFD2E2000F03BFD342000F038FDBA
:104CE000E12000F041FDF02000F032FD102000F046
:104CF0002FFD142000F02CFD0E2000F029FD0C20CB
:104D000000F026FD082000F023FD352000F020FDF6
:104D1000442000F01DFD4C2000F01AFD262000F07C
:104D200017FD102000F014FD122000F011FD2C20C2
:104D300000F00EFD322000F00BFDF02000F014FD1D
:104D40003C2000F005FDF02000F00EFD692000F091
:104D5000FFFC7820FDF75CF9212000F005FD2920FB
:104D600000F002FD10BD000000B593B000BF00BF11
:104D7000F948806940F48070F74988610846806985
:104D800000F48070009000BF00BF00BF00BF00BFF4
:104D90000846806940F0200088610846806900F07C
:104DA0002000009000BF00BF00BF00BF00BF08464A
:104DB000806940F0200088610846806900F020008A
:104DC000009000BF00BF00BF00BF00BF0846806961
:104DD00040F4807088610846806900F4807000901B
:104DE00000BF00BF00BF00BF00BF0846806940F0A1
:104DF000080088610846806900F00800009000BF44
:104E000000BF00BF88140F90022010900120119065
:104E1000032012900FA9D148FBF780FC20200F90AF
:104E20000FA9CF48FBF77AFC10200F900FA9CC48B0
:104E3000FBF774FC01200F900FA9C848FBF76EFC2C
:104E400001200F9010900FA9C648FBF767FC4FF0A8
:104E50002040C5490860C548486006208860002198
:104E6000C148C1601021416100218161C16141627D
:104E70004FF4805181620021C1624FF4804101638F
:104E80000021416381630020089009900F200A905F
:104E900000200E90019002900120039000200790C6
:104EA00001AA08A9B048FCF7FDF93220FDF7B0F8D7
:104EB000D32000F059FC00F091F9AD49888000F052
:104EC0008DF9AB49888000F089F9A94988800846A6
:104ED00080884FF6FF7101EA0020A549888000F024
:104EE0007DF9A34989880843A149888008468088BC
:104EF00049F2413188427CD0042000F035FC00F0BA
:104F00006DF99B49888000F069F99949888000F023
:104F100065F997498880084680884FF6FF7101EA55
:104F200000209349888000F059F991498988084305
:104F30008F4988800846808848F25251884203D1C0
:104F400047F289708A4988808948808847F2897148
:104F50008842D0D0D42000F007FC00F03FF984490B
:104F6000888000F03BF98249888000F037F9804959
:104F70008880084680884FF6FF7101EA00207C494E
:104F8000888000F02BF97A4989880843784988801D
:104F90000846808845F210318842ACD0D32000F01A
:104FA000E3FB00F01BF97249888000F017F97049A3
:104FB000888000F013F96E498880084680884FF693
:104FC000FF7101EA00206A49888000F007F968490A
:104FD00089880843664988800846808847F2967128
:104FE000884288D055214FF4704000F0D3FBAA21AD
:104FF00000E07EE04FF2010000F0CCFB52214FF2C6
:10500000020000F0C7FB08214FF2030000F0C2FBD2
:1050100001214FF2040000F0BDFB4FF4454000F0C9
:10502000A3FB00F0DBF852498880084680884FF6E1
:10503000FF7101EA00204E4988804CF2015000F0D7
:1050400093FB00F0CBF84A49898808434849888097
:105050000520FCF7DDFF4648808845F21051884264
:1050600047D0D32000F080FB00F0B8F8404988809A
:1050700000F0B4F83E49888000F0B0F83C498880E0
:10508000084680884FF6FF7101EA00203849888081
:1050900000F0A4F8364989880843354988800846D5
:1050A000808849F60601884223D0A12000F05CFBED
:1050B00000F094F82E49888000F090F82C49888000
:1050C000084680884FF6FF7101EA00202849888051
:1050D00000F084F8264989880843254988800846D5
:1050E000808845F26171884203D141F663102049FE
:1050F00088801F4881881FA0FBF78EF81C48808895
:1051000047F28971884202D1FFF776FC4CE01848DB
:10511000808849F24131884202D1FDF709FA43E023
:105120001348808845F21031884202D1FDF7B6FC61
:105130003AE00F48808847F29671884202D1FFF723
:105140002FFD31E00A48808845F21051884217D17E
:10515000FEF71DFC28E00000001002400020014086
:1051600000140140000C014014020020040100A0C2
:105170005C0200204C43442049443A25780D0A0043
:105180001148808849F60601884202D1FDF7E6FA07
:105190000AE00D48808841F66311884204D1FFF788
:1051A00074FB642000F0AAFA0020FDF7FBF800BFB2
:1051B000012211460548FBF763FC00BF4FF6FF7064
:1051C000FDF7D6F813B000BD5C020020000C0140D2
:1051D00000BF011EA0F10100FBD1704708B50220FD
:1051E000FFF7F6FF024800880090BDF8000008BDF8
:1051F0000008006CF0B50546002400278B48807934
:10520000012805D18948808841F66311884208D178
:1052100086488079F0B98548808841F663118842D4
:1052200018D1082D15D2DFE805F00406080A0C0E87
:10523000101206250DE007250BE0042509E00525E1
:1052400007E0012505E0002503E0032501E0022534
:1052500000BF00BF082D1CD2DFE805F00406090CD2
:105260000F12151800BF14E044F0800411E044F060
:1052700040040EE044F0C0040BE044F0200408E0D9
:1052800044F0600405E044F0A00402E044F0E004CF
:1052900000BF00BF36276548808845F2105188421C
:1052A00000D13F026148808849F2413188420BD0E9
:1052B0005E48808847F28971884205D05B488088C3
:1052C00047F29671884201D144F0080421463846DD
:1052D00000F060FA5548808841F6631188421DD07D
:1052E00004F0200068B1514800885049498888423C
:1052F00014DA4E48068840884C49088008464680A3
:105300000CE04A48008849494988884206DD4748F8
:10531000068840884549088008464680434880887A
:1053200045F21051884252D14049488900F01CFA98
:10533000002000F00DFA3D494989491C88B200F06F
:1053400013FA002000F004FA38494989891C88B210
:1053500000F00AFA35490988491EC1F30F2000F010
:10536000F7F932494989C91C88B200F0FDF92F4983
:105370000978491EC8B200F0EBF92C49888900F081
:10538000F3F9002000F0E4F928498989491C88B222
:1053900000F0EAF9002000F0DBF924498989891C32
:1053A00088B200F0E1F921494988491EC1F30F2074
:1053B00000F0CEF91D498989C91C88B200F0D4F9E2
:1053C0001A498978491EC8B200F0C2F92DE0174980
:1053D000488900F0C9F9002000F0BAF9002000F077
:1053E000B7F912490988491EC1F30F2000F0B0F93E
:1053F0000E490978491EC8B200F0AAF90B498889FC
:1054000000F0B2F9002000F0A3F9002000F0A0F9AC
:1054100006494988491EC1F30F2000F099F9034954
:105420008978491EC8B200F093F9F0BD5C020020F3
:1054300010B502460C464548808841F66311884203
:1054400047D142488079A8B940480088401E801A58
:1054500082B23E49488900F087F9002000F078F9CF
:10546000002000F075F9101200F072F9D0B200F0CF
:105470006FF916E03549488900F076F9101200F00E
:1054800067F9D0B200F064F930490988491EC1F3C8
:105490000F2000F05DF92D490978491EC8B200F0CF
:1054A00057F92A49888900F05FF9201200F050F975
:1054B000E0B200F04DF925494988491EC1F30F209B
:1054C00000F046F921498978491EC8B200F040F938
:1054D0003AE01E48808845F21051884220D11B498D
:1054E000488900F041F9101200F032F91749498952
:1054F000491C88B200F038F9D0B200F029F91349FC
:10550000888900F031F9201200F022F90F498989C9
:10551000491C88B200F028F9E0B200F019F913E054
:105520000A49488900F020F9101200F011F9D0B2B0
:1055300000F00EF90549888900F016F9201200F0F4
:1055400007F9E0B200F004F910BD00005C02002091
:105550002DE9FC4F80460E4615461C46B3460020FA
:10556000019000902046E31704EB5373DB102146B3
:105570004FEAE47C04EB5C7C4FEAEC0CA4EBCC0C33
:10558000BCF1000F02D04FF0010C01E04FF0000C15
:105590006344224604EBD27C4FEA6C0C03FB0CF311
:1055A000DBB20193A5F12000C5B20C2C06D0102C63
:1055B0000BD0182C0ED0202C18D112E005EB450092
:1055C0002D4901EB8000009012E02C4800EB051003
:1055D00000900DE005EBC500294901EB800000902B
:1055E00006E0284800EB8510009001E0BDE8FC8F44
:1055F00000BF00273AE0009810F807904FF0000A2B
:105600002EE009F0800028B1314640460C9AFCF7A4
:105610007FFF07E00B9828B91B48314602684046D7
:10562000FCF776FF4FEA49604FEA1069701C86B2BA
:1056300016484088B04200DCD8E7A6EB0B00A04239
:105640000AD15E4608F101001FFA80F80F48008871
:10565000404500DCCAE706E00AF1010000F0FF0A5D
:10566000BAF1080FCDDB00BF781CC7B201988742A2
:10567000C1DB00BFBAE700007C5C0008F0600008F6
:10568000E06600083C740008200000205C02002056
:105690002DE9FC4F04460D4690469946DDE90C7A0B
:1056A0000B9E04F0FF0B08EB04001FFA80F809EBD7
:1056B00005001FFA80F917E0444502DB5C46A81993
:1056C00085B24D4500DB15E00020CDE9000A3A78AF
:1056D000334629462046FFF73BFF304606EBD071A4
:1056E00004EB61018CB27F1C38787E2802DC3878AC
:1056F0002028E1DA00BFBDE8FC8F00002DE9F0476B
:105700000446BE2000F030F8052000F021F82046C5
:1057100000F097F907464FF066320C4B00F0A4F901
:10572000054600F061F91FFA80F9484600F010F8CC
:10573000012000F00DF8FF2000F00AF8002000F032
:1057400007F8002000F004F8BDE8F0876666044022
:1057500001B5BDF800000090BDF8000001490880C7
:1057600008BD00000008006C01B5BDF80000009005
:10577000BDF800000149088008BD0000FE07006C6C
:105780000248008902490880704700005C0200203E
:10579000FE07006C024A1080921C118070470000C6
:1057A000FE07006C00B585B000BF00BF1E488069D1
:1057B00040F008001C4988610846806900F0080034
:1057C000009000BF00BF00BF00BF00BF0846806957
:1057D00040F0400088610846806900F04000009079
:1057E00000BF00BF00BF2020019001200290039065
:1057F0000320049001A90D48FAF790FF20200190A2
:1058000001A90B48FAF78AFF00BF012220210748AF
:10581000FBF736F900BF00BF012220210448FBF747
:105820002FF900BF05B000BD00100240000C014080
:105830000018014010B5FBF72FF94FF4E01000F00D
:105840008BF84820FCF7D0FB4FF4E13000F0B0F8C3
:10585000FFF7A8FFFCF714FDFFF786FA00F004F845
:10586000FCF718FC002010BD0EB54FF478401DA1C8
:1058700020221346CDE900210290DC220A210846AD
:10588000FFF706FF4FF4784018A118221346CDE920
:1058900000210290DC222F210A20FFF7F9FE4FF4AD
:1058A000784015A110221346CDE900210290DC2298
:1058B0004C210A20FFF7ECFE13A0FAF7ADFC13A071
:1058C000FAF7AAFC1AA0FAF7A7FC1BA0FAF7A4FCA7
:1058D0001DA0FAF7A1FC0DA0FAF79EFC13A0FAF7A1
:1058E0009BFC0EBD53544D333200000041544B2DF0
:1058F0004D5337363230000041544F4D40414C49F2
:10590000454E54454B0000000A0000002A2A2A2A6E
:105910002A2A2A2A2A2A2A2A2A2A2A2A2A2A2A2AE7
:105920002A2A2A2A2A2A2A2A2A2A2A2A0D0A000068
:1059300053544D33320D0A0041544B2D4D533736DD
:1059400032300D0A0000000041544F4D40414C4997
:10595000454E54454B0D0A0030B58FB00546012425
:1059600001200590000406900020079002200C9072
:10597000C1030D910E9505A8FBF762FA04460CB120
:1059800000BFFEE70F20009002200190002002904F
:105990004FF4806003900020049002216846FBF7DA
:1059A00019F904460CB100BFFEE70FB030BD00008E
:1059B00010B5044609480A490860084644600021B9
:1059C0008160C160016181610C214161FBF7C0FD13
:1059D000012204490248FBF74FFE10BD0038014088
:1059E000D40100200E0000204FEA1153A3F580637C
:1059F000D3F11E03A8BFD3F1200C08DB4FF0004207
:105A000042EAC12252EA505232FA03F07047094288
:105A10000BD4102BC4BF0020704703F5787CBCF179
:105A2000FF3F05D04FF0FF3070474FF00000704748
:105A300070B500F0C3F800BF499224800020704781
:105A4000F0E7B0FA80F310FA03F10AD0C3F11D03B6
:105A500003F580634FEA41504FEA035202EBD12134
:105A600070474FF000007047DFF848C170B51CEA7E
:105A7000111E1EBF1CEA13159EEA0C0F95EA0C0FAF
:105A800000F06F8081EA030423EA4C134EEAD47ECF
:105A900021EA4C1141F4801143F48013AE44A1FB80
:105AA000024CA0FB0365AEF17F7E361955EB0C0569
:105AB000A1FB034C4CF10003A0FB021C16EB0C06EF
:105AC000654153F10003094218BF46F0010613F483
:105AD000007F0BD14FEA03314FEA0530340341EA2E
