:020000040800F2
:10000000600700201D0A0008390200083B020008B2
:100010003D0200083F020008410200080000000005
:100020000000000000000000000000004302000883
:1000300045020008000000004702000849020008CD
:10004000370A0008370A0008370A0008370A00088C
:10005000370A0008370A0008370A0008370A00087C
:10006000370A0008370A0008370A0008370A00086C
:10007000370A0008370A0008370A0008370A00085C
:10008000370A0008370A0008370A0008370A00084C
:10009000370A0008370A0008370A0008370A00083C
:1000A000370A0008370A0008370A0008370A00082C
:1000B000370A0008370A0008370A0008370A00081C
:1000C000370A0008370A0008370A0008370A00080C
:1000D000370A0008B5090008370A0008370A00087F
:1000E000370A0008370A0008370A0008370A0008EC
:1000F000370A0008370A0008370A0008370A0008DC
:10010000370A0008370A0008370A0008370A0008CB
:10011000370A0008370A0008370A0008370A0008BB
:10012000370A0008370A0008370A0008370A0008AB
:1001300000F002F800F03AF80AA090E8000C8244BF
:100140008344AAF10107DA4501D100F02FF8AFF29C
:10015000090EBAE80F0013F0010F18BFFB1A43F0A5
:1001600001031847B0140000D0140000103A24BF57
:1001700078C878C1FAD8520724BF30C830C144BF0C
:1001800004680C607047000000230024002500264E
:10019000103A28BF78C1FBD8520728BF30C148BFEA
:1001A0000B6070471FB51FBD10B510BD01F010F9F1
:1001B0001146FFF7F7FF00F009F801F042F903B428
:1001C000FFF7F2FF03BC00F09FFB000000F050FBC4
:1001D0004FF4A06000F042FC4FF4E13000F09EFBD1
:1001E00000F0E0F805E008A001F0B4F8C82000F045
:1001F0006DFB00F009F90028F5D009A001F0AAF87C
:1002000000F029F9FCE7000070616A3736323020CF
:10021000696E6974206572726F722121210D0A0066
:1002200070616A3736323020696E6974206F6B21D5
:1002300021210D0A000000007047FEE7FEE7FEE7FF
:10024000FEE7704770477047704700000CB500220A
:100250004C4800920192016841F4803101604FF4F2
:10026000A063016801F4003101910099491C0091DB
:10027000019911B900999942F3D10168890333D5E5
:100280000121019140490A6842F010020A600A689F
:1002900022F003020A600A6842F002020A60416822
:1002A000416041684160416841F48061416041685A
:1002B00021F47C114160416841F4E811416001681A
:1002C00041F08071016001688901FCD5416821F02D
:1002D00003014160416841F0020141604168C1F39E
:1002E00081010229FAD10CBD01920CBD254810B53F
:1002F000016841F0010101604168244A11404160F8
:100300000168234A11400160016821F480210160E5
:10031000416821F4FE0141604FF41F018160FFF745
:1003200095FF1C494FF00060086010BD154A10B5DC
:100330005068194B10F00C01184803D0042901D063
:10034000082901D0036012E05168536801F470116C
:100350004FF0020413F4803F04EB914102D0536844
:100360009B0301D50E4B00E00B4B594301605168D4
:100370000A4AC1F30311121D515C0268CA400260AF
:1003800010BD000000100240002002400000FFF8F5
:10039000FFFFF6FE08ED00E000127A0000000020EA
:1003A00000093D0038B50121482000F0EEFD202471
:1003B000ADF8004010208DF8030003200B4D8DF8A0
:1003C00002006946284600F0F8FB2021284600F08C
:1003D0005EFCADF80040064C6946204600F0EDFB9F
:1003E0002021204600F053FC38BD0000000C0140E5
:1003F0000018014028B1012805D10121EF2000F0AB
:10040000A5B90021FAE7704738B500F016FA00F0F8
:100410000BFA142000F05AFA0020FFF7EBFF6946B0
:10042000002000F0B0F99DF80000202801D0002045
:1004300038BD384D002405EB4400417815F8140010
:1004400000F084F9641CE4B2DB2CF4D30020FFF745
:10045000D1FF012038BD08B50025DFF8BC8000952C
:100460006A460221432000F0B1F990BBBDF80000BC
:1004700078B3102841D008DC012810D0022810D011
:10048000042836D0082824D135E0202837D0402849
:1004900037D0802837D0B0F5807F1AD135E01FA043
:1004A00000E020A000F056FF204EC6F89451322004
:1004B00006F5CA7600F00AFA01273760322000F00C
:1004C00005FA3560322000F001FA3760322000F082
:1004D000FDF9322000F0FAF9641CE4B20A2CBFD115
:1004E000D8F89401414690B10020C1F8940100244D
:1004F000B6E70FA0D6E710A0D4E711A0D2E713A06B
:10050000D0E715A0CEE717A0CCE71AA0CAE70120D4
:10051000EBE700005C1400080080214255700D0AD2
:1005200000000000446F776D0D0A000000002342B8
:100530004C6566740D0A000052696768740D0A0004
:10054000466F72776172640D0A0000004261636B4E
:10055000776172640D0A0000436C6F636B77697397
:10056000650D0A00416E7469436C6F636B77697344
:10057000650D0A00576176650D0A000070B5B9482F
:10058000016821F470410160016841F4405101604B
:10059000B54C0120C4F8AC01C4F8A801042004F54E
:1005A000D47400F07CF900256560042000F077F930
:1005B000256070BDAB4810B5016821F47041016041
:1005C000016841F440510160A74C0020C4F8A80123
:1005D000C4F8AC01042004F5D47400F060F90120E3
:1005E00020606060BDE81040042000F058B970B58C
:1005F0009C480024016821F470410160016841F4C5
:1006000000410160984D0126C5F8AC61032000F05F
:1006100046F9C5F8A861032000F041F907E0641C21
:10062000E4B2FA2C03D9FFF7C5FF012070BDD5F85D
:100630002C010028F3D1C5F8A80170BD2DE9F041C7
:1006400005468848016821F470410160016841F461
:1006500040510160844E0027C6F8A8713C464FF017
:100660000108280602D5C6F8AC8101E0C6F8AC71D5
:100670006806050E052000F012F9C6F8A8810520CD
:1006800000F00DF9C6F8A871052000F008F9641C07
:10069000E4B2082CE5D3BDE8F0812DE9F047DFF89E
:1006A000C49182460024D9F8001021F47041C9F8A1
:1006B0000010D9F8001041F40041C9F800106A4E4A
:1006C000254627464FF00108C6F8A871042000F01F
:1006D000E6F8C6F8A8816006040ED6F82C0108B129
:1006E000641CE4B2042000F0DAF86D1CEDB2082DB1
:1006F000EAD3BAF1000FC6F8A871D9F8001048463D
:1007000021F47041C9F80010D9F8001041F44051AB
:10071000C9F800100FD0C6F8AC71032006F5D476E6
:1007200000F0BDF8C6F80080032000F0B8F837608C
:100730002046BDE8F0874546C6F8AC81022006F5A4
:10074000D47600F0ACF835600220EEE770B50C46C8
:100750000546FFF713FFE620FFF770FFFFF747FF9F
:1007600018B1FFF727FF012070BD2846FFF766FF8D
:10077000FFF73DFF2046FFF761FFFFF738FFFFF768
:1007800019FF002070BD70B50C460546FFF7F6FE58
:10079000E620FFF753FFFFF72AFF18B1FFF70AFF24
:1007A000012070BD2846FFF749FFFFF720FFFFF744
:1007B000E5FEE720FFF742FFFFF719FF0020FFF7F4
:1007C0006CFF2070FFF7F6FE002070BD70B5154677
:1007D0000C460646FFF7D2FEE620FFF72FFFFFF795
:1007E00006FF18B1FFF7E6FE012070BD3046FFF7A7
:1007F00025FFFFF7FCFEFFF7C1FEE720FFF71EFF16
:10080000FFF7F5FE08E0012C0CD00120FFF745FFB3
:10081000641E05F8010BA4B2002CF4D1FFF7CAFE48
:10082000002070BD0020F1E710B5FFF7A7FEE6201D
:10083000FFF704FFBDE81040BCE60C48816941F0B9
:10084000080181610748016821F47F410160016866
:1008500041F44C51016003480830016841F44061A3
:1008600001607047040C01400080214200100240EA
:1008700010B56FF0040000F036F9204820490068F8
:10088000B0FBF1F01F49C0B200EB40020870C2EBB0
:10089000C0104FF6FF7202EAC000488010BD19492F
:1008A000097848434FF0E021486100238B610869D3
:1008B00040F0010008610869C20701D0C003FAD501
:1008C000086920F0010008618B6170470D49498873
:1008D00048434FF0E021486100238B61086940F0F4
:1008E000010008610869C20701D0C003FAD5086990
:1008F00020F0010008618B617047000000000020BB
:1009000000127A0014000020704740490A885206FD
:10091000FCD53E4AC1B2121D1180704770B5054624
:1009200086B0012144F2040000F02FFB4FF4007068
:10093000ADF8100003248DF812401820344E8DF8C5
:10094000130004A9304600F038F93015ADF8100056
:1009500004208DF8130004A9304600F02EF925205C
:100960008DF814008DF815408DF8164001208DF893
:10097000170005A800F077F80020ADF80400ADF8E6
:100980000600ADF80800ADF80C000C201F4CADF8C7
:100990000A0000956946204600F076FB012240F2ED
:1009A0002551204600F0EDFB0121204600F0DFFB41
:1009B00006B070BD70B5154C40F22551204600F0D0
:1009C00097FC00280ED0204600F02BFC114AC1B243
:1009D0001088030406D444044FF0000306D50A2906
:1009E00001D0138070BD40F400400DE00D2909D006
:1009F000C0F30D04084D401C80B229551080C72853
:100A0000EFD870BD40F48040108070BD00380140C8
:100A100000080140180000203400002009488047E9
:100A200009480047FEE7FEE7FEE7FEE7FEE7FEE7D0
:100A3000FEE7FEE7FEE7FEE704480549054A064BE8
:100A400070470000ED02000831010008600100203D
:100A5000600700206003002060030020284908434D
:100A600028490860704730B50F23C2780178012506
:100A7000F2B1244A126801F1E02102F4E062C2F509
:100A8000E062120AC2F10404D3404278A2408478A2
:100A90001C401443220181F80024007800F01F015B
:100AA0008D404009800000F1E020C0F8005130BDC9
:100AB00001F01F0085404809800000F1E020C0F8E7
:100AC000805130BD104A114001430E48001F0160A3
:100AD00070470C4A121D0029116801D0014300E043
:100AE0008143116070474FF0E0210428086903D06A
:100AF00020F004000861704740F00400FAE70000AD
:100B00000000FA050CED00E080FFFF1F8F4910B5D3
:100B1000884206D10121042000F049FA0021042076
:100B20003BE08B49884206D10121082000F03FFAC2
:100B30000021082031E08749884206D10121102098
:100B400000F035FA0021102027E08349884206D1C1
:100B50000121202000F02BFA002120201DE07F49F8
:100B6000884206D10121402000F021FA00214020D6
:100B700013E07B49884206D10121802000F017FA5A
:100B80000021802009E0774988420AD1841501219B
:100B9000204600F00CFA00212046BDE8104000F08D
:100BA00006BA10BD10B50121084600F000FA002178
:100BB000BDE81040012000F0FAB9F0B5CC78002271
:100BC00004F00F03E40601D58C7823430C784FF032
:100BD0000F0C14F0FF0F4FF0010E1BD005680E88AC
:100BE0000EFA02F42640A64210D196000CFA06F73F
:100BF00025EA070703FA06F5CE783D43282E02D0F2
:100C0000482E02D002E0446100E00461521C082A30
:100C1000E5D305600A88FF2A1CD94468002202F146
:100C200008060EFA06F50E882E40AE420ED196004A
:100C30000CFA06F7BC4303FA06F7CE783C43282E9D
:100C400000D14561CE78482E00D10561521C082A9A
:100C5000E5D34460F0BD4FF6FF7101800221817041
:100C60000421C17070470246002092680A4200D0F9
:100C700001207047806880B2704702460020D26829
:100C80000A4200D001207047C06880B270470161FD
:100C90007047416170470AB1016170474161704717
:100CA000C160704741F480328261816182618169F3
:100CB000806970472C4B10B51A684FF6807422403B
:100CC00042EA00100843186010BD2849C861704707
:100CD000F0B5254C002801DAE36900E06368450DB2
:100CE0002E0185B2C0F30157B540C0F30342032F74
:100CF00005D0C6020AD503269640B34307E023F089
:100D00007062636823F07063636002E0AB4343F09A
:100D1000706201B12A43002801DAE261F0BD62602D
:100D2000F0BD10B58A0721F003040F49120F2144CA
:100D30000F238C6893409C438C608B6890400343E6
:100D40008B6010BD0949C1F8DC0070470008014004
:100D5000000C014000100140001401400018014047
:100D6000001C014000200140000001400000204222
:100D7000A548016841F0010101604168A34A1140A2
:100D800041600168A24A11400160016821F480219C
:100D90000160416821F4FE0141604FF41F01816050
:100DA000704799490A6822F480320A600A6822F47E
:100DB00080220A60B0F5803F07D0B0F5802F03D1C4
:100DC000086840F4A02008607047086840F480304C
:100DD000F9E70346002059098B4A01290AD0022964
:100DE0000AD0516A03F01F02012393400B4200D046
:100DF000012070471168F5E7116AF3E718B5002084
:100E00004FF4A06400903120FFF7E3FF0099491CE4
:100E10000091A14201D00028F5D03120FFF7D9FF81
:100E2000002800D0012018BD774A116821F0F80190
:100E300041EAC00010607047764908607047724B05
:100E40005A68084322F47C12104358607047714975
:100E5000086670476C4A516821F0030101435160F4
:100E600070476948406800F00C007047664A516856
:100E700021F0F001014351607047634A516821F449
:100E8000E0610143516070475F4A516821F460514D
:100E900041EAC000506070475B4A0029517A01D096
:100EA000014300E08143517270475A49C1F8D800AC
:100EB0007047554A516821F44041014351607047E1
:100EC0005149002281F8202081F82020012802D0F9
:100ED000042802D1052081F8200070474E4908609F
:100EE000704749490A6A02430A6270474A494439CD
:100EF0000860704730B5444A5168484B11F00C0106
:100F000003D0042901D0082901D0036012E0516800
:100F1000536801F470114FF0020413F4803F04EBA6
:100F2000914102D053689B0301D53D4B00E03B4B00
:100F30005943016051680F2303EA1111394B5C5C7E
:100F40000168E14041605468072505EA14241C5DEE
:100F500021FA04F48460546805EAD4241B5DD94066
:100F6000C1605268032303EA92322E4B1B1F9A5C26
:100F7000B1FBF2F1016130BD234A0029516901D072
:100F8000014300E08143516170471F4A0029916984
:100F900001D0014300E08143916170471A4A002962
:100FA000D16901D0014300E08143D1617047164A05
:100FB0000029D16801D0014300E08143D16070472E
:100FC000114A0029116901D0014300E081431161F8
:100FD000704711494039086070470E49C86470472E
:100FE0000949C87170470848416A41F080714162FF
:100FF0007047054A0146002092680A4200D001204D
:101000007047014988727047001002400000FFF8E5
:10101000FFFFF6FE000042428004424200127A00C6
:1010200000093D0024000020C44910B588420AD1BF
:1010300001218C032046FFF7BAFF2046BDE810408F
:101040000021FFF7B4BFBE49884202D101214C0400
:1010500010E0BC49884202D101218C040AE0BA495F
:10106000884202D10121CC0404E0B84988420AD167
:1010700001210C052046FFF7A3FF2046BDE81040E4
:101080000021FFF79DBF10BD30B50446008A85B032
:101090000D464CF6FF710840E98801432182A08982
:1010A0004EF6F3110840A9882A8911436A89024340
:1010B0001143A181A08A4FF6FF410840A98901434D
:1010C000A1826846FFF716FF9C48844201D103982D
:1010D00000E00298A189090400EBC00101EB0010B7
:1010E000296801D5490000E08900B0FBF1F06422D5
:1010F000B0FBF2F109010B096FF018056B4300EB2F
:101100008300A3891D044FF0320306D503EBC00012
:10111000B0FBF2F000F0070005E003EB0010B0FBBD
:10112000F2F000F00F000843208105B030BD4FF40D
:101130001651016000218180C18001810C22428111
:101140008181704710B5028A4FF2FF031A400B8865
:101150004C8823438C88C9880C4323431343038260
:1011600010BD0021018041808180C180704700292D
:10117000818902D041F4005101E021F400518181C4
:10118000704710B5C1F3421301F01F040121A140C3
:10119000012B07D0022B07D01430002A026805D09B
:1011A0000A4304E00C30F8E71030F6E78A430260A7
:1011B00010BD002A828A01D00A4300E08A4382825D
:1011C0007047028A22F00F020282028A0A430282D8
:1011D0007047828922F40062828182890A43828177
:1011E00070470029818902D041F0020101E021F01D
:1011F000020181817047028A22F020020282028A63
:101200000A43028270470029018A02D041F48041DA
:1012100001E021F4804101827047C1F3080181801F
:1012200070478088C0F308007047818941F0010150
:1012300081817047028BD2B20283028B42EA012184
:1012400001837047028B02F47F420283028B0A43C0
:10125000028370470029818A02D041F0200101E019
:1012600021F02001818270470029818A02D041F05B
:10127000100101E021F01001818270470029818A6C
:1012800002D041F0080101E021F00801818270479D
:101290000029818902D041F4004101E0C1F30E012F
:1012A000818170470029818A02D041F4006101E008
:1012B00021F4006181827047828A22F004028282D6
:1012C000828A0A43828270470029818A02D041F0D3
:1012D000020101E021F002018182704702460020F4
:1012E00012880A4200D001207047C943018070472C
:1012F00070B501F01F0501260024C1F3421306FA60
:1013000005F2012B0FD0022B0FD0838A4FEA112157
:101310000088134206FA01F600EA060001D000B187
:101320000124204670BD8389F0E7038AEEE70A0AAC
:1013300001219140C94301807047000000380140FD
:101340000044004000480040004C00400050004075
:10135000704700000FB4044910B503AA029800F0CA
:1013600009F810BC5DF814FB1C00002070477047A2
:1013700070477047074B70B50D467B4400F011F87D
:101380000446284600F020F810B14FF0FF3070BD41
:10139000204670BD8DF5FFFF01694A1C0261087887
:1013A000704700B58FB0CDE90131002105910549A5
:1013B0007944CDE903101146684600F02EF80FB0CD
:1013C00000BD0000E5FFFFFF007B00F080007047DC
:1013D000754600F03FF8AE4605006946534620F0DA
:1013E0000700854618B020B5FFF726FBBDE8204072
:1013F0004FF000064FF000074FF000084FF0000BD1
:1014000021F00701AC46ACE8C009ACE8C009ACE883
:10141000C009ACE8C0098D4670472DE9F041064689
:101420000024D6E90170F5688046304603E0414665
:10143000B847641C3046A8470028F8D12046BDE8CC
:10144000F08110B50446AFF300802046BDE810409F
:10145000FEF7B5BE00487047FC000020EF003229BF
:1014600033013400350136003707381739063A1290
:101470003F00400241FF4201462D470F483C4900D2
:101480004A1E4B004C204D004E1A4F145000511074
:1014900052005C025D005E105F3F602761286200C1
:1014A000630364F7650366D96703680169C86A4026
:1014B0006D046E006F00708071007200730074F034
:1014C0007500804281448204832084208500861038
:1014D0008700880589188A108B018C378D008EF063
:1014E0008F8190069106921E930D940A950A960C90
:1014F0009705980A99419A149B0A9C3F9D339EAE8A
:101500009FF9A048A113A210A308A430A519A61002
:10151000A708A824A904AA1EAB1ECC19CD0BCE1374
:10152000CF64D021D10FD288E001E104E241E3D6BB
:10153000E400E50CE60AE700E800E900EE07EF0149
:10154000001E011E020F03100402050006B007046E
:10155000080D090E0A9C0B040C050D0F0E020F124C
:1015600010021102120013011405150716051707C2
:10157000180119041A051B0C1C2A1D011E0021004C
:1015800022002300250126002739287F290830035F
:101590003100321A331A34073507360137FF38362F
:1015A00039073A003EFF3F00407741404200433058
:1015B00044A0455C4600470048584A1E4B1E4C005C
:1015C0004D004EA04F805000510052005300540077
:1015D000578059105A085B945CE85D085E3D5F993E
:1015E00060456140632D64026596660067976801F7
:1015F00069CD6A016BB06C046D2C6E016F327100A5
:101600007201733574007533763177017C847D0304
:101610007E010000341600080000002034000000A5
:101620006C01000868160008340000202C07000038
:101630008801000800A24A04000000000000000029
:101640000102030406070809000000000000000072
:10165000000000000204060800000000010203046C
:0816600001020304060708095A
:0400000508000131BD
:00000001FF
