:020000040800F2
:1000000030080024410300089F380008213600080A
:100010009D380008A90900084944000800000000B4
:10002000000000000000000000000000E53A0008A9
:10003000AB09000800000000A1380008E73A0008FA
:100040005B0300085B0300085B0300085B03000818
:100050005B0300085B0300085B0300085B03000808
:100060005B030008AD090008B30900085B03000842
:100070005B0300085B0300085B0300085B030008E8
:100080005B0300085B0300085B0300085B030008D8
:100090005B0300085B0300085B0300085B030008C8
:1000A0005B0300085B0300085B0300085B030008B8
:1000B0005B0300085B0300085B0300085B030008A8
:1000C0005B0300085B0300085B0300085B03000898
:1000D0005B0300085B0300085B0300085B03000888
:1000E0005B0300085B030008000000005B030008DE
:1000F0005B0300085B0300085B0300085B03000868
:100100005B0300085B0300085B0300085B03000857
:100110005B0300085B030008A13C0008ED3C0008FD
:100120005B0300085B0300085B0300085B03000837
:100130005B0300085B0300085B0300085B03000827
:1001400000000000000000000000000000000000AF
:100150005B0300085B0300085B0300085B03000807
:100160005B0300085B0300085B0300085B030008F7
:100170005B0300085B0300085B0300085B030008E7
:100180005B0300085B0300085B0300085B030008D7
:100190005B0300085B0300085B0300085B030008C7
:1001A0005B0300085B0300085B0300085B030008B7
:1001B0005B0300085B0300085B0300085B030008A7
:1001C0005B0300085B0300085B0300085B03000897
:1001D0005B0300085B0300085B0300085B03000887
:1001E0005B0300085B0300085B0300085B03000877
:1001F0005B0300085B0300085B0300085B03000867
:100200005B0300085B0300085B0300085B03000856
:100210005B0300085B0300085B0300085B03000846
:100220005B0300085B0300085B030008000000009C
:100230005B0300085B030008000000005B0300088C
:100240005B0300085B0300085B0300085B03000816
:100250005B0300085B0300085B0300085B03000806
:100260005B0300085B0300085B0300085B030008F6
:100270005B0300085B0300085B030008000000004C
:100280005B0300085B0300085B030008000000003C
:10029000000000005B03000800F002F800F041F8E5
:1002A0000AA090E8000C82448344AAF10107DA45D1
:1002B00001D100F036F8AFF2090EBAE80F0013F0E2
:1002C000010F18BFFB1A43F0010318474443000015
:1002D00064430000103A24BF78C878C1FAD85207A6
:1002E00024BF30C830C144BF04680C6070470000B0
:1002F0000023002400250026103A28BF78C1FBD82F
:10030000520728BF30C148BF0B607047782900F002
:10031000E380002070471FB504F03CF91FBD10B505
:1003200010BD00F053FA1146FFF7F5FF04F0B2F8E4
:1003300000F071FA03B4FFF7F2FF03BC04F09DF87C
:100340000948804709480047FEE7FEE7FEE7FEE769
:10035000FEE7FEE7FEE7FEE7FEE7FEE704480549A5
:10036000054A064B70470000C53B0008990200088B
:10037000300200243008002430040024300400241B
:10038000704753EA020C00F069802DE9F04B4FF002
:100390000006002B1FBFB3FA83F503FA05F424FA15
:1003A00005F65E4012BF1643B2FA82F502FA05F472
:1003B000C5F120051EBF22FA05FC44EA0C042035D5
:1003C00056EA044C4FEA144418BF641C4FF000086E
:1003D0004FF00009904271EB030C39D3002919BF8B
:1003E000B1FA81F701FA07F6B0FA80F700FA07F6DA
:1003F000C7F120071EBF20FA07FC46EA0C0620378B
:10040000B6FBF4FCA7EB0507103F07F01F0BCBF181
:1004100020060CFA0BFB2CFA06F644BFB346002666
:10042000202FA4BF5E464FF0000B5BEA060C08BF0E
:100430004FF0010B19EB0B09ABFB027C48EB0608F4
:10044000C01B06FB02CC0BFB03CC71EB0C01C1E71C
:100450000B46024641464846BDE8F08B13B54FF0C7
:1004600000004FF00001AFF30080BDE81C40704772
:100470000FB4044910B503AA029800F079F910BC32
:100480005DF814FB0000002470B50446856900681F
:10049000C10601D5302600E02026C00707D070BD78
:1004A000D4E9012130469047206A401C20626D1E2D
:1004B000F6D570BD70B5044685690078C00707D1D0
:1004C00070BDD4E9012120209047206A401C2062A1
:1004D0006D1EF6D570BD000070B504460D46214670
:1004E0001068AFF300802188090502D50F4A7A44CD
:1004F00002E00E4A7A440E32002104F1240305E0A2
:1005000000F00F060009965D5E54491C0028F7D1E3
:1005100020780023000704D5702D02D009B10223F2
:1005200011322046BDE8704000F0C9B8E440000038
:100530002DE9F05F894604464FF0000ADFF824B148
:10054000FB44C0F820A02046E168884700287DD001
:10055000252806D0D4E901219047206A401C20625A
:10056000F1E700255F462046E168884720280646D7
:1005700007DB312E05D2B81910F8200C08B105435D
:10058000F1E7A80701D525F00405C4F81CA0002751
:10059000C4F818A02A2E09D0304603F067FF38B3FC
:1005A00004EB8708303EC8F8186019E059F8041BBE
:1005B000204604EB87029161E1688847012F0646D7
:1005C00018D1E069002820DA25F020051DE0D8F8D0
:1005D000180000EB800006EB40003038C8F8180027
:1005E0002046E1688847064603F040FF0028EED128
:1005F000012F0AD02E2E08D12046E16888477F1CA3
:100600000646022F45F02005C4DBA069002803DA66
:10061000404245F00105A061E80701D025F0100532
:10062000A6B1A6F14100192802D8203645F400658C
:100630004A463146204625604D46FFF767FE60B1C9
:10064000012807D0ED1D25F0070000E007E000F1CC
:10065000080978E705F1040975E730467AE7206A6A
:10066000BDE8F09FBA4000004FF0000200B513460D
:1006700094469646203922BFA0E80C50A0E80C50C2
:10068000B1F12001BFF4F7AF090728BFA0E80C5073
:1006900048BF0CC05DF804EB890028BF40F8042B6C
:1006A00008BF704748BF20F8022B11F0804F18BFD9
:1006B00000F8012B704770477047704770472DE96D
:1006C000F0470D4699469246044600F12408016819
:1006D000880604D5E06921F01001216000E00120C6
:1006E000A84201DD471B00E00027A1697A1902EB4F
:1006F0000900081AA0612078C00602D42046FFF73E
:10070000C3FE002608E0D4E901211AF8060090474C
:10071000206A401C761C20624E45F4DB2078C0061F
:100720000AD52046FFF7B0FE06E0D4E901213020CB
:100730009047206A401C2062381EA7F10107F4DCB4
:1007400007E0D4E9012118F805009047206A401C11
:100750002062281EA5F10105F3DC2046FFF7AAFE62
:100760002078000602D50220BDE8F0870120FBE7D3
:10077000074B70B50D467B4400F011F8044628463F
:1007800000F020F810B14FF0FF3070BD204670BD72
:10079000033D000001694A1C02610878704700B5FA
:1007A0008FB0CDE901310021059105497944CDE9AA
:1007B000031011466846FFF7BBFE0FB000BD0000F6
:1007C000E5FFFFFF007B00F080007047754600F0FA
:1007D0002BF8AE4605006946534620F007008546D3
:1007E00018B020B5FFF7BAFDBDE820404FF0000675
:1007F0004FF000074FF000084FF0000B21F0070109
:10080000AC46ACE8C009ACE8C009ACE8C009ACE84B
:10081000C0098D46704710B50446AFF300802046EE
:10082000BDE81040FFF786BD00487047D0010024A6
:1008300070B53A4905460068884202D0384A90426D
:1008400002D1D1F8080302E03648D0F8080310F4CA
:10085000403F11D002F01AF804466868B0F5803FB6
:1008600006D0B0F5003F03D0B0F5403F27D101E0FE
:10087000000C18E0A40822E000214FF4002001F051
:100880006FF8044668688103890B18D181140C291C
:1008900015D2DFE801F0140606060606060B0D0F5A
:1008A0001113800C4000B4FBF0F408E0240906E0CA
:1008B000640904E0A40902E0E40900E0240A00F06D
:1008C00055FD41F20301884208D817488442286840
:1008D000816813D821F48071816070BD134960086C
:1008E000884204D82868816821F44071F4E71049EF
:1008F000884206D82868816821F4407141F48071EB
:10090000EAE70C4988422868816804D821F44071DC
:1009100041F40071E0E741F44071DDE7002002405E
:100920000021024000600258002D3101105E5F007E
:1009300020BCBE0040787D0170B504460068816827
:100940008268C1F3400112F0010F28D039BB8168E1
:1009500001F00D01012914D18168124A1140891C4E
:10096000816021680320086000F006FD054612E062
:1009700000F002FD401B02280DD920688068C007E6
:1009800009D0606D40F010006065A06D40F001007E
:10099000A065012070BD20688068C007E8D10020F4
:1009A00070BD0000C0FFFF7FFEE77047082000F029
:1009B000ADBB102000F0AABB72B6FEE7F8B5002769
:1009C000044615460E46009790F8500001280BD0BB
:1009D000012084F850002046FFF7AEFF0100606D53
:1009E00004D040F010002DE00220F8BD20F4885023
:1009F00040F002006065206806F4803205F0804314
:100A0000134D1A4383682B401A4342F00042826020
:100A1000104A20680EE0009B5B1C0093934209D3B0
:100A2000606D84F8507020F0020040F010006065A6
:100A30000120F8BD8368DB0FEDD1606D20F002006E
:100A400040F001006065084684F85070F8BD000071
:100A5000C0FFFE3F00F8C3252DE9F84F4FF0000B13
:100A60000446E54E0D46CDF800B05F4690F85000C4
:100A7000DFF888A3012808D04FF0010984F85090CE
:100A8000206802F0D2FD18B169E10220BDE8F88FBC
:100A900021682868CA69030328D090FAA0F0B0FA48
:100AA00080F000BF00F01F0309FA03F00243CA619F
:100AB000D5E900124FF00C0C20681F23C1F38461AC
:100AC0000CEA921C02F01F02604493409140026BBA
:100AD0009A430A430263206802F0A7FD804620681B
:100AE00002F09FFD58EA000003D07FE0C0F384606D
:100AF000D8E72068AA68296802F09BFDC049096808
:100B0000B9EB117F06D121686869C968C1F3820118
:100B1000490008E02068C168C906C1686869F5D560
:100B200001F0100149088840296904292ED0226863
:100B30002B6802EB810103F0F8420B6E024303F0D5
:100B4000004010430866697E22682869012917D091
:100B50005FF0000102EB8000026E22F000420A43C7
:100B60000266287E21682A6901280CD000200B69C2
:100B700002F01F02904023F4F04202430A6135E084
:100B80004FF00041E6E74FF40060F0E72068297875
:100B9000026E02F0F842B2EB816F03D1016E21F0D8
:100BA0000041016620682978426E02F0F842B2EBFB
:100BB000816F03D1416E21F00041416620682978A0
:100BC000826E02F0F842B2EB816F03D1816E21F0A8
:100BD0000041816620682978C26E02F0F842B2EBCB
:100BE000816F03D1C16E21F00041C1662068816828
:100BF00011F0010F76D150F8C02F95F80CC0814B41
:100C000029680CF0180C23FA0CF3C1F313080B40FD
:100C100022EA08021A4302607B48E968814277D1E0
:100C2000286801031BD090FAA0F1B1FA81F1491CA8
:100C300001F01F0109294FEA003131D8002911D0F4
:100C400090FAA0F1B1FA81F101F1010101F01F0167
:100C500009FA01F209D100BFC0F3846109E0C0F3D1
:100C60008461E4E7C0F38461EEE790FAA0F1B1FAA1
:100C700081F101F1010101F01F0142EA816102D11C
:100C8000C0F3846003E090FAA0F0B0FA80F000F1C5
:100C9000010000F01F0000EB400041EA005133E08A
:100CA00000290ED090FAA0F1B1FA81F101F1010111
:100CB00001F01F0109FA01F206D100BFC0F38461FF
:100CC00006E0C0F38461F1E790FAA0F1B1FA81F196
:100CD00001F1010101F01F0142EA816103D1C0F37A
:100CE000846004E040E090FAA0F0B0FA80F0474A57
:100CF00000F1010000F01F0000EB400002EB00508B
:100D000041EA000141F00071AA68206802F091FCFC
:100D1000D5F800C0BCF1000F26DA3D4B20683D49F4
:100D2000DFF8F490984201D0B04201D10A4600E0C9
:100D30004A469268984202F0E07201D0B04209D16E
:100D40009D68D6F8088005F0010508F0010845EA1D
:100D5000080503E0DAF8085005F0010545B1606DBB
:100D6000012740F020006065384684F850B08DE6D9
:100D70002A4DAC451CD115021AD45045F4D19842E5
:100D800002D0B04200D049468B6842F4000023F004
:100D9000E07202438A60234921480968B1FBF0F000
:100DA0004000801C00E0401E00900028FBD1DBE7E3
:100DB0001D4DAC450CD1D5010AD45045D4D1984233
:100DC00002D0B04200D049468B6842F080700EE0FD
:100DD000164DAC45C8D15502C6D45045C4D1984231
:100DE00002D0B04200D049468B6842F4800023F024
:100DF000E07202438A60B7E70021024000600258B7
:100E00000010005CFFFF0F000000FF47000020FE05
:100E1000002002400023024000630258000084CBFF
:100E2000400D030038000024000052C70000B8CF76
:100E3000F8B54FF0000604003546009602D0606D0C
:100E400010B107E00120F8BD204600F005F9A665C5
:100E500084F8506020688168C1F3407119B18168DD
:100E6000704A1140816020688168C1F3007181B9C6
:100E700081686D4A114041F0805181606C496B4836
:100E80000968B1FBF0F0401C00E0401E0090002813
:100E9000FBD120688168C1F3007141B9616D012502
:100EA00041F010016165A16D41F00101A16502F001
:100EB000BCFB616DC90600D420B1606D012540F016
:100EC000100093E0606D20F4807040F002006065D7
:100ED0002068816811F0010F1FD1564A564B90428D
:100EE00001D0984207D191689E6801F0010106F097
:100EF0000106314303E05149896801F0010161B9FC
:100F0000904201D0984201D14D4800E04D4882689E
:100F1000616822F47C120A43826000F027FA41F2F1
:100F20000301884202D9A06810280CD0617D227F7D
:100F3000A368206B490341EA024118430843217F1B
:100F400001290CD010E0607D227F216B400340EA34
:100F5000024241F01000104340F00C00EFE7218CFA
:100F6000394A02EB41410843616A29B1A26A01F49E
:100F70007871014342EA01002168344BCA681A4083
:100F80000243CA60206802F050FB0646206802F067
:100F900048FB30431DD1216844F20303267DE26AF9
:100FA000C86842EA863298431043C86094F8380013
:100FB00001281ED02068016921F00101016120682B
:100FC000626B016921F07041114301612046FFF716
:100FD0002FFCE068012820681CD0016B21F00F0174
:100FE0000163606D20F0020040F00100606528465A
:100FF000F8BD2068A28F164FD4E9101C154E07EBE0
:101000000247A36C026941EA0C013B433240194399
:101010001143D3E7A269016B521E21F00F01114366
:10102000DEE70000C0FFFF5FC0FFFF7F400D030051
:1010300038000024002002400021024000600258D5
:1010400000230240006302580000FEFF03C0F0FFCF
:101050000100FFFF1EF800FCF0B5B1B00446C0214E
:101060006846FFF701FB1D492068884234D10DF125
:10107000080C02200C2404258CE83100C0260590C1
:10108000002329932027CDE906064FF40022684665
:10109000CDE90873CDE9002300F0C6FD08B1FFF7E4
:1010A0008BFC0F48016841F080710160016801F01C
:1010B00080713091016841F004010160006800F026
:1010C000040030904FF08060014601F083FF4FF044
:1010D0000060014601F07EFF31B0F0BD00600258B3
:1010E000E044025810B5074C102807D0082804D156
:1010F000054802F01DF80120607010BD00F03CF9B9
:10110000206110BD04000024A40000244FF0B04171
:1011100010B5D1F88820024203D0C1F88800FFF74B
:10112000E1FF10BD2DE9F84F03247D4D00234FF062
:1011300001094FF0B04B4FF00F0AE9E009FA03F74D
:101140003A4076D00E7906F00306012E01D0022E29
:1011500018D1D0F808C04FEA430ECE6804FA0EF852
:101160002CEA080C06FA0EF646EA0C068660D0F861
:1011700004C00E792CEA070CC6F300169E4046EA1E
:101180000C0646600E79F643B6070BD0C6684FEAE8
:1011900043088F6804FA08FC26EA0C0607FA08F7E9
:1011A0003743C7600E7906F00306022E12D1DE081F
:1011B0000F694FEA437C00EB8606B646366A4FEA73
:1011C000DC6C0AFA0CF807FA0CF726EA0806374333
:1011D000CEF820700F7906684FEA430807F003073E
:1011E00004FA08FC07FA08F726EA0C0637430760FA
:1011F0004E6816F4403F1CD04A4E376847F002074D
:10120000376036689F0706F00206009623F0030653
:1012100006F1B046B6463F0FD6F80864DFF80881FD
:101220000AFA07FC404526EA0C0603D14FF0000CF1
:1012300041E06CE0DFF8F4C0604502D14FF0010CF2
:1012400039E0DFF8ECC0604502D14FF0020C32E02B
:10125000DFF8E0C0604502D14FF0030C2BE0DFF86F
:10126000D8C0604502D14FF0040C24E0DFF8CCC0B8
:10127000604502D14FF0050C1DE0DFF8C4C06045A9
:1012800002D14FF0060C16E0DFF8B8C0604502D17D
:101290004FF0070C0FE0DFF8B0C0604502D14FF00F
:1012A000080C08E0DFF8A4C0604502D14FF0090C3B
:1012B00001E04FF00A0C0CFA07FC4CEA060CCEF8E1
:1012C00008C44F68DBF80060FF0226EA020600D57A
:1012D00016435F46CBF80060D1F804C0DBF8046029
:1012E0005FEA8C2C26EA020600D516437E606E6803
:1012F0004F6826EA0206BF0300D516436E602E68CB
:101300004F6826EA0206FF0300D516432E605B1CD9
:101310000A6832FA03F67FF411AFBDE8F88F0000D7
:1013200080000058F444025800000258000402589B
:1013300000080258000C025800100258001402580D
:1013400000180258001C02580020025800240258BD
:10135000426921EA02030A4043EA0241816170477F
:101360000AB1816170470904FBE700000148006889
:10137000000C70470010005C014880687047000056
:101380002C00002402488168027811448160704773
:101390002C000024032010B500F0ACF801F0BCFADA
:1013A0000F4A104914681368C4F3032203F00F03B3
:1013B0008A5CC95C02F01F0201F01F01D0400A4A9A
:1013C00020FA01F11160094908600F2000F010F8BF
:1013D00008B1012010BD00F051F8002010BD000040
:1013E00018440258C64500083C0000243800002478
:1013F00010B5102804468AB02CD2002201463720AE
:1014000000F058F8372000F047F8174804601748F4
:10141000016841F020010160006809A900F0200086
:101420000890684601F004FA0598B0B101F050FA4E
:1014300040000F4900220F4CB0FBF1F10E4840F282
:10144000E7330460C0E90332491EC0E9011201F02C
:101450001FFE28B101200AB010BD01F039FAE8E7FB
:10146000054801F065FEF6E730000024E844025824
:1014700040420F000014004084010024054808B5D4
:10148000016841F002010160006800F00200009074
:1014900008BD0000F4440258002809DB410900F0AF
:1014A0001F028900012001F1E0219040C1F80001F4
:1014B000704700000E4BF0B41B680D46C3F30223C7
:1014C000C3F10706042E00D90426191D072901D2ED
:1014D000002300E0DB1E012404FA06F19C40491EB3
:1014E0002940641E994014402143F0BC02F0ADBF76
:1014F0000CED00E0064900F0070210B54FF6FF04BE
:101500000868044B204040EA02201843086010BDE0
:101510000CED00E00000FA05134970B50A68D243EB
:10152000520705D5096801F00701814213D118E07F
:101530000A6822F0070202430A60FFF71DFF0A4D06
:101540004FF47A760446083D07E000BFFFF714FF2A
:10155000001BB04201D9012070BD2868C04380043F
:10156000F4D4002070BD00000C48025810B501F002
:101570008DF905490968054AC1F30211515C01F072
:101580001F01C84010BD000020440258C645000895
:101590004A4930B5494C0B1D0A680C3409681D686E
:1015A000246802F0030305F00102C1F30511C4F33E
:1015B000CC04002914FB02F200EE102AF8EE400AD7
:1015C00076D0414A9FED3E1ADFED3E1AB7EE000A93
:1015D00023B1012B5AD0022B18D15CE0374C283CA8
:1015E00023689B0612D5394B246801EE901A1168C6
:1015F000C4F3C104F8EE612AE34001EE903AC1F36E
:101600000801F8EE611A81EEA22A07E002EE101A34
:101610001168F8EE422A81EEA22A45E001EE901A06
:101620001168F8EE611A40EE811A71EE800A62EEDE
:10163000200AC1F3462101EE101AB8EE411A31EE2C
:10164000001AC0EE811ABCEEE11A80ED001A116892
:10165000C1F3064101EE101AB8EE411A31EE001A3C
:10166000C0EE811ABCEEE11A80ED011A1168C1F3D7
:10167000066101EE101AB8EE411A31EE000A80EE52
:10168000801ABCEEC10A80ED020A30BD01EE901A4C
:10169000DFED0F2A03E001EE901ADFED0E2A11684C
:1016A000F8EE611A82EEA12AC1F30801B6E7FFE75E
:1016B000002101604160816030BD00002844025873
:1016C000000000390024744C304402580090D003CC
:1016D0000024744A20BCBE4B494930B5484C0B1D10
:1016E0000A68143409681D68246802F00303C5F30E
:1016F0000012C1F30531C4F3CC04002914FB02F23B
:1017000000EE102AF8EE400A75D03F4A9FED3D1AD0
:10171000B7EE000A6BB1DFED3D1A012B01D0022BB1
:1017200064D002EE101A1168F8EE422A81EEA22A65
:1017300021E0334C283C23689B0612D5344B2468A7
:1017400001EE901A1168C4F3C104F8EE612AE34077
:1017500001EE903AC1F30801F8EE611A81EEA22A77
:101760000BE001EE901ADFED2B2A00BFF8EE611AB4
:10177000116882EEA12AC1F3080101EE901A1168E6
:10178000F8EE611A40EE811A71EE800A62EE200ACC
:10179000C1F3462101EE101AB8EE411A31EE001ADB
:1017A000C0EE811ABCEEE11A80ED001A1168C1F397
:1017B000064101EE101AB8EE411A31EE001AC0EEE1
:1017C000811ABCEEE11A80ED011A1168C1F30661BD
:1017D00001EE101AB8EE411A31EE000A80EE801ABE
:1017E000BCEEC10A80ED020A30BD04E001EE901AA1
:1017F000DFED092ABAE70021016041608160F3E76B
:101800002844025800000039384402580024744A21
:101810000090D0030024744C20BCBE4B494930B525
:10182000484C0B1D0A681C3409681D68246802F0C6
:101830000303C5F30022C1F30551C4F3CC0400290E
:1018400014FB02F200EE102AF8EE400A75D03F4A6F
:101850009FED3D1AB7EE000A6BB1DFED3D1A012B8B
:1018600001D0022B64D002EE101A1168F8EE422A61
:1018700081EEA22A21E0334C283C23689B0612D536
:10188000344B246801EE901A1168C4F3C104F8EED9
:10189000612AE34001EE903AC1F30801F8EE611AC3
:1018A00081EEA22A0BE001EE901ADFED2B2A00BF99
:1018B000F8EE611A116882EEA12AC1F3080101EE67
:1018C000901A1168F8EE611A40EE811A71EE800AE2
:1018D00062EE200AC1F3462101EE101AB8EE411A59
:1018E00031EE001AC0EE811ABCEEE11A80ED001A4A
:1018F0001168C1F3064101EE101AB8EE411A31EE3B
:10190000001AC0EE811ABCEEE11A80ED011A1168CE
:10191000C1F3066101EE101AB8EE411A31EE000A69
:1019200080EE801ABCEEC10A80ED020A30BD04E0F0
:1019300001EE901ADFED092ABAE70021016041604B
:101940008160F3E7284402580000003940440258FF
:101950000024744A0090D0030024744C20BCBE4B79
:101960002DE9F04FAC4A0546DFF8A8A280F480705C
:10197000DFF8AC9289B01311AA4C0843A748AAF12A
:1019800004064FF0805C4FF000582CD085F40077AF
:101990000F4357D0DFF87CB285F480670F430BF11B
:1019A000080B61D085F400670F4374D085F480572D
:1019B0000F436ED085F400570F434FF480394FF436
:1019C000003E67D085F400270F4371D085F480373F
:1019D0000F436ED085F480460E436BD085F40042F1
:1019E0000A4368D02AE0DAF8001001F0070105295F
:1019F00024D2DFE801F075BC7D25B10006A8FFF711
:101A0000C7FD079809B0BDE8F08F6846FFF764FE90
:101A10000098F7E703A8FFF701FF0398F2E72068B3
:101A2000C0F3C10022FA00F0ECE72268D20571D5BC
:101A300061456FD11846E5E74145E3D00020E1E775
:101A40004846DFE7DAF8001001F4E07180294FD052
:101A500004DC002944D04029F0D188E0C029EFD02F
:101A6000B1F5807FEAD177E0DBF8001001F4600186
:101A7000B1F5800F3CD004DC91B3B1F5001FDDD18E
:101A800075E0B1F5C00FDBD0B1F5000FD6D163E042
:101A900001E018E030E0DBF8001001F0E061B1F1A6
:101AA000007F25D008DCD9B1B1F1807FC6D15EE0DE
:101AB00049E06CE079E09CE0B1F1407FC0D0B1F149
:101AC000806FBBD148E0DAF8001001F4E041B1F5D5
:101AD000005F0DD005DC19B1B1F5805FAED146E0F5
:101AE00094E0B1F5405FABD0B1F5804FA6D133E0C3
:101AF00020688000A2D58DE7DAF8001001F4E0211B
:101B0000B1F5403F6CD006DC61B149457AD07145F2
:101B100094D157E037E0B1F5802F65D0B1F5A02F13
:101B20008CD10CE000F0D4FE6CE76846FFF7D4FDE2
:101B3000019867E703A8FFF771FE049862E7216840
:101B40008903F1D47AE7DBF8001011F440310ED0AC
:101B5000494510D07145F5D13168256801F04051F3
:101B60006D077FF562AF00297FF45FAF57E720680C
:101B70000001E7D549E720688000E3D503A8FFF717
:101B80004DFE05983EE722689203DBD554E73068A6
:101B900010F480303AD04845D4D120680001D1D526
:101BA0006846FFF799FD02982CE7DBF8001001F07A
:101BB000E041B1F1405F13D008DC71B1614521D043
:101BC0004145BFD120688000B4D437E7B1F1804FE0
:101BD0000AD0B1F1A04FB2D030E7FFF7C7FC11E750
:101BE00020684007AED51AE72068C005AAD521E7CE
:101BF00008E0DAF8001011F04051A0D0614505D09E
:101C000041459FD1206800018FD417E720688001EB
:101C100098D5F3E6504402580090D00340787D01F7
:101C20000080BB00004402582DE9FE4F0546DFF856
:101C3000E48350F8081B0024F64FC943019005F1D6
:101C40002800264608F12408009008011DD4A86E3B
:101C500050B1B0F5801F0CD0B0F5001F0ED0B0F51C
:101C6000401F1ED001240FE0386840F40030386077
:101C700017E00198022101F015FE03E0009802210F
:101C800001F0A0FE04000CD026462888C043C00501
:101C900023D4A86D05281ED2DFE800F00C11161B16
:101CA0001B00AA6ED8F8001021F440111143C8F8A7
:101CB0000010EAE7386840F40030386009E0019825
:101CC000002101F0EFFD03E00098002101F07AFE11
:101CD000044674B100E0012426462888C0438005EC
:101CE00028D4E86D80281ED00CDC90B140280ED19D
:101CF00014E0AA6DD8F8001021F007011143C8F8CC
:101D00000010EAE7C02813D0B0F5807F10D001247E
:101D10000FE0386840F40030386009E00198002195
:101D200001F0C0FD03E00098002101F04BFE0446E5
:101D30009CB126462888DFF8DC92C04309F12C09C3
:101D400040052CD4D5F8A800B0F5800F20D00DDCCC
:101D5000A0B1B0F5001F0FD115E0EA6DD8F8001062
:101D600021F4E0711143C8F80010E3E7B0F5C00FAB
:101D700013D0B0F5000F10D001240FE0386840F404
:101D80000030386009E00198002101F08BFD03E08C
:101D90000098002101F016FE04467CB126462888F2
:101DA000C04300052DD4D5F8AC00B0F1007F21D0A0
:101DB0000EDCA8B1B0F1807F10D116E0D5F8A820D4
:101DC000D9F8001021F460011143C9F80010E6E7CA
:101DD000B0F1407F13D0B0F1806F10D001240FE03C
:101DE000386840F40030386009E00198002101F0C3
:101DF00059FD03E00098002101F0E4FD044674B1B0
:101E000026462868C04380011FD4E86CD8B110284A
:101E10000FD0202812D0302815D0012414E0D5F896
:101E2000AC20D9F8001021F0E0611143C9F800108E
:101E3000E7E7386840F40030386004E00198022198
:101E400001F030FD044674B126462888C043C00422
:101E50002BD4286EB0F5005F20D00DDCA0B1B0F51A
:101E6000805F0FD115E06B48EA6C2030016821F0EB
:101E7000300111430160E8E7B0F5405F13D0B0F5E1
:101E8000804F10D001240FE0386840F400303860F3
:101E900009E00198002101F005FD03E00098002110
:101EA00001F090FD04468CB126462888C04380048A
:101EB00029D4686EB0F5403F23D010DC08B3B0F5EC
:101EC000803F14D0B0F5003F0FD115E02A6ED8F84E
:101ED000001021F4E0411143C8F80010E5E7B0F527
:101EE000802F0ED0B0F5A02F0BD001240AE001986E
:101EF000012101F0D7FC03E00098012101F062FD0F
:101F0000044694B126462888C04340042AD4D5F814
:101F1000B000B0F1405F23D010DC08B3B0F1805FB7
:101F200014D0B0F1005F0FD115E06A6ED8F8001040
:101F300021F4E0211143C8F80010E4E7B0F1804F2C
:101F40000ED0B0F1A04F0BD001240AE0019801217E
:101F500001F0A8FC03E00098012101F033FD0446E4
:101F600074B126462888C04300041FD4286FD8B116
:101F7000B0F1805F0ED0B0F1005F10D0012414E00A
:101F8000D5F8B020D9F8001021F0E0411143C9F88C
:101F90000010E7E7386840F40030386004E001984A
:101FA000012101F07FFC044674B126462868C04335
:101FB000C0011ED4A86CD0B101280ED0022811D0C7
:101FC000032814D0012413E02A6FD8F8001021F060
:101FD00040511143C8F80010E8E7386840F4003079
:101FE000386004E00198022101F05CFC0446ACB1C9
:101FF00026462868DFF81CB0C043ABF11C0B40023A
:1020000052D40548016841F480710160FFF7B4F9CA
:10201000824611E02C44025800480258FA48AA6C43
:10202000016821F0030111430160E2E7FFF7A4F921
:10203000A0EB0A00642835D8F4480068C005F5D53F
:102040008CBBDFF8C4A3B5F8B4100AF1240ADAF89F
:10205000000001F4407100F44070884211D0DAF8B9
:102060000010DAF8002021F4407142F48032CAF8FE
:102070000020DAF8002022F48032CAF80020CAF8E2
:102080000010D5F8B400B0F5807F1AD1FFF774F9CD
:10209000029012E0FFF770F90299411A41F288307C
:1020A00081420AD9032426462878DFF85CA3C0437E
:1020B0000AF1080AC00721D03CE0DAF800008007E6
:1020C000E8D5D5F8B410C1F30120032858460DD047
:1020D000016821F47C510160B5F8B420DAF80010F1
:1020E000C2F30B021143CAF80010DDE7C84A0368C7
:1020F00002EA111223F47C511143ECE7E86F18282F
:1021000016D005DCA0B1082808D0102804D10AE0B8
:1021100020280DD028280BD001240AE001980121A5
:1021200001F0C0FB03E00098012101F04BFC0446E4
:1021300064B126462878C04380071ED4A86F0628BD
:1021400019D2DFE800F0160C11161616EA6FDAF84D
:10215000001021F038011143CAF80010EAE7019895
:10216000012101F09FFB03E00098012101F02AFC0E
:1021700004467CB100E0012426462878C04340078D
:102180001FD4D5F89400062819D2DFE800F0160C09
:1021900011161616AA6FDAF8001021F00701114384
:1021A000CAF80010E9E70198012101F07BFB03E088
:1021B0000098012101F006FC0446A4B100E00124CE
:1021C00026462878C04380062BD4D5F89000B0F17D
:1021D000405F24D011DC10B3B0F1805F15D0B0F1B6
:1021E000005F10D116E0D5F89420D9F8001021F046
:1021F00007011143C9F80010E3E7B0F1804F0ED09A
:10220000B0F1A04F0BD001240AE00198002101F0A9
:1022100049FB03E00098022101F0D4FB044694B18D
:1022200026462878C04340062BD4D5F89C00B0F54C
:10223000406F24D011DC10B3B0F5806F15D0B0F52D
:10224000006F10D116E0D5F89020DAF8001021F0D8
:10225000E0411143CAF80010E3E7B0F5805F0ED00B
:10226000B0F5A05F0BD001240AE00198002101F035
:1022700019FB03E00098022101F0A4FB044694B18D
:1022800026462878C04300062BD4D5F8A000B0F528
:10229000C04F24D011DC10B3B0F5005F15D0B0F5FD
:1022A000804F10D116E0D5F89C20D9F8001021F409
:1022B000E0511143C9F80010E3E7B0F5004F0ED02C
:1022C000B0F5204F0BD001240AE00198002101F065
:1022D000E9FA03E00098022101F074FB044654B1CE
:1022E00026462878C04300071ED4D5F88400B0F5F0
:1022F000805F0AD00FE0D5F8A020D9F8001021F4B3
:1023000060411143C9F80010EBE70098022101F089
:1023100059FB00B10126D5F88420DAF8001021F429
:1023200040511143CAF800102878C043C00613D4A6
:10233000D5F89800B0F5807F05D10098022101F012
:1023400041FB00B10126D5F89820D9F8001021F4FE
:1023500040711143C9F800102868C043000316D427
:10236000D5F8A40038B1B0F5803F09D0B0F5003FF2
:102370000BD001240AE00198002101F093FA03E058
:102380000098022101F01EFB04468CB12646286805
:10239000C043400322D4D5F88800B0F5801F11D087
:1023A000B0F5001F13D0B0F5401F15D0012414E084
:1023B000D5F8A420D9F8001021F440311143C9F810
:1023C0000010E4E7386840F40030386004E000981A
:1023D000012101F0F7FA04465CB126462868C043A3
:1023E000C00323D4286DA8B1B0F5803F17D00124D5
:1023F0001BE0D5F88820DAF8001021F440111143D1
:10240000CAF80010EAE700004C440258004802589D
:10241000CFFFFF00386840F40030386004E00198D6
:10242000022101F03FFA0446E4B126462868C04381
:10243000800005D40098022101F0C4FA00B1012601
:102440002868C04380031BD4D5F88000B0B1B0F534
:10245000807F0FD0B0F5007F10D0B0F5407F0DD059
:1024600001240CE05A482A6D016821F4803111439F
:102470000160DBE7386840F400303860ECB3264692
:102480002868C043C00207D46A6FD8F8001021F052
:1024900000411143C8F800102868C043C00008D4A8
:1024A000D5F8B820DBF8001021F480411143CBF8B7
:1024B00000102868C043800207D4EA6ED8F80010E4
:1024C00021F080711143C8F800102868C043400013
:1024D0000CD4DBF8001021F40041CBF80010DBF83D
:1024E0000010D5F8BC201143CBF800102868C04379
:1024F00008D437486A6D016800E018E021F04051C7
:10250000114301602868C043000208D4D5F88C202C
:10251000DAF8001021F440011143CAF800102879BC
:102520000024C04300F0010020430AD00FE0D5F89A
:102530008020DAF8001021F440711143CAF800102D
:102540009EE70198002101F0ADF900B10646287917
:10255000C04300F00200204305D10198012101F0A1
:10256000A1F900B106462879C04300F004002043D9
:1025700005D10198022101F095F900B106462879AC
:10258000C04300F00800204305D10098002101F06D
:1025900019FA00B106462879C04300F01000204324
:1025A00005D10098012101F00DFA00B10646287905
:1025B000C04300F02000044304D10098022101F040
:1025C00001FA00B916B10120BDE8FE8F0020FBE73B
:1025D0004C4402582DE9F05F04000F467ED0DFF82E
:1025E0003882D8F8000000F00F00B8420CD2D8F8BA
:1025F000001021F00F013943C8F80010D8F800008E
:1026000000F00F00B84269D12078844D40070AD508
:102610002069296801F07001884204D9296821F0F5
:1026200070010143296020787C4E361D00070AD5D1
:102630006069316801F07001884204D9316821F085
:102640007001014331602078C0060AD5A069316865
:1026500001F4E061884204D9316821F4E06101436A
:1026600031602078DFF8B4B180060BF1080B0CD58F
:10267000E1695846DBF8002002F07002914204D96B
:10268000026822F070020A430260207880070AD5AF
:10269000E068296801F00F01884204D9296821F017
:1026A0000F01014329602078C0073ED05B49A26832
:1026B0002868183920F47060104328606068022888
:1026C00018D0032819D00968012819D04907002912
:1026D0004ADADFF848A1AAF1080A00E044E0DAF893
:1026E000002022F007020243CAF80020FEF744FE51
:1026F000814612E009688903E9E709688901E6E78C
:10270000C905E4E7FEF738FEA0EB090141F2883085
:10271000814202D90320BDE8F09F6168DAF8000029
:1027200000F03800B0EBC10FECD1207880070AD55B
:10273000E068296801F00F01884204D2296821F07D
:102740000F0101432960D8F80010404601F00F0145
:10275000B9420BD9016821F00F01394301600068CB
:1027600000F00F00B84201D00120D4E720784007E4
:102770000AD52069296801F07001884204D22968CD
:1027800021F0700101432960207800070AD56069B3
:10279000316801F07001884204D2316821F0700183
:1027A000014331602078C0060AD5A069316801F480
:1027B000E061884204D2316821F4E0610143316074
:1027C000207880060CD5E1695846DBF8002002F03D
:1027D0007002914204D2026822F070020A43026041
:1027E00000F09AF80E492A682B68C2F3032203F01E
:1027F0000F038A5CC95C02F01F0201F01F01D04088
:10280000084A20FA01F1116007490860074800688A
:10281000BDE8F05FFEF7ECBD0020005218440258FE
:10282000C64500083C000024380000243000002485
:1028300070B5144C3F220260124A24680832131DFE
:10284000114D04F00704446016681C1D06F4706600
:102850008660166806F00F06C660126802F0700205
:1028600002611A6802F0700242611A6802F4E062C2
:102870008261226802F07002C261286800F00F00D5
:10288000086070BD104402580020005230B500F0BE
:1028900043F80B4A0B490C4B15681468C5F3032227
:1028A00004F00F048A5C095D02F01F0201F01F01B1
:1028B000D040064A20FA01F119601060084630BD88
:1028C00018440258C64500083C0000243800002483
:1028D00000B5FFF7DBFF05490968054AC1F302119E
:1028E000515C01F01F01C84000BD00001C440258AB
:1028F000C645000800B5FFF7C9FF05490968054A44
:10290000C1F30221515C01F01F01C84000BD00006D
:102910001C440258C6450008454970B54548096839
:10292000434B103B11F0380208D00111082A03D0A4
:10293000102A0BD0182A0BD0084670BD19688906DA
:10294000FBD51968C1F3C101C84070BD3A4870BDDC
:102950003749374D18310C1D24350A680968266837
:102960002D6802F0030406F00102C1F30511C5F35E
:10297000CC0515FB02F200EE102AB8EE400AE9B3CE
:102980002F4ADFED2E0AB7EE001A6CB1DFED2D1ADB
:10299000012C01D0022C43D002EE101A1068F8EE80
:1029A000422A81EEA22A1EE01C68A40611D51B68EB
:1029B00001EE901A1168C3F3C103F8EE612AD84002
:1029C00001EE900AC1F30800F8EE611A81EEA22A26
:1029D0000BE001EE901ADFED1C2A00BFF8EE611A41
:1029E000106882EEA12AC0F3080001EE900AF8EE0A
:1029F000611A40EE201A31EE810A00E015E022EE65
:102A0000000A1068C0F34620401C00EE900AF8EE61
:102A1000600A80EE201ABCEEC10A10EE100A70BDEA
:102A200001EE901ADFED092AD8E7002070BD000002
:102A3000104402580090D00340787D010000003916
:102A4000304402580024744A0024744C20BCBE4B0D
:102A50002DE9F05F04007DD0FF4F2078FE4D183740
:102A6000DFF8F493103DC00748D0D9F8000039686A
:102A700000F03800102815D0182803D101F0030009
:102A800002280FD06068B0F5803F12D010B1B0F5C9
:102A9000A02F18D0286820F480302860286820F4FF
:102AA000802009E02868800328D560680028D2D0FB
:102AB00024E0286840F480302860606888B1FEF720
:102AC0005BFC064609E0286840F480202860F0E7B7
:102AD000FEF752FC801B64286FD828688003F7D566
:102AE0000CE0FEF749FC064605E000BFFEF744FC9B
:102AF000801B6428F0D828688003F7D4207841F23E
:102B00000308D54E0C3E800769D5D9F80000396816
:102B100010F038000ED0182801D188070AD0E068DC
:102B200090B3296821F0190101432960FEF724FCC4
:102B3000824631E02868400702D5E06800288AD044
:102B4000E168286820F0190008432860FEF714FCAB
:102B5000824607E0DFE000BFFEF70EFCA0EB0A00B4
:102B60000228B9D828684007F6D500BFFEF7FEFB5B
:102B700040451BD82069402812D0316821F47C31AF
:102B800041EA003030602AE018E000BFFEF7F4FBB5
:102B9000A0EB0A0002289FD828684007F6D5E5E791
:102BA000306820F47C3040F40030EBE7207C316862
:102BB00021F0FE4141EA0060E4E70DE1286820F0E1
:102BC00001002860FEF7D8FB824605E0FEF7D4FB43
:102BD000A0EB0A0002288DD828684007F6D4207898
:102BE000C0065DD5D9F80000DFF86CB2396800F096
:102BF0003800ABF1040B082810D0182803D101F0DD
:102C0000030001280AD0E0690028286838D040F085
:102C100080002860FEF7B0FB824623E02868C005EC
:102C200023D5E069802876D11FE0206A202821D0B2
:102C3000316821F0F84141EA8060306030E000BF47
:102C400094F82010DBF8002022F07C5242EA016167
:102C5000CBF8001024E000BFFEF78EFBA0EB0A00CB
:102C6000022898D82868C005F6D5FEF77FFB4045B6
:102C7000E6D8DAE7306820F0F84040F08040DCE742
:102C800020F080002860FEF777FB064605E000BFD5
:102C9000FEF772FB801B02289DD82868C005F7D478
:102CA0002078000729D56C48616964300029804686
:102CB000016811D041F001010160FEF75DFB06469D
:102CC00005E000BFFEF758FB801B0228C9D8D8F8E2
:102CD00000008007F6D510E021F001010160FEF749
:102CE0004BFB064605E000BFFEF746FB801B0228B3
:102CF00072D8D8F800008007F6D42078800623D553
:102D0000A0690028286810D040F480502860FEF7A1
:102D100033FB064605E036E1FEF72EFB801B02285A
:102D20005AD828688004F7D50EE020F48050286037
:102D3000FEF722FB064604E0FEF71EFB801B02287E
:102D40004AD828688004F7D4207840074FD5DFF8A8
:102D50000C81D8F8001041F48071C8F80010FEF71B
:102D60000BFB064605E000BFFEF706FB801B642850
:102D700032D8D8F80000C005F6D5374EA0686036C6
:102D800001280AD008B1052813D0306820F00100CE
:102D90003060306820F0040002E0306840F001004C
:102DA0003060A06841F2883A90B1FEF7E5FA8046BB
:102DB0000AE0306840F004003060EEE7FEF7DCFA2D
:102DC000A0EB0801514507D830688007F6D50EE022
:102DD000FEF7D2FA804607E084E000BFFEF7CCFAA7
:102DE000A0EB080151457DD830688007F6D4606AB1
:102DF000B0B3DFF86480D9F8001008F120084FF66E
:102E0000F87B08F10409C1F3C2010329A8F1040AFF
:102E100069D00228286820F08070286003D0FEF76F
:102E2000ABFA044684E0FEF7A7FA064605E000BFC9
:102E3000FEF7A2FA801B022877D828688001F7D411
:102E4000E26A40F2F331386854F8283F884340EA98
:102E500002101843386004E0104402580048025839
:102E6000B5E0217B434622894FF4FE0C208A4FF0C7
:102E7000FE474902267D521E401EA1F50071C2F395
:102E800008088AB2761E0CEA004042EA08020243B1
:102E9000504607EA06610A431A60DAF8002022F079
:102EA0000102CAF80020D9F80020266A22EA0B02A3
:102EB00042EAC602C9F80020DAF80010A26921F03F
:102EC0000C011143CAF800100168E26921F0020107
:102ED00011430160016841F480310160016841F4EF
:102EE000003101E021E027E00160016841F4802128
:102EF0000160016841F001010160286840F08070C4
:102F00002860FEF739FA044605E000BFFEF734FA00
:102F1000001B022809D828688001F7D557E000BFB8
:102F2000FEF72AFA001B022802D90320BDE8F09F11
:102F300028688001F4D44AE039680128D8F80000F4
:102F400021D0A26A01F0030393421CD1E26AC1F3CB
:102F500005118A4217D1216BC0F30802491E8A422B
:102F600011D1616BC0F34622491E91420BD1A16B76
:102F7000C0F30642491E914205D1E16BC0F30660E1
:102F8000491E814201D00120D0E7A16C4E46D9F8FC
:102F90000000C0F3CC00814219D0DAF80000554699
:102FA00020F00100CAF80000FEF7E6F94FEA00073A
:102FB000FEF7E2F9B842FBD0A26C306820EA0B00C1
:102FC00040EAC2003060286840F00100286000201C
:102FD000ACE70000024A136883430B431360704759
:102FE000040400587047704770470000F0B590F82F
:102FF0003C20012A3BD01F4E012480F83C40022295
:1030000080F83D2002681C4D5368B242D2F808C0D7
:1030100001D0AA4203D14F6823F470033B430F68E9
:1030200023F070031F4357600268B24213D0B2F11D
:10303000804F10D0114B9A420DD0114B9A420AD0BA
:10304000104B9A4207D0AA4205D00F4B9A4202D0A9
:103050000E4B9A4204D189682CF080031943916089
:10306000002180F83D4080F83C100846F0BD022069
:10307000F0BD0000000001400004014000040040D9
:1030800000080040000C00400018004000400140D3
:1030900010B5040003D094F83D0010B107E0012002
:1030A00010BD002084F83C00204600F023F80220E8
:1030B00084F83D002068211D00F042FE012084F8C4
:1030C000480084F83E0084F83F0084F8400084F80B
:1030D000410084F8420084F8430084F8440084F8F6
:1030E000450084F8460084F8470084F83D0000203D
:1030F00010BD000008B500680B49884212D10B488A
:10310000016841F01001016000680022114600F0E2
:10311000100000903620FEF7CDF9BDE808403620BB
:10312000FEF7BAB908BD000000100040E84402589C
:1031300090F83D10012901D001207047174A022163
:1031400080F83D100168CB6843F00103CB60006854
:10315000904214D0B0F1804F11D0114988420ED066
:10316000104988420BD01049884208D00F49884244
:1031700005D00F49884202D00E49884207D18168A4
:103180000D4A1140062906D0B1F5803F03D00168F1
:1031900041F0010101600020704700000000014083
:1031A0000004004000080040000C00400004014002
:1031B000001800400040014007000100016841F292
:1031C00011130A6A1A4207D10A6A9B101A4203D1E4
:1031D0000A6822F001020A60012180F83D100020F7
:1031E0007047704770B50446006800250169C943FF
:1031F000890715D4C168C943890711D4EA1E026141
:1032000001212177206880698007204602D0FFF7DE
:10321000E8FF04E000F0A7F8204600F0A5F82577C5
:1032200020680169C943490717D4C168C9434907E0
:1032300013D402216FF004020261217720688069B3
:1032400010F4407F204602D0FFF7CBFF04E000F0EF
:103250008AF8204600F088F8257720680169C9437C
:10326000090716D4C168C943090712D404216FF0B5
:103270000802026121772068C0698007204602D0D9
:10328000FFF7AFFF04E000F06EF8204600F06CF8A6
:10329000257720680169C943C90617D4C168C943A5
:1032A000C90613D408216FF010020261217720684B
:1032B000C06910F4407F204602D0FFF792FF04E07F
:1032C00000F051F8204600F04FF82577206801699A
:1032D000C943C90708D1C168C943C90704D1891EB8
:1032E0000161204600F042F820680169C9430906DF
:1032F00009D4C168C943090605D46FF08001016192
:103300002046FFF770FE20680169C943C90509D44A
:10331000C168C943090605D46FF480710161204674
:10332000FFF760FE20680169C943490609D4C168F6
:10333000C943490605D46FF040010161204600F001
:103340001FF820680169C94389060BD4C168C943C5
:10335000890607D46FF0200101612046BDE8704066
:10336000FFF742BE70BD7047704700000068034918
:10337000884201D1FEF706B87047000000140040F3
:10338000704730B590F88410012918D0012280F8D8
:1033900084202421C0F888100022202401680B68B2
:1033A0000D6823F0005325F001050D6042660168A9
:1033B0000B60C0F8884080F88420104630BD0220A1
:1033C00030BD70B5044690F8840001281DD001225C
:1033D00084F884202420C4F88800206805680268E6
:1033E00022F0010202602068826822F060620A43D3
:1033F0008260204600F006FD226820210020156032
:10340000C4F8881084F8840070BD022070BD70B5C7
:10341000044690F8840001281DD0012284F88420FD
:103420002420C4F8880020680568026822F00102A0
:1034300002602068826822F060420A43826020466F
:1034400000F0E0FC2268202100201560C4F88810FC
:1034500084F8840070BD022070BD10B5040003D054
:10346000D4F8880010B107E0012010BD002084F8D6
:103470008400204600F026F82420C4F88800206844
:10348000016821F001010160204600F0C1FD012822
:10349000EBD0A06A10B1204600F0D6FC206841684D
:1034A00021F4904141602068816821F02A01816007
:1034B0002068016841F0010101602046BDE810402C
:1034C00000F026BD70B5B6B00446142130A8FDF753
:1034D000CBF8C0216846FDF7C7F82149206888422B
:1034E0003CD100201E9002210446CDE90010684620
:1034F000FEF79AFB08B1FDF75FFA1A48016841F43C
:1035000000210160006800F400203590154808385B
:10351000016841F480710160016801F480713591A6
:10352000016841F00101016000680225082600F0F1
:103530000100359028023090CDE931540A4830A975
:10354000CDE93346FDF7EEFD01203090CDE9315451
:10355000064830A9CDE93346FDF7E4FD36B070BD2D
:10356000004C0040E8440258002002580000025875
:103570002DE9F8430446D0F88800984616460D46D3
:10358000202802D00220BDE8F883A5B19EB1002119
:10359000C4F890102120C4F888001834FDF7ECFE20
:1035A000814654F8100CA687E6872027183CB0F512
:1035B000805F02D003E00120E5E7206910B12E46CC
:1035C000002510E000260EE08021204600F0F6FEE7
:1035D000C0B9DEB116F8010B21688862B4F8560054
:1035E000401EA4F85600B4F856004B464FF00002B7
:1035F000CDF800800028E7D14FF04001204600F0D0
:10360000DDFE48B1C4F888700320BCE735F8020B32
:103610002168C0F30800E0E7C4F888700020B2E732
:10362000FEE78068C0F3C00070478068C0F3800088
:10363000704710B5042404EAD1540723C1F30451A0
:1036400020448B408A40416999431143416110BD38
:1036500030B587B01C216846FDF706F817480425E9
:1036600015490024012284600160C0E90345047506
:1036700044758261047744628462C4620463446373
:1036800080F83840FDF7D4FB08B1FDF795F90C48F8
:10369000062140F2FF7203928DE813000748694645
:1036A000CDE904548DF81940FDF7D6F9002801D072
:1036B000FDF782F907B030BD0060025840000024D9
:1036C000020030042DE9F04786B014216846FCF76B
:1036D000CBFF4148016841F004010160016801F03D
:1036E00004010591016841F480710160016801F4F1
:1036F00080710591016841F080010160016801F06D
:1037000080010591016841F001010160016801F04B
:1037100001010591016841F0020101600068012288
:10372000DFF8B880D60300F002003146059040462D
:10373000FDF716FE0122DFF8A89017024846394629
:10374000FDF70EFEDFF89CA0002205215046FDF794
:1037500007FE0124694600254046CDE90064CDE915
:103760000245FDF7DFFCCDE90074CDE9024569466D
:103770004846FDF7D7FC18204FF404118DE81300DC
:1037800019486946FDF7CEFC0226694604208DE8FB
:1037900071005046FDF7C6FCCDE902466946504629
:1037A00000940194FDF7BEFC60060146FFF712FC91
:1037B000002209201146FDF77DFE0920FDF76CFE71
:1037C00000220A201146FDF775FE0A20FDF764FE6F
:1037D00006B0BDE8F0870000E04402580008025837
:1037E0000020025800040258001C02583EB5104840
:1037F000002413220D4D772300940194802102941C
:103800008161C0E90242C0E90053FFF741FC08B101
:10381000FDF7D2F80648694600940294FFF7E6FBEC
:10382000002801D0FDF7C8F83EBD000000100040A0
:10383000A40000241848002110B5164C0C224FF4A7
:10384000E1330460C0E90131C160C0E90412816163
:10385000C161016241628162FFF7FFFD08B1FDF7BE
:10386000ABF80D480021FFF7D2FD08B1FDF7A4F831
:1038700009480021FFF7A5FD08B1FDF79DF80648AE
:10388000FFF77FFD002803D0BDE81040FDF794B896
:1038900010BD0000004C0040F0000024FEE7FEE7F1
:1038A000704700002DE9F047454D044689464FF02A
:1038B000000A2868C04380070AD0414E283E30687D
:1038C00020F080603060FDF757FD0746B04608E005
:1038D0000120BDE8F08700BFFDF74EFDC01B0228A8
:1038E00067D8D8F800000001F6D4206829684FF4A2
:1038F000FE0721F47C313E0241EA00302860207A44
:10390000A389B4F804C040022D4D2D495B1E227CD2
:10391000ACF1010C1035091DA0F5007080B2521EEB
:10392000CCF3080C07EA034340EA0C00184306EA0C
:103930000262104328600868626920F0C0001043EA
:1039400008600A68A06922F0200202430A60281D6C
:103950000A6822F010020A6002684FF6F873E46900
:103960009A4342EAC40202600868B9F1000F40F0CD
:1039700010020A6011D00868B9F1010F11D040F4AB
:1039800000100860D8F80000444640F08060C8F895
:103990000000FDF7F1FC05460DE0086840F400204A
:1039A000EFE740F48010ECE7FDF7E6FC401B02284F
:1039B00001D903208DE720680001F5D5504688E73E
:1039C000284402582DE9F047454D044689464FF0FA
:1039D000000A2868C04380070AD0414E283E30685C
:1039E00020F080503060FDF7C7FC0746B04608E085
:1039F0000120BDE8F08700BFFDF7BEFCC01B022818
:103A000067D8D8F800008000F6D4208829684FF4E1
:103A1000FE0721F07C713E0241EA00502860207AC6
:103A2000A389B4F804C040022D4D2D495B1E227CB1
:103A3000ACF1010C1835091DA0F5007080B2521EC2
:103A4000CCF3080C07EA034340EA0C00184306EAEB
:103A50000262104328600868626920F440601043E5
:103A600008600A68A06922F4007202430A60281DF7
:103A70000A6822F480720A6002684FF6F873E469FB
:103A80009A4342EAC40202600868B9F1000F40F4A8
:103A900080720A6011D00868B9F1010F11D040F0AE
:103AA00080700860D8F80000444640F08050C8F8A4
:103AB0000000FDF761FC05460DE0086840F4800059
:103AC000EFE740F40000ECE7FDF756FC401B02284E
:103AD00001D903208DE720688000F5D5504688E79E
:103AE000284402587047704770B59CB04C21684616
:103AF000FCF7BAFD202113A8FCF7B6FD0220FDF764
:103B00000BFD2D4900242D480A6822F001020A60AD
:103B10000A68026842F440420260026802F44042CD
:103B20001B9202689204FCD5254A136843F00203F5
:103B30001360126802F002021B92026842F44042D3
:103B4000026002680A6842F001020A60096801F036
:103B500001011B9101688904FCD50DF1280C02209C
:103B600009900521C0228CE80700C3030F900825A7
:103B70000D9001260E90CDE91054CDE90063684602
:103B80001294FEF765FF08B172B6FEE740201A9066
:103B90003F210301CDE916500322CDE9180313ABF1
:103BA00013A883E816000421FEF714FD002801D0B5
:103BB00072B6FEE71CB070BD2C04005818480258BD
:103BC000F44402582C48F0B52C4A016841F47001C5
:103BD0000160106800F00F00072804D2106820F080
:103BE0000F00C01D106026490020254C10340B68C2
:103BF000244D43F001030B6020600B682B400B60E9
:103C0000136803F00F03072B04D9136823F00F0385
:103C1000DB1D13601A4C1C4A18341C4B261D371D23
:103C20002060174C1A4D28343060261D3860371D2F
:103C300023603B1D35601C1D3A60251D2E1D18603C
:103C4000331D22602860326018600A680C4B114CEA
:103C500022F4802260330A60186020686FF30F003E
:103C6000B0F1005F03D20C490120C1F8080143F212
:103C7000D2000A490860F0BD88ED00E00020005243
:103C8000004402587FEDF6EA8002010100020202C0
:103C90000000FF010010005C008000510040005255
:103CA00010B50F4CE088401C80B2E080A0F51C519C
:103CB000103907D16069401C60610A2802DB09489D
:103CC000FFF77CFAA069401CA06103D006480421DC
:103CD000FDF73EFBBDE810400248FFF783BA000045
:103CE00004000024A40000240004025870B5114808
:103CF000FFF778FA104C606A012814D12189002559
:103D00000E48491C89B2218101290DD0642909D3AB
:103D100000220521FDF724FB218940F63400814271
:103D200000D32581656270BD01220521FDF718FBD6
:103D3000F8E7000084010024040000240004025875
:103D40002DE9F047274B4FF0804A274D02689842F3
:103D5000264E274F274C09D0504507D0A84205D002
:103D6000B04203D0B84201D0A04205D1D1F804C07E
:103D700022F070024CEA0202DFF87CC0DFF87C809F
:103D80009842DFF87C900FD050450DD0A8420BD060
:103D9000B04209D0B84207D0A04205D0604503D058
:103DA000404501D0484503D1CD6822F440722A43F2
:103DB0004D6922F080022A43026098428A68C262FA
:103DC0000A68826207D0A04205D0604503D0404512
:103DD00001D0484501D10969016301214161BDE874
:103DE000F08700000000014000040040000800408F
:103DF000000C00400004014000400140004401402C
:103E00000048014030B5416EB9B101680D4B03F176
:103E100008048A688968C2F34262490F5D5C615C8C
:103E20002D01B5FBF1F1A0F86A10995CA25C0901C3
:103E3000B1FBF2F1A0F8681030BD0121A0F86A10C2
:103E4000F8E70000B645000890F82810C90706D02A
:103E50000168C36A4A6822F400321A434A6090F843
:103E60002810890706D50168036B4A6822F480325E
:103E70001A434A6090F82810490706D50168436B39
:103E80004A6822F480221A434A6090F828100907F1
:103E900006D50168836B4A6822F400421A434A60DF
:103EA00090F82810C90606D50168C36B8A6822F409
:103EB00080521A438A6090F82810890606D5016856
:103EC000036C8A6822F400521A438A6090F8281022
:103ED000490611D50168436C4A6822F480121A43DE
:103EE0004A60416CB1F5801F06D10168836C4A6855
:103EF00022F4C0021A434A6090F82810090606D539
:103F00000168C26C486820F4002010434860704784
:103F10002DE9F84300250446C0F89050FDF72CFA2F
:103F20008046206820266FF07E470068000713D582
:103F30000022434631042046009700F03FFA58B172
:103F4000216851E8000F20F0800041E80002002ABB
:103F5000F6D1C4F8886021E020680068400722D5C7
:103F6000002243464FF480012046009700F026FAD5
:103F7000C8B1206850E8001F21F4907140E8001299
:103F8000002AF6D12068083050E8001F21F0010116
:103F900040E80012002AF5D1C4F88C60032084F8B0
:103FA0008450BDE8F883C4F88860C4F88C60E56686
:103FB0002567002084F88450F3E7000010B50268FC
:103FC00052E8001F21F4907142E80013002BF6D153
:103FD0000E4B0268083252E8001F194042E80014F4
:103FE000002CF6D1C16E012908D1026852E8001FE9
:103FF00021F0100142E80013002BF6D1002120220D
:10400000C0F88C20C166416710BD0000FEFFFFEFC5
:104010002DE9F04304468068D84E87B0D84B21681C
:10402000D4E90427D4F81CC010430A68002547EAE5
:104030000C073843324002430A602068E268416856
:1040400021F44051114341602268A1699A4201D094
:10405000206A01439768DFF82CC3CB4ECB4807EAB0
:104060000C070F4397602168676ACA6A22F00F0243
:104070003A43CA622268B2420ED1006800F03800AA
:10408000182873D047DCB8B3082879D010286FD12E
:1040900078E028287ED17BE0BD498A4209D10068BA
:1040A00000F00700062875D2DFE800F0546A6C6E55
:1040B0007072B8498A4209D1006800F007000628EA
:1040C00068D2DFE800F0475D5F616365B2498A420C
:1040D00009D1006800F0070006285BD2DFE800F095
:1040E0003A5052545658AD498A420BD1006800F0FC
:1040F000070006284ED200E010E0DFE800F02B4178
:1041000043454749A6498A420AD1006800F0380071
:10411000182839D0B7DD2028BBD13CE001203AE097
:10412000A0498A4209D1006800F00700062831D270
:10413000DFE800F01026282A2C2E9B498A420BD15A
:10414000006800F00700062824D2DFE800F0031919
:104150001B1D1F2100201EE09A421BD18B48001D11
:10416000006800F00700062814D202E00CE007E027
:1041700010E0DFE800F0030507090B0D02200AE05C
:10418000042008E0082006E0102004E0202002E0DF
:10419000402000E080208549DFF814829A42854A59
:1041A0004FF400434FEA21174FF000064ED110287C
:1041B0001AD006DC022809D004280BD008287CD1AC
:1041C0000DE020283ED0402877D13DE0FDF7CEF924
:1041D000014610E06846FDF77FFA01990BE003A85D
:1041E000FDF71CFB049906E01068800605D51068F1
:1041F000C0F3C100C140002970D0606A676838F818
:10420000102007EB4703B1FBF2F0834255D8B0EB27
:10421000073F52D8002308461946FCF7B2F8024679
:104220007808130E120243EA012110183A46714130
:104230000023FCF7A6F8604AA0F5407191423CD8F3
:1042400021688FE03946D8E71946D6E7D4F81CC074
:104250004FF6EF799C4546D1082819D005DC58B1B6
:1042600001280CD0042875D10DE0102815D0202885
:1042700035D040286ED134E0FEF72AFB01E0FEF78E
:1042800039FB014610E06846FDF726FA01990BE07C
:1042900003A8FDF7C3FA049906E01068800604D568
:1042A0001068C0F3C100C140C1B1636A606838F8EA
:1042B0001330B1FBF3F1490000E04BE001EB50019A
:1042C000B1FBF0F0A0F11001494543D84FF6F0736F
:1042D0002168C0F342021840104343E043E03946EE
:1042E000E3E71946E1E7082819D005DC58B10128B1
:1042F0000CD004282ED10DE0102815D020282BD06A
:10430000402827D12AE0FEF7E3FA01E0FEF7F2FAAF
:10431000014610E06846FDF7DFF901990BE003A8BC
:10432000FDF77CFA049906E01068800604D5106851
:10433000C0F3C100C140B1B1636A606838F813309E
:10434000B1FBF3F101EB5001B1FBF0F0A0F1100172
:10435000494505D9012506E03946EDE71946EBE761
:10436000216880B2C8600120A4F86A00A4F868003F
:1043700028466667A66707B0BDE8F083F369FFCFFC
:10438000000C0058FFF4FF11001001405444025883
:104390000044004000480040004C004000500040F5
:1043A0000014014000780040007C00400090D003E1
:1043B0009E45000800440258FFFC0F002DE9F0471D
:1043C000994617460E460446089D4FF000082FE018
:1043D000681C2DD0FCF7D0FFA0EB0900A84214D830
:1043E0009DB120680168490722D5C169C943090701
:1043F0000DD4082505622046FFF7E0FDC4F8905073
:10440000012084F88480BDE8F0870320FBE7C069C1
:10441000C04300050CD421684FF4006008622046B8
:10442000FFF7CCFD2021C4F8901084F88480ECE7DD
:104430002068C06936EA000004D00020B842C7D026
:104440000020E0E70120F9E7FEE7090700284FEA2E
:10445000116104DB00F1E02080F80014704700F0E7
:104460000F0000F1E02080F8141D704730380A2852
:1044700001D20120704700207047704713B50448EF
:104480000A2301226946FFF773F800981CBD00005B
:10449000F0000024FCF77EFFFFF726FBFFF712F980
:1044A000FFF7C8F9FFF7D4F8FFF7A0F90948002192
:1044B00040F2FF72FCF782FA07A0FBF7D9FF0B4826
:1044C000FEF736FE00F018F80100FBD008A0FBF75D
:1044D000CFFFF7E74000002453544D3332483735BF
:1044E000305842202121210D0A000000A4000024A0
:1044F000253038780D0A000025490022F0B54878AB
:1045000080B3CB8808464B818C89C088001BA342AE
:1045100002D84FF6FF742044C8818B8101208B782C
:1045200023B1012B08D0022B21D11DE0CB89A3F2AE
:104530001453642B1BD888700227154CCB8925791E
:10454000E669A3F164046D1E142CECB202D80C7160
:104550008F7009E0D23B192B05D800FA05F33343DD
:10456000CB61F4E704E08A700B7933B188704A704C
:10457000C878012806D00020F0BDC87020230B7138
:104580008A70F4E7C8690862CA70CA61F0BD0000A9
:10459000040000244FF04070E1EE100A7047010063
:1045A00002000400060008000A000C0010002000B1
:1045B0004000800000010101010307010000080420
:1045C00002040801010100000000010203040102CD
:1045D00003040607080930313233343536373839A9
:1045E000414243444546403058003031323334353F
:1045F000363738396162636465664030780004009C
:10460000000800000000000000020001000010008F
:10461000304600080000002440000000D4020008DA
:104620007046000840000024F0070000F002000877
:10463000000000000000000020000000000000005A
:10464000000000000000000000000000000000006A
:104650000000000000000000000000000100000059
:1046600010000000000000000090D0030090D00374
:040000050800029954
:00000001FF
