:020000040800F2
:10000000088D0024AD020008B76A0008A95E000848
:10001000B56A00087D0A000895AC000800000000E1
:10002000000000000000000000000000F184000853
:100030007F0A000800000000336C0008FD840008FF
:10004000C7020008C7020008C7020008C70200086C
:10005000C7020008C7020008C7020008C70200085C
:10006000C7020008810A0008870A0008C7020008C2
:10007000C7020008C7020008C7020008C70200083C
:10008000C7020008C7020008C7020008C70200082C
:10009000C7020008C7020008C7020008C70200081C
:1000A000C7020008C7020008C7020008C70200080C
:1000B000B9860008C7020008C7020008C702000886
:1000C000C7020008C7020008C7020008C7020008EC
:1000D000C7020008C7020008C7020008C7020008DC
:1000E000C7020008C702000800000000C70200089D
:1000F000C7020008C7020008C7020008C7020008BC
:10010000C7020008C7020008D1860008C70200081D
:10011000C7020008C7020008C702000805870008D8
:10012000C7020008C7020008C7020008C70200088B
:10013000C7020008C7020008C7020008C70200087B
:1001400000000000000000000000000000000000AF
:10015000C7020008C7020008C7020008C70200085B
:10016000C7020008C7020008C7020008C70200084B
:10017000C7020008C7020008C7020008C70200083B
:10018000C7020008C7020008C7020008C70200082B
:10019000C7020008C7020008C7020008C70200081B
:1001A000C7020008C7020008C7020008C70200080B
:1001B000C7020008C7020008C7020008C7020008FB
:1001C000C7020008C7020008C7020008C7020008EB
:1001D000C7020008B96A0008C7020008C702000881
:1001E000C7020008C7020008C7020008C7020008CB
:1001F000C7020008C7020008C7020008C7020008BB
:10020000C7020008C7020008C7020008C7020008AA
:10021000C7020008C7020008C7020008C70200089A
:10022000C7020008C7020008C7020008000000005B
:10023000C7020008C702000800000000C70200084B
:10024000C7020008C7020008C7020008C70200086A
:10025000C7020008C7020008C7020008C70200085A
:10026000C7020008C7020008C7020008C70200084A
:10027000C7020008C7020008C7020008000000000B
:10028000C7020008C7020008C702000800000000FB
:1002900000000000C7020008DFF80CD000F05AFA96
:1002A00000480047C5B50008088D0024064880476F
:1002B00006480047FEE7FEE7FEE7FEE7FEE7FEE74B
:1002C000FEE7FEE7FEE7FEE7DD850008990200088D
:1002D0002DE9F05F0546002092469B46884606467B
:1002E000814640241BE0284641464746224600F00E
:1002F00069F853465A46C01A914110D31146184620
:10030000224600F050F82D1A67EB01084F462246AE
:100310000120002100F047F817EB00094E41201E94
:10032000A4F10104DFDC484631462A464346BDE8D5
:10033000F09F40EA01039B0703D009E008C9121FA0
:1003400008C0042AFAD203E011F8013B00F8013B8F
:10035000521EF9D27047D2B201E000F8012B491EBB
:10036000FBD270470022F6E710B513460A46044652
:100370001946FFF7F0FF204610BD30B50B46014689
:1003800000202022012409E021FA02F59D4205D334
:1003900003FA02F5491B04FA02F52844151EA2F1DE
:1003A0000102F1DC30BD202A04DB203A00FA02F120
:1003B000002070479140C2F1200320FA03F3194353
:1003C00090407047202A04DB203A21FA02F00021F5
:1003D000704721FA02F3D040C2F120029140084355
:1003E000194670472DE9FE4F804681EA0300C00F91
:1003F0000C46009021F0004123F00045B8EB0200CC
:10040000A94105D24046214690461C460B4602466D
:1004100023F00040104347D0270DC7F30A00C3F371
:100420000A510290401A019040286BDAC3F313007E
:1004300040F4801B0098924620B10023D2EB030ABF
:1004400063EB0B0B01985946C0F140025046FFF791
:10045000AAFF06460D4650465946019A00F08CF90F
:1004600010EB08006141002487EA115284EAE77327
:100470001A4340D0009A62B3019A012A4FEA075208
:1004800015DC001B61EB02014FF0004202EA07524B
:10049000CDE90042001C41F5801132462B4600F0A8
:1004A0008CF903B0BDE8F08F40462146F9E7001B08
:1004B00061EB0201001C41F5801300185B4120181C
:1004C000A2F5001747EB030140EAD570B6196D415C
:1004D00011E06D084FEA360645EAC0754FEA07524B
:1004E000001B61EB0201001C41F5801149084FEA35
:1004F00030000019514132462B4603B0BDE8F04FA1
:1005000000F04CB90098012240000023D0EB020219
:1005100063EBE073009821464FEAE074B8EB00000B
:1005200061EB0401E9E783F000435BE781F0004100
:1005300058E72DE9FE4F81EA030404F0004421F05E
:10054000004100944FF0000B23F0004350EA0104F7
:100550005ED052EA03045BD0C3F30A54C1F30A55D8
:100560002C44A4F2F3340194A0FB0254C1F3130110
:1005700041F48011C3F3130343F4801301FB0244DD
:1005800000FB034E840A970A44EA815447EA8357E2
:10059000A4FB076802958D0A05FB07854FEA932C9B
:1005A00004FB0C542705029D4FEA065847EA16370C
:1005B000B5EB08056EEB070C870E920E47EA811724
:1005C00042EA8312A7FB0201B6EB0B0164EB0004C5
:1005D0002B0D43EA0C335E1844EB1C50DA465146AF
:1005E000E7FB0201C5F313044FEA0B3343EA14534C
:1005F0004FEA0432019C43EA0603A4F10C0402947E
:10060000009CCDE900B400F0D8F803B0BDE8F08F4D
:1006100000200146F9E72DE9F04D81EA030404F0DA
:10062000004B21F0004514464FF0000A23F0004132
:1006300050EA050220D054EA01021DD0C5F30A5742
:100640000246C5F31303C1F31300C1F30A5640F485
:10065000801543F48013A7EB0608101BD64608F25A
:10066000FD3873EB050002D308F1010801E0921890
:100670005B41B8F1000F03DA00200146BDE8F08DC0
:1006800000204FF48011064684460EE0171B73EBE2
:10069000050705D3121B63EB050306434CEA010C67
:1006A00049084FEA300092185B4150EA0107EDD14A
:1006B00052EA030012D082EA040083EA05010843EB
:1006C00005D0101BAB4106D20122002306E0002218
:1006D0004FF0004302E06FF0010253101AEB0600E6
:1006E0004CEB085110EB0A0041EB0B01BDE8F04D5B
:1006F00000F054B8C1F30A52C1F3130140F2FF33C2
:1007000041F480119A4202DA00200146704740F21B
:1007100033439A42A2F2334202DC5242FFF752BE06
:10072000FFF741BE30B5041E71F1000404DB4FF049
:100730000044404264EB0101141E73F1000405DB28
:100740001C464FF00043524263EB0403994208BF3A
:10075000904230BD064C074D06E0E06840F00103D2
:1007600094E8070098471034AC42F6D3FFF798FDA1
:1007700050B7000870B70008202A06DBCB17203AD4
:1007800041FA02F043EAE07306E041FA02F3D04096
:10079000C2F12002914008431946704710B5141E5B
:1007A00073F1000408DA401C41F1000192185B412A
:1007B0001A4301D120F0010010BD2DE9F04D924601
:1007C0009B4611B1B1FA81F202E0B0FA80F2203218
:1007D0009046FFF7E8FD04460F4640EA0A0041EA6A
:1007E0000B0153465A46084313D0114653EA010001
:1007F00019D0C8F140025046FFF7E4FD05460E4609
:10080000504659464246FFF7CEFD084305D0012029
:1008100004E020463946BDE8F08D0020054346EA55
:10082000E0762C4337430A986305E40AA0EB0800FE
:100830000022FD0A44EA47540A3002D5002001464E
:10084000E9E7010510196941DDE908450019694129
:10085000BDE8F04DA2E770B58C1810F8015B15F0FB
:10086000070301D110F8013B2A1106D110F8012B22
:1008700003E010F8016B01F8016B5B1EF9D12B0747
:1008800005D40023521E0DD401F8013BFAE710F8FD
:10089000013BCB1A921C03E013F8015B01F8015BEA
:1008A000521EF9D5A142D8D3002070BD70B53A4987
:1008B00005460068884202D0384A904202D1D1F8F9
:1008C000080302E03648D0F8080310F4403F11D086
:1008D00003F064F804466868B0F5803F06D0B0F5D0
:1008E000003F03D0B0F5403F27D101E0000C18E0F5
:1008F000A40822E000214FF4002002F0B9F80446D9
:1009000068688103890B18D181140C2915D2DFE89E
:1009100001F0140606060606060B0D0F1113800CD7
:100920004000B4FBF0F408E0240906E0640904E0A8
:10093000A40902E0E40900E0240A00F03DFE41F2CF
:100940000301884208D8174884422868816813D870
:1009500021F48071816070BD13496008884204D819
:100960002868816821F44071F4E71049884206D86C
:100970002868816821F4407141F48071EAE70C49EC
:1009800088422868816804D821F4407141F40071DC
:10099000E0E741F44071DDE7002002400021024021
:1009A00000600258002D3101105E5F0020BCBE00C7
:1009B00040787D0110B501240348210300F0F2FDC9
:1009C00000B10024204610BD000402580146014831
:1009D00003F054BDBC020024044810B503F060FDD0
:1009E000042801D0012010BD002010BDBC0200244D
:1009F00010B500F015F8012801D0022010BD0748FD
:100A000003F0CDFD040006D104484FF4804103F00B
:100A100093FB00B10124204610BD0000BC0200245D
:100A200008B501208DF80000FFF7C4FF10B90020C1
:100A30008DF800009DF8000008BD000038B50024C6
:100A4000009313460A460146034803F0CFFE00B167
:100A50000124204638BD0000BC02002438B5002423
:100A6000009313460A460146034803F0A1FF00B174
:100A70000124204638BD0000BC020024FEE7704778
:100A8000082000F06DBC102000F06ABC72B6FEE7D2
:100A9000002200F001B800000E4B70B505465C7AEC
:100AA0000120002C14D15E7A03F108009C555E7A77
:100AB00003EB860675605D7A2A54587A421C5A7296
:100AC0003A232F22303008704B7020468A70CC7049
:100AD00070BD000098060024F0B5D1E90843CD6947
:100AE0000A68C2B10268254322F4F84213431D4349
:100AF0000560D1E90125D1E903364C692A434568EF
:100B0000334389691A43EB0B2243DB030A431A433D
:100B100042600020F0BDD1E9012ED1E9036CD1E99A
:100B2000057142EA0E0246EA0C0632433A430A4392
:100B300001682A4322431A436FF30E010A430260FD
:100B4000E7E700002DE9F04F8B8A6FF00F05264C88
:100B50004FF07F4BD1F80C9004EB03536FF0FF0480
:100B60004FEA042A1AB386684FEA09321F4FA2F5EA
:100B700080521A433E4032438260D1E900278E689A
:100B8000521E05EB07150F8A2A43C56804EB06249D
:100B90000E7E0AEB074322431A430BEB06610A431E
:100BA00005F070431A43C2600020BDE8F08F91E861
:100BB00004110F4E521E0F8A05EB08152A4304EB51
:100BC0000C2C06EB09350E7E42EA0C022A4385689E
:100BD0000AEB074422431A430BEB06610A4305F074
:100BE00070431A438260DFE70000F0FFFF0F0FFF42
:100BF00000F0FFFF2DE9F84F4FF0000B0446E54EE3
:100C00000D46CDF800B05F4690F85000DFF888A39D
:100C1000012808D04FF0010984F85090206805F0B1
:100C2000C9F918B169E10220BDE8F88F2168286888
:100C3000CA69030328D090FAA0F0B0FA80F000BF90
:100C400000F01F0309FA03F00243CA61D5E900125C
:100C50004FF00C0C20681F23C1F384610CEA921C36
:100C600002F01F02604493409140026B9A430A4392
:100C70000263206805F09EF98046206805F096F929
:100C800058EA000003D07FE0C0F38460D8E7206812
:100C9000AA68296805F092F9C0490968B9EB117F83
:100CA00006D121686869C968C1F38201490008E07A
:100CB0002068C168C906C1686869F5D501F01001EE
:100CC00049088840296904292ED022682B6802EB44
:100CD000810103F0F8420B6E024303F00040104321
:100CE0000866697E22682869012917D05FF0000133
:100CF00002EB8000026E22F000420A430266287E68
:100D000021682A6901280CD000200B6902F01F021B
:100D1000904023F4F04202430A6135E04FF0004175
:100D2000E6E74FF40060F0E720682978026E02F0F1
:100D3000F842B2EB816F03D1016E21F000410166F0
:100D400020682978426E02F0F842B2EB816F03D13D
:100D5000416E21F00041416620682978826E02F0E0
:100D6000F842B2EB816F03D1816E21F000418166C0
:100D700020682978C26E02F0F842B2EB816F03D18D
:100D8000C16E21F00041C1662068816811F0010F39
:100D900076D150F8C02F95F80CC0814B29680CF023
:100DA000180C23FA0CF3C1F313080B4022EA0802D3
:100DB0001A4302607B48E968814277D128680103C1
:100DC0001BD090FAA0F1B1FA81F1491C01F01F018A
:100DD00009294FEA003131D8002911D090FAA0F149
:100DE000B1FA81F101F1010101F01F0109FA01F2EB
:100DF00009D100BFC0F3846109E0C0F38461E4E776
:100E0000C0F38461EEE790FAA0F1B1FA81F101F14B
:100E1000010101F01F0142EA816102D1C0F3846047
:100E200003E090FAA0F0B0FA80F000F1010000F0C9
:100E30001F0000EB400041EA005133E000290ED0D2
:100E400090FAA0F1B1FA81F101F1010101F01F0165
:100E500009FA01F206D100BFC0F3846106E0C0F3D5
:100E60008461F1E790FAA0F1B1FA81F101F1010199
:100E700001F01F0142EA816103D1C0F3846004E004
:100E800040E090FAA0F0B0FA80F0474A00F101008B
:100E900000F01F0000EB400002EB005041EA0001AF
:100EA00041F00071AA68206805F088F8D5F800C004
:100EB000BCF1000F26DA3D4B20683D49DFF8F49085
:100EC000984201D0B04201D10A4600E04A469268F9
:100ED000984202F0E07201D0B04209D19D68D6F884
:100EE000088005F0010508F0010845EA080503E05F
:100EF000DAF8085005F0010545B1606D012740F0B2
:100F000020006065384684F850B08DE62A4DAC4527
:100F10001CD115021AD45045F4D1984202D0B042E7
:100F200000D049468B6842F4000023F0E07202438F
:100F30008A60234921480968B1FBF0F04000801C19
:100F400000E0401E00900028FBD1DBE71D4DAC45C2
:100F50000CD1D5010AD45045D4D1984202D0B04228
:100F600000D049468B6842F080700EE0164DAC45CB
:100F7000C8D15502C6D45045C4D1984202D0B0421F
:100F800000D049468B6842F4800023F0E0720243AF
:100F90008A60B7E700210240006002580010005C40
:100FA000FFFF0F000000FF47000020FE002002406E
:100FB0000023024000630258000084CB400D030070
:100FC0003C000024000052C70000B8CFF8B54FF035
:100FD000000604003546009602D0606D10B107E0AF
:100FE0000120F8BD204600F005F9A66584F85060A0
:100FF00020688168C1F3407119B18168704A11405D
:10100000816020688168C1F3007181B981686D4A8F
:10101000114041F0805181606C496B480968B1FB17
:10102000F0F0401C00E0401E00900028FBD120683A
:101030008168C1F3007141B9616D012541F0100172
:101040006165A16D41F00101A16504F0B3FF616D1F
:10105000C90600D420B1606D012540F0100093E076
:10106000606D20F4807040F0020060652068816847
:1010700011F0010F1FD1564A564B904201D09842B1
:1010800007D191689E6801F0010106F00106314325
:1010900003E05149896801F0010161B9904201D032
:1010A000984201D14D4800E04D488268616822F4C1
:1010B0007C120A43826000F07FFA41F20301884209
:1010C00002D9A06810280CD0617D227FA368206B14
:1010D000490341EA024118430843217F01290CD00A
:1010E00010E0607D227F216B400340EA024241F024
:1010F0001000104340F00C00EFE7218C394A02EB5E
:1011000041410843616A29B1A26A01F4787101433F
:1011100042EA01002168344BCA681A400243CA609F
:10112000206804F047FF0646206804F03FFF304384
:101130001DD1216844F20303267DE26AC86842EAB1
:10114000863298431043C86094F8380001281ED0B6
:101150002068016921F0010101612068626B016969
:1011600021F07041114301612046FFF79FFBE068C9
:10117000012820681CD0016B21F00F010163606D14
:1011800020F0020040F0010060652846F8BD2068AC
:10119000A28F164FD4E9101C154E07EB0247A36C23
:1011A000026941EA0C013B43324019431143D3E742
:1011B000A269016B521E21F00F011143DEE700000E
:1011C000C0FFFF5FC0FFFF7F400D03003C00002415
:1011D000002002400021024000600258002302402B
:1011E000006302580000FEFF03C0F0FF0100FFFF94
:1011F0001EF800FC08B50068104988421CD1104850
:10120000016841F080710160016801F08071009116
:10121000016841F004010160006800F004000090E2
:101220004FF08060014603F0C9FD4FF00060BDE85B
:101230000840014603F0C2BD08BD0000006002582E
:10124000E044025870B5044600F0BCF90546601C45
:1012500002D004480078044400F0B4F9401BA042D6
:10126000FAD370BD30000024F0B5B7B0142130A817
:10127000FFF778F82D480168002955D10121016058
:10128000C0216846FFF76EF8002012904FF0807181
:101290000646CDE90010684601F04EFD08B1FFF7A3
:1012A000F5FB2348016841F480510160006830A9D2
:1012B000022400F48050359003274FF683700C25EC
:1012C000349581E8D1001B4800F056F830A948F267
:1012D0003710349581E8D100174800F04DF830A957
:1012E0004CF20370349581E8D100144800F044F8C2
:1012F00030A94FF63F00349581E8D100104800F046
:101300003BF8CDE93054329630A90E48CDE933751B
:1013100000F032F820203495CDE930040A4830A995
:10132000CDE9324700F028F837B0F0BD00000024C6
:10133000D44402580010025800180258000C0258F9
:101340000014025800080258001C0258102810B55A
:1013500003D100F037F90149486110BD0C000024A9
:101360004FF0B04110B5D1F88820024203D0C1F847
:101370008800FFF7EBFF10BD2DE9F84F03247D4DEA
:1013800000234FF001094FF0B04B4FF00F0AE9E096
:1013900009FA03F73A4076D00E7906F00306012EDB
:1013A00001D0022E18D1D0F808C04FEA430ECE6803
:1013B00004FA0EF82CEA080C06FA0EF646EA0C06B9
:1013C0008660D0F804C00E792CEA070CC6F300162C
:1013D0009E4046EA0C0646600E79F643B6070BD0EF
:1013E000C6684FEA43088F6804FA08FC26EA0C0630
:1013F00007FA08F73743C7600E7906F00306022E96
:1014000012D1DE080F694FEA437C00EB8606B64630
:10141000366A4FEADC6C0AFA0CF807FA0CF726EA8F
:1014200008063743CEF820700F7906684FEA430864
:1014300007F0030704FA08FC07FA08F726EA0C0687
:10144000374307604E6816F4403F1CD04A4E376859
:1014500047F00207376036689F0706F002060096DD
:1014600023F0030606F1B046B6463F0FD6F80864EF
:10147000DFF808810AFA07FC404526EA0C0603D18A
:101480004FF0000C41E06CE0DFF8F4C0604502D1A1
:101490004FF0010C39E0DFF8ECC0604502D14FF0AD
:1014A000020C32E0DFF8E0C0604502D14FF0030CDF
:1014B0002BE0DFF8D8C0604502D14FF0040C24E0E7
:1014C000DFF8CCC0604502D14FF0050C1DE0DFF81D
:1014D000C4C0604502D14FF0060C16E0DFF8B8C07A
:1014E000604502D14FF0070C0FE0DFF8B0C0604557
:1014F00002D14FF0080C08E0DFF8A4C0604502D12B
:101500004FF0090C01E04FF00A0C0CFA07FC4CEA12
:10151000060CCEF808C44F68DBF80060FF0226EA2C
:10152000020600D516435F46CBF80060D1F804C030
:10153000DBF804605FEA8C2C26EA020600D516432D
:101540007E606E684F6826EA0206BF0300D5164328
:101550006E602E684F6826EA0206FF0300D5164328
:101560002E605B1C0A6832FA03F67FF411AFBDE807
:10157000F88F000080000058F44402580000025820
:101580000004025800080258000C025800100258CB
:101590000014025800180258001C0258002002587B
:1015A000002402580069084000D0012070470AB1A9
:1015B000816170470904FBE701480068000C70472F
:1015C0000010005C01488068704700003000002473
:1015D00030B590F84120202A24D190F84020012AEB
:1015E00020D0012380F84030242280F8412020239D
:1015F00000240268156825F0010515600268156869
:1016000025F480551560026815680D431560016862
:101610000A6842F001020A6080F8413080F84040D8
:10162000002030BD022030BD30B590F84120202A86
:1016300022D190F84020012A1ED0012380F84030AA
:10164000242280F84120202400250268136823F01A
:10165000010313600268136823F4706343EA0121F5
:10166000116001680A6842F001020A6080F8414096
:1016700080F84050002030BD022030BD70B504001D
:1016800004D094F84100002510B106E0012070BD9F
:10169000204684F8405000F04DF8242084F84100A2
:1016A0002068016821F001010160D4E9001020F0F8
:1016B000706008612068816821F400418160E06801
:1016C00021680128A06806D040F404408860E068E2
:1016D000022803D006E040F40040F7E721684FF409
:1016E0000060486020212068114A4368134343602A
:1016F0002068C26822F40042C26054F8106B0DCC1E
:10170000104340EA0320F06054F81C3CD4E9000286
:101710001043186054F81C0D026842F00102026088
:10172000656484F84110256384F84250002070BD40
:101730000080000210B5B6B00446142130A8FEF7B0
:1017400011FEC0216846FEF70DFE19492068884247
:101750002BD10020219008210446CDE900106846D5
:1017600001F0EAFA08B1FFF791F91248016841F077
:1017700002010160006830AB122100F002003590D8
:101780004FF44070042283E813000B4830A9CDE9E0
:101790003342FFF7F1FD07480830016841F40011BA
:1017A0000160006800F40010359036B010BD0000F4
:1017B00000540040E0440258000402580248816886
:1017C000027811448160704730000024032010B576
:1017D00000F0ACF802F028F90F4A104914681368B9
:1017E000C4F3032203F00F038A5CC95C02F01F02FA
:1017F00001F01F01D0400A4A20FA01F111600949A5
:1018000008600F2000F010F808B1012010BD00F0B2
:1018100051F8002010BD00001844025808B7000815
:10182000400000243C00002410B5102804468AB073
:101830002CD200220146372000F058F8372000F063
:1018400047F8174804601748016841F0200101601B
:10185000006809A900F020000890684602F070F8BE
:101860000598B0B102F0BCF840000F4900220F4CBF
:10187000B0FBF1F10E4840F2E7330460C0E90332F7
:10188000491EC0E9011203F0F7FA28B101200AB09D
:1018900010BD02F0A5F8E8E7054803F09FFBF6E766
:1018A00034000024E844025840420F000014004075
:1018B0004C060024054808B5016841F002010160AA
:1018C000006800F00200009008BD0000F4440258D7
:1018D000002809DB410900F01F028900012001F105
:1018E000E0219040C1F80001704700000E4BF0B4B9
:1018F0001B680D46C3F30223C3F10706042E00D96B
:101900000426191D072901D2002300E0DB1E012453
:1019100004FA06F19C40491E2940641E9940144077
:101920002143F0BC09F0C8B90CED00E0064900F015
:10193000070210B54FF6FF040868044B204040EA48
:1019400002201843086010BD0CED00E00000FA050D
:1019500001680123C0F80035002280F8F42488696A
:10196000044A40F000608861486D104348650020DB
:1019700070470000030000107047006841620020BB
:101980007047F0B503685D6A39B19F6A4C1E00204C
:101990004FF4827605EB17450BE045EA024098626A
:1019A00010E0471C06EB800053F800C0F8B205EBCE
:1019B0001C45A042F5D34FF4807000EB810045EA4E
:1019C00002421A500020F0BDD0F8080507F045BFCC
:1019D00001EBC10200EB8202D0F80805926C07F01F
:1019E00098BE01EBC10200EB8202D0F80805D2F8E4
:1019F000882207F0EABED0F8080507F030BF0A06D3
:101A000001F00F0101EBC10100EB810101D53C3177
:101A100001E001F51F71006808F082BF01F00F02BC
:101A20000B0670B502EBC20104464FF001004FF007
:101A3000000504EB810103D581F83D003C3103E052
:101A400081F87D5201F51F710A7094F8BC24012AB7
:101A500008D084F8BC04206808F07EFC002084F8DC
:101A6000BC5470BD022070BD70B54268044601F0E0
:101A70000F00904201D9012070BD01F00F024FF01C
:101A800000050B0602EBC2014FF0010204EB8101DD
:101A900003D581F83D203C3103E081F87D5201F50A
:101AA0001F718D70087094F8BC04012808D084F868
:101AB000BC24206808F0C0FD002084F8BC5470BD30
:101AC000022070BD10B5044690F8BC0401280AD06D
:101AD000012084F8BC0420680A0606D501F00F0135
:101AE00008F092FF03E0022010BD08F06FFF002015
:101AF00084F8BC0410BD01F00F0101EBC10100EB43
:101B00008100D0F8900270472DE9F04101F00F06F6
:101B100004460D064FF0010006EBC6014FF000052C
:101B200004EB810103D581F83D003C3103E081F8ED
:101B30007D5201F51F714F788A600B710E7007B1ED
:101B40004E83022B00D14D7194F8BC24012A09D098
:101B500084F8BC04206808F04DFB284684F8BC5487
:101B6000BDE8F0810220FBE770B501F00F0500240D
:101B700005EBC50100EB810101F5227181E81C0034
:101B800001F80B4C01F80C5DC368012B00D1CA6150
:101B9000027B006808F0A8FD002070BD70B50D46FE
:101BA0004168044605F00F00884201D9012070BD4C
:101BB00029064FF000064FF0010207D500EBC001E7
:101BC00004EB810181F83D203C3107E005EBC501C4
:101BD00004EB810181F87D6201F51F718A70087044
:101BE00094F8BC04012807D084F8BC24206808F0CD
:101BF0004FFD280702D007E0022070BD217B04F2D0
:101C0000C442206808F0ECFC002084F8BC6470BD7D
:101C100070B501F00F04002504EBC401012600EBB0
:101C20008101483181E82C0001F80B6C01F80C4D62
:101C3000C368012B00D1CA61027B006808F054FD23
:101C4000002070BD2DE9FC5F05680446284608F0B9
:101C500008FF00287ED1206808F02FFF002879D0E7
:101C6000D5F80808C0F30D20C4F8FC04206808F07B
:101C700024FF800704D52068416901F00201416119
:101C8000206808F01AFFC10604F2C440009034D561
:101C90002068816921F0100181612F6A07F00F012E
:101CA000C7F3434001EBC101022804EB810606F5AE
:101CB0001F7602D0062811D01AE047F6F0700742CE
:101CC00016D0C7F30A12F1681746284608F0F9FE45
:101CD000F16870693944F160384408E000990822DD
:101CE000284608F0EEFE7069C7F30A1108447061D7
:101CF0002068816941F010018161206808F0DDFEF3
:101D000000034FF0000A4FF0020B4FF001097CD5A1
:101D10002068002608F0B0FE074674E0F80770D08F
:101D20002068F1B208F0C1FE8046C00707D005EB7D
:101D30004611C1F8089B3146204604F0C3FE5FEA15
:101D4000087025D505EB46110820C1F8080BFC49A1
:101D5000206800E042E2026C00EB461001928A42E9
:101D6000D0F8081B05D9090403D54FF40041C0F889
:101D7000081B204600F050FBF1490198884207D922
:101D8000E068012804D120680121009A08F028FCAD
:101D90005FEAC86004D505EB46111020C1F8080BB6
:101DA0005FEA88701CD56869000605D5D5F8040877
:101DB00040F48061C5F8041806EBC60004EB80000F
:101DC00090F87F1200F51F70012905D180F803A05B
:101DD0002046F1B200F008FA05EB4611C1F808BB45
:101DE0005FEA886004D505EB46112020C1F8080B96
:101DF0005FEA884005D505EB46114FF40050C1F865
:101E0000080B7F08761C002F88D1206808F055FE4B
:101E100040036FD5206808F028FE0026074667E0DB
:101E2000F80763D02068F1B208F02DFE8046C007A5
:101E300023D0D5F8342806F00F0C05EB461309FA29
:101E40000CF08243C5F83428C3F80899E0680128EB
:101E50000FD106EBC60004EB8000D0E9111211444B
:101E6000816436B9E06C20B920680121009A08F03D
:101E7000B7FB2046F1B2FFF7ABFD5FEA087004D56F
:101E800005EB46110820C1F808095FEAC86004D5CF
:101E900005EB46111020C1F808095FEA486004D537
:101EA00005EB46114020C1F808095FEA887016D595
:101EB0003146284608F0A8FD06EBC60004EB80007A
:101EC00090F83F103C30012905D180F803A020464E
:101ED000F1B200F085F905EB4611C1F808B95FEAE7
:101EE000086003D53146204604F052FE7F08761C78
:101EF000002F95D1206808F0E0FD002811DAD5F810
:101F0000040820F00101C5F8041894F8F40401282D
:101F10003BD0204600F064FA2068416901F000419E
:101F20004161206808F0C9FD00050BD5D5F8080807
:101F3000C00702D0204600F097FA2068416901F4FA
:101F400000614161206808F0B8FD00010AD52068F1
:101F5000416901F00061416194F8F404E0B1204668
:101F600000F082FA206808F0A8FDC00472D5D5F808
:101F7000040820F00101C5F804182068102108F0B9
:101F800043FD00214FF67F322DE00021204684F8EA
:101F9000F4A4FFF7F1FCBFE784F8F4942068406DE7
:101FA0000121C0F38300C4F8F8042046FFF7E4FCE5
:101FB000D8E700BF05EB4110C0F80829D0F8003978
:101FC00023F40013C0F80039C0F8082BD0F8003B08
:101FD00023F40013C0F8003BD0F8003B43F000634B
:101FE000C0F8003B491C60688842E3D8D5F81C085B
:101FF00040F00111C5F81C18206B68B1D5F88408B1
:1020000040F00B01C5F88418D5F8440840F00B01E6
:102010002846C5F844180DE0D5F8140842F22B0103
:102020000843C5F81408D5F8100840F00B012846FD
:10203000C5F81018D0F8000820F4FE61C5F80018A3
:10204000217B2068009A08F0CBFA2068416901F4EE
:1020500080514161206808F030FD800417D5206868
:1020600008F008F9206808F0EFFC206101F096FC08
:10207000217C2368CAB20146184608F083FD204639
:1020800000F098F92068416901F40051416120682D
:1020900008F013FD000707D5204600F0A5F92068D9
:1020A000416901F008014161206808F006FD000661
:1020B00016D5A869012620F08001A9610DE000BFB6
:1020C00006EBC60004EB800090F87F02012803D1E4
:1020D0002046F1B2FFF793FC761C6068B042EFD85F
:1020E000206808F0EAFCC00221D501264F4616E020
:1020F00006EBC60105EB461004EB8101D0F80009A0
:1021000091F84020012A09D1002807DAF0B281F8BD
:102110003F7040F080012046FFF771FC761C60683C
:10212000B042E5D82068416901F48011416120681E
:1021300008F0C3FC800234D501204B4629E00000A2
:102140000A30544F00EBC00205EB401104EB820251
:10215000D1F8001B92F88062012E19D1002917DAFC
:1021600094F8FC6401F4803106F00106B1420FD10D
:1021700082F87F32A96941F08002AA616969090683
:1021800006D4D5F8040840F40070C5F8040803E04C
:10219000401C61688142D5D82068416901F4001172
:1021A0004161206808F089FC400007D52046FFF710
:1021B0000BFC2068416901F080414161206808F012
:1021C0007CFC40070AD520684568680702D5204690
:1021D000FFF711FC2068416829434160BDE8FC9F7E
:1021E000D0F8080507F09ABBD0F8080507F0AABB9D
:1021F0002DE9F04104008AB005D094F8BD04002513
:10220000266820B108E001200AB0BDE8F081204630
:1022100084F8BC5400F066F8032084F8BD04F06B29
:10222000C00500D4E560206808F0D4F904F110017D
:10223000684628228846FEF77CF894E80F0008F0EC
:1022400027F80227D8BB2068002108F05AFC00209C
:10225000012610E000EBC001421C04EB810181F873
:102260003D6081F840504D648D64CD6481F83C0040
:10227000A1F85600D0B261688142EBD8002011E08D
:1022800000EBC001421C04EB810181F87D5281F812
:102290008052C1F88452C1F88852C1F88C5281F83A
:1022A0007C02D0B261688142EAD828224146684661
:1022B000FEF73FF894E80F0008F0D0F810B184F86A
:1022C000BD74A0E7606A84F8385084F8BD640128C2
:1022D00002D12046FFF73CFB206808F0B1F800204F
:1022E00092E700002DE9F043B7B00446142130A86E
:1022F000FEF738F8C0216846FEF734F82A4920680E
:1023000088424ED132270DA9052001250C950026C3
:1023100011960224B146CDE90A074FF400684FF444
:10232000001CCDF888C081E811014FF48023684675
:10233000CDE9003600F000FD08B1FEF7A7FB00F084
:10234000D5F81A48016841F001010160006830A920
:10235000032600F0010035900A274FF4805081E8F1
:10236000F100134D2846FFF707F8CDE93084CDF88A
:10237000C89030A9CDE933672846FEF7FDFF0B482A
:102380000838016841F000610160006800221146D0
:1023900000F0006035906520FFF7A8FA6520FFF790
:1023A00097FA37B0BDE8F08300000840E0440258D7
:1023B0000000025870B504460069012570B102287A
:1023C00001D0FEF763FBD4F80805294607F029FB86
:1023D000D4F80805BDE8704007F0DDBA0025F2E743
:1023E000D0F8080507F006BBD0F8080507F00CBBCD
:1023F00010B5044690F8BC0401280BD0012084F8E5
:10240000381084F8BC04206808F0AAFB002084F887
:10241000BC0410BD022010BDD0F8082500F2C44154
:10242000104607F00ABB10B590F8BC1404460068CB
:10243000012909D0012184F8BC14C16BC90509D454
:10244000A16A012902D005E0022010BD816B41F490
:1024500080318163206808F0B2FA206807F0E2FF5B
:10246000002084F8BC0410BD10B50446D0F808055F
:1024700007F025FB2068D0F8001E41F00101C0F8EC
:10248000001E206A002804D00248016841F00601BD
:10249000016010BD10ED00E0134970B50A68D24329
:1024A000520705D5096801F00701814213D118E0F0
:1024B0000A6822F0070202430A60FFF783F80A4D18
:1024C0004FF47A760446083D07E000BFFFF77AF83C
:1024D000001BB04201D9012070BD2868C0438004B0
:1024E000F4D4002070BD00000C4802580248016876
:1024F00041F08071016070470C480258F8B50446FD
:10250000FFF760F805461CB194F8410010B107E0F0
:102510000120F8BD204600F047F841F28830A06461
:1025200020686FF0FF02A168036802EB012223F428
:10253000F85111430160A06C002220212B4600902D
:10254000204604F09CFB0028E3D12268D4E907353B
:102550002679E168176845EA0665DFF844C0194343
:10256000104B29430025012607EA0C073943116067
:102570002268D4E90517B4F810C0D2F804E0394352
:102580000EEA030E4EEA0C431943516021680A68B3
:1025900042F001020A60656484F84160F8BD000001
:1025A0002FFFFF00FEF8E0FF2DE9F041B6B0044632
:1025B000142130A8FDF7D6FEC0216846FDF7D2FEF3
:1025C0002A49206888424DD1002013904FF00071B5
:1025D0000446CDE90010684600F0AEFB08B1FEF7F6
:1025E00055FA2348016841F480410160006800F415
:1025F000804035901E480C30016841F04001016078
:10260000016801F040013591016841F0200101604D
:10261000006832AA022500F02000359003260A2720
:10262000012182E8C2004020CDE93005114830A9DF
:10263000FEF7A2FE09213294DFF83C804FF4986047
:10264000CDE93361CDE9300530A94046FEF794FE6F
:10265000300232AACDE9300530A9404682E8D000E8
:10266000FEF78AFE36B0BDE8F0810000005000524F
:10267000D4440258001802580014025810B501F052
:102680008DF905490968054AC1F30211515C01F051
:102690001F01C84010BD00002044025808B70008C0
:1026A0004A4930B5494C0B1D0A680C3409681D684D
:1026B000246802F0030305F00102C1F30511C4F31D
:1026C000CC04002914FB02F200EE102AF8EE400AB6
:1026D00076D0414A9FED3E1ADFED3E1AB7EE000A72
:1026E00023B1012B5AD0022B18D15CE0374C283C87
:1026F00023689B0612D5394B246801EE901A1168A5
:10270000C4F3C104F8EE612AE34001EE903AC1F34C
:102710000801F8EE611A81EEA22A07E002EE101A13
:102720001168F8EE422A81EEA22A45E001EE901AE5
:102730001168F8EE611A40EE811A71EE800A62EEBD
:10274000200AC1F3462101EE101AB8EE411A31EE0B
:10275000001AC0EE811ABCEEE11A80ED001A116871
:10276000C1F3064101EE101AB8EE411A31EE001A1B
:10277000C0EE811ABCEEE11A80ED011A1168C1F3B6
:10278000066101EE101AB8EE411A31EE000A80EE31
:10279000801ABCEEC10A80ED020A30BD01EE901A2B
:1027A000DFED0F2A03E001EE901ADFED0E2A11682B
:1027B000F8EE611A82EEA12AC1F30801B6E7FFE73D
:1027C000002101604160816030BD00002844025852
:1027D000000000390024744C304402580090D003AB
:1027E0000024744A20BCBE4B494930B5484C0B1DEF
:1027F0000A68143409681D68246802F00303C5F3ED
:102800000012C1F30531C4F3CC04002914FB02F219
:1028100000EE102AF8EE400A75D03F4A9FED3D1AAF
:10282000B7EE000A6BB1DFED3D1A012B01D0022B90
:1028300064D002EE101A1168F8EE422A81EEA22A44
:1028400021E0334C283C23689B0612D5344B246886
:1028500001EE901A1168C4F3C104F8EE612AE34056
:1028600001EE903AC1F30801F8EE611A81EEA22A56
:102870000BE001EE901ADFED2B2A00BFF8EE611A93
:10288000116882EEA12AC1F3080101EE901A1168C5
:10289000F8EE611A40EE811A71EE800A62EE200AAB
:1028A000C1F3462101EE101AB8EE411A31EE001ABA
:1028B000C0EE811ABCEEE11A80ED001A1168C1F376
:1028C000064101EE101AB8EE411A31EE001AC0EEC0
:1028D000811ABCEEE11A80ED011A1168C1F306619C
:1028E00001EE101AB8EE411A31EE000A80EE801A9D
:1028F000BCEEC10A80ED020A30BD04E001EE901A80
:10290000DFED092ABAE70021016041608160F3E749
:102910002844025800000039384402580024744A00
:102920000090D0030024744C20BCBE4B494930B504
:10293000484C0B1D0A681C3409681D68246802F0A5
:102940000303C5F30022C1F30551C4F3CC040029ED
:1029500014FB02F200EE102AF8EE400A75D03F4A4E
:102960009FED3D1AB7EE000A6BB1DFED3D1A012B6A
:1029700001D0022B64D002EE101A1168F8EE422A40
:1029800081EEA22A21E0334C283C23689B0612D515
:10299000344B246801EE901A1168C4F3C104F8EEB8
:1029A000612AE34001EE903AC1F30801F8EE611AA2
:1029B00081EEA22A0BE001EE901ADFED2B2A00BF78
:1029C000F8EE611A116882EEA12AC1F3080101EE46
:1029D000901A1168F8EE611A40EE811A71EE800AC1
:1029E00062EE200AC1F3462101EE101AB8EE411A38
:1029F00031EE001AC0EE811ABCEEE11A80ED001A29
:102A00001168C1F3064101EE101AB8EE411A31EE19
:102A1000001AC0EE811ABCEEE11A80ED011A1168AD
:102A2000C1F3066101EE101AB8EE411A31EE000A48
:102A300080EE801ABCEEC10A80ED020A30BD04E0CF
:102A400001EE901ADFED092ABAE70021016041602A
:102A50008160F3E7284402580000003940440258DE
:102A60000024744A0090D0030024744C20BCBE4B58
:102A70002DE9F04FAC4A0546DFF8A8A280F480703B
:102A8000DFF8AC9289B01311AA4C0843A748AAF109
:102A900004064FF0805C4FF000582CD085F400778E
:102AA0000F4357D0DFF87CB285F480670F430BF1FA
:102AB000080B61D085F400670F4374D085F480570C
:102AC0000F436ED085F400570F434FF480394FF415
:102AD000003E67D085F400270F4371D085F480371E
:102AE0000F436ED085F480460E436BD085F40042D0
:102AF0000A4368D02AE0DAF8001001F0070105293E
:102B000024D2DFE801F075BC7D25B10006A8FFF7EF
:102B1000C7FD079809B0BDE8F08F6846FFF764FE6F
:102B20000098F7E703A8FFF701FF0398F2E7206892
:102B3000C0F3C10022FA00F0ECE72268D20571D59B
:102B400061456FD11846E5E74145E3D00020E1E754
:102B50004846DFE7DAF8001001F4E07180294FD031
:102B600004DC002944D04029F0D188E0C029EFD00E
:102B7000B1F5807FEAD177E0DBF8001001F4600165
:102B8000B1F5800F3CD004DC91B3B1F5001FDDD16D
:102B900075E0B1F5C00FDBD0B1F5000FD6D163E021
:102BA00001E018E030E0DBF8001001F0E061B1F185
:102BB000007F25D008DCD9B1B1F1807FC6D15EE0BD
:102BC00049E06CE079E09CE0B1F1407FC0D0B1F128
:102BD000806FBBD148E0DAF8001001F4E041B1F5B4
:102BE000005F0DD005DC19B1B1F5805FAED146E0D4
:102BF00094E0B1F5405FABD0B1F5804FA6D133E0A2
:102C000020688000A2D58DE7DAF8001001F4E021F9
:102C1000B1F5403F6CD006DC61B149457AD07145D1
:102C200094D157E037E0B1F5802F65D0B1F5A02FF2
:102C30008CD10CE000F0D4FE6CE76846FFF7D4FDC1
:102C4000019867E703A8FFF771FE049862E721681F
:102C50008903F1D47AE7DBF8001011F440310ED08B
:102C6000494510D07145F5D13168256801F04051D2
:102C70006D077FF562AF00297FF45FAF57E72068EB
:102C80000001E7D549E720688000E3D503A8FFF7F6
:102C90004DFE05983EE722689203DBD554E7306885
:102CA00010F480303AD04845D4D120680001D1D505
:102CB0006846FFF799FD02982CE7DBF8001001F059
:102CC000E041B1F1405F13D008DC71B1614521D022
:102CD0004145BFD120688000B4D437E7B1F1804FBF
:102CE0000AD0B1F1A04FB2D030E7FFF7C7FC11E72F
:102CF00020684007AED51AE72068C005AAD521E7AD
:102D000008E0DAF8001011F04051A0D0614505D07C
:102D100041459FD1206800018FD417E720688001CA
:102D200098D5F3E6504402580090D00340787D01D6
:102D30000080BB00004402582DE9FE4F0546DFF835
:102D4000E48350F8081B0024F64FC943019005F1B5
:102D50002800264608F12408009008011DD4A86E1A
:102D600050B1B0F5801F0CD0B0F5001F0ED0B0F5FB
:102D7000401F1ED001240FE0386840F40030386056
:102D800017E00198022103F09FFF03E00098022161
:102D900004F02AF804000CD026462888C043C00559
:102DA00023D4A86D05281ED2DFE800F00C11161BF5
:102DB0001B00AA6ED8F8001021F440111143C8F886
:102DC0000010EAE7386840F40030386009E0019804
:102DD000002103F079FF03E00098002104F004F8DB
:102DE000044674B100E0012426462888C0438005CB
:102DF00028D4E86D80281ED00CDC90B140280ED17C
:102E000014E0AA6DD8F8001021F007011143C8F8AA
:102E10000010EAE7C02813D0B0F5807F10D001245D
:102E20000FE0386840F40030386009E00198002174
:102E300003F04AFF03E00098002103F0D5FF0446A9
:102E40009CB126462888DFF8DC92C04309F12C09A2
:102E500040052CD4D5F8A800B0F5800F20D00DDCAB
:102E6000A0B1B0F5001F0FD115E0EA6DD8F8001041
:102E700021F4E0711143C8F80010E3E7B0F5C00F8A
:102E800013D0B0F5000F10D001240FE0386840F4E3
:102E90000030386009E00198002103F015FF03E0DD
:102EA0000098002103F0A0FF04467CB12646288844
:102EB000C04300052DD4D5F8AC00B0F1007F21D07F
:102EC0000EDCA8B1B0F1807F10D116E0D5F8A820B3
:102ED000D9F8001021F460011143C9F80010E6E7A9
:102EE000B0F1407F13D0B0F1806F10D001240FE01B
:102EF000386840F40030386009E00198002103F0A0
:102F0000E3FE03E00098002103F06EFF044674B175
:102F100026462868C04380011FD4E86CD8B1102829
:102F20000FD0202812D0302815D0012414E0D5F875
:102F3000AC20D9F8001021F0E0611143C9F800106D
:102F4000E7E7386840F40030386004E00198022177
:102F500003F0BAFE044674B126462888C043C00474
:102F60002BD4286EB0F5005F20D00DDCA0B1B0F5F9
:102F7000805F0FD115E06B48EA6C2030016821F0CA
:102F8000300111430160E8E7B0F5405F13D0B0F5C0
:102F9000804F10D001240FE0386840F400303860D2
:102FA00009E00198002103F08FFE03E00098002162
:102FB00003F01AFF04468CB126462888C0438004DB
:102FC00029D4686EB0F5403F23D010DC08B3B0F5CB
:102FD000803F14D0B0F5003F0FD115E02A6ED8F82D
:102FE000001021F4E0411143C8F80010E5E7B0F506
:102FF000802F0ED0B0F5A02F0BD001240AE001984D
:10300000012103F061FE03E00098012103F0ECFED2
:10301000044694B126462888C04340042AD4D5F8F3
:10302000B000B0F1405F23D010DC08B3B0F1805F96
:1030300014D0B0F1005F0FD115E06A6ED8F800101F
:1030400021F4E0211143C8F80010E4E7B0F1804F0B
:103050000ED0B0F1A04F0BD001240AE0019801215D
:1030600003F032FE03E00098012103F0BDFE0446A8
:1030700074B126462888C04300041FD4286FD8B1F5
:10308000B0F1805F0ED0B0F1005F10D0012414E0E9
:10309000D5F8B020D9F8001021F0E0411143C9F86B
:1030A0000010E7E7386840F40030386004E0019829
:1030B000012103F009FE044674B126462868C04386
:1030C000C0011ED4A86CD0B101280ED0022811D0A6
:1030D000032814D0012413E02A6FD8F8001021F03F
:1030E00040511143C8F80010E8E7386840F4003058
:1030F000386004E00198022103F0E6FD0446ACB11B
:1031000026462868DFF81CB0C043ABF11C0B400218
:1031100052D40548016841F480710160FEF752FA0B
:10312000824611E02C44025800480258FA48AA6C22
:10313000016821F0030111430160E2E7FEF742FA62
:10314000A0EB0A00642835D8F4480068C005F5D51E
:103150008CBBDFF8C4A3B5F8B4100AF1240ADAF87E
:10316000000001F4407100F44070884211D0DAF898
:103170000010DAF8002021F4407142F48032CAF8DD
:103180000020DAF8002022F48032CAF80020CAF8C1
:103190000010D5F8B400B0F5807F1AD1FEF712FA0E
:1031A000029012E0FEF70EFA0299411A41F28830BD
:1031B00081420AD9032426462878DFF85CA3C0435D
:1031C0000AF1080AC00721D03CE0DAF800008007C5
:1031D000E8D5D5F8B410C1F30120032858460DD026
:1031E000016821F47C510160B5F8B420DAF80010D0
:1031F000C2F30B021143CAF80010DDE7C84A0368A6
:1032000002EA111223F47C511143ECE7E86F18280D
:1032100016D005DCA0B1082808D0102804D10AE097
:1032200020280DD028280BD001240AE00198012184
:1032300003F04AFD03E00098012103F0D5FD0446A8
:1032400064B126462878C04380071ED4A86F06289C
:1032500019D2DFE800F0160C11161616EA6FDAF82C
:10326000001021F038011143CAF80010EAE7019874
:10327000012103F029FD03E00098012103F0B4FDD2
:1032800004467CB100E0012426462878C04340076C
:103290001FD4D5F89400062819D2DFE800F0160CE8
:1032A00011161616AA6FDAF8001021F00701114363
:1032B000CAF80010E9E70198012103F005FD03E0D9
:1032C0000098012103F090FD0446A4B100E0012420
:1032D00026462878C04380062BD4D5F89000B0F15C
:1032E000405F24D011DC10B3B0F1805F15D0B0F195
:1032F000005F10D116E0D5F89420D9F8001021F025
:1033000007011143C9F80010E3E7B0F1804F0ED078
:10331000B0F1A04F0BD001240AE00198002103F086
:10332000D3FC03E00098022103F05EFD044694B153
:1033300026462878C04340062BD4D5F89C00B0F52B
:10334000406F24D011DC10B3B0F5806F15D0B0F50C
:10335000006F10D116E0D5F89020DAF8001021F0B7
:10336000E0411143CAF80010E3E7B0F5805F0ED0EA
:10337000B0F5A05F0BD001240AE00198002103F012
:10338000A3FC03E00098022103F02EFD044694B153
:1033900026462878C04300062BD4D5F8A000B0F507
:1033A000C04F24D011DC10B3B0F5005F15D0B0F5DC
:1033B000804F10D116E0D5F89C20D9F8001021F4E8
:1033C000E0511143C9F80010E3E7B0F5004F0ED00B
:1033D000B0F5204F0BD001240AE00198002103F042
:1033E00073FC03E00098022103F0FEFC044654B194
:1033F00026462878C04300071ED4D5F88400B0F5CF
:10340000805F0AD00FE0D5F8A020D9F8001021F491
:1034100060411143C9F80010EBE70098022103F066
:10342000E3FC00B10126D5F88420DAF8001021F47D
:1034300040511143CAF800102878C043C00613D485
:10344000D5F89800B0F5807F05D10098022103F0EF
:10345000CBFC00B10126D5F89820D9F8001021F452
:1034600040711143C9F800102868C043000316D406
:10347000D5F8A40038B1B0F5803F09D0B0F5003FD1
:103480000BD001240AE00198002103F01DFC03E0A9
:103490000098022103F0A8FC04468CB12646286857
:1034A000C043400322D4D5F88800B0F5801F11D066
:1034B000B0F5001F13D0B0F5401F15D0012414E063
:1034C000D5F8A420D9F8001021F440311143C9F8EF
:1034D0000010E4E7386840F40030386004E00098F9
:1034E000012103F081FC04465CB126462868C043F4
:1034F000C00323D4286DA8B1B0F5803F17D00124B4
:103500001BE0D5F88820DAF8001021F440111143AF
:10351000CAF80010EAE700004C440258004802587C
:10352000CFFFFF00386840F40030386004E00198B5
:10353000022103F0C9FB0446E4B126462868C043D3
:10354000800005D40098022103F04EFC00B1012652
:103550002868C04380031BD4D5F88000B0B1B0F513
:10356000807F0FD0B0F5007F10D0B0F5407F0DD038
:1035700001240CE05A482A6D016821F4803111437E
:103580000160DBE7386840F400303860ECB3264671
:103590002868C043C00207D46A6FD8F8001021F031
:1035A00000411143C8F800102868C043C00008D487
:1035B000D5F8B820DBF8001021F480411143CBF896
:1035C00000102868C043800207D4EA6ED8F80010C3
:1035D00021F080711143C8F800102868C0434000F2
:1035E0000CD4DBF8001021F40041CBF80010DBF81C
:1035F0000010D5F8BC201143CBF800102868C04358
:1036000008D437486A6D016800E018E021F04051A5
:10361000114301602868C043000208D4D5F88C200B
:10362000DAF8001021F440011143CAF8001028799B
:103630000024C04300F0010020430AD00FE0D5F879
:103640008020DAF8001021F440711143CAF800100C
:103650009EE70198002103F037FB00B10646287968
:10366000C04300F00200204305D10198012103F07E
:103670002BFB00B106462879C04300F0040020432C
:1036800005D10198022103F01FFB00B106462879FD
:10369000C04300F00800204305D10098002103F04A
:1036A000A3FB00B106462879C04300F01000204378
:1036B00005D10098012103F097FB00B10646287957
:1036C000C04300F02000044304D10098022103F01D
:1036D0008BFB00B916B10120BDE8FE8F0020FBE78F
:1036E0004C4402582DE9F05F04000F467ED0DFF80D
:1036F0003882D8F8000000F00F00B8420CD2D8F899
:10370000001021F00F013943C8F80010D8F800006C
:1037100000F00F00B84269D12078844D40070AD5E7
:103720002069296801F07001884204D9296821F0D4
:1037300070010143296020787C4E361D00070AD5B0
:103740006069316801F07001884204D9316821F064
:103750007001014331602078C0060AD5A069316844
:1037600001F4E061884204D9316821F4E061014349
:1037700031602078DFF8B4B180060BF1080B0CD56E
:10378000E1695846DBF8002002F07002914204D94A
:10379000026822F070020A430260207880070AD58E
:1037A000E068296801F00F01884204D9296821F0F6
:1037B0000F01014329602078C0073ED05B49A26811
:1037C0002868183920F47060104328606068022867
:1037D00018D0032819D00968012819D049070029F1
:1037E0004ADADFF848A1AAF1080A00E044E0DAF872
:1037F000002022F007020243CAF80020FDF7E2FE93
:10380000814612E009688903E9E709688901E6E76A
:10381000C905E4E7FDF7D6FEA0EB090141F28830C7
:10382000814202D90320BDE8F09F6168DAF8000008
:1038300000F03800B0EBC10FECD1207880070AD53A
:10384000E068296801F00F01884204D2296821F05C
:103850000F0101432960D8F80010404601F00F0124
:10386000B9420BD9016821F00F01394301600068AA
:1038700000F00F00B84201D00120D4E720784007C3
:103880000AD52069296801F07001884204D22968AC
:1038900021F0700101432960207800070AD5606992
:1038A000316801F07001884204D2316821F0700162
:1038B000014331602078C0060AD5A069316801F45F
:1038C000E061884204D2316821F4E0610143316053
:1038D000207880060CD5E1695846DBF8002002F01C
:1038E0007002914204D2026822F070020A43026020
:1038F00000F09AF80E492A682B68C2F3032203F0FD
:103900000F038A5CC95C02F01F0201F01F01D04066
:10391000084A20FA01F11160074908600748006869
:10392000BDE8F05FFDF780BF002000521844025848
:1039300008B70008400000243C00002434000024A4
:1039400070B5144C3F220260124A24680832131DDD
:10395000114D04F00704446016681C1D06F47066DF
:103960008660166806F00F06C660126802F07002E4
:1039700002611A6802F0700242611A6802F4E062A1
:103980008261226802F07002C261286800F00F00B4
:10399000086070BD104402580020005230B500F09D
:1039A00043F80B4A0B490C4B15681468C5F3032206
:1039B00004F00F048A5C095D02F01F0201F01F0190
:1039C000D040064A20FA01F119601060084630BD67
:1039D0001844025808B70008400000243C000024A6
:1039E00000B5FFF7DBFF05490968054AC1F302117D
:1039F000515C01F01F01C84000BD00001C4402588A
:103A000008B7000800B5FFF7C9FF05490968054A6E
:103A1000C1F30221515C01F01F01C84000BD00004C
:103A20001C44025808B70008454970B54548096864
:103A3000434B103B11F0380208D00111082A03D083
:103A4000102A0BD0182A0BD0084670BD19688906B9
:103A5000FBD51968C1F3C101C84070BD3A4870BDBB
:103A60003749374D18310C1D24350A680968266816
:103A70002D6802F0030406F00102C1F30511C5F33D
:103A8000CC0515FB02F200EE102AB8EE400AE9B3AD
:103A90002F4ADFED2E0AB7EE001A6CB1DFED2D1ABA
:103AA000012C01D0022C43D002EE101A1068F8EE5F
:103AB000422A81EEA22A1EE01C68A40611D51B68CA
:103AC00001EE901A1168C3F3C103F8EE612AD840E1
:103AD00001EE900AC1F30800F8EE611A81EEA22A05
:103AE0000BE001EE901ADFED1C2A00BFF8EE611A20
:103AF000106882EEA12AC0F3080001EE900AF8EEE9
:103B0000611A40EE201A31EE810A00E015E022EE43
:103B1000000A1068C0F34620401C00EE900AF8EE40
:103B2000600A80EE201ABCEEC10A10EE100A70BDC9
:103B300001EE901ADFED092AD8E7002070BD0000E1
:103B4000104402580090D00340787D0100000039F5
:103B5000304402580024744A0024744C20BCBE4BEC
:103B60002DE9F05F04007DD0FF4F2078FE4D18371F
:103B7000DFF8F493103DC00748D0D9F80000396849
:103B800000F03800102815D0182803D101F00300E8
:103B900002280FD06068B0F5803F12D010B1B0F5A8
:103BA000A02F18D0286820F480302860286820F4DE
:103BB000802009E02868800328D560680028D2D0DA
:103BC00024E0286840F480302860606888B1FDF700
:103BD000F9FC064609E0286840F480202860F0E7F8
:103BE000FDF7F0FC801B64286FD828688003F7D5A8
:103BF0000CE0FDF7E7FC064605E000BFFDF7E2FC40
:103C0000801B6428F0D828688003F7D4207841F21C
:103C10000308D54E0C3E800769D5D9F800003968F5
:103C200010F038000ED0182801D188070AD0E068BB
:103C300090B3296821F0190101432960FDF7C2FC06
:103C4000824631E02868400702D5E06800288AD023
:103C5000E168286820F0190008432860FDF7B2FCED
:103C6000824607E0DFE000BFFDF7ACFCA0EB0A00F6
:103C70000228B9D828684007F6D500BFFDF79CFC9C
:103C800040451BD82069402812D0316821F47C318E
:103C900041EA003030602AE018E000BFFDF792FCF6
:103CA000A0EB0A0002289FD828684007F6D5E5E770
:103CB000306820F47C3040F40030EBE7207C316841
:103CC00021F0FE4141EA0060E4E70DE1286820F0C0
:103CD00001002860FDF776FC824605E0FDF772FCE6
:103CE000A0EB0A0002288DD828684007F6D4207877
:103CF000C0065DD5D9F80000DFF86CB2396800F075
:103D00003800ABF1040B082810D0182803D101F0BB
:103D1000030001280AD0E0690028286838D040F064
:103D200080002860FDF74EFC824623E02868C0052D
:103D300023D5E069802876D11FE0206A202821D091
:103D4000316821F0F84141EA8060306030E000BF26
:103D500094F82010DBF8002022F07C5242EA016146
:103D6000CBF8001024E000BFFDF72CFCA0EB0A000C
:103D7000022898D82868C005F6D5FDF71DFC4045F7
:103D8000E6D8DAE7306820F0F84040F08040DCE721
:103D900020F080002860FDF715FC064605E000BF16
:103DA000FDF710FC801B02289DD82868C005F7D4B9
:103DB0002078000729D56C48616964300029804665
:103DC000016811D041F001010160FDF7FBFB0646DF
:103DD00005E000BFFDF7F6FB801B0228C9D8D8F824
:103DE00000008007F6D510E021F001010160FDF729
:103DF000E9FB064605E000BFFDF7E4FB801B022857
:103E000072D8D8F800008007F6D42078800623D531
:103E1000A0690028286810D040F480502860FDF781
:103E2000D1FB064605E036E1FDF7CCFB801B0228FE
:103E30005AD828688004F7D50EE020F48050286016
:103E4000FDF7C0FB064604E0FDF7BCFB801B022823
:103E50004AD828688004F7D4207840074FD5DFF887
:103E60000C81D8F8001041F48071C8F80010FDF7FB
:103E7000A9FB064605E000BFFDF7A4FB801B6428F4
:103E800032D8D8F80000C005F6D5374EA0686036A5
:103E900001280AD008B1052813D0306820F00100AD
:103EA0003060306820F0040002E0306840F001002B
:103EB0003060A06841F2883A90B1FDF783FB8046FC
:103EC0000AE0306840F004003060EEE7FDF77AFB6E
:103ED000A0EB0801514507D830688007F6D50EE001
:103EE000FDF770FB804607E084E000BFFDF76AFB4A
:103EF000A0EB080151457DD830688007F6D4606A90
:103F0000B0B3DFF86480D9F8001008F120084FF64C
:103F1000F87B08F10409C1F3C2010329A8F1040ADE
:103F200069D00228286820F08070286003D0FDF74F
:103F300049FB044684E0FDF745FB064605E000BF6B
:103F4000FDF740FB801B022877D828688001F7D452
:103F5000E26A40F2F331386854F8283F884340EA77
:103F600002101843386004E0104402580048025818
:103F7000B5E0217B434622894FF4FE0C208A4FF0A6
:103F8000FE474902267D521E401EA1F50071C2F374
:103F900008088AB2761E0CEA004042EA0802024390
:103FA000504607EA06610A431A60DAF8002022F058
:103FB0000102CAF80020D9F80020266A22EA0B0282
:103FC00042EAC602C9F80020DAF80010A26921F01E
:103FD0000C011143CAF800100168E26921F00201E6
:103FE00011430160016841F480310160016841F4CE
:103FF000003101E021E027E00160016841F4802107
:104000000160016841F001010160286840F08070A2
:104010002860FDF7D7FA044605E000BFFDF7D2FAA5
:10402000001B022809D828688001F7D557E000BF97
:10403000FDF7C8FA001B022802D90320BDE8F09F53
:1040400028688001F4D44AE039680128D8F80000D3
:1040500021D0A26A01F0030393421CD1E26AC1F3AA
:1040600005118A4217D1216BC0F30802491E8A420A
:1040700011D1616BC0F34622491E91420BD1A16B55
:10408000C0F30642491E914205D1E16BC0F30660C0
:10409000491E814201D00120D0E7A16C4E46D9F8DB
:1040A0000000C0F3CC00814219D0DAF80000554678
:1040B00020F00100CAF80000FDF784FA4FEA00077B
:1040C000FDF780FAB842FBD0A26C306820EA0B0002
:1040D00040EAC2003060286840F0010028600020FB
:1040E000ACE7000070B504000D4603D094F82C0036
:1040F00010B107E0012070BD002084F82D0020469B
:1041000000F018F8022084F82C002068211DFCF72C
:10411000E3FCD4E900022946FCF714FD0448012120
:10412000026842F00042026084F82C10002070BD4A
:1041300000400052FDF798B82DE9FC5F0446806B03
:104140000E46032184F83010002703285CD0B6F512
:10415000004F59D0B6F5804F4FF000054FF400687E
:104160004FF0806904D006B3606B40F000603FE020
:10417000009500210195206803F00EFF80011CD4FA
:104180006946204603F050FF70BB019840032DD5CF
:10419000B4F844102068090403F0B2FB20BB206887
:1041A00002211DE0606B284322E00095002101956B
:1041B000206803F0F1FE800101D54546F2E769462B
:1041C000204603F031FF78B90198C0030ED5B4F84A
:1041D00044102068090403F093FB28B920680021EB
:1041E00003F0D8FB0028DDD00546DBE74D46D9E7D4
:1041F0006063606B4FF4007BDFF8B8A040B12168CA
:104200000127C1F838A042E0606B40F08050EFE732
:1042100000214FF48030FEF72BFC010032D0264DF8
:104220003346D4E904C0B1FBF5F8D4E901928045E6
:1042300010D9A66D5E450DD0B6F5807F11D04FEA3E
:104240006506E0B14FEA4008B1FBF8F8B04501D986
:10425000B1FBF5F04946CDE900C0206803F0A0FEAF
:1042600015E0164E30B14FEA4008B1FBF8F8A8450A
:1042700002D8EFE7A942EDD9B1FBF6F0EAE7B14287
:10428000E6D8E7E7606B012740F0006060632068D4
:10429000594603F066FB30B122680127C2F838A006
:1042A000616B01436163012084F830003846BDE84A
:1042B000FC9F0000FF0FE01F80F0FA0200E1F5050F
:1042C000F0B5C26D920F0A70C26DC2F383624A707C
:1042D000C26DC2F301628A70C26D120CCA70B0F86E
:1042E0005C20120A0A7190F85C204A71026E120D6D
:1042F000CA80026EC2F303420A72B0F86020C2F3B1
:10430000C0324A72B0F86020C2F380328A72B0F8CC
:104310006020C2F34032CA72B0F860200026C2F3B7
:1043200000320A734E730122836B4FF4007463B141
:10433000012B3AD0036850499963416B41F0805199
:10434000416380F830200120F0BDB0F86030456E48
:104350009B051B0D43EA95730B61436EC3F3C26368
:104360000B75436EC3F302634B75436EC3F3425345
:104370008B75436EC3F38243CB75436EC3F3C23375
:104380000B760D696D1C85640B7E03F007039B1C87
:104390009D4085640B7A446503F00F0302FA03F332
:1043A0005F0A7D43C0E913350EE090F86050436E1C
:1043B000AD06AD0A45EA13430B610B695B1C9B021A
:1043C0008364C0E913434465B0F86430C3F38033B9
:1043D0004B76B0F86430C3F3C6138B7690F8643034
:1043E00003F07F03CB76836EDB0F0B77836EC3F313
:1043F00041734B77836EC3F382638B77836EC3F312
:104400008353CB77836EC3F3405381F8203081F818
:104410002160836EC3F3004381F82230B0F8683026
:10442000C3F3C03381F82330B0F86830C3F380336E
:1044300081F82430B0F86830C3F3403381F8253078
:10444000B0F86830C3F3003381F82630B0F8683034
:10445000C3F3812381F82730B0F86830C3F3012318
:1044600081F8283090F86800C0F3460081F82900F0
:1044700081F82A200020F0BDFF0FE01F826B0A6048
:10448000C26B4A60026C8A60426CCA60826C0A61CC
:10449000C26C4A61026D8A61406DC861002070473C
:1044A00070B5B0F84410002504460068090403F014
:1044B0005EFB18B1616B0143616304E02068002179
:1044C00003F06AFD0546C5F3432070BD2DE9F041B8
:1044D000054690F8300090B00C460026032810D016
:1044E0006946284603F0E8FE2A4F4FF0010860B104
:1044F0002A68012697636A6B02436A6385F83080F5
:104500003AE0012010B0BDE8F08100994FF47F40FF
:10451000C1F3811121700099C1F3401161700099BC
:104520000A4600EA112141EA12616180019909BA43
:104530006160029921720299090A61720299C1F3BC
:104540000351A172DDE9022100EA1240C9B2084319
:10455000A0810398C0F38520A0730398C0F30120C5
:10456000E0730398C0F303102074039800F00F0069
:1045700060740498000EA07428684FF4007103F072
:10458000F0F928B12A6801269763686385F83080BE
:104590003046B7E7FF0FE01F90F830007047F0B5E6
:1045A000040085B020D094F83000002518B92046CA
:1045B000257600F097F8042084F83000204600F0BB
:1045C0003BF888B969462046FFF780FF60B99DF83F
:1045D0001010A26B9DF81100012A08D0A565204695
:1045E000E168FFF7A9FD58B1012005B0F0BD014316
:1045F00002D04FF4007001E04FF48070A065EEE748
:10460000FCF7E0FF0127064604E0FCF7DBFF801B18
:10461000401C0AD02046FFF743FF0428F5D165630C
:10462000E56284F830700020DFE74FF000406063FF
:1046300084F830700320D8E72DE9FC414FF00008E2
:1046400004464FF480304146FEF712FA05004FF061
:10465000010723D02048434642464146B5FBF0F6C9
:10466000CDE90086206803F09BFC206803F0A8FCDD
:104670001EB17000B5FBF0F52DB11848B0FBF5F098
:10468000401CFCF7DFFD204603F0BCFD60B100BF1D
:1046900084F83070616B0143616319E04FF0006092
:1046A00084F83070606313E0204603F02FFD00288B
:1046B000EED120684FF4007103F053F9002808D0C0
:1046C000226807499163616B0143616384F830702C
:1046D0000120BDE8FC81000000350C001021010024
:1046E000FF0FE01F2DE9F04186B005461421684612
:1046F000FBF738FE28680024374A0226354903258F
:10470000DFF8D88090422ED132480C38026842F44B
:1047100080320260006800F480300590086840F044
:1047200004000860086800F004000590086840F084
:1047300008000860086802AA0C27694600F0080013
:1047400005904FF4F850CDE9000682E8B000244807
:10475000FCF712FE0420694602AACDE90006404695
:1047600082E8B00031E01F4A904230D11948001F62
:10477000026842F400720260006800F40070059064
:10478000086840F002000860086800F00200059028
:10479000086840F00800086008680921029400F0E9
:1047A00008000590CDE903514CF218006946CDE9A7
:1047B00000060D48FCF7E0FD0B210294C020CDE976
:1047C0000351CDE9000669464046FCF7D5FD06B029
:1047D000BDE8F081E044025800700052000C02581D
:1047E0000008025800240248000402582DE9F04F46
:1047F00087B0994617460D460446FCF7E3FE06903F
:104800003DB194F83000012807D0606B40F00050B3
:104810000DE0606B40F0006009E0226D002007EBC6
:1048200009016063914204D9606B40F000706063DD
:10483000A8E0032184F830102168C862A16B012927
:1048400000D07F024FF0020ACDE903A090264FF07E
:10485000FF324FEA492305908DE84C0080462068DE
:10486000694603F02FFA2068B9F1010F4FF00106F5
:10487000C16841F04001C16006D9C4F82CA0394696
:10488000206803F0DFF804E0E6623946206803F0B0
:10489000F3F8DFF814A150B12368C3F838A0616BB6
:1048A0000143616384F83060C4F82C806AE0DDF86D
:1048B00004B01FE0406B000414D5BBF1200F11D3EE
:1048C0000027206803F082FB020A2870010C6A703E
:1048D000030EA9707F1CEB70082F05F10405F0D3BF
:1048E000ABF1200BFCF76EFE0699411A109881423D
:1048F00021D200B32068416B11F4957FDAD0C168F2
:1049000021F04001C1602068416BC90522D5B9F191
:10491000010F1FD9A16B03291CD003F075F9C8B191
:104920002368C3F838A0626B0243626384F8306086
:10493000C4F82C8026E02268C2F838A0606B40F0F2
:104940000040606384F83060C4F82C80032007B016
:10495000BDE8F08F2068416B090706D5C0F838A084
:10496000616B404641F0080108E0416B89070BD5B7
:10497000C0F838A0616B404641F00201616384F8E1
:104980003060E0620120E2E7416B890606D5C0F89D
:1049900038A0616B404641F02001EFE70349816395
:1049A00084F830600020D2E7FF0FE01F3A0F0018B4
:1049B0002DE9F04F89B09A4616460D460446FCF79D
:1049C00001FE06903DB194F83000012807D0606BDD
:1049D00040F000500DE0606B40F0006009E0226D97
:1049E000002006EB0A016063914204D9606B40F03D
:1049F00000706063B2E0032184F830102168C8625F
:104A0000A16B012900D076024FF0FF314FEA4A2214
:104A1000059090230490CDE90230CDE90012804644
:104A20002068694603F04EF92068C168BAF1010FA9
:104A300041F04002C26006D92020E0622068314681
:104A400003F00CF905E01020E0622068314603F025
:104A50001FF9DFF830B106004FF001090AD02368D2
:104A6000C3F838B0606B3043606384F83090C4F8AA
:104A70002C8073E00198089027E0406B40041CD51F
:104A80000898202819D3002728780790697840EAE9
:104A900001200790A97840EA01400790E9782D1D90
:104AA00040EA01600790206807A903F0A7FA7F1C7D
:104AB000082FE9D3089820380890FCF783FD069961
:104AC000411A1298814221D200B32068416B11F43F
:104AD0008D7FD2D0C16821F04001C1602068416B58
:104AE000C90521D5BAF1010F1ED9A16B03291BD02D
:104AF00003F08AF8C0B12568C5F838B0616B01438E
:104B0000616384F83090C4F82C8027E02368C3F8F0
:104B100038B0626B3243626384F83090C4F82C8002
:104B2000032009B0BDE8F08F2068416B090707D565
:104B30004946C0F838B0626B404642F0080209E0CE
:104B4000416B89070CD54946C0F838B0626B4046C6
:104B500042F00202626384F83010E0620120E0E774
:104B6000416BC90607D54946C0F838B0626B40466C
:104B700042F01002EEE7044A826384F8309000208D
:104B8000CFE70000FF0FE01F3A0F00182DE9F047B4
:104B9000040029D0594A4FF000092068584B594D5C
:104BA0009042C4F8289006D0984204D0A84202D07F
:104BB000E1680F2918D8E1684FF0010AE76B083166
:104BC000C9080AEB57167143904205D0984203D0AA
:104BD000A84201D0082907D8904203D0984201D0BA
:104BE000A84204D1102902D90120BDE8F08794F829
:104BF000810020B9204684F8809000F085F80220DA
:104C000084F881002068016821F0010101602068BA
:104C1000A1698268B1F1806F02F4F81110D1626865
:104C2000B2F5800F01D01AB10AE0A26B22B107E001
:104C3000A26BB2F1805F03D1026842F4805202603D
:104C40006068400209D5E068072806D32068236D14
:104C5000026822F480721A4303E02068026822F49A
:104C600080720260A66AE069E26B25683043E368FF
:104C70000A4310431843A860D4E90D02D4E9058122
:104C8000636A25691843D4F820C00A432668104394
:104C90002843A56DD4E90172D4E9123140EA080035
:104CA00040EA0C0038430843104318432843F0609F
:104CB000606868B92068816821F4C05141F40061DE
:104CC00081602068816821F4C06141F48061816065
:104CD0002068016D21F0010101656068400206D580
:104CE0002068626DC16821F000411143C160C4F8C1
:104CF000849084F881A0002077E700000030014014
:104D000000380040003C0040F0B587B00446142154
:104D10006846FBF727FB24492068884242D1234894
:104D2000016841F480510160006800F480500590F2
:104D30001E481038016841F002010160016801F06D
:104D400002010591016841F040010160016801F034
:104D500040010591016841F00101016000680024F3
:104D6000202700970225694600F00100CDE9015493
:104D700005260394CDE904600D48FCF7FDFA2802EE
:104D80000090CDE901540B486946CDE90346FCF794
:104D9000F3FA00976946CDE901540748CDE9034687
:104DA000FCF7EAFA07B0F0BD00300140F0440258C9
:104DB000000402580018025800000258024A136802
:104DC00083430B43136070470404005870477047D7
:104DD00070470000F0B590F83C20012A3BD01F4EF0
:104DE000012480F83C40022280F83D2002681C4DDE
:104DF0005368B242D2F808C001D0AA4203D14F682A
:104E000023F470033B430F6823F070031F43576084
:104E10000268B24213D0B2F1804F10D0114B9A42C7
:104E20000DD0114B9A420AD0104B9A4207D0AA4299
:104E300005D00F4B9A4202D00E4B9A4204D189689A
:104E40002CF0800319439160002180F83D4080F8E8
:104E50003C100846F0BD0220F0BD000000000140FB
:104E6000000401400004004000080040000C004025
:104E7000001800400040014010B5040003D094F831
:104E80003D0010B107E0012010BD002084F83C0077
:104E9000204600F023F8022084F83D002068211D00
:104EA00003F05AFC012084F8480084F83E0084F89E
:104EB0003F0084F8400084F8410084F8420084F800
:104EC000430084F8440084F8450084F8460084F8E0
:104ED000470084F83D00002010BD000070B586B08A
:104EE000044614216846FBF73DFA3548256885429B
:104EF00008D13448016841F001010160006800F008
:104F000001005BE03049B5F1804F304B4FF00002BB
:104F10002F484FF0020425D02E4EB54244D10D68E3
:104F200045F008050D60096801F008010591196850
:104F300041F001011960196801F001010591042196
:104F40000091CDE90142CDE903246946FCF714FA4A
:104F500000220E213220FCF7C9FC3220FCF7B8FCFD
:104F600006B070BD0D6845F001050D60096801F0DF
:104F700001010591196841F00101196019680123C7
:104F800001F0010105914FF400410091CDE901428A
:104F9000CDE903236946FCF7EFF900220D211C201F
:104FA000FCF7A4FC1C20D9E70B488542D8D108683F
:104FB00040F010000860086800F010000590CFE78E
:104FC00000000140F0440258E8440258E04402580E
:104FD00000000258000C00400010004090F83D1006
:104FE000012901D001207047174A022180F83D10A5
:104FF0000168CB6843F00103CB600068904214D095
:10500000B0F1804F11D0114988420ED0104988422A
:105010000BD01049884208D00F49884205D00F496B
:10502000884202D00E49884207D181680D4A11405A
:10503000062906D0B1F5803F03D0016841F0010197
:1050400001600020704700000000014000040040A3
:1050500000080040000C004000040140001800401F
:10506000004001400700010070B5044690F83C0084
:105070000025012814D03A4B012684F83C60022018
:1050800084F83D0022689068184020F47F409060CA
:10509000086870282FD010DC10F00F0F03D022E02A
:1050A0004FF0020070BD4FEA2012072A1BD2DFE842
:1050B00002F0535353534B394100B0F1101F4BD002
:1050C00009DCB0F5805F0FD0B0F5005F1ED0B0F501
:1050D000801F08D140E0A0F5801120393CD0102974
:1050E0003AD0202938D0012584F83D60002084F88A
:1050F0003C00284670BD4A682068D1E9021303F0DD
:105100009AFB2068816841F0770109E04A682068CD
:10511000D1E9021303F08FFB2068816841F48041DC
:105120008160E1E7CA684968206803F0A3FD206850
:10513000502106E0CA684968206803F0EDFD206848
:10514000602103F081FBCFE7CA684968206803F05B
:1051500091FD20684021F4E7226801461046F0E7FF
:1051600088FFCEFF2DE9F0412F4C06464FF0000896
:105170002DED048B82B02068401C20603068B0F1B7
:10518000804F35D1307F012832D10021304600F0E8
:10519000F9FC85B23046042100F0F4FC87B23046B9
:1051A000002100F053FA0421304600F04FFA00EEDF
:1051B000907A00EE105A3168F8EE600AF8EE402A54
:1051C000B8EE403B9FED192A9FED191B80EEA20A15
:1051D000C1F824800021304681EE039B20EE020AB4
:1051E000B7EEC08A00F002F90421304600F0FEF864
:1051F0002068B0F57A7F12D3B5EEC09BF1EE10FABD
:105200000DD0B5EEC08BF1EE10FA08D08DED008B0D
:1052100053EC192B08A005F03FFDC4F8008002B044
:10522000BDEC048BBDE8F0815C0000240000C842A6
:105230000000000080842E4154494D324348315FC4
:10524000467265713D256C66485A0A2C54494D32A8
:105250004348315F447574793D256C6625250D0AF8
:10526000000000002DE9F041054690F83C000026C2
:105270000C46012810D0012085F83C0072B1042AA8
:105280001CD0082A2CD00C2A51D00126002085F8E9
:105290003C003046BDE8F0810220FBE7E368286867
:1052A000D4E9001203F0F8FC2868816921F00C01B0
:1052B000816128688169A26811430FE0E36828686A
:1052C000D4E9001203F03AFD2868816921F44061B5
:1052D000816128688169A26841EA02218161D5E77C
:1052E000D4E900232868217B076A4FF4206C090762
:1052F00027F4807707620CEA0222C769D0F820C041
:1053000027F003071F432CF4206C27F0F00342EA38
:105310000C0243EA1161C16102622868C16921F08F
:105320000C01C1612868A268C169114329E028689D
:10533000D4E90032E168076A4FF6FF7C4FF4204E53
:1053400027F4805707620CEA0131C769D0F820C002
:105350000EEA033327F4407747EA02222CF4204C6C
:1053600022F470421143C16143EA0C0303622868CE
:10537000C16921F44061C1612868A168C26942EA3B
:105380000121C16182E710B5040003D094F83D000B
:1053900010B107E0012010BD002084F83C00204639
:1053A00000F022F8022084F83D002068211D03F05F
:1053B000D3F9012084F8480084F83E0084F83F00C7
:1053C00084F8400084F8410084F8420084F84300E7
:1053D00084F8440084F8450084F8460084F84700C7
:1053E00084F83D00002010BD7047000010B5044651
:1053F00079B1042912D0082915D00C2918D0102908
:1054000019D094F8430000BF94F84720012817D121
:1054100014E094F83E0094F84420F7E794F83F0035
:1054200094F84520F2E794F8400094F84620EDE720
:1054300094F84100E8E794F84200E5E7012A01D03A
:10544000012010BD4FF00200B9B304293BD0082958
:105450003ED00C2941D0102942D084F8430000BF2F
:1054600084F847000122206803F0D8F91E4920681B
:10547000884214D0B0F1804F11D01C4988420ED020
:105480001B4988420BD01B49884208D01A498842E0
:1054900005D01A49884202D01949884207D181684B
:1054A000184A1140062906D0B1F5803F03D00168A3
:1054B00041F001010160002010BDFFE784F83E00CB
:1054C00084F84400CEE784F83F0084F84500C9E73B
:1054D00084F8400084F84600C4E784F84100BFE740
:1054E00084F84200BCE700000000014000040040D6
:1054F00000080040000C004000040140001800407B
:10550000004001400700010030B504464FF000059F
:1055100079B1042912D0082915D00C2918D01029E6
:1055200019D094F8430000BF94F84720012817D100
:1055300014E094F83E0094F84420F7E794F83F0014
:1055400094F84520F2E794F8400094F84620EDE7FF
:1055500094F84100E8E794F84200E5E7012A01D019
:10556000012030BD4FF0020079B1042916D008297E
:105570001DD00C294FD0102950D084F843000C299D
:1055800084F847004DD0012543E084F83E0084F8BC
:1055900044002068C26842F0020210E084F83F0034
:1055A00084F845002068C26842F0040207E084F8ED
:1055B000400084F846002068C26842F00802C260D9
:1055C0002068012203F02AF918492068884214D083
:1055D000B0F1804F11D0164988420ED0154988424B
:1055E0000BD01549884208D01449884205D0144987
:1055F000884202D01349884207D18168124A11407B
:10560000062906D0B1F5803F03D0016841F00101C1
:105610000160284630BD84F84100B0E784F84200BC
:10562000ADE72068C26842F01002C8E70000014000
:105630000004004000080040000C0040000401404D
:1056400000180040004001400700010030B5002272
:10565000044600680D4603F0E1F8206841F211129B
:10566000016A114207D1016A9210114203D1016807
:1056700021F0010101604FF001006DB1042D10D047
:10568000082D13D00C2D16D0102D17D084F8430000
:1056900084F84700002030BD84F83E0084F84400C0
:1056A000F8E784F83F0084F84500F3E784F8400009
:1056B00084F84600EEE784F84100E9E784F8420008
:1056C000E6E770B50446006800250169C94389070B
:1056D00015D4C168C943890711D4EA1E02610121AA
:1056E0002177206880698007204602D0FFF73AFDC5
:1056F00004E000F0CFF8204600F0A4F925772068F8
:105700000169C943490717D4C168C943490713D47C
:1057100002216FF00402026121772068806910F491
:10572000407F204602D0FFF71DFD04E000F0B2F8F4
:10573000204600F087F9257720680169C9430907E9
:1057400016D4C168C943090712D404216FF00802B6
:10575000026121772068C0698007204602D0FFF7E8
:1057600001FD04E000F096F8204600F06BF9257783
:1057700020680169C943C90617D4C168C943C9066D
:1057800013D408216FF01002026121772068C069EC
:1057900010F4407F204602D0FFF7E4FC04E000F064
:1057A00079F8204600F04EF9257720680169C94351
:1057B000C90708D1C168C943C90704D1891E01615D
:1057C000204600F0C9F920680169C943090609D4D7
:1057D000C168C943090605D46FF080010161204604
:1057E000FFF7F5FA20680169C943C90509D4C16802
:1057F000C943090605D46FF4807101612046FFF7A3
:10580000E5FA20680169C943490609D4C168C9435A
:10581000490605D46FF040010161204600F0F3F91C
:1058200020680169C94389060BD4C168C943890648
:1058300007D46FF0200101612046BDE87040FFF7FA
:10584000C7BA70BD10B586B0044614216846FAF791
:1058500089FD0D492068884214D10C48016841F047
:105860000401016000680021402200F0040005905E
:1058700002200092CDE90101CDE9031004486946F8
:10588000FBF77AFD06B010BD00040040E04402586A
:1058900000080258704770B5044690F83C00002696
:1058A0000D4601280BD0012084F83C000C2A4AD078
:1058B00007DC82B1042A20D0082A06D131E0022078
:1058C00070BD102A53D0142A63D00126002084F81A
:1058D0003C00304670BD206802F0C0FF206881693E
:1058E00041F0080181612068816921F00401816132
:1058F00020682A698169114311E0206803F002F8E9
:105900002068816941F4006181612068816921F426
:105910008061816120682969826942EA012181618F
:10592000D4E7206803F03AF82068C16941F0080123
:10593000C1612068C16921F00401C16120682A6940
:10594000C169114311E0206803F074F82068C1694F
:1059500041F40061C1612068C16921F48061C161C5
:1059600020682969C26942EA0121C161AEE7206865
:1059700003F09CF82068416D41F008014165206802
:10598000416D21F00401416520682A69416D114390
:1059900011E0206803F0C4F82068416D41F4006113
:1059A00041652068416D21F4806141652068296965
:1059B000426D42EA0121416588E710B5040003D039
:1059C00094F83D0010B107E0012010BD002084F8DC
:1059D0003C00204600F022F8022084F83D002068B8
:1059E000211D02F0B9FE012084F8480084F83E0031
:1059F00084F83F0084F8400084F8410084F84200B5
:105A000084F8430084F8440084F8450084F8460094
:105A100084F8470084F83D00002010BD08B50068F8
:105A20000649884208D10648016841F00201016038
:105A3000006800F00200009008BD00000004004073
:105A4000E84402587047000030B504464FF00202A7
:105A500069B1042912D0082917D00C291CD01029AB
:105A600021D094F84300012824D0012030BD94F8BF
:105A70003E000128F9D184F83E201DE094F83F0053
:105A80000128F2D184F83F2016E094F84000012864
:105A9000EBD184F840200FE094F841000128E4D1D4
:105AA00084F8412008E094F842000128DDD184F810
:105AB000422001E084F843200122206802F0AEFE7B
:105AC0001B4B20681B491C4A984209D0884207D0CA
:105AD000904205D0194DA84202D0194DA84203D1D9
