:020000040800F2
:1000000040920024AD0200088F430008C53F00085D
:100010008D43000851060008455B00080000000001
:1000200000000000000000000000000083510008F4
:1000300053060008000000009143000885510008A5
:10004000C7020008C7020008C7020008C70200086C
:10005000C7020008C7020008C7020008C70200085C
:10006000C7020008550600085B060008C702000822
:10007000C7020008C7020008C7020008C70200083C
:10008000C7020008C7020008C7020008C70200082C
:10009000C7020008C7020008C7020008C70200081C
:1000A000C7020008C7020008C7020008C70200080C
:1000B000C7020008C7020008C7020008C7020008FC
:1000C000C7020008C7020008C7020008C7020008EC
:1000D000C7020008C7020008C7020008C7020008DC
:1000E000C7020008C702000800000000C70200089D
:1000F000C7020008C7020008C7020008C7020008BC
:10010000C7020008C7020008C7020008C7020008AB
:10011000C7020008C70200084153000879530008CD
:10012000C7020008C7020008C7020008C70200088B
:10013000C7020008C7020008C7020008C70200087B
:1001400000000000000000000000000000000000AF
:10015000C7020008C7020008C7020008C70200085B
:10016000C7020008C7020008C7020008C70200084B
:10017000C7020008C7020008C7020008C70200083B
:10018000C7020008C7020008C7020008C70200082B
:10019000C7020008C7020008C7020008C70200081B
:1001A000C7020008C7020008C7020008C70200080B
:1001B000C7020008C7020008C7020008C7020008FB
:1001C000C7020008C7020008C7020008C7020008EB
:1001D000C7020008C7020008C7020008C7020008DB
:1001E000C7020008C7020008C7020008C7020008CB
:1001F000C7020008C7020008C7020008C7020008BB
:10020000C7020008C7020008C7020008C7020008AA
:10021000C7020008C7020008C7020008C70200089A
:10022000C7020008C7020008C7020008000000005B
:10023000C7020008C702000800000000C70200084B
:10024000C7020008C7020008C7020008C70200086A
:10025000C7020008C7020008C7020008C70200085A
:10026000C7020008C7020008C7020008C70200084A
:10027000C7020008C7020008C7020008000000000B
:10028000C7020008C7020008C702000800000000FB
:1002900000000000C7020008DFF80CD000F07AF878
:1002A000004800472978000840920024064880470B
:1002B00006480047FEE7FEE7FEE7FEE7FEE7FEE74B
:1002C000FEE7FEE7FEE7FEE7655200089902000838
:1002D0002DE9F05F0546002092469B46884606467B
:1002E000814640241BE0284641464746224600F00E
:1002F00041F853465A46C01A914110D31146184648
:10030000224600F028F82D1A67EB01084F462246D6
:100310000120002100F01FF817EB00094E41201EBC
:10032000A4F10104DFDC484631462A464346BDE8D5
:10033000F09FD2B201E000F8012B491EFBD27047BA
:100340000022F6E710B513460A4604461946FFF7A1
:10035000F0FF204610BD202A04DB203A00FA02F10B
:10036000002070479140C2F1200320FA03F31943A3
:1003700090407047202A04DB203A21FA02F0002145
:10038000704721FA02F3D040C2F1200291400843A5
:1003900019467047064C074D06E0E06840F001033F
:1003A00094E8070098471034AC42F6D3FFF778FF83
:1003B000C4800008E480000870B58C1810F8015B58
:1003C00015F0070301D110F8013B2A1106D110F8EE
:1003D000012B03E010F8016B01F8016B5B1EF9D1F2
:1003E0002B0705D40023521E0DD401F8013BFAE778
:1003F00010F8013BCB1A921C03E013F8015B01F8E3
:10040000015B521EF9D5A142D8D3002070BD000077
:1004100070B53A4905460068884202D0384A904291
:1004200002D1D1F8080302E03648D0F8080310F4EE
:10043000403F11D002F088F904466868B0F5803F6B
:1004400006D0B0F5003F03D0B0F5403F27D101E022
:10045000000C18E0A40822E000214FF4002001F075
:10046000DDF9044668688103890B18D181140C29D1
:1004700015D2DFE801F0140606060606060B0D0F7E
:100480001113800C4000B4FBF0F408E0240906E0EE
:10049000640904E0A40902E0E40900E0240A00F091
:1004A000CDFD41F20301884208D8174884422868EC
:1004B000816813D821F48071816070BD1349600890
:1004C000884204D82868816821F44071F4E7104913
:1004D000884206D82868816821F4407141F480710F
:1004E000EAE70C4988422868816804D821F4407101
:1004F00041F40071E0E741F44071DDE70020024083
:100500000021024000600258002D3101105E5F00A2
:1005100020BCBE0040787D0170B50446006881684B
:100520008268C1F3400112F0010F28D039BB816805
:1005300001F00D01012914D18168124A1140891C72
:10054000816021680320086000F07EFD054612E00E
:1005500000F07AFD401B02280DD920688068C00792
:1005600009D0606D40F010006065A06D40F00100A2
:10057000A065012070BD20688068C007E8D1002018
:1005800070BD0000C0FFFF7F10B5012403482103A8
:1005900000F04AFD00B10024204610BD00040258BE
:1005A0000146014802F016BE58410024044810B527
:1005B00002F022FE042801D0012010BD002010BD51
:1005C0005841002410B500F015F8012801D0022090
:1005D00010BD074802F08CFE040006D104484FF419
:1005E000804102F055FC00B10124204610BD0000FE
:1005F0005841002408B501208DF80000FFF7C4FF22
:1006000010B900208DF800009DF8000008BD000022
:1006100038B50024009313460A460146034802F009
:100620004FFF00B10124204638BD0000584100248E
:1006300038B50024009313460A460146034803F0E8
:1006400021F800B10124204638BD000058410024A3
:10065000FEE77047082000F0C5BB102000F0C2BBC9
:1006600072B6FEE7002200F001B800000E4B70B534
:1006700005465C7A0120002C14D15E7A03F1080053
:100680009C555E7A03EB860675605D7A2A54587A2B
:10069000421C5A723A232F22303008704B70204689
:1006A0008A70CC7070BD000034880024F8B5002733
:1006B000044615460E46009790F8500001280BD0CE
:1006C000012084F850002046FFF726FF0100606DEE
:1006D00004D040F010002DE00220F8BD20F4885036
:1006E00040F002006065206806F4803205F0804327
:1006F000134D1A4383682B401A4342F00042826034
:10070000104A20680EE0009B5B1C0093934209D3C3
:10071000606D84F8507020F0020040F010006065B9
:100720000120F8BD8368DB0FEDD1606D20F0020081
:1007300040F001006065084684F85070F8BD000084
:10074000C0FFFE3F00F8C3252DE9F84F4FF0000B26
:100750000446E54E0D46CDF800B05F4690F85000D7
:10076000DFF888A3012808D04FF0010984F85090E1
:10077000206803F02CFC18B169E10220BDE8F88F75
:1007800021682868CA69030328D090FAA0F0B0FA5B
:1007900080F000BF00F01F0309FA03F00243CA61B2
:1007A000D5E900124FF00C0C20681F23C1F38461BF
:1007B0000CEA921C02F01F02604493409140026BCD
:1007C0009A430A430263206803F001FC80462068D4
:1007D00003F0F9FB58EA000003D07FE0C0F3846027
:1007E000D8E72068AA68296803F0F5FBC0490968C2
:1007F000B9EB117F06D121686869C968C1F382012C
:10080000490008E02068C168C906C1686869F5D573
:1008100001F0100149088840296904292ED0226876
:100820002B6802EB810103F0F8420B6E024303F0E8
:10083000004010430866697E22682869012917D0A4
:100840005FF0000102EB8000026E22F000420A43DA
:100850000266287E21682A6901280CD000200B69D5
:1008600002F01F02904023F4F04202430A6135E097
:100870004FF00041E6E74FF40060F0E72068297888
:10088000026E02F0F842B2EB816F03D1016E21F0EB
:100890000041016620682978426E02F0F842B2EB0E
:1008A000816F03D1416E21F00041416620682978B3
:1008B000826E02F0F842B2EB816F03D1816E21F0BB
:1008C0000041816620682978C26E02F0F842B2EBDE
:1008D000816F03D1C16E21F00041C166206881683B
:1008E00011F0010F76D150F8C02F95F80CC0814B54
:1008F00029680CF0180C23FA0CF3C1F313080B4011
:1009000022EA08021A4302607B48E968814277D1F3
:10091000286801031BD090FAA0F1B1FA81F1491CBB
:1009200001F01F0109294FEA003131D8002911D007
:1009300090FAA0F1B1FA81F101F1010101F01F017A
:1009400009FA01F209D100BFC0F3846109E0C0F3E4
:100950008461E4E7C0F38461EEE790FAA0F1B1FAB4
:1009600081F101F1010101F01F0142EA816102D12F
:10097000C0F3846003E090FAA0F0B0FA80F000F1D8
:10098000010000F01F0000EB400041EA005133E09D
:1009900000290ED090FAA0F1B1FA81F101F1010124
:1009A00001F01F0109FA01F206D100BFC0F3846112
:1009B00006E0C0F38461F1E790FAA0F1B1FA81F1A9
:1009C00001F1010101F01F0142EA816103D1C0F38D
:1009D000846004E040E090FAA0F0B0FA80F0474A6A
:1009E00000F1010000F01F0000EB400002EB00509E
:1009F00041EA000141F00071AA68206803F0EBFAB7
:100A0000D5F800C0BCF1000F26DA3D4B20683D4907
:100A1000DFF8F490984201D0B04201D10A4600E0DC
:100A20004A469268984202F0E07201D0B04209D181
:100A30009D68D6F8088005F0010508F0010845EA30
:100A4000080503E0DAF8085005F0010545B1606DCE
:100A5000012740F020006065384684F850B08DE6EC
:100A60002A4DAC451CD115021AD45045F4D19842F8
:100A700002D0B04200D049468B6842F4000023F017
:100A8000E07202438A60234921480968B1FBF0F013
:100A90004000801C00E0401E00900028FBD1DBE7F6
:100AA0001D4DAC450CD1D5010AD45045D4D1984246
:100AB00002D0B04200D049468B6842F080700EE010
:100AC000164DAC45C8D15502C6D45045C4D1984244
:100AD00002D0B04200D049468B6842F4800023F037
:100AE000E07202438A60B7E70021024000600258CA
:100AF0000010005CFFFF0F000000FF47000020FE19
:100B0000002002400023024000630258000084CB12
:100B1000400D030034000024000052C70000B8CF8D
:100B2000F8B54FF0000604003546009602D0606D1F
:100B300010B107E00120F8BD204600F005F9A665D8
:100B400084F8506020688168C1F3407119B18168F0
:100B5000704A1140816020688168C1F3007181B9D9
:100B600081686D4A114041F0805181606C496B4849
:100B70000968B1FBF0F0401C00E0401E0090002826
:100B8000FBD120688168C1F3007141B9616D012515
:100B900041F010016165A16D41F00101A16503F013
:100BA00016FA616DC90600D420B1606D012540F0D0
:100BB000100093E0606D20F4807040F002006065EA
:100BC0002068816811F0010F1FD1564A564B9042A0
:100BD00001D0984207D191689E6801F0010106F0AA
:100BE0000106314303E05149896801F0010161B90F
:100BF000904201D0984201D14D4800E04D488268B2
:100C0000616822F47C120A43826000F017FA41F214
:100C10000301884202D9A06810280CD0617D227F90
:100C2000A368206B490341EA024118430843217F2E
:100C300001290CD010E0607D227F216B400340EA47
:100C4000024241F01000104340F00C00EFE7218C0D
:100C5000394A02EB41410843616A29B1A26A01F4B1
:100C60007871014342EA01002168344BCA681A4096
:100C70000243CA60206803F0AAF90646206803F020
:100C8000A2F930431DD1216844F20303267DE26AB4
:100C9000C86842EA863298431043C86094F8380026
:100CA00001281ED02068016921F00101016120683E
:100CB000626B016921F07041114301612046FFF729
:100CC000A7FBE068012820681CD0016B21F00F0110
:100CD0000163606D20F0020040F00100606528466D
:100CE000F8BD2068A28F164FD4E9101C154E07EBF3
:100CF0000247A36C026941EA0C013B4332401943AD
:100D00001143D3E7A269016B521E21F00F01114379
:100D1000DEE70000C0FFFF5FC0FFFF7F400D030064
:100D200034000024002002400021024000600258EC
:100D300000230240006302580000FEFF03C0F0FFE2
:100D40000100FFFF1EF800FC08B50068104988424A
:100D50001CD11048016841F080710160016801F008
:100D600080710091016841F004010160006800F0A9
:100D7000040000904FF08060014602F071FD4FF0DA
:100D80000060BDE80840014602F06ABD08BD0000F1
:100D900000600258E044025870B5044600F054F96F
:100DA0000546601C02D004480078044400F04CF969
:100DB000401BA042FAD370BD2800002410B5074C98
:100DC000102807D0082804D1054802F005FE0120AC
:100DD000607010BD00F038F9206110BD04000024DF
:100DE000204200244FF0B04110B5D1F888200242D3
:100DF00003D0C1F88800FFF7E1FF10BD2DE9F84FDF
:100E000003247D4D00234FF001094FF0B04B4FF00C
:100E10000F0AE9E009FA03F73A4076D00E7906F0B6
:100E20000306012E01D0022E18D1D0F808C04FEAD7
:100E3000430ECE6804FA0EF82CEA080C06FA0EF6F9
:100E400046EA0C068660D0F804C00E792CEA070C3E
:100E5000C6F300169E4046EA0C0646600E79F6433D
:100E6000B6070BD0C6684FEA43088F6804FA08FC3F
:100E700026EA0C0607FA08F73743C7600E7906F032
:100E80000306022E12D1DE080F694FEA437C00EB05
:100E90008606B646366A4FEADC6C0AFA0CF807FAA0
:100EA0000CF726EA08063743CEF820700F7906685B
:100EB0004FEA430807F0030704FA08FC07FA08F7AB
:100EC00026EA0C06374307604E6816F4403F1CD0F4
:100ED0004A4E376847F00207376036689F0706F0CA
:100EE0000206009623F0030606F1B046B6463F0F11
:100EF000D6F80864DFF808810AFA07FC404526EABC
:100F00000C0603D14FF0000C41E06CE0DFF8F4C0B8
:100F1000604502D14FF0010C39E0DFF8ECC06045CC
:100F200002D14FF0020C32E0DFF8E0C0604502D1A0
:100F30004FF0030C2BE0DFF8D8C0604502D14FF032
:100F4000040C24E0DFF8CCC0604502D14FF0050C62
:100F50001DE0DFF8C4C0604502D14FF0060C16E07A
:100F6000DFF8B8C0604502D14FF0070C0FE0DFF8A2
:100F7000B0C0604502D14FF0080C08E0DFF8A4C013
:100F8000604502D14FF0090C01E04FF00A0C0CFA59
:100F900007FC4CEA060CCEF808C44F68DBF800608A
:100FA000FF0226EA020600D516435F46CBF8006032
:100FB000D1F804C0DBF804605FEA8C2C26EA020654
:100FC00000D516437E606E684F6826EA0206BF03AE
:100FD00000D516436E602E684F6826EA0206FF03AE
:100FE00000D516432E605B1C0A6832FA03F67FF4C4
:100FF00011AFBDE8F88F000080000058F44402589B
:10100000000002580004025800080258000C025860
:10101000001002580014025800180258001C025810
:1010200000200258002402580069084000D0012026
:1010300070470AB1816170470904FBE70148006805
:10104000000C70470010005C014880687047000089
:101050002800002430B590F84120202A24D190F8AF
:101060004020012A20D0012380F84030242280F83B
:101070004120202300240268156825F00105156031
:101080000268156825F480551560026815680D43DF
:10109000156001680A6842F001020A6080F8413078
:1010A00080F84040002030BD022030BD30B590F8BF
:1010B0004120202A22D190F84020012A1ED001236D
:1010C00080F84030242280F8412020240025026846
:1010D000136823F0010313600268136823F470633C
:1010E00043EA0121116001680A6842F001020A60C6
:1010F00080F8414080F84050002030BD022030BDD3
:1011000070B5040004D094F84100002510B106E049
:10111000012070BD204684F8405000F04DF8242096
:1011200084F841002068016821F001010160D4E9E0
:10113000001020F0706008612068816821F400418F
:101140008160E06821680128A06806D040F404406E
:101150008860E068022803D006E040F40040F7E72A
:1011600021684FF40060486020212068114A4368DC
:10117000134343602068C26822F40042C26054F8FE
:10118000106B0DCC104340EA0320F06054F81C3C77
:10119000D4E900021043186054F81C0D026842F0B4
:1011A00001020260656484F84110256384F84250AE
:1011B000002070BD0080000210B5B6B004461421B6
:1011C00030A8FFF7BDF8C0216846FFF7B9F8194904
:1011D000206888422BD10020219008210446CDE9C7
:1011E0000010684600F07EFC08B1FFF739FA12489B
:1011F000016841F002010160006830AB122100F08B
:10120000020035904FF44070042283E813000B482D
:1012100030A9CDE93342FFF7F1FD074808300168F6
:1012200041F400110160006800F40010359036B000
:1012300010BD000000540040E04402580004025871
:1012400002488168027811448160704728000024B8
:10125000032010B500F0ACF801F0BCFA0F4A1049B9
:1012600014681368C4F3032203F00F038A5CC95C9B
:1012700002F01F0201F01F01D0400A4A20FA01F1DA
:101280001160094908600F2000F010F808B1012032
:1012900010BD00F051F8002010BD000018440258A5
:1012A000467C0008380000243400002410B51028C3
:1012B00004468AB02CD200220146372000F058F8AC
:1012C000372000F047F8174804601748016841F0DC
:1012D00020010160006809A900F02000089068461C
:1012E00001F004FA0598B0B101F050FA40000F493E
:1012F00000220F4CB0FBF1F10E4840F2E7330460DE
:10130000C0E90332491EC0E9011202F007FB28B10F
:1013100001200AB010BD01F039FAE8E7054802F0F3
:101320005BFBF6E72C000024E844025840420F0023
:101330000014004000430024054808B5016841F04E
:1013400002010160006800F00200009008BD00008A
:10135000F4440258002809DB410900F01F0289000B
:10136000012001F1E0219040C1F800017047000028
:101370000E4BF0B41B680D46C3F30223C3F10706FE
:10138000042E00D90426191D072901D2002300E0EC
:10139000DB1E012404FA06F19C40491E2940641E0C
:1013A000994014402143F0BC04F0DEBB0CED00E09A
:1013B000064900F0070210B54FF6FF040868044B19
:1013C000204040EA02201843086010BD0CED00E008
:1013D0000000FA05134970B50A68D243520705D5D3
:1013E000096801F00701814213D118E00A6822F070
:1013F000070202430A60FFF727FE0A4D4FF47A7690
:101400000446083D07E000BFFFF71EFE001BB04288
:1014100001D9012070BD2868C0438004F4D40020A5
:1014200070BD00000C48025810B501F08DF9054957
:101430000968054AC1F30211515C01F01F01C8405F
:1014400010BD000020440258467C00084A4930B5CF
:10145000494C0B1D0A680C3409681D68246802F0A9
:10146000030305F00102C1F30511C4F3CC04002904
:1014700014FB02F200EE102AF8EE400A76D0414A40
:101480009FED3E1ADFED3E1AB7EE000A23B1012BA5
:101490005AD0022B18D15CE0374C283C23689B06BD
:1014A00012D5394B246801EE901A1168C4F3C104B7
:1014B000F8EE612AE34001EE903AC1F30801F8EE3C
:1014C000611A81EEA22A07E002EE101A1168F8EE06
:1014D000422A81EEA22A45E001EE901A1168F8EE48
:1014E000611A40EE811A71EE800A62EE200AC1F3A1
:1014F000462101EE101AB8EE411A31EE001AC0EE84
:10150000811ABCEEE11A80ED001A1168C1F30641A0
:1015100001EE101AB8EE411A31EE001AC0EE811A2F
:10152000BCEEE11A80ED011A1168C1F3066101EE0B
:10153000101AB8EE411A31EE000A80EE801ABCEEA5
:10154000C10A80ED020A30BD01EE901ADFED0F2ACC
:1015500003E001EE901ADFED0E2A1168F8EE611A31
:1015600082EEA12AC1F30801B6E7FFE7002101607E
:101570004160816030BD00002844025800000039FD
:101580000024744C304402580090D0030024744A64
:1015900020BCBE4B494930B5484C0B1D0A68143479
:1015A00009681D68246802F00303C5F30012C1F343
:1015B0000531C4F3CC04002914FB02F200EE102A1A
:1015C000F8EE400A75D03F4A9FED3D1AB7EE000A8B
:1015D0006BB1DFED3D1A012B01D0022B64D002EE7E
:1015E000101A1168F8EE422A81EEA22A21E0334C4B
:1015F000283C23689B0612D5344B246801EE901AD0
:101600001168C4F3C104F8EE612AE34001EE903A98
:10161000C1F30801F8EE611A81EEA22A0BE001EE97
:10162000901ADFED2B2A00BFF8EE611A116882EEE6
:10163000A12AC1F3080101EE901A1168F8EE611AAF
:1016400040EE811A71EE800A62EE200AC1F3462153
:1016500001EE101AB8EE411A31EE001AC0EE811AEE
:10166000BCEEE11A80ED001A1168C1F3064101EEEB
:10167000101AB8EE411A31EE001AC0EE811ABCEE13
:10168000E11A80ED011A1168C1F3066101EE101A2A
:10169000B8EE411A31EE000A80EE801ABCEEC10AA3
:1016A00080ED020A30BD04E001EE901ADFED092A58
:1016B000BAE70021016041608160F3E728440258E5
:1016C00000000039384402580024744A0090D003C6
:1016D0000024744C20BCBE4B494930B5484C0B1D0E
:1016E0000A681C3409681D68246802F00303C5F306
:1016F0000022C1F30551C4F3CC04002914FB02F20B
:1017000000EE102AF8EE400A75D03F4A9FED3D1AD0
:10171000B7EE000A6BB1DFED3D1A012B01D0022BB1
:1017200064D002EE101A1168F8EE422A81EEA22A65
:1017300021E0334C283C23689B0612D5344B2468A7
:1017400001EE901A1168C4F3C104F8EE612AE34077
:1017500001EE903AC1F30801F8EE611A81EEA22A77
:101760000BE001EE901ADFED2B2A00BFF8EE611AB4
:10177000116882EEA12AC1F3080101EE901A1168E6
:10178000F8EE611A40EE811A71EE800A62EE200ACC
:10179000C1F3462101EE101AB8EE411A31EE001ADB
:1017A000C0EE811ABCEEE11A80ED001A1168C1F397
:1017B000064101EE101AB8EE411A31EE001AC0EEE1
:1017C000811ABCEEE11A80ED011A1168C1F30661BD
:1017D00001EE101AB8EE411A31EE000A80EE801ABE
:1017E000BCEEC10A80ED020A30BD04E001EE901AA1
:1017F000DFED092ABAE70021016041608160F3E76B
:101800002844025800000039404402580024744A19
:101810000090D0030024744C20BCBE4B2DE9F04F47
:10182000AC4A0546DFF8A8A280F48070DFF8AC92DD
:1018300089B01311AA4C0843A748AAF104064FF037
:10184000805C4FF000582CD085F400770F4357D0C0
:10185000DFF87CB285F480670F430BF1080B61D091
:1018600085F400670F4374D085F480570F436ED022
:1018700085F400570F434FF480394FF4003E67D092
:1018800085F400270F4371D085F480370F436ED065
:1018900085F480460E436BD085F400420A4368D03D
:1018A0002AE0DAF8001001F00701052924D2DFE868
:1018B00001F075BC7D25B10006A8FFF7C7FD0798AC
:1018C00009B0BDE8F08F6846FFF764FE0098F7E7BF
:1018D00003A8FFF701FF0398F2E72068C0F3C100F7
:1018E00022FA00F0ECE72268D20571D561456FD18C
:1018F0001846E5E74145E3D00020E1E74846DFE749
:10190000DAF8001001F4E07180294FD004DC0029DE
:1019100044D04029F0D188E0C029EFD0B1F5807FD4
:10192000EAD177E0DBF8001001F46001B1F5800F37
:101930003CD004DC91B3B1F5001FDDD175E0B1F509
:10194000C00FDBD0B1F5000FD6D163E001E018E0A5
:1019500030E0DBF8001001F0E061B1F1007F25D04C
:1019600008DCD9B1B1F1807FC6D15EE049E06CE01E
:1019700079E09CE0B1F1407FC0D0B1F1806FBBD184
:1019800048E0DAF8001001F4E041B1F5005F0DD055
:1019900005DC19B1B1F5805FAED146E094E0B1F558
:1019A000405FABD0B1F5804FA6D133E02068800016
:1019B000A2D58DE7DAF8001001F4E021B1F5403F3F
:1019C0006CD006DC61B149457AD0714594D157E0BD
:1019D00037E0B1F5802F65D0B1F5A02F8CD10CE0A8
:1019E00000F0D4FE6CE76846FFF7D4FD019867E786
:1019F00003A8FFF771FE049862E721688903F1D418
:101A00007AE7DBF8001011F440310ED0494510D0D0
:101A10007145F5D13168256801F040516D077FF5BA
:101A200062AF00297FF45FAF57E720680001E7D578
:101A300049E720688000E3D503A8FFF74DFE05982D
:101A40003EE722689203DBD554E7306810F480301B
:101A50003AD04845D4D120680001D1D56846FFF777
:101A600099FD02982CE7DBF8001001F0E041B1F19C
:101A7000405F13D008DC71B1614521D04145BFD131
:101A800020688000B4D437E7B1F1804F0AD0B1F1BB
:101A9000A04FB2D030E7FFF7C7FC11E7206840073E
:101AA000AED51AE72068C005AAD521E708E0DAF824
:101AB000001011F04051A0D0614505D041459FD1A3
:101AC000206800018FD417E72068800198D5F3E6DD
:101AD000504402580090D00340787D010080BB0044
:101AE000004402582DE9FE4F0546DFF8E48350F824
:101AF000081B0024F64FC943019005F12800264633
:101B000008F12408009008011DD4A86E50B1B0F56A
:101B1000801F0CD0B0F5001F0ED0B0F5401F1ED0B6
:101B200001240FE0386840F40030386017E0019875
:101B3000022102F053FC03E00098022102F0DEFCD7
:101B400004000CD026462888C043C00523D4A86DC5
:101B500005281ED2DFE800F00C11161B1B00AA6E30
:101B6000D8F8001021F440111143C8F80010EAE73A
:101B7000386840F40030386009E00198002102F034
:101B80002DFC03E00098002102F0B8FC044674B17B
:101B900000E0012426462888C043800528D4E86D4B
:101BA00080281ED00CDC90B140280ED114E0AA6D24
:101BB000D8F8001021F007011143C8F80010EAE737
:101BC000C02813D0B0F5807F10D001240FE0386812
:101BD00040F40030386009E00198002102F0FEFB7B
:101BE00003E00098002102F089FC04469CB12646DF
:101BF0002888DFF8DC92C04309F12C0940052CD479
:101C0000D5F8A800B0F5800F20D00DDCA0B1B0F55C
:101C1000001F0FD115E0EA6DD8F8001021F4E07133
:101C20001143C8F80010E3E7B0F5C00F13D0B0F5CA
:101C3000000F10D001240FE0386840F40030386005
:101C400009E00198002102F0C9FB03E0009800219F
:101C500002F054FC04467CB126462888C0430005A7
:101C60002DD4D5F8AC00B0F1007F21D00EDCA8B1A6
:101C7000B0F1807F10D116E0D5F8A820D9F8001077
:101C800021F460011143C9F80010E6E7B0F1407F8C
:101C900013D0B0F1806F10D001240FE0386840F409
:101CA0000030386009E00198002102F097FB03E062
:101CB0000098002102F022FC044674B126462868F0
:101CC000C04380011FD4E86CD8B110280FD0202861
:101CD00012D0302815D0012414E0D5F8AC20D9F862
:101CE000001021F0E0611143C9F80010E7E73868FF
:101CF00040F40030386004E00198022102F06EFBED
:101D0000044674B126462888C043C0042BD4286EEC
:101D1000B0F5005F20D00DDCA0B1B0F5805F0FD131
:101D200015E06B48EA6C2030016821F03001114366
:101D30000160E8E7B0F5405F13D0B0F5804F10D0F8
:101D400001240FE0386840F40030386009E0019861
:101D5000002102F043FB03E00098002102F0CEFBDB
:101D600004468CB126462888C043800429D4686E76
:101D7000B0F5403F23D010DC08B3B0F5803F14D05D
:101D8000B0F5003F0FD115E02A6ED8F8001021F40D
:101D9000E0411143C8F80010E5E7B0F5802F0ED000
:101DA000B0F5A02F0BD001240AE00198012102F028
:101DB00015FB03E00098012102F0A0FB044694B15A
:101DC00026462888C04340042AD4D5F8B000B0F194
:101DD000405F23D010DC08B3B0F1805F14D0B0F1C5
:101DE000005F0FD115E06A6ED8F8001021F4E021F1
:101DF0001143C8F80010E4E7B0F1804F0ED0B0F105
:101E0000A04F0BD001240AE00198012102F0E6FA6C
:101E100003E00098012102F071FB044674B12646EC
:101E20002888C04300041FD4286FD8B1B0F1805F68
:101E30000ED0B0F1005F10D0012414E0D5F8B0202E
:101E4000D9F8001021F0E0411143C9F80010E7E78C
:101E5000386840F40030386004E00198012102F055
:101E6000BDFA044674B126462868C043C0011ED49A
:101E7000A86CD0B101280ED0022811D0032814D0AC
:101E8000012413E02A6FD8F8001021F040511143CB
:101E9000C8F80010E8E7386840F40030386004E023
:101EA0000198022102F09AFA0446ACB1264628684D
:101EB000DFF81CB0C043ABF11C0B400252D4054804
:101EC000016841F480710160FFF7BEF8824611E0BD
:101ED0002C44025800480258FA48AA6C016821F0C4
:101EE000030111430160E2E7FFF7AEF8A0EB0A003F
:101EF000642835D8F4480068C005F5D58CBBDFF8F8
:101F0000C4A3B5F8B4100AF1240ADAF8000001F409
:101F1000407100F44070884211D0DAF80010DAF80D
:101F2000002021F4407142F48032CAF80020DAF82F
:101F3000002022F48032CAF80020CAF80010D5F838
:101F4000B400B0F5807F1AD1FFF77EF8029012E05E
:101F5000FFF77AF80299411A41F2883081420AD992
:101F6000032426462878DFF85CA3C0430AF1080A58
:101F7000C00721D03CE0DAF800008007E8D5D5F8AA
:101F8000B410C1F30120032858460DD0016821F494
:101F90007C510160B5F8B420DAF80010C2F30B02EE
:101FA0001143CAF80010DDE7C84A036802EA1112BB
:101FB00023F47C511143ECE7E86F182816D005DCB8
:101FC000A0B1082808D0102804D10AE020280DD09C
:101FD00028280BD001240AE00198012102F0FEF923
:101FE00003E00098012102F089FA044664B1264614
:101FF0002878C04380071ED4A86F062819D2DFE8CE
:1020000000F0160C11161616EA6FDAF8001021F01F
:1020100038011143CAF80010EAE70198012102F0E3
:10202000DDF903E00098012102F068FA04467CB172
:1020300000E0012426462878C04340071FD4D5F885
:102040009400062819D2DFE800F0160C11161616B7
:10205000AA6FDAF8001021F007011143CAF8001046
:10206000E9E70198012102F0B9F903E000980121A4
:1020700002F044FA0446A4B100E001242646287880
:10208000C04380062BD4D5F89000B0F1405F24D037
:1020900011DC10B3B0F1805F15D0B0F1005F10D14A
:1020A00016E0D5F89420D9F8001021F0070111436B
:1020B000C9F80010E3E7B0F1804F0ED0B0F1A04FA7
:1020C0000BD001240AE00198002102F087F903E017
:1020D0000098022102F012FA044694B126462878AC
:1020E000C04340062BD4D5F89C00B0F5406F24D0F7
:1020F00011DC10B3B0F5806F15D0B0F5006F10D1C2
:1021000016E0D5F89020DAF8001021F0E0411143F4
:10211000CAF80010E3E7B0F5805F0ED0B0F5A05F1D
:102120000BD001240AE00198002102F057F903E0E6
:102130000098022102F0E2F9044694B1264628787C
:10214000C04300062BD4D5F8A000B0F5C04F24D072
:1021500011DC10B3B0F5005F15D0B0F5804F10D191
:1021600016E0D5F89C20D9F8001021F4E051114375
:10217000C9F80010E3E7B0F5004F0ED0B0F5204FDE
:102180000BD001240AE00198002102F027F903E0B6
:102190000098022102F0B2F9044654B1264628788C
:1021A000C04300071ED4D5F88400B0F5805F0AD084
:1021B0000FE0D5F8A020D9F8001021F460411143B8
:1021C000C9F80010EBE70098022102F097F900B17E
:1021D0000126D5F88420DAF8001021F4405111438B
:1021E000CAF800102878C043C00613D4D5F8980068
:1021F000B0F5807F05D10098022102F07FF900B18F
:102200000126D5F89820D9F8001021F44071114327
:10221000C9F800102868C043000316D4D5F8A400FC
:1022200038B1B0F5803F09D0B0F5003F0BD00124A4
:102230000AE00198002102F0D1F803E000980221A1
:1022400002F05CF904468CB126462868C04340037E
:1022500022D4D5F88800B0F5801F11D0B0F5001F4A
:1022600013D0B0F5401F15D0012414E0D5F8A420F8
:10227000D9F8001021F440311143C9F80010E4E707
:10228000386840F40030386004E00098012102F022
:1022900035F904465CB126462868C043C00323D400
:1022A000286DA8B1B0F5803F17D001241BE0D5F808
:1022B0008820DAF8001021F440111143CAF8001008
:1022C000EAE700004C44025800480258CFFFFF00E4
:1022D000386840F40030386004E00198022102F0D0
:1022E0007DF80446E4B126462868C043800005D442
:1022F0000098022102F002F900B101262868C043CB
:1023000080031BD4D5F88000B0B1B0F5807F0FD02A
:10231000B0F5007F10D0B0F5407F0DD001240CE067
:102320005A482A6D016821F4803111430160DBE7CE
:10233000386840F400303860ECB326462868C04363
:10234000C00207D46A6FD8F8001021F00041114391
:10235000C8F800102868C043C00008D4D5F8B820D9
:10236000DBF8001021F480411143CBF800102868FD
:10237000C043800207D4EA6ED8F8001021F08071C3
:102380001143C8F800102868C04340000CD4DBF8A3
:10239000001021F40041CBF80010DBF80010D5F854
:1023A000BC201143CBF800102868C04308D437483C
:1023B0006A6D016800E018E021F0405111430160AE
:1023C0002868C043000208D4D5F88C20DAF8001041
:1023D00021F440011143CAF8001028790024C043B9
:1023E00000F0010020430AD00FE0D5F88020DAF891
:1023F000001021F440711143CAF800109EE70198C3
:10240000002101F0EBFF00B106462879C04300F03F
:102410000200204305D10198012101F0DFFF00B146
:1024200006462879C04300F00400204305D10198F6
:10243000022101F0D3FF00B106462879C04300F025
:102440000800204305D10098002102F057F800B1A0
:1024500006462879C04300F01000204305D10098BB
:10246000012102F04BF800B106462879C04300F084
:102470002000044304D10098022102F03FF800B983
:1024800016B10120BDE8FE8F0020FBE74C44025846
:102490002DE9F05F04000F467ED0DFF83882D8F8CF
:1024A000000000F00F00B8420CD2D8F8001021F064
:1024B0000F013943C8F80010D8F8000000F00F00F1
:1024C000B84269D12078844D40070AD5206929682F
:1024D00001F07001884204D9296821F0700101439C
:1024E000296020787C4E361D00070AD56069316866
:1024F00001F07001884204D9316821F07001014374
:1025000031602078C0060AD5A069316801F4E06125
:10251000884204D9316821F4E061014331602078B8
:10252000DFF8B4B180060BF1080B0CD5E169584611
:10253000DBF8002002F07002914204D9026822F018
:1025400070020A430260207880070AD5E068296893
:1025500001F00F01884204D9296821F00F010143DD
:1025600029602078C0073ED05B49A26828681839E6
:1025700020F47060104328606068022818D0032897
:1025800019D00968012819D0490700294ADADFF86B
:1025900048A1AAF1080A00E044E0DAF8002022F09D
:1025A00007020243CAF80020FEF74EFD814612E002
:1025B00009688903E9E709688901E6E7C905E4E7ED
:1025C000FEF742FDA0EB090141F28830814202D9B9
:1025D0000320BDE8F09F6168DAF8000000F03800E1
:1025E000B0EBC10FECD1207880070AD5E0682968EC
:1025F00001F00F01884204D2296821F00F01014344
:102600002960D8F80010404601F00F01B9420BD9FB
:10261000016821F00F0139430160006800F00F00EC
:10262000B84201D00120D4E7207840070AD52069BC
:10263000296801F07001884204D2296821F07001F4
:1026400001432960207800070AD56069316801F0EC
:102650007001884204D2316821F070010143316079
:102660002078C0060AD5A069316801F4E06188428B
:1026700004D2316821F4E0610143316020788006A2
:102680000CD5E1695846DBF8002002F07002914257
:1026900004D2026822F070020A43026000F09AF845
:1026A0000E492A682B68C2F3032203F00F038A5CE9
:1026B000C95C02F01F0201F01F01D040084A20FA55
:1026C00001F111600749086007480068BDE8F05F44
:1026D000FEF7ECBD0020005218440258467C00086A
:1026E00038000024340000242C00002470B5144C61
:1026F0003F220260124A24680832131D114D04F073
:102700000704446016681C1D06F47066866016682F
:1027100006F00F06C660126802F0700202611A68C5
:1027200002F0700242611A6802F4E062826122687B
:1027300002F07002C261286800F00F00086070BDEE
:10274000104402580020005230B500F043F80B4A04
:102750000B490C4B15681468C5F3032204F00F04F1
:102760008A5C095D02F01F0201F01F01D040064A99
:1027700020FA01F119601060084630BD1844025873
:10278000467C0008380000243400002400B5FFF720
:10279000DBFF05490968054AC1F30211515C01F0EC
:1027A0001F01C84000BD00001C440258467C0008C0
:1027B00000B5FFF7C9FF05490968054AC1F30221C1
:1027C000515C01F01F01C84000BD00001C440258CC
:1027D000467C0008454970B545480968434B103BA5
:1027E00011F0380208D00111082A03D0102A0BD0AA
:1027F000182A0BD0084670BD19688906FBD51968E0
:10280000C1F3C101C84070BD3A4870BD3749374D6A
:1028100018310C1D24350A68096826682D6802F0F5
:10282000030406F00102C1F30511C5F3CC0515FB45
:1028300002F200EE102AB8EE400AE9B32F4ADFEDAB
:102840002E0AB7EE001A6CB1DFED2D1A012C01D063
:10285000022C43D002EE101A1068F8EE422A81EEE4
:10286000A22A1EE01C68A40611D51B6801EE901A6E
:102870001168C3F3C103F8EE612AD84001EE900A53
:10288000C1F30800F8EE611A81EEA22A0BE001EE16
:10289000901ADFED1C2A00BFF8EE611A106882EE74
:1028A000A12AC0F3080001EE900AF8EE611A40EE8A
:1028B000201A31EE810A00E015E022EE000A1068CD
:1028C000C0F34620401C00EE900AF8EE600A80EE4D
:1028D000201ABCEEC10A10EE100A70BD01EE901A6B
:1028E000DFED092AD8E7002070BD0000104402582F
:1028F0000090D00340787D01000000393044025838
:102900000024744A0024744C20BCBE4B2DE9F05FB7
:1029100004007DD0FF4F2078FE4D1837DFF8F49388
:10292000103DC00748D0D9F80000396800F03800E1
:10293000102815D0182803D101F0030002280FD069
:102940006068B0F5803F12D010B1B0F5A02F18D05C
:10295000286820F480302860286820F4802009E06E
:102960002868800328D560680028D2D024E0286831
:1029700040F480302860606888B1FEF765FB064649
:1029800009E0286840F480202860F0E7FEF75CFB4F
:10299000801B64286FD828688003F7D50CE0FEF709
:1029A00053FB064605E000BFFEF74EFB801B642884
:1029B000F0D828688003F7D4207841F20308D54E78
:1029C0000C3E800769D5D9F80000396810F038004E
:1029D0000ED0182801D188070AD0E06890B3296882
:1029E00021F0190101432960FEF72EFB824631E0F8
:1029F0002868400702D5E06800288AD0E168286886
:102A000020F0190008432860FEF71EFB824607E00D
:102A1000DFE000BFFEF718FBA0EB0A000228B9D8E0
:102A200028684007F6D500BFFEF708FB40451BD8D5
:102A30002069402812D0316821F47C3141EA00300D
:102A400030602AE018E000BFFEF7FEFAA0EB0A00B3
:102A500002289FD828684007F6D5E5E7306820F4BB
:102A60007C3040F40030EBE7207C316821F0FE41FF
:102A700041EA0060E4E70DE1286820F001002860E9
:102A8000FEF7E2FA824605E0FEF7DEFAA0EB0A0066
:102A900002288DD828684007F6D42078C0065DD576
:102AA000D9F80000DFF86CB2396800F03800ABF1FB
:102AB000040B082810D0182803D101F003000128C6
:102AC0000AD0E0690028286838D040F080002860EB
:102AD000FEF7BAFA824623E02868C00523D5E069EC
:102AE000802876D11FE0206A202821D0316821F08B
:102AF000F84141EA8060306030E000BF94F8201077
:102B0000DBF8002022F07C5242EA0161CBF8001091
:102B100024E000BFFEF798FAA0EB0A00022898D83C
:102B20002868C005F6D5FEF789FA4045E6D8DAE709
:102B3000306820F0F84040F08040DCE720F0800072
:102B40002860FEF781FA064605E000BFFEF77CFA32
:102B5000801B02289DD82868C005F7D4207800077C
:102B600029D56C486169643000298046016811D01C
:102B700041F001010160FEF767FA064605E000BF7B
:102B8000FEF762FA801B0228C9D8D8F80000800737
:102B9000F6D510E021F001010160FEF755FA064676
:102BA00005E000BFFEF750FA801B022872D8D8F863
:102BB00000008007F6D42078800623D5A06900287D
:102BC000286810D040F480502860FEF73DFA064691
:102BD00005E036E1FEF738FA801B02285AD828684B
:102BE0008004F7D50EE020F480502860FEF72CFA20
:102BF000064604E0FEF728FA801B02284AD8286817
:102C00008004F7D4207840074FD5DFF80C81D8F83E
:102C1000001041F48071C8F80010FEF715FA06465E
:102C200005E000BFFEF710FA801B642832D8D8F800
:102C30000000C005F6D5374EA068603601280AD0DE
:102C400008B1052813D0306820F0010030603068EA
:102C500020F0040002E0306840F001003060A0681D
:102C600041F2883A90B1FEF7EFF980460AE0306809
:102C700040F004003060EEE7FEF7E6F9A0EB080153
:102C8000514507D830688007F6D50EE0FEF7DCF92D
:102C9000804607E084E000BFFEF7D6F9A0EB08010C
:102CA00051457DD830688007F6D4606AB0B3DFF84C
:102CB0006480D9F8001008F120084FF6F87B08F17D
:102CC0000409C1F3C2010329A8F1040A69D002284A
:102CD000286820F08070286003D0FEF7B5F904461C
:102CE00084E0FEF7B1F9064605E000BFFEF7ACF957
:102CF000801B022877D828688001F7D4E26A40F266
:102D0000F331386854F8283F884340EA02101843EA
:102D1000386004E01044025800480258B5E0217BB6
:102D2000434622894FF4FE0C208A4FF0FE474902A9
:102D3000267D521E401EA1F50071C2F308088AB21A
:102D4000761E0CEA004042EA08020243504607EAB7
:102D500006610A431A60DAF8002022F00102CAF87C
:102D60000020D9F80020266A22EA0B0242EAC602B5
:102D7000C9F80020DAF80010A26921F00C01114313
:102D8000CAF800100168E26921F0020111430160F4
:102D9000016841F480310160016841F4003101E0D3
:102DA00021E027E00160016841F4802101600168B1
:102DB00041F001010160286840F080702860FEF752
:102DC00043F9044605E000BFFEF73EF9001B022868
:102DD00009D828688001F7D557E000BFFEF734F91D
:102DE000001B022802D90320BDE8F09F286880015B
:102DF000F4D44AE039680128D8F8000021D0A26A4A
:102E000001F0030393421CD1E26AC1F305118A4227
:102E100017D1216BC0F30802491E8A4211D1616BA0
:102E2000C0F34622491E91420BD1A16BC0F306426A
:102E3000491E914205D1E16BC0F30660491E8142F3
:102E400001D00120D0E7A16C4E46D9F80000C0F3B4
:102E5000CC00814219D0DAF80000554620F001007C
:102E6000CAF80000FEF7F0F84FEA0007FEF7ECF8AA
:102E7000B842FBD0A26C306820EA0B0040EAC200E6
:102E80003060286840F0010028600020ACE70000B6
:102E90002DE9FC5F0446806B0E46032184F8301058
:102EA000002703285CD0B6F5004F59D0B6F5804F07
:102EB0004FF000054FF400684FF0806904D006B36E
:102EC000606B40F000603FE00095002101952068B4
:102ED00001F0F0FE80011CD46946204601F032FF6B
:102EE00070BB019840032DD5B4F844102068090444
:102EF00001F094FB20BB206802211DE0606B284399
:102F000022E0009500210195206801F0D3FE8001A8
:102F100001D54546F2E76946204601F013FF78B92E
:102F20000198C0030ED5B4F844102068090401F0DC
:102F300075FB28B92068002101F0BAFB0028DDD01C
:102F40000546DBE74D46D9E76063606B4FF4007BD5
:102F5000DFF8B8A040B121680127C1F838A042E0ED
:102F6000606B40F08050EFE700214FF48030FEF7B7
:102F700055FC010032D0264D3346D4E904C0B1FBE4
:102F8000F5F8D4E90192804510D9A66D5E450DD0C3
:102F9000B6F5807F11D04FEA6506E0B14FEA4008F0
:102FA000B1FBF8F8B04501D9B1FBF5F04946CDE9E0
:102FB00000C0206801F082FE15E0164E30B14FEAE5
:102FC0004008B1FBF8F8A84502D8EFE7A942EDD9CF
:102FD000B1FBF6F0EAE7B142E6D8E7E7606B01271C
:102FE00040F0006060632068594601F048FB30B152
:102FF00022680127C2F838A0616B01436163012098
:1030000084F830003846BDE8FC9F0000FF0FE01F49
:1030100080F0FA0200E1F505F0B5C26D920F0A707A
:10302000C26DC2F383624A70C26DC2F301628A70DC
:10303000C26D120CCA70B0F85C20120A0A7190F8C6
:103040005C204A71026E120DCA80026EC2F3034206
:103050000A72B0F86020C2F3C0324A72B0F8602041
:10306000C2F380328A72B0F86020C2F34032CA7272
:10307000B0F860200026C2F300320A734E730122BA
:10308000836B4FF4007463B1012B3AD0036850494D
:103090009963416B41F08051416380F830200120F9
:1030A000F0BDB0F86030456E9B051B0D43EA95738B
:1030B0000B61436EC3F3C2630B75436EC3F30263CC
:1030C0004B75436EC3F342538B75436EC3F3824318
:1030D000CB75436EC3F3C2330B760D696D1C8564EB
:1030E0000B7E03F007039B1C9D4085640B7A4465AF
:1030F00003F00F0302FA03F35F0A7D43C0E91335BF
:103100000EE090F86050436EAD06AD0A45EA1343F9
:103110000B610B695B1C9B028364C0E9134344652C
:10312000B0F86430C3F380334B76B0F86430C3F347
:10313000C6138B7690F8643003F07F03CB76836EF2
:10314000DB0F0B77836EC3F341734B77836EC3F34F
:1031500082638B77836EC3F38353CB77836EC3F322
:10316000405381F8203081F82160836EC3F300431F
:1031700081F82230B0F86830C3F3C03381F82330CF
:10318000B0F86830C3F3803381F82430B0F8683089
:10319000C3F3403381F82530B0F86830C3F300330F
:1031A00081F82630B0F86830C3F3812381F82730E6
:1031B000B0F86830C3F3012381F8283090F8680034
:1031C000C0F3460081F8290081F82A200020F0BDD4
:1031D000FF0FE01F826B0A60C26B4A60026C8A605C
:1031E000426CCA60826C0A61C26C4A61026D8A617B
:1031F000406DC8610020704770B5B0F844100025DC
:1032000004460068090401F040FB18B1616B0143FA
:10321000616304E02068002101F04CFD0546C5F320
:10322000432070BD2DE9F041054690F8300090B084
:103230000C460026032810D06946284601F0CAFE35
:103240002A4F4FF0010860B12A68012697636A6B24
:1032500002436A6385F830803AE0012010B0BDE88F
:10326000F08100994FF47F40C1F3811121700099E2
:10327000C1F34011617000990A4600EA112141EA48
:1032800012616180019909BA616002992172029903
:10329000090A61720299C1F30351A172DDE90221A9
:1032A00000EA1240C9B20843A0810398C0F3852008
:1032B000A0730398C0F30120E0730398C0F30310D8
:1032C0002074039800F00F0060740498000EA0743E
:1032D00028684FF4007101F0D2F928B12A6801265C
:1032E0009763686385F830803046B7E7FF0FE01FCB
:1032F000F0B5040085B020D094F83000002518B94E
:103300002046257600F098F8042084F83000204606
:1033100000F03CF888B969462046FFF783FF60B9A2
:103320009DF81010A26B9DF81100012A08D0A56528
:103330002046E168FFF7ACFD58B1012005B0F0BDB3
:10334000014302D04FF4007001E04FF48070A0659B
:10335000EEE7FDF779FE0127064604E0FDF774FE6F
:10336000801B401C0AD02046FFF746FF0428F5D1F9
:103370006563E56284F830700020DFE74FF00040BD
:10338000606384F830700320D8E700002DE9FC4129
:103390004FF0000804464FF480304146FEF73EFAF5
:1033A00005004FF0010723D02048434642464146DE
:1033B000B5FBF0F6CDE90086206801F07FFC2068BF
:1033C00001F08CFC1EB17000B5FBF0F52DB1184872
:1033D000B0FBF5F0401CFDF7DFFC204601F0A0FD3E
:1033E00060B100BF84F83070616B0143616319E024
:1033F0004FF0006084F83070606313E0204601F005
:1034000013FD0028EED120684FF4007101F037F968
:10341000002808D0226807499163616B014361630A
:1034200084F830700120BDE8FC81000000350C00FC
:1034300010210100FF0FE01FF0B587B004461421F2
:103440006846FCF77DFF1A49206888422DD119484B
:10345000016841F480310160006800F4803005901B
:1034600014480C30016841F004010160016801F06A
:1034700004010591016841F008010160006802241F
:103480000025694600F00800059003260C274FF43C
:10349000F8508DE8F1000848FDF7B0FC04206946BB
:1034A0008DE8F1000548FDF7A9FC07B0F0BD00006C
:1034B00000700052D444025800080258000C025810
:1034C0002DE9F04F87B0994617460D460446FDF7A3
:1034D000BBFD06903DB194F83000012807D0606B29
:1034E00040F000500DE0606B40F0006009E0226D9C
:1034F000002007EB09016063914204D9606B40F042
:1035000000706063A8E0032184F830102168C8626D
:10351000A16B012900D07F024FF0020ACDE903A080
:1035200090264FF0FF324FEA492305908DE84C007A
:1035300080462068694601F053FA2068B9F1010F0E
:103540004FF00106C16841F04001C16006D9C4F8DE
:103550002CA03946206801F003F904E0E662394600
:10356000206801F017F9DFF814A150B12368C3F8FF
:1035700038A0616B0143616384F83060C4F82C802B
:103580006AE0DDF804B01FE0406B000414D5BBF125
:10359000200F11D30027206801F0A6FB020A287033
:1035A000010C6A70030EA9707F1CEB70082F05F1E7
:1035B0000405F0D3ABF1200BFDF746FD0699411A47
:1035C0001098814221D200B32068416B11F4957F9D
:1035D000DAD0C16821F04001C1602068416BC905A3
:1035E00022D5B9F1010F1FD9A16B03291CD001F01D
:1035F00099F9C8B12368C3F838A0626B02436263CB
:1036000084F83060C4F82C8026E02268C2F838A024
:10361000606B40F00040606384F83060C4F82C8038
:10362000032007B0BDE8F08F2068416B090706D57D
:10363000C0F838A0616B404641F0080108E0416BDA
:1036400089070BD5C0F838A0616B404641F00201F4
:10365000616384F83060E0620120E2E7416B890633
:1036600006D5C0F838A0616B404641F02001EFE775
:103670000349816384F830600020D2E7FF0FE01F28
:103680003A0F00182DE9F04F89B09A4616460D46BC
:103690000446FDF7D9FC06903DB194F830000128AE
:1036A00007D0606B40F000500DE0606B40F00060B0
:1036B00009E0226D002006EB0A016063914204D903
:1036C000606B40F000706063B2E0032184F830105A
:1036D0002168C862A16B012900D076024FF0FF314A
:1036E0004FEA4A22059090230490CDE90230CDE9BB
:1036F000001280462068694601F072F92068C168AE
:10370000BAF1010F41F04002C26006D92020E06208
:103710002068314601F030F905E01020E0622068B1
:10372000314601F043F9DFF830B106004FF00109EE
:103730000AD02368C3F838B0606B3043606384F804
:103740003090C4F82C8073E00198089027E0406B1B
:1037500040041CD50898202819D300272878079002
:10376000697840EA01200790A97840EA0140079073
:10377000E9782D1D40EA01600790206807A901F053
:10378000CBFA7F1C082FE9D3089820380890FDF762
:103790005BFC0699411A1298814221D200B320683D
:1037A000416B11F48D7FD2D0C16821F04001C1601E
:1037B0002068416BC90521D5BAF1010F1ED9A16B53
:1037C00003291BD001F0AEF8C0B12568C5F838B0A8
:1037D000616B0143616384F83090C4F82C8027E06A
:1037E0002368C3F838B0626B3243626384F8309068
:1037F000C4F82C80032009B0BDE8F08F2068416B2D
:10380000090707D54946C0F838B0626B404642F018
:10381000080209E0416B89070CD54946C0F838B069
:10382000626B404642F00202626384F83010E0624C
:103830000120E0E7416BC90607D54946C0F838B01A
:10384000626B404642F01002EEE7044A826384F85D
:1038500030900020CFE70000FF0FE01F3A0F001864
:10386000024A136883430B431360704704040058F3
:103870007047704770470000F0B590F83C20012A6F
:103880003BD01F4E012480F83C40022280F83D20AE
:1038900002681C4D5368B242D2F808C001D0AA4257
:1038A00003D14F6823F470033B430F6823F0700388
:1038B0001F4357600268B24213D0B2F1804F10D05C
:1038C000114B9A420DD0114B9A420AD0104B9A429A
:1038D00007D0AA4205D00F4B9A4202D00E4B9A4213
:1038E00004D189682CF0800319439160002180F88D
:1038F0003D4080F83C100846F0BD0220F0BD0000BD
:1039000000000140000401400004004000080040A5
:10391000000C0040001800400040014010B50400B9
:1039200003D094F83D0010B107E0012010BD002045
:1039300084F83C00204600F023F8022084F83D0083
:103940002068211D01F042FD012084F8480084F820
:103950003E0084F83F0084F8400084F8410084F879
:10396000420084F8430084F8440084F8450084F859
:10397000460084F8470084F83D00002010BD000098
:1039800008B500681149884209D11148016841F021
:1039900001010160006800F00100009008BD0D49C0
:1039A0008842FBD10A480838016841F010010160E3
:1039B00000680022114600F0100000903620FDF74C
:1039C000D7FCBDE808403620FDF7C4BC000001402C
:1039D000F04402580010004090F83D10012901D039
:1039E00001207047174A022180F83D100168CB681A
:1039F00043F00103CB600068904214D0B0F1804FD7
:103A000011D0114988420ED0104988420BD010497C
:103A1000884208D00F49884205D00F49884202D019
:103A20000E49884207D181680D4A1140062906D007
:103A3000B1F5803F03D0016841F001010160002031
:103A400070470000000001400004004000080040F2
:103A5000000C0040000401400018004000400140FC
:103A600007000100016841F211130A6A1A4207D1E6
:103A70000A6A9B101A4203D10A6822F001020A6006
:103A8000012180F83D1000207047000070B5044609
:103A900090F83C000025012814D03A4B012684F808
:103AA0003C60022084F83D0022689068184020F4B1
:103AB0007F409060086870282FD010DC10F00F0F46
:103AC00003D022E04FF0020070BD4FEA2012072A17
:103AD0001BD2DFE802F0535353534B394100B0F18E
:103AE000101F4BD009DCB0F5805F0FD0B0F5005F40
:103AF0001ED0B0F5801F08D140E0A0F5801120391C
:103B00003CD010293AD0202938D0012584F83D60D6
:103B1000002084F83C00284670BD4A682068D1E93E
:103B2000021301F0B5FC2068816841F0770109E0DB
:103B30004A682068D1E9021301F0AAFC2068816874
:103B400041F480418160E1E7CA684968206801F07A
:103B5000B3FC2068502106E0CA684968206801F07B
:103B6000BCFC2068602101F09DFCCFE7CA68496871
:103B7000206801F0A1FC20684021F4E7226801469A
:103B80001046F0E788FFCEFF704770B50446006826
:103B900000250169C943890715D4C168C94389074C
:103BA00011D4EA1E02610121217720688069800713
:103BB000204602D0FFF7E8FF04E000F0A7F8204617
:103BC00000F0A5F8257720680169C943490717D493
:103BD000C168C943490713D402216FF0040202618E
:103BE00021772068806910F4407F204602D0FFF7DB
:103BF000CBFF04E000F08AF8204600F088F8257733
:103C000020680169C943090716D4C168C943090777
:103C100012D404216FF00802026121772068C06984
:103C20008007204602D0FFF7AFFF04E000F06EF8F7
:103C3000204600F06CF8257720680169C943C90661
:103C400017D4C168C943C90613D408216FF0100204
:103C5000026121772068C06910F4407F204602D0BD
:103C6000FFF792FF04E000F051F8204600F04FF813
:103C7000257720680169C943C90708D1C168C943CC
:103C8000C90704D1891E0161204600F041F820686F
:103C90000169C943090609D4C168C943090605D4A5
:103CA0006FF0800101612046FFF7E3FD20680169A4
:103CB000C943C90509D4C168C943090605D46FF4CD
:103CC000807101612046FFF7D3FD20680169C94377
:103CD000490609D4C168C943490605D46FF04001BB
:103CE0000161204600F01EF820680169C943890679
:103CF0000BD4C168C943890607D46FF02001016164
:103D00002046BDE87040FFF7B5BD70BD70477047F5
:103D100000680349884201D1FDF792BA704700005C
:103D200000140040704730B590F88410012918D075
:103D3000012280F884202421C0F888100022202449
:103D400001680B680D6823F0005325F001050D6034
:103D5000426601680B60C0F8884080F884201046F5
:103D600030BD022030BD70B5044690F884000128B3
:103D70001DD0012284F884202420C4F88800206803
:103D80000568026822F0010202602068826822F061
:103D900060620A438260204601F0B2FB2268202163
:103DA00000201560C4F8881084F8840070BD0220DB
:103DB00070BD70B5044690F8840001281DD0012222
:103DC00084F884202420C4F88800206805680268EC
:103DD00022F0010202602068826822F060420A43F9
:103DE0008260204601F08CFB2268202100201560B3
:103DF000C4F8881084F8840070BD022070BD10B52E
:103E0000040003D0D4F8880010B107E0012010BDF1
:103E1000002084F88400204600F026F82420C4F80E
:103E200088002068016821F001010160204601F04E
:103E30006DFC0128EBD0A06A10B1204601F082FB96
:103E40002068416821F4904141602068816821F038
:103E50002A0181602068016841F00101016020466B
:103E6000BDE8104001F0D2BB70B5B6B004461421D5
:103E700030A8FCF765FAC0216846FCF761FA2149D1
:103E8000206888423CD100201E9002210446CDE9E2
:103E900000106846FDF726FE08B1FCF7E1FB1A4862
:103EA000016841F400210160006800F400203590B1
:103EB00015480838016841F480710160016801F417
:103EC00080713591016841F00101016000680225AF
:103ED000082600F00100359028023090CDE93154D9
:103EE0000A4830A9CDE93346FCF788FF012030901D
:103EF000CDE93154064830A9CDE93346FCF77EFFC1
:103F000036B070BD004C0040E84402580020025812
:103F1000000002582DE9F8430446D0F8880098467E
:103F200016460D46202802D00220BDE8F883A5B130
:103F30009EB10021C4F890102120C4F888001834E4
:103F4000FDF782F8814654F8100CA687E6872027F3
:103F5000183CB0F5805F02D003E00120E5E720695E
:103F600010B12E46002510E000260EE080212046EC
:103F700001F0A2FDC0B9DEB116F8010B216888621C
:103F8000B4F85600401EA4F85600B4F856004B464C
:103F90004FF00002CDF800800028E7D14FF040013B
:103FA000204601F089FD48B1C4F888700320BCE7C1
:103FB00035F8020B2168C0F30800E0E7C4F8887008
:103FC0000020B2E7FEE78068C0F3C0007047806859
:103FD000C0F38000704710B5042404EAD1540723CD
:103FE000C1F3045120448B408A40416999431143F5
:103FF000416110BD30B587B01C216846FCF7A0F9BF
:104000001748042515490024012284600160C0E995
:104010000345047544758261047744628462C46216
:104020000463446380F83840FCF77AFD08B1FCF77C
:1040300017FB0C48062140F2FF7203928DE8130033
:1040400007486946CDE904548DF81940FCF77CFB1C
:10405000002801D0FCF704FB07B030BD0060025817
:10406000A0400024020030040449054810B5FCF7C4
:10407000F9FA0249491E087010BD00008A40002468
:10408000587C00082DE9F04F87B014216846FCF7F2
:1040900057F95348016841F004010160016801F0DB
:1040A00004010591016841F002010160016801F01D
:1040B00002010591016841F008010160016801F009
:1040C00008010591016841F480710160016801F403
:1040D00080710591016841F080010160016801F083
:1040E00080010591016841F0010101600068012231
:1040F000DFF8F090D60300F0010031460590484605
:10410000FCF797FF0122DFF8E0A01702504639467E
:10411000FCF78FFFDFF8D4B04FF4C05801224146BE
:104120005846FCF786FF324800220521FCF781FF44
:104130002F4801220221FCF77CFF0124694600255B
:104140004846CDE90064CDE90245FCF757FECDE9CC
:104150000074CDE9024569465046FCF74FFE182031
:104160004FF404118DE8130069465846FCF746FEEB
:1041700002266946CDE900845846CDE90246FCF79F
:104180003DFE042069468DE871001948FCF736FEB3
:1041900003206946CDE900041548CDE90246FCF745
:1041A0002DFE200369468DE861001148FCF726FECC
:1041B00060060146FFF754FB002209201146FDF777
:1041C000D7F80920FDF7C6F800220A201146FDF7AE
:1041D000CFF80A20FDF7BEF807B0BDE8F08F000069
:1041E000E04402580008025800200258001C0258FF
:1041F000000402581348002110B5114C0123124A43
:104200000460C0E90121C0E9033141618161C161FC
:104210000162FCF775FF08B1FCF722FA094800219A
:10422000FCF718FF08B1FCF71BFA06480021FCF761
:104230003DFF002803D0BDE81040FCF711BA10BDC7
:104240000054004004410024B1757030074800213B
:104250004FF4804310B5044C0622C0E90041C0E988
:104260000213C0E9041210BD00700052584100242E
:1042700010B588B0184800241649F0224FF6FF7395
:10428000009401940294039404940594069480E8A5
:104290001600C0E9033444618461FFF73FFB08B1B5
:1042A000FCF7DEF94FF4805000900B486946FFF7A9
:1042B000EDFB08B1FCF7D4F9074804A90494059470
:1042C0000694FFF7D9FA002801D0FCF7C9F908B025
:1042D00010BD000000000140D44100243EB510484C
:1042E000002413220D4D7723009401948021029421
:1042F0008161C0E90242C0E90053FFF70FFB08B13A
:10430000FCF7AEF90648694600940294FFF7B4FA48
:10431000002801D0FCF7A4F93EBD000000100040C9
:10432000204200241848002110B5164C0C224FF4EE
:10433000E1330460C0E90131C160C0E90412816168
:10434000C161016241628162FFF759FD08B1FCF76A
:1043500087F90D480021FFF72CFD08B1FCF780F923
:1043600009480021FFF7FFFC08B1FCF779F906487E
:10437000FFF7D9FC002803D0BDE81040FCF770B966
:1043800010BD0000004C00406C420024FEE7FEE738
:104390007047F0B5B1B0C0216846FBF7D1FF0023EC
:1043A0004FF4102219460220CDE9002302AB0C2461
:1043B000042583E83100C02629912027C2031492E6
:1043C000CDE90606CDE9087105906846FDF78AFB40
:1043D000002801D072B6FEE731B0F0BD2DE9F047FC
:1043E000454D044689464FF0000A2868C0438007BF
:1043F0000AD0414E283E306820F080603060FCF7E3
:1044000023FE0746B04608E00120BDE8F08700BF64
:10441000FCF71AFEC01B022867D8D8F8000000017C
:10442000F6D4206829684FF4FE0721F47C313E025F
:1044300041EA00302860207AA389B4F804C0400221
:104440002D4D2D495B1E227CACF1010C1035091D50
:10445000A0F5007080B2521ECCF3080C07EA0343AB
:1044600040EA0C00184306EA02621043286008681C
:10447000626920F0C000104308600A68A06922F059
:10448000200202430A60281D0A6822F010020A6016
:1044900002684FF6F873E4699A4342EAC402026084
:1044A0000868B9F1000F40F010020A6011D00868E6
:1044B000B9F1010F11D040F400100860D8F80000E5
:1044C000444640F08060C8F80000FCF7BDFD05469A
:1044D0000DE0086840F40020EFE740F48010ECE7BE
:1044E000FCF7B2FD401B022801D903208DE72068AC
:1044F0000001F5D5504688E7284402582DE9F047D9
:10450000454D044689464FF0000A2868C04380079D
:104510000AD0414E283E306820F080503060FCF7D1
:1045200093FD0746B04608E00120BDE8F08700BFD4
:10453000FCF78AFDC01B022867D8D8F8000080006D
:10454000F6D4208829684FF4FE0721F07C713E02E2
:1045500041EA00502860207AA389B4F804C04002E0
:104560002D4D2D495B1E227CACF1010C1835091D27
:10457000A0F5007080B2521ECCF3080C07EA03438A
:1045800040EA0C00184306EA0262104328600868FB
:10459000626920F44060104308600A68A06922F450
:1045A000007202430A60281D0A6822F480720A60C1
:1045B00002684FF6F873E4699A4342EAC402026063
:1045C0000868B9F1000F40F480720A6011D00868E1
:1045D000B9F1010F11D040F080700860D8F80000E8
:1045E000444640F08050C8F80000FCF72DFD054619
:1045F0000DE0086840F48000EFE740F40000ECE7CD
:10460000FCF722FD401B022801D903208DE720681A
:104610008000F5D5504688E72844025830B585B06B
:10462000044637204FF480720DF1080CCDE90010DC
:1046300000236946150120468CE82C0000F058FB49
:10464000372141F28832204600F0DEF905B030BD56
:1046500030B585B0044629204FF480720DF1080C66
:10466000CDE9001000236946150120468CE82C0096
:1046700000F03EFB204600F083FA05B030BD30B5B7
:104680000446102085B00DF1080C02010502CDE9A9
:104690000010002369468CE82C00204600F028FB1F
:1046A000102141F28832204600F0AEF905B030BD4D
:1046B00030B585B0044606204FF480720DF1080C29
:1046C000CDE9001000236946150120468CE82C0036
:1046D00000F00EFB062141F28832204600F094F9EA
:1046E00005B030BD30B585B00546002469464FF4AD
:1046F0008050009401940294CDE90340284600F0D4
:10470000F7FA0B4A4FF4FA5041F288311268B2FBC3
:10471000F0F04843401E03D24FF0004005B030BDDA
:10472000696B0906F6D503492046A963F6E7000040
:1047300034000024C500200030B50821044685B0AF
:104740004FF4D5704A0100234D028DE82F006946D1
:10475000204600F0CDFA204600F07CFA05B030BDCE
:1047600030B585B0044612204FF480720DF1080C6C
:10477000CDE9001000236946150120468CE82C0085
:1047800000F0B6FA122141F28832204600F03CF9DE
:1047900005B030BD30B585B0044611204FF48072AD
:1047A0000DF1080CCDE900100023694615012046E3
:1047B0008CE82C0000F09CFA112141F2883220464E
:1047C00000F022F905B030BD30B585B004460720B1
:1047D0004FF480720DF1080CCDE9001000236946FA
:1047E000150120468CE82C0000F082FA072141F2E6
:1047F0008832204600F008F905B030BD10B585B00C
:104800000446002102204FF44072C3020493CDE914
:104810000010CDE902216946204600F069FA2046E1
:1048200000F084F905B010BD30B585B0044609200C
:104830000DF1080C0023CDE900104FF440726946D9
:104840004FF4805520468CE82C0000F051FA2046A9
:1048500000F06CF905B030BD10B585B004460021FC
:1048600033204FF48072CDE90221CDE9001013010D
:1048700069462046049300F03BFA332141F2883226
:10488000204600F0C1F805B010BD30B585B0044633
:104890000D204FF480720DF1080CCDE900100023BB
:1048A0006946150120468CE82C0000F021FA0D2104
:1048B00041F28832204600F0A7F805B030BD30B58F
:1048C00085B00C460021054603204FF48072CDE9E7
:1048D0000221CDE90010130169462846049300F037
:1048E00007FA03212246284600F06EF905B030BDD4
:1048F00010B585B0044600210D204FF48072CDE93B
:104900000221CDE90010130169462046049300F00E
:10491000EFF90D2141F28832204600F075F805B01C
:1049200010BD000010B585B004464FF48072002021
:104930000C2113018DE80700CDE90303E06840F086
:104940008000E060E06820F04000E06069462046BA
:1049500000F0CEF9074A0C21204600F055F8E16836
:10496000B0F1007F21F08001E16000D1002005B0AE
:1049700010BD000000E1F50530B585B004461920F2
:104980004FF480720DF1080CCDE900100023694648
:10499000150120468CE82C0000F0AAF9192141F2FB
:1049A0008832204600F030F805B030BD30B585B013
:1049B000044618204FF480720DF1080CCDE9001068
:1049C00000236946150120468CE82C0000F090F980
:1049D000182141F28832204600F016F805B030BDAB
:1049E00070B50A6842624A688262C46AD1E90225E7
:1049F000D1E9043624F0FF012A4333431A4311431B
:104A0000C162002070BD000030B5464D4FF4FA532E
:104A1000434C2D68B5FBF3F353435B1E02D24FF0BA
:104A2000004030BD426B2242F7D09204F5D4426B75
:104A3000520703D504218163084630BD426BD2077B
:104A400002D00121816306E0354A80328263026927
:104A5000D2B28A4201D0012030BD002100F02AF9F3
:104A60003149084201D1002030BD002802DA4FF060
:104A7000007030BD410001D5402030BD810001D51E
:104A8000802030BDC10002D54FF4807030BD0101DF
:104A900002D54FF4007030BD410102D54FF4806063
:104AA00030BDC10102D54FF4006030BD010202D516
:104AB0004FF4805030BD410202D54FF4005030BD5C
:104AC000810202D54FF4804030BDC10202D54FF4BF
:104AD000004030BD410302D54FF4003030BD8103AA
:104AE00002D54FF4802030BDC10302D54FF4002021
:104AF00030BD010402D54FF4801030BD410402D511
:104B00004FF4001030BD810402D54FF4800030BD59
:104B1000000702D54FF4000030BD4FF4803030BDA7
:104B2000450020003400002408E0FFFD124B4FF444
:104B3000FA5141F288321B68B3FBF1F15143491E2F
:104B400002D24FF000407047426B12F0450FF6D092
:104B50009204F4D4416B490703D5042181630846CC
:104B60007047416BC90703D0012181630846704734
:104B7000024981630020704734000024C5002000F2
:104B80000F4B4FF4FA5141F288321B68B3FBF1F13D
:104B90005143491E02D24FF000407047426B12F061
:104BA000450FF6D09204F4D4416B490703D5042194
:104BB0008163084670470349816300207047000005
:104BC00034000024C500200030B5204D4FF4FA53C6
:104BD00041F288342D68B5FBF3F363435B1E02D2C8
:104BE0004FF0004030BD446B14F0450FF6D0A404E4
:104BF000F4D4436B5B0703D504218163084630BDC1
:104C0000436BDB0702D00121816303E00369DBB260
:104C10008B4201D0012030BD0D498163002100F09D
:104C200049F810F4604F04D0410406D54FF4005009
:104C300030BD000C1080002030BD000402D54FF4C0
:104C4000805030BD4FF4803030BD0000340000246F
:104C5000C5002000144B4FF4FA5141F288321B6812
:104C6000B3FBF1F15143491E02D24FF000407047AF
:104C7000426B12F0450FF6D09204F4D4416B490711
:104C800003D50421816308467047416BC90703D0EF
:104C90000121816308467047416B490601D54021D7
:104CA000816300207047000034000024006800F099
:104CB00003007047084440697047000030B5114355
:104CC0004268DDE903542B43034D194321432A4035
:104CD0000A434260002030BD002CC0FF016841F053
:104CE0000301016000207047D0F880007047000089
:104CF00070B5084D0A688260C368D1E90126D1E920
:104D000003412B4032430C4322431343C360002032
:104D100070BD0000C0E0FEFF0968C0F880100020F0
:104D20007047000010B5064C01202070FBF73EFCD8
:104D300018B9207820F001002070207810BD000004
:104D4000884000242DE9F04F87B00D460446FCF75B
:104D50007BF90026069020680821B3463746FFF706
:104D60008EFC002833D1B4F8441020680904FFF702
:104D700055FC00282BD1431E4FF008094FF0020AC2
:104D80004FF0300C4FF00108CDF80CA08DE8081260
:104D9000CDE9046820686946FFF722FE2068FFF726
:104DA0005BFD002813D140F22A582068416B11EABC
:104DB000080F06D1416B090315D4BBF1000F09D0D0
:104DC00011E0416B090717D5C0F83890082007B0EB
:104DD000BDE8F08FFFF788FF06462068FFF784FFE5
:104DE00007464FF0010BFCF72FF90699401A401CBB
:104DF000DBD14FF00040EAE7416B890703D5C0F8EB
:104E000038A00220E3E7416B890603D520218163A6
:104E10000846DCE7034A39BA33BA82630020C5E9A1
:104E20000013D4E73A0F001870B58CB00446002088
:104E3000ADF82C00FCF708F905462068FFF736FFAF
:104E4000002853D0A06B032841D02068FFF7D6FC80
:104E5000002849D120680021FFF72CFFE0660421DB
:104E60002068FFF727FF206708212068FFF722FF4F
:104E700060670C212068FFF71DFFA16BA067032965
:104E800025D041F2883600BFBDF82C0088B3A06B56
:104E900003281CD0BDF82C10616420680904FFF7BA
:104EA000C3FC002820D120680021FFF703FFE06544
:104EB00004212068FFF7FEFE206608212068FFF726
:104EC000F9FE60660C212068FFF7F4FEA06604215D
:104ED0002068FFF7EFFE000D694620642046FEF7CC
:104EE0009BF8A8B14FF080500CB070BD4FF08060BF
:104EF000FAE7FFE720680BA9FFF7E1FC0028F3D1F0
:104F0000FCF7A2F8401BB042BED34FF00040EBE7E5
:104F1000B4F8441020680904FFF756FCE4E70000E9
:104F20002DE9F84F002604463546B0460096006845
:104F3000FFF7D8FB002829D12068FFF7FDFBB0F16F
:104F4000004F4FF001094FF0805B4FF6FF7702D022
:104F5000C4F83C9008E0E6632068FFF7C3FB002834
:104F600014D1E06B01281ED120680021FFF756FB09
:104F700058B918E020680021FFF750FB002805D140
:104F800020685146FFF764FB10B15846BDE8F88F22
:104F900020680021FFF78EFE4FEAD0780546009882
:104FA000401C009002E0DFF828A00098B84202D22E
:104FB000B8F1000FDED00098B84202D34FF08070F5
:104FC000E4E76800A66301D5C4F838900020DDE767
:104FD000000010C12DE9F04186B00D460446FCF7F3
:104FE00033F8002107462068FFF764FE800104D5EE
:104FF0004FF4006006B0BDE8F08120684021FFF763
:105000003EFBC0B9B4F8441020680904FFF706FB62
:1050100088B940214FF0FF3060224FF0010C02238D
:1050200000268DE84F1020686946FFF7D9FC2068FC
:10503000FFF75EFC98B1616B6163DBE7406B0004D6
:1050400007D500262068FFF74FFE761C082E01C505
:10505000F8D3FBF7F9FFC01B401C02D127E04FF04B
:1050600000482068416B11F4957FE7D0416B090738
:1050700001D50820BEE7416B890701D50220B9E7B9
:10508000406B80060AD52020B4E700BFFFF72CFE56
:1050900001C5FBF7D9FFC01B401C08D02068416B3D
:1050A000C904F3D40146034888630020A2E74046C0
:1050B000A0E700003A0F001870B5064C0546012025
:1050C0002070FBF77FFA18B92846FFF72BFE2070F7
:1050D000207870BD88400024144810B58AB014466A
:1050E0000078C00702D003200AB010BD39B10129F1
:1050F00007D002290BD0032910D00420F4E70020A8
:10510000F2E76846FBF74CFA069900200CE0684687
:10511000FBF746FA079900202180E5E76846FBF790
:105120003FFA07990020490A2160DDE78840002402
:1051300070B501241D4616460846A31E2A46314670
:10514000FBF766FA28B900BFFBF730FA0028FBD15D
:105150000024204670BDFFF7E5BD000070B50124B6
:105160001D4616460846A31E2A463146FBF760FA3E
:1051700028B900BFFBF71AFA0028FBD1002420460B
:1051800070BD70477047000070B59CB04C216846F8
:10519000FBF7D6F8202113A8FBF7D2F80220FCF782
:1051A00019F92D4900242D480A6822F001020A60ED
:1051B0000A68026842F440420260026802F4404217
:1051C0001B9202689204FCD5254A136843F002033F
:1051D0001360126802F002021B92026842F440421D
:1051E000026002680A6842F001020A60096801F080
:1051F00001011B9101688904FCD50DF1280C0220E6
:1052000009900521C0228CE80700C3030F900825F0
:105210000D9001260E90CDE91054CDE9006368464B
:105220001294FDF773FB08B172B6FEE740201A90A6
:105230003F210301CDE916500322CDE9180313AB3A
:1052400013A883E816000421FDF722F9002801D0F5
:1052500072B6FEE71CB070BD2C0400581848025806
:10526000F44402582C48F0B52C4A016841F470010E
:105270000160106800F00F00072804D2106820F0C9
:105280000F00C01D106026490020254C10340B680B
:10529000244D43F001030B6020600B682B400B6032
:1052A000136803F00F03072B04D9136823F00F03CF
:1052B000DB1D13601A4C1C4A18341C4B261D371D6D
:1052C0002060174C1A4D28343060261D3860371D79
:1052D00023603B1D35601C1D3A60251D2E1D186086
:1052E000331D22602860326018600A680C4B114C34
:1052F00022F4802260330A60186020686FF30F0088
:10530000B0F1005F03D20C490120C1F8080143F25B
:10531000D2000A490860F0BD88ED00E0002000528C
:10532000004402587FEDF6EA800201010002020209
:105330000000FF010010005C00800051004000529E
:105340000B4810B5C188491C89B2C180A1F51C5217
:10535000103A07D14169491C41610A2902DB05481D
:10536000FEF780FBBDE810400248FEF70EBC0000CF
:10537000040000242042002470B51148FEF705FC0B
:10538000104C206A012814D1218900250E48491C9F
:1053900089B2218101290DD0642909D30022052178
:1053A000FBF747FE218940F63400814200D3258176
:1053B000256270BD01220521FBF73BFEF8E70000E6
:1053C0000043002404000024000402582DE9F047A3
:1053D000274B4FF0804A274D02689842264E274FB0
:1053E000274C09D0504507D0A84205D0B04203D081
:1053F000B84201D0A04205D1D1F804C022F0700219
:105400004CEA0202DFF87CC0DFF87C809842DFF8CB
:105410007C900FD050450DD0A8420BD0B04209D09F
:10542000B84207D0A04205D0604503D0404501D026
:10543000484503D1CD6822F440722A434D6922F0D9
:1054400080022A43026098428A68C2620A688262C5
:1054500007D0A04205D0604503D0404501D0484563
:1054600001D10969016301214161BDE8F0870000B4
:10547000000001400004004000080040000C004013
:105480000004014000400140004401400048014048
:1054900042EA032283680A4323F47F410A4382607D
:1054A00070470000034B82681A400A4342F007012C
:1054B000816070478FFFCFFF10B5036A046A23F045
:1054C0000A0324F00104046284690B4324F0F00110
:1054D00041EA02118161036210BD10B5036A23F035
:1054E000100303628369046A23F4704324F0A00468
:1054F00043EA0232826144EA0111016210BD0000F8
:1055000030B5416EB9B101680D4B03F108048A68EA
:105510008968C2F34262490F5D5C615C2D01B5FB95
:10552000F1F1A0F86A10995CA25C0901B1FBF2F1FB
:10553000A0F8681030BD0121A0F86A10F8E700005B
:10554000367C000890F82810C90706D00168C36AA5
:105550004A6822F400321A434A6090F828108907FA
:1055600006D50168036B4A6822F480321A434A6008
:1055700090F82810490706D50168436B4A6822F461
:1055800080221A434A6090F82810090706D501685E
:10559000836B4A6822F400421A434A6090F828104C
:1055A000C90606D50168C36B8A6822F480521A4383
:1055B0008A6090F82810890606D50168036C8A680D
:1055C00022F400521A438A6090F82810490611D537
:1055D0000168436C4A6822F480121A434A60416CA5
:1055E000B1F5801F06D10168836C4A6822F4C002BD
:1055F0001A434A6090F82810090606D50168C26C63
:10560000486820F400201043486070472DE9F843B3
:1056100000250446C0F89050FBF716FD8046206830
:1056200020266FF07E470068000713D5002243460E
:1056300031042046009700F03FFA58B1216851E844
:10564000000F20F0800041E80002002AF6D1C4F8E3
:10565000886021E020680068400722D50022434688
:105660004FF480012046009700F026FAC8B1206868
:1056700050E8001F21F4907140E80012002AF6D192
:105680002068083050E8001F21F0010140E80012B6
:10569000002AF5D1C4F88C60032084F88450BDE85A
:1056A000F883C4F88860C4F88C60E566256700203C
:1056B00084F88450F3E7000010B5026852E8001F38
:1056C00021F4907142E80013002BF6D10E4B0268D2
:1056D000083252E8001F194042E80014002CF6D1AD
:1056E000C16E012908D1026852E8001F21F01001A3
:1056F00042E80013002BF6D100212022C0F88C20B4
:10570000C166416710BD0000FEFFFFEF2DE9F043C9
:1057100004468068D84E87B0D84B2168D4E9042766
:10572000D4F81CC010430A68002547EA0C07384328
:10573000324002430A602068E268416821F4405127
:10574000114341602268A1699A4201D0206A014355
:105750009768DFF82CC3CB4ECB4807EA0C070F4302
:1057600097602168676ACA6A22F00F023A43CA62E8
:105770002268B2420ED1006800F03800182873D0B9
:1057800047DCB8B3082879D010286FD178E02828F2
:105790007ED17BE0BD498A4209D1006800F0070054
:1057A000062875D2DFE800F0546A6C6E7072B84952
:1057B0008A4209D1006800F00700062868D2DFE8B5
:1057C00000F0475D5F616365B2498A4209D10068B4
:1057D00000F0070006285BD2DFE800F03A50525490
:1057E0005658AD498A420BD1006800F007000628E0
:1057F0004ED200E010E0DFE800F02B41434547497E
:10580000A6498A420AD1006800F03800182839D029
:10581000B7DD2028BBD13CE001203AE0A0498A4214
:1058200009D1006800F00700062831D2DFE800F057
:105830001026282A2C2E9B498A420BD1006800F0A2
:105840000700062824D2DFE800F003191B1D1F21E2
:1058500000201EE09A421BD18B48001D006800F01A
:105860000700062814D202E00CE007E010E0DFE8B1
:1058700000F0030507090B0D02200AE0042008E0F0
:10588000082006E0102004E0202002E0402000E094
:1058900080208549DFF814829A42854A4FF40043FC
:1058A0004FEA21174FF000064ED110281AD006DC1F
:1058B000022809D004280BD008287CD10DE020282C
:1058C0003ED0402877D13DE0FBF7AEFD014610E029
:1058D0006846FBF75FFE01990BE003A8FBF7FCFEAF
:1058E000049906E01068800605D51068C0F3C10071
:1058F000C140002970D0606A676838F8102007EB53
:105900004703B1FBF2F0834255D8B0EB073F52D8C2
:10591000002308461946FAF7DBFC02467808130E06
:10592000120243EA012110183A4671410023FAF7A6
:10593000CFFC604AA0F5407191423CD821688FE0CD
:105940003946D8E71946D6E7D4F81CC04FF6EF79A8
:105950009C4546D1082819D005DC58B101280CD047
:10596000042875D10DE0102815D0202835D0402806
:105970006ED134E0FCF70AFF01E0FCF719FF0146A5
:1059800010E06846FBF706FE01990BE003A8FBF761
:10599000A3FE049906E01068800604D51068C0F3E1
:1059A000C100C140C1B1636A606838F81330B1FB0F
:1059B000F3F1490000E04BE001EB5001B1FBF0F0E6
:1059C000A0F11001494543D84FF6F0732168C0F3A8
:1059D00042021840104343E043E03946E3E71946EA
:1059E000E1E7082819D005DC58B101280CD00428BB
:1059F0002ED10DE0102815D020282BD0402827D1FB
:105A00002AE0FCF7C3FE01E0FCF7D2FE014610E0FD
:105A10006846FBF7BFFD01990BE003A8FBF75CFEAE
:105A2000049906E01068800604D51068C0F3C10030
:105A3000C140B1B1636A606838F81330B1FBF3F16B
:105A400001EB5001B1FBF0F0A0F11001494505D97F
:105A5000012506E03946EDE71946EBE7216880B2FB
:105A6000C8600120A4F86A00A4F8680028466667A8
:105A7000A66707B0BDE8F083F369FFCF000C0058BC
:105A8000FFF4FF110010014054440258004400404C
:105A900000480040004C004000500040001401400D
:105AA00000780040007C00400090D0031E7C00087D
:105AB00000440258FFFC0F002DE9F04799461746B5
:105AC0000E460446089D4FF000082FE0681C2DD0BC
:105AD000FBF7BAFAA0EB0900A84214D89DB12068E0
