:020000040800F2
:1000000078AF0024AD020008078A0008F57A0008DE
:10001000058A0008490C0008DDCE00080000000039
:10002000000000000000000000000000F5A700082C
:100030005D11000800000000838B000801A8000883
:10004000C7020008C7020008C7020008C70200086C
:10005000C7020008C7020008C7020008C70200085C
:10006000C7020008671100086D110008150D00088F
:10007000C7020008C7020008C7020008C70200083C
:10008000C7020008C7020008C7020008C70200082C
:10009000C7020008C7020008C7020008C70200081C
:1000A000C7020008C7020008C7020008C70200080C
:1000B000C7020008C7020008C7020008C7020008FC
:1000C000C7020008C7020008C7020008C7020008EC
:1000D000C7020008C7020008C7020008C7020008DC
:1000E0005F110008C702000800000000C7020008F6
:1000F000C7020008C7020008C7020008C7020008BC
:10010000C7020008C7020008BDA90008C70200080E
:10011000C7020008C7020008C70200082DAA00088D
:10012000C7020008C7020008C7020008C70200088B
:10013000C7020008C7020008C7020008C70200087B
:1001400000000000000000000000000000000000AF
:10015000C7020008C7020008C7020008C70200085B
:10016000C7020008C7020008C7020008C70200084B
:10017000C7020008C7020008C7020008C70200083B
:10018000C7020008C7020008C7020008C70200082B
:10019000C7020008C7020008C7020008C70200081B
:1001A000397C0008C7020008C7020008C70200081F
:1001B000C7020008C7020008C7020008C7020008FB
:1001C000C7020008C7020008C7020008C7020008EB
:1001D000C7020008098A0008C7020008C702000811
:1001E000C7020008C7020008C7020008C7020008CB
:1001F000C7020008C7020008C7020008C7020008BB
:10020000C7020008C7020008C7020008C7020008AA
:10021000C7020008C7020008C7020008C70200089A
:10022000C7020008C7020008C7020008000000005B
:10023000C7020008C702000800000000C70200084B
:10024000210D0008750B0008C7020008C70200084E
:10025000C7020008C7020008C7020008C70200085A
:10026000C7020008C7020008C7020008C70200084A
:10027000C7020008C7020008C7020008000000000B
:10028000C7020008C7020008C702000800000000FB
:1002900000000000C7020008DFF80CD000F068FA88
:1002A000004800474913010878AF002406488047FA
:1002B00006480047FEE7FEE7FEE7FEE7FEE7FEE74B
:1002C000FEE7FEE7FEE7FEE7E1A800089902000866
:1002D0002DE9F05F0546002092469B46884606467B
:1002E000814640241BE0284641464746224600F00E
:1002F00077F853465A46C01A914110D31146184612
:10030000224600F05EF82D1A67EB01084F462246A0
:100310000120002100F055F817EB00094E41201E86
:10032000A4F10104DFDC484631462A464346BDE8D5
:10033000F09F40EA01039B0703D009E008C9121FA0
:1003400008C0042AFAD203E011F8013B00F8013B8F
:10035000521EF9D27047D2B201E000F8012B491EBB
:10036000FBD270470022F6E710B513460A46044652
:100370001946FFF7F0FF204610BD10B5002200E03F
:10038000521C835C8C5CA34201D1002BF8D1D8B203
:10039000E1B2401A10BD30B50B46014600202022C4
:1003A000012409E021FA02F59D4205D303FA02F582
:1003B000491B04FA02F52844151EA2F10102F1DCE2
:1003C00030BD202A04DB203A00FA02F100207047F9
:1003D0009140C2F1200320FA03F319439040704783
:1003E000202A04DB203A21FA02F00021704721FA8A
:1003F00002F3D040C2F120029140084319467047F1
:100400002DE9FE4F804681EA0300C00F0C460090A4
:1004100021F0004123F00045B8EB0200A94105D2CC
:100420004046214690461C460B46024623F00040BB
:10043000104347D0270DC7F30A00C3F30A510290B7
:10044000401A019040286BDAC3F3130040F4801B7C
:100450000098924620B10023D2EB030A63EB0B0B0A
:1004600001985946C0F140025046FFF7AAFF0646E0
:100470000D4650465946019A00F08CF910EB0800E1
:100480006141002487EA115284EAE7731A4340D09D
:10049000009A62B3019A012A4FEA075215DC001B49
:1004A00061EB02014FF0004202EA0752CDE900423F
:1004B000001C41F5801132462B4600F08CF903B048
:1004C000BDE8F08F40462146F9E7001B61EB0201D1
:1004D000001C41F5801300185B412018A2F500179D
:1004E00047EB030140EAD570B6196D4111E06D0884
:1004F0004FEA360645EAC0754FEA0752001B61EB2A
:100500000201001C41F5801149084FEA3000001932
:10051000514132462B4603B0BDE8F04F00F04CB9D4
:100520000098012240000023D0EB020263EBE0734D
:10053000009821464FEAE074B8EB000061EB04013B
:10054000E9E783F000435BE781F0004158E72DE9DC
:10055000FE4F81EA030404F0004421F000410094BE
:100560004FF0000B23F0004350EA01045ED052EA42
:1005700003045BD0C3F30A54C1F30A552C44A4F21C
:10058000F3340194A0FB0254C1F3130141F4801130
:10059000C3F3130343F4801301FB024400FB034E37
:1005A000840A970A44EA815447EA8357A4FB076800
:1005B00002958D0A05FB07854FEA932C04FB0C542A
:1005C0002705029D4FEA065847EA1637B5EB08059E
:1005D0006EEB070C870E920E47EA811742EA8312F0
:1005E000A7FB0201B6EB0B0164EB00042B0D43EA01
:1005F0000C335E1844EB1C50DA465146E7FB02010F
:10060000C5F313044FEA0B3343EA14534FEA0432A1
:10061000019C43EA0603A4F10C040294009CCDE97A
:1006200000B400F0D8F803B0BDE8F08F0020014618
:10063000F9E72DE9F04D81EA030404F0004B21F0C5
:10064000004514464FF0000A23F0004150EA05022D
:1006500020D054EA01021DD0C5F30A570246C5F363
:100660001303C1F31300C1F30A5640F4801543F499
:100670008013A7EB0608101BD64608F2FD3873EB73
:10068000050002D308F1010801E092185B41B8F1BE
:10069000000F03DA00200146BDE8F08D00204FF482
:1006A0008011064684460EE0171B73EB050705D341
:1006B000121B63EB050306434CEA010C49084FEAA1
:1006C000300092185B4150EA0107EDD152EA030075
:1006D00012D082EA040083EA0501084305D0101B0A
:1006E000AB4106D20122002306E000224FF0004376
:1006F00002E06FF0010253101AEB06004CEB0851B8
:1007000010EB0A0041EB0B01BDE8F04D00F054B8CE
:10071000C1F30A52C1F3130140F2FF3341F48011D7
:100720009A4202DA00200146704740F233439A426F
:10073000A2F2334202DC5242FFF752BEFFF741BE43
:1007400030B5041E71F1000404DB4FF00044404258
:1007500064EB0101141E73F1000405DB1C464FF02D
:100760000043524263EB0403994208BF904230BDFC
:10077000064C074D06E0E06840F0010394E80700EE
:1007800098471034AC42F6D3FFF78AFD446901085C
:1007900064690108202A06DBCB17203A41FA02F0EF
:1007A00043EAE07306E041FA02F3D040C2F12002CE
:1007B000914008431946704710B5141E73F10004A8
:1007C00008DA401C41F1000192185B411A4301D143
:1007D00020F0010010BD2DE9F04D92469B4611B16D
:1007E000B1FA81F202E0B0FA80F220329046FFF7CF
:1007F000E8FD04460F4640EA0A0041EA0B01534671
:100800005A46084313D0114653EA010019D0C8F1E3
:1008100040025046FFF7E4FD05460E465046594655
:100820004246FFF7CEFD084305D0012004E02046F4
:100830003946BDE8F08D0020054346EAE0762C43BA
:1008400037430A986305E40AA0EB08000022FD0A7A
:1008500044EA47540A3002D500200146E9E7010581
:1008600010196941DDE9084500196941BDE8F04DFD
:10087000A2E770B58C1810F8015B15F0070301D1E1
:1008800010F8013B2A1106D110F8012B03E010F8F3
:10089000016B01F8016B5B1EF9D12B0705D4002316
:1008A000521E0DD401F8013BFAE710F8013BCB1AB8
:1008B000921C03E013F8015B01F8015B521EF9D5AD
:1008C000A142D8D3002070BD70B53A4905460068F2
:1008D000884202D0384A904202D1D1F8080302E09F
:1008E0003648D0F8080310F4403F11D005F0C0F8A6
:1008F00004466868B0F5803F06D0B0F5003F03D0ED
:10090000B0F5403F27D101E0000C18E0A40822E038
:1009100000214FF4002004F015F9044668688103B3
:10092000890B18D181140C2915D2DFE801F01406C7
:1009300006060606060B0D0F1113800C4000B4FBD3
:10094000F0F408E0240906E0640904E0A40902E0E8
:10095000E40900E0240A02F051FC41F2030188425C
:1009600008D8174884422868816813D821F4807118
:10097000816070BD13496008884204D82868816886
:1009800021F44071F4E71049884206D8286881684C
:1009900021F4407141F48071EAE70C4988422868EB
:1009A000816804D821F4407141F40071E0E741F41A
:1009B0004071DDE700200240002102400060025843
:1009C000002D3101105E5F0020BCBE0040787D012B
:1009D00010B5846B616D11F0500F06D0616DC906C2
:1009E00025D5204601F077F810BD606D40F4007009
:1009F000606520680168090707D507F005F990B11F
:100A00002068C068800403D50DE0C06880070AD163
:100A1000606D20F480706065606DC00403D4606D0B
:100A200040F001006065204601F048F810BDE16C1F
:100A3000C96CBDE81040084710B5806B416D41F0AE
:100A400040014165816D41F00401816501F043F889
:100A500010BD10B5806B01F03DF810BD70B50446B7
:100A6000006881688268C1F3400112F0010F28D04C
:100A700039BB816801F00D01012914D18168124A46
:100A80001140891C816021680320086002F0BCFBD2
:100A9000054612E002F0B8FB401B02280DD9206881
:100AA0008068C00709D0606D40F010006065A06DDF
:100AB00040F00100A065012070BD20688068C0077B
:100AC000E8D1002070BD0000C0FFFF7F70B5044674
:100AD0000068816811F0010F40D18168204A1142FD
:100AE0002DD18168D5432940491C816002F08CFBDF
:100AF0001C49064620681C4B884201D0984201D10F
:100B00001A4A00E01A4A9268984202F01F0200D086
:100B1000014681421DD0E2B120E0816811F0010F51
:100B200003D181682940491C816002F06DFB801B64
:100B300002280ED920680068C043C00709D0606D44
:100B400040F010006065A06D40F00100A06501203C
:100B500070BD20680168C943C907DED1002070BD9F
:100B60003F0000800020024000210240002302409C
:100B700000630258014801F0CFBA00005C02002473
:100B800010B501240348210302F02EFB00B100241C
:100B9000204610BD000402580146014805F00EBD74
:100BA000B8040024044810B505F01AFD042801D04B
:100BB000012010BD002010BDB804002410B500F0C5
:100BC00015F8012801D0022010BD074805F087FD67
:100BD000040006D104484FF4804105F04DFB00B1FC
:100BE0000124204610BD0000B804002408B50120EF
:100BF0008DF80000FFF7C4FF10B900208DF8000049
:100C00009DF8000008BD000038B50024009313468D
:100C10000A460146034805F049FE00B1012420467A
:100C200038BD0000B804002438B5002400931346F2
:100C30000A460146034805F01BFF00B10124204687
:100C400038BD0000B8040024FEE710B500240DF004
:100C5000C9F804E0641C0120E4B20DF0B7F808F014
:100C600045FA10B1642CF5D30DE0642C0BD20024AE
:100C700004E0641C0120E4B20DF0A8F808F036FA94
:100C800018B1642C04D3012010BD642CF1D3FAE711
:100C9000002010BD00B587B014216846FFF762FB45
:100CA0000C48016841F0020101600068022100F077
:100CB000020005900120CDE90201CDE900100648AF
:100CC000694602F07BF900F009F8FFF7BEFF07B0B4
:100CD00000BD0000E0440258000402584FF47A704E
:100CE00010B502F0BDF80DF09DF8094C002202216C
:100CF000204602F07EFA142002F0B2F801222046CB
:100D0000022102F076FABDE810401E200DF05EB818
:100D100000040258014801F0FFB900003407002424
:100D200070470000294A016891423AD0274A183298
:100D3000914236D0254A3032914232D0234A48324D
:100D400091422ED0214A603291422AD01F4A7832F5
:100D5000914226D01D4A9032914222D01B4AA8329D
:100D600091421ED01A4A91421BD0194A1832914220
:100D700017D0174A3032914213D0154A4832914267
:100D80000FD0134A603291420BD0114A783291420F
:100D900007D00F4A9032914203D00D4AA8329142B7
:100DA00011D1CAB21823103AB2FBF3F26FF3090162
:100DB000032A02F00703074AD25CC26500D9091D65
:100DC00081650846704721F0FF01F9E710000240F5
:100DD00010040240181E010830B5224A01230168A0
:100DE0009142CAB21BD01F4C1434A14217D01D4CE3
:100DF0002834A14213D01B4C3C34A1420FD0194CD3
:100E00005034A1420BD0174C6434A14207D0154C8A
:100E10007834A14203D0134C8C34A1420CD114215C
:100E2000114C083AB2FBF1F10F4A803201F01F0574
:100E300004EB8101AB4010E00C4D1824103A0D4436
:100E4000B2FBF4F1A82D00D80831094A01F01F04C3
:100E500002EB8101064AA3408032603080E80E0038
:100E600030BD00000854025800580258F0FBFDBF86
:100E70000008024010B50279531E072B2DD8174CDD
:100E80000168A1421BD0154C1434A14217D0134C59
:100E90002834A14213D0114C3C34A1420FD00F4C46
:100EA0005034A1420BD00D4C6434A14207D00B4CFE
:100EB0007834A14203D0094C8C34A14203D10849B3
:100EC000074C443102E00749064C443104EB8202EE
:100ED000C0E91B2101219940416710BD0854025807
:100EE000FC580258FC08024010B583694FF0C074EA
:100EF000826A0146002053B1B3F5005F15D072B18C
:100F0000012A0CD0022A0AD0032A09D104E01AB11E
:100F1000012A06D0022A03D1C96AC90100D50120DD
:100F200010BDC96AA142FAD010BD002AF7D0012A2B
:100F3000F2D0022AF3D0032AF3D010BD2DE9F04FEE
:100F4000804E804FDFF8FC911836DFF8F8A1483763
:100F50000468856D0AF1300ADFF8ECB14C45DFF822
:100F6000ECC1DFF8ECE16DD0B4426BD0544569D0F0
:100F7000BC4267D0DFF8D081A8F11808444561D0A1
:100F80005C455FD064455DD074455BD0DFF8C481BB
:100F9000444557D0DFF8BC8108F11808444551D0CA
:100FA000DFF8B08108F1300844454BD0DFF8A48168
:100FB00008F14808444545D0DFF8988108F16008F9
:100FC00044453FD0DFF88C8108F17808444539D09A
:100FD000DFF8808108F19008444533D0DFF8748150
:100FE00008F1A80844452DD0DFF86C81444529D08C
:100FF000DFF8648108F11408444523D0DFF85881F4
:1010000008F1280844451DD0DFF84C8108F13C0860
:10101000444517D0DFF8408108F15008444511D00D
:10102000DFF8348108F1640844450BD0DFF82881EB
:1010300008F17808444505D0DFF81C8108F18C08D8
:10104000444509D1D0E91948C4F80480C46E1CB1E4
:10105000D0E91C48C4F8048004684C452ED0B44242
:101060002CD054452AD0BC4228D0374E183EB4422A
:1010700024D05C4522D0644520D074451ED0354E26
:10108000B4421BD0334E1836B44217D0314E3036EE
:10109000B44213D02F4E4836B4420FD02D4E603696
:1010A000B4420BD02B4E7836B44207D0294E90363E
:1010B000B44203D0274EA836B44215D190F85C60F4
:1010C0003F2406F01F06B440AC600468256825F490
:1010D000802525602EE09A600068C160BDE8F08F31
:1010E00099600068C260F9E71B4EB4421BD01A4EEB
:1010F0001436B44217D0184E2836B44213D0164EC8
:101100003C36B4420FD0144E5036B4420BD0124E7F
:101110006436B44207D0104E7836B44203D00E4E37
:101120008C36B442DAD190F85C60012406F01F06D8
:10113000B4406C60046863608368402B0368CFD15F
:10114000C9E700001000024088000240A0000240F1
:10115000B8000240100402400854025870474FF48F
:10116000805001F01FBF082001F01CBF102001F0CB
:1011700019BF72B6FEE70022AFF300800E4B70B5C8
:1011800005465C7A0120002C14D15E7A03F1080038
:101190009C555E7A03EB860675605D7A2A54587A10
:1011A000421C5A723A232F22303008704B7020466E
:1011B0008A70CC7070BD000008290024F0B5D1E918
:1011C0000843CD690A68C2B10268254322F4F84297
:1011D00013431D430560D1E90125D1E903364C696C
:1011E0002A434568334389691A43EB0B2243DB03E7
:1011F0000A431A4342600020F0BDD1E9012ED1E933
:10120000036CD1E9057142EA0E0246EA0C0632434C
:101210003A430A4301682A4322431A436FF30E01FB
:101220000A430260E7E7426943F6FE739A4342EAE3
:10123000410141610020704770B591E81C00C96808
:101240006FF01F0506691A4305EB441444EA412177
:101250000A4306EA45431A430261002070BD0000BC
:101260002DE9F04F8B8A6FF00F05264C4FF07F4B26
:10127000D1F80C9004EB03536FF0FF044FEA042AFB
:101280001AB386684FEA09321F4FA2F580521A43FB
:101290003E4032438260D1E900278E68521E05EB42
:1012A00007150F8A2A43C56804EB06240E7E0AEB55
:1012B000074322431A430BEB06610A4305F07043D0
:1012C0001A43C2600020BDE8F08F91E804110F4E70
:1012D000521E0F8A05EB08152A4304EB0C2C06EB73
:1012E00009350E7E42EA0C022A4385680AEB074460
:1012F00022431A430BEB06610A4305F070431A437D
:101300008260DFE70000F0FFFF0F0FFF00F0FFFF3C
:101310002DE9F0410024804608F0F2FB2B4E002519
:101320004FF4006700223946304601F062FF042086
:1013300010F0DEF801223946304601F05AFF60060F
:10134000040E07F0D9FE08B1641CE4B2042010F0CA
:10135000CFF86D1CEDB2082DE4D3B8F1000F4FF0BB
:1013600000024FF48055394630461BD001F041FF52
:1013700008F0E8FB00222946304601F03AFF03203E
:1013800010F0B6F801223946304601F032FF032052
:1013900010F0AEF800223946304601F02AFF204610
:1013A000BDE8F08101F025FF08F0CCFB01222946C1
:1013B000304601F01EFF022010F09AF80122394653
:1013C000304601F016FF0220E2E70000001C025840
:1013D0002DE9F041054608F0B5FB174F4FF40066C4
:1013E00000223146384601F004FF00244FF48058B3
:1013F000280601D5012200E000224146384601F0CE
:10140000F8FE6806050E052010F072F8012231463C
:10141000384601F0EEFE052010F06AF80022314651
:10142000384601F0E6FE052010F062F8641CE4B2D4
:10143000082CDDD3BDE8F081001C025870B508F01F
:1014400081FB01220E4D14032846214601F0D1FEF6
:1014500001222846D602314601F0CBFE042010F0CE
:1014600047F800222146284601F0C3FE042010F070
:101470003FF831462846BDE87040002201F0B9BE71
:10148000001C025870B508F05DFB104D4FF400646D
:1014900000222146284601F0ACFE660028460022C4
:1014A000314601F0A6FE042010F022F80122214668
:1014B000284601F09EFE01223146284601F099FEA1
:1014C000BDE87040042010F013B80000001C025862
:1014D00070B5002408F014FB124D012211032846B8
:1014E00001F087FE032010F003F801222846D602FF
:1014F000314601F07EFE03200FF0FAFF07E0641C86
:10150000E4B2FA2C03D9FFF7BDFF012070BD07F04C
:10151000F3FD0028F3D100223146284601F069FE90
:10152000002070BD001C025810B50446FFF786FF6E
:10153000E620FFF74DFFFFF7CBFF18B1FFF7A2FF43
:10154000002010BD2046FFF743FFFFF7C1FFFFF764
:1015500075FFE720FFF73CFFFFF7BAFF0020FFF71A
:10156000D7FE0446FFF78EFF204610BD10B5FFF7EB
:1015700065FFE620FFF72CFFBDE81040FFF782BFB4
:1015800070B50C460546FFF759FFE620FFF720FF30
:10159000FFF79EFF18B1FFF775FF012070BD2846C9
:1015A000FFF716FFFFF794FF2046FFF711FFFFF745
:1015B0008FFFFFF767FF002070BD000030B587B0D8
:1015C00014216846FEF7CEFE0E48016841F0800106
:1015D000016000684FF4C0540B4D012200F0800000
:1015E00021460590284601F004FE01210220CDE9A4
:1015F0000041CDE902106946284601F0DFFC07B042
:1016000030BD0000E0440258001C025870B50020B4
:101610000FF064FF0A4D002405EB4400417815F8F3
:101620001400FFF7ADFF641CE4B21E2CF4D30020BD
:101630000FF054FF034800210160818070BD00005D
:10164000BE1E010848000024F8B5002704461546D0
:101650000E46009790F8500001280BD0012084F826
:1016600050002046FFF7FAF90100606D04D040F009
:1016700010002DE00220F8BD20F4885040F0020058
:101680006065206806F4803205F08043134D1A43EC
:1016900083682B401A4342F000428260104A20685F
:1016A0000EE0009B5B1C0093934209D3606D84F8AD
:1016B000507020F0020040F0100060650120F8BD7D
:1016C0008368DB0FEDD1606D20F0020040F0010077
:1016D0006065084684F85070F8BD0000C0FFFE3F0A
:1016E00000F8C3252DE9F84F4FF0000B0446E54EF6
:1016F0000D46CDF800B05F4690F85000DFF888A3A3
:10170000012808D04FF0010984F85090206806F0B5
:1017100077FA18B169E10220BDE8F88F21682868DE
:10172000CA69030328D090FAA0F0B0FA80F000BF95
:1017300000F01F0309FA03F00243CA61D5E9001261
:101740004FF00C0C20681F23C1F384610CEA921C3B
:1017500002F01F02604493409140026B9A430A4397
:101760000263206806F04CFA8046206806F044FACE
:1017700058EA000003D07FE0C0F38460D8E7206817
:10178000AA68296806F048FAC0490968B9EB117FD0
:1017900006D121686869C968C1F38201490008E07F
:1017A0002068C168C906C1686869F5D501F01001F3
:1017B00049088840296904292ED022682B6802EB49
:1017C000810103F0F8420B6E024303F00040104326
:1017D0000866697E22682869012917D05FF0000138
:1017E00002EB8000026E22F000420A430266287E6D
:1017F00021682A6901280CD000200B6902F01F0221
:10180000904023F4F04202430A6135E04FF000417A
:10181000E6E74FF40060F0E720682978026E02F0F6
:10182000F842B2EB816F03D1016E21F000410166F5
:1018300020682978426E02F0F842B2EB816F03D142
:10184000416E21F00041416620682978826E02F0E5
:10185000F842B2EB816F03D1816E21F000418166C5
:1018600020682978C26E02F0F842B2EB816F03D192
:10187000C16E21F00041C1662068816811F0010F3E
:1018800076D150F8C02F95F80CC0814B29680CF028
:10189000180C23FA0CF3C1F313080B4022EA0802D8
:1018A0001A4302607B48E968814277D128680103C6
:1018B0001BD090FAA0F1B1FA81F1491C01F01F018F
:1018C00009294FEA003131D8002911D090FAA0F14E
:1018D000B1FA81F101F1010101F01F0109FA01F2F0
:1018E00009D100BFC0F3846109E0C0F38461E4E77B
:1018F000C0F38461EEE790FAA0F1B1FA81F101F151
:10190000010101F01F0142EA816102D1C0F384604C
:1019100003E090FAA0F0B0FA80F000F1010000F0CE
:101920001F0000EB400041EA005133E000290ED0D7
:1019300090FAA0F1B1FA81F101F1010101F01F016A
:1019400009FA01F206D100BFC0F3846106E0C0F3DA
:101950008461F1E790FAA0F1B1FA81F101F101019E
:1019600001F01F0142EA816103D1C0F3846004E009
:1019700040E090FAA0F0B0FA80F0474A00F1010090
:1019800000F01F0000EB400002EB005041EA0001B4
:1019900041F00071AA68206806F03EF9D5F800C051
:1019A000BCF1000F26DA3D4B20683D49DFF8F4908A
:1019B000984201D0B04201D10A4600E04A469268FE
:1019C000984202F0E07201D0B04209D19D68D6F889
:1019D000088005F0010508F0010845EA080503E064
:1019E000DAF8085005F0010545B1606D012740F0B7
:1019F00020006065384684F850B08DE62A4DAC452D
:101A00001CD115021AD45045F4D1984202D0B042EC
:101A100000D049468B6842F4000023F0E072024394
:101A20008A60234921480968B1FBF0F04000801C1E
:101A300000E0401E00900028FBD1DBE71D4DAC45C7
:101A40000CD1D5010AD45045D4D1984202D0B0422D
:101A500000D049468B6842F080700EE0164DAC45D0
:101A6000C8D15502C6D45045C4D1984202D0B04224
:101A700000D049468B6842F4800023F0E0720243B4
:101A80008A60B7E700210240006002580010005C45
:101A9000FFFF0F000000FF47000020FE0020024073
:101AA0000023024000630258000084CB400D030075
:101AB00040000024000052C70000B8CF0248C168AF
:101AC00002A00BF00DBA0000C400002430352564DC
:101AD00000000000704770470068006C704700000D
:101AE000F8B54FF0000604003546009602D0606D50
:101AF00010B107E00120F8BD204600F005F9A66509
:101B000084F8506020688168C1F3407119B1816820
:101B1000704A1140816020688168C1F3007181B909
:101B200081686D4A114041F0805181606C496B4879
:101B30000968B1FBF0F0401C00E0401E0090002856
:101B4000FBD120688168C1F3007141B9616D012545
:101B500041F010016165A16D41F00101A16506F040
:101B60004FF8616DC90600D420B1606D012540F0C9
:101B7000100093E0606D20F4807040F0020060651A
:101B80002068816811F0010F1FD1564A564B9042D0
:101B900001D0984207D191689E6801F0010106F0DA
:101BA0000106314303E05149896801F0010161B93F
:101BB000904201D0984201D14D4800E04D488268E2
:101BC000616822F47C120A43826001F017FB41F243
:101BD0000301884202D9A06810280CD0617D227FC1
:101BE000A368206B490341EA024118430843217F5F
:101BF00001290CD010E0607D227F216B400340EA78
:101C0000024241F01000104340F00C00EFE7218C3D
:101C1000394A02EB41410843616A29B1A26A01F4E1
:101C20007871014342EA01002168344BCA681A40C6
:101C30000243CA60206805F0E3FF0646206805F00D
:101C4000DBFF30431DD1216844F20303267DE26AA5
:101C5000C86842EA863298431043C86094F8380056
:101C600001281ED02068016921F00101016120686E
:101C7000626B016921F07041114301612046FEF75A
:101C800023FEE068012820681CD0016B21F00F01C1
:101C90000163606D20F0020040F00100606528469D
:101CA000F8BD2068A28F164FD4E9101C154E07EB23
:101CB0000247A36C026941EA0C013B4332401943DD
:101CC0001143D3E7A269016B521E21F00F011143AA
:101CD000DEE70000C0FFFF5FC0FFFF7F400D030095
:101CE0004000002400200240002102400060025811
:101CF00000230240006302580000FEFF03C0F0FF13
:101D00000100FFFF1EF800FCF8B51D4905460068FC
:101D1000884234D11B48016841F08071016001683C
:101D200001F080710091016841F0040101600068D8
:101D300000F0040000904FF08060014605F086F846
:101D40004FF00060014605F081F80F4C00200F496C
:101D500011224FF480634FF4807C21605E00C4E95F
:101D6000012004F10C02DF0082E8C9102062204645
:101D700000F046FD08B1FFF7FCF9EC64A563F8BD7F
:101D800000600258E04402585C02002408540258E3
:101D90002DE9F0413B4D044600683B4FA84201D07D
:101DA000B84201D1394900E03949896801F01F067C
:101DB00005F026FF18B102210846BDE8F08194F82D
:101DC000500001280CD0012084F850002046FEF776
:101DD0007DFE01004FF0000204D084F85020EBE7B4
:101DE0000220EAE7636D40F6016C206823EA0C03E9
:101DF000B84243F48073636501D12B4600E003468B
:101E0000834200D01EB9636D23F480136365636D54
:101E1000DB0404D5A36D23F00603A36500E0A265EF
:101E20001C23036084F850202068B84201D12A4660
:101E300000E00246824215D0A6B1052E12D0092E2E
:101E400010D0626DB84242F48012626500D005463F
:101E5000E8688001B0D5606D20F4005040F48050F7
:101E60006065A9E7C268920105D5626D22F400524F
:101E700042F4805262658268064B1A40121D8260ED
:101E80009AE70000002002400021024000230240A7
:101E900000630258C0FFFF7F2DE9F047384E04462B
:101EA00000689146DFF8DC808A46B04201D04045A8
:101EB00001D1354900E03549896801F01F0505F079
:101EC0009FFE002859D194F85000012855D00120D8
:101ED0004FF0000784F8500025B1052D02D0092DE0
:101EE00000D003E02046FEF7F1FD18B184F85070F1
:101EF000BDE8F087616D40F6016320689943404575
:101F000041F48071616500D00646864200D01DB95B
:101F1000606D20F480106065606DC00404D5A06D14
:101F200020F00600A06500E0A7651C20E16C184ABF
:101F3000CA63E26C17491164E26C1749D1642168E5
:101F4000086084F850702068416841F010014160D9
:101F50002068E16AC26822F003020A43C260216875
:101F60004B46E06C5246403100F02CFE21680B4B92
:101F70008A681A40121D8A60BAE70220B8E700009A
:101F8000002002400021024000230240006302586A
:101F9000D1090008530A0008390A0008C0FFFF7F72
:101FA000F0B590F86020012A22D0C1EBC1020127D0
:101FB00080F86070022380F8613000EB8202284DC7
:101FC000138F168EB2F83CC0D46A1B05283244EA3F
:101FD000064643EA4C530A2C46EA03060AD0092C6B
:101FE00008D0137B46EA036349B10B2C1AD01DE0DD
:101FF0000220F0BDD36803F07F433343F4E7016868
:102000004C6AAC431C434C62016813688B61516895
:102010000A2901D009291BD1D168026821F07F412A
:10202000916215E0118B0F4D43EA81430168CC6941
:10203000AC431C43CC61016813680B6151680A29E9
:1020400001D0092904D1D168026821F07F411162D1
:10205000002180F8617080F860100846F0BD000033
:102060000F0033FF0F003FFF2DE9F041040004D0C3
:1020700094F86100002518B107E00120BDE8F08167
:10208000204684F8605000F033F8184E022084F89F
:1020900061000123D4E90010D4F81CC040F20712FB
:1020A0000F6840EA0C003740384308602068A76991
:1020B000A168466B39439643314341632068E26827
:1020C000016C6FF30F01114301642068218AA28A19
:1020D000466B090541EA425126F44012114341631F
:1020E000656684F861300020C8E70000BFFFF8FF94
:1020F00008B500680649884208D10648016841F0E1
:1021000010010160006800F01000009008BD0000A0
:1021100000100052D44402582DE9FC5F0446F74EEB
:102120000020DFF8D88300904FF41652F44808F1ED
:102130001808A56DDFF8C493DFF8C0A3016809F1A2
:10214000300920680AF1480AB1FBF2F1B04201916E
:102150002F68D5F800C0DFF8ACB335D041468842CF
:1021600032D0484530D050452ED058452CD0E54986
:102170001831884228D0E3493031884224D0E149DF
:102180004831884220D0E04988421DD0DE491831CC
:10219000884219D0DC493031884215D0DA494831BB
:1021A000884211D0DFF860E30EF1600E70450BD06D
:1021B000D54A7832904207D0D34B9033984203D01F
:1021C000D149A83188427DD194F85C20082102F0E1
:1021D0001F0201FA02F23A424AD0B04232D04045E0
:1021E00030D048452ED050452CD058452AD0C54A2D
:1021F0001832904226D0C34A3032904222D0C14A8F
:10220000483290421ED0C04A90421BD0BE4A18327B
:10221000904217D0BC4A3032904213D0BA4A48326A
:1022200090420FD0B84A603290420BD0B64A783212
:10223000904207D0B44A9032904203D0B24AA832BA
:10224000904203D1026802F0040202E0026802F048
:1022500008026AB1026822F00402026094F85C008D
:1022600000F01F008140A960606D40F001006065D2
:1022700094F85C00012100F01F008140394240D0F9
:102280002068B04234D0404532D0484530D0504527
:102290002ED058452CD09B4A1832904228D0994ACB
:1022A0003032904224D0974A4832904220D0964A09
:1022B00090421DD0944A1832904219D0924A30323E
:1022C000904200E0AFE113D08F4A483290420FD0E5
:1022D0008D4A603290420BD08B4A7832904207D0C0
:1022E000894A9032904203D0874AA83290427DD1E9
:1022F000406910F0800F04D0A960606D40F00200CA
:10230000606594F85C00042100F01F0081403942B0
:102310003ED02068B04232D0404530D048452ED023
:1023200050452CD058452AD0764A1832904226D0B3
:10233000744A3032904222D0724A483290421ED0C3
:10234000714A90421BD0704A1832904217D06E4AA0
:102350003032904213D06C4A483290420FD06A4AD1
:10236000603290420BD0684A7832904207D0664A79
:102370009032904203D0644AA83290424ED1006815
:1023800010F0020F04D0A960606D40F00400606599
:1023900094F85C00102100F01F008140394258D0B1
:1023A0002068B04234D0404532D0484530D0504506
:1023B0002ED058452CD0534A1832904228D0514A3A
:1023C0003032904224D04F4A4832904220D04E4A78
:1023D00090421DD04C4A1832904219D04A4A3032AD
:1023E000904215D0484A4832904200E014E00FD0A5
:1023F000454A603290420BD0434A7832904207D02F
:10240000414A9032904203D03F4AA832904207D1CD
:10241000006800F0080006E0006872E70068B7E7AF
:10242000006800F00400A0B1A960206801684903B9
:1024300004D50068000308D5A16C07E00168C90550
:1024400003D4016821F008010160216C09B1204624
:10245000884794F85C00202100F01F008140394239
:1024600079D02068B04232D0404530D048452ED097
:1024700050452CD058452AD0224A1832904226D0B6
:10248000204A3032904222D01E4A483290421ED01A
:102490001D4A90421BD01C4A1832904217D01A4A4B
:1024A0003032904213D0184A483290420FD0164A28
:1024B000603290420BD0144A7832904207D0124AD0
:1024C0009032904203D0104AA832904203D1006863
:1024D00000F0100002E0006800F00200B0B3A96054
:1024E00094F835000428206801680FD049037ED590
:1024F000006800032BD4616C2AE000001000024049
:1025000040000024700002401004024021F0160137
:1025100001602068416921F080014161206C08B9A7
:10252000A06C20B12068016821F00801016094F8D6
:102530005C303F21012003F01F0300229940A96075
:1025400084F8350084F83420216D65E003E0E16B08
:1025500009B120468847606D00287DD0606DC007B6
:1025600059D02068042184F83510B0422BD0404562
:1025700029D0484527D0504525D0584523D09D49DE
:10258000884220D09B49183188421CD0994930316B
:10259000884218D09849884215D097491831884206
:1025A00011D09549303188420DD093494831884245
:1025B00009D091496031884205D08F4978318842ED
:1025C00001D08D499031016821F00101016020683E
:1025D0000099019A491C0091914202D80168C907EB
:1025E000F6D10068C00710D003200FE0FFE70168B4
:1025F000C905ACD403680121002223F01003036055
:1026000084F8351084F83420A1E7012084F83500DF
:10261000002084F83400E16C00291DD002B020466F
:10262000BDE8F05F0847754988421DD073491431F1
:10263000884219D071492831884215D06F493C3100
:10264000884211D06D49503188420DD06B496431B8
:10265000884209D0694900E084E07831884203D09B
:1026600066498C3188427DD194F85C8004270168EA
:1026700008F01F0807FA08F717EA0C0F009746D072
:102680004F0744D500980F04686003D5C8033CD4B5
:10269000A16CC1E7880638D42068B0422DD05549D6
:1026A0006039884229D0484527D0504525D0584523
:1026B00023D05049884220D04E49183188421CD03E
:1026C0004C493031884218D04B49884215D04A498C
:1026D0001831884211D04849303188420DD04649DE
:1026E0004831884209D0704507D0904205D09842C1
:1026F00003D04149A831884203D1016821F0080183
:1027000002E0016821F004010160216C84E70227E6
:1027100007FA08F717EA0C0F00974ED08F074CD531
:1027200000980F04686003D5C80344D4616C73E754
:10273000880640D42068B0422FD02E4960398842A4
:102740002BD0484529D0504527D0584525D0294978
:10275000884222D02749183188421ED0254930317D
:10276000884200E044E018D02349884215D022492D
:102770001831884211D02049303188420DD01E498D
:102780004831884209D0704507D0904205D0984220
:1027900003D01949A831884203D1016821F01401FE
:1027A00002E0016821F00A010160012184F835107E
:1027B000002084F83400E16B2EE7082202FA08F2C8
:1027C00012EA0C0F14D0090712D5016821F00E018E
:1027D000016094F85C100120002201F01F0100FA52
:1027E00001F16960606584F8350084F8342012E7EF
:1027F000BDE8FC9F880002401004024008540258C3
:102800002DE9F05F044600F0FFFC002C07467DD068
:10281000E34E022120684FF00308DFF888934FF061
:102820000005DFF884A3B042DFF880B334D0DC4A7F
:102830001832904230D048452ED050452CD05845C3
:102840002AD0DA4A1832904226D0D84A3032904202
:1028500022D0D64A483290421ED0D54A90421BD050
:10286000D34A1832904217D0D14A3032904213D016
:10287000CF4A483290420FD0CD4A603290420BD0BE
:10288000CB4A7832904207D0C94A9032904203D066
:10289000C74AA83290427DD184F83510B04284F8FE
:1028A00034502ED0BE49183188422AD0484528D00D
:1028B000504526D0584524D0BC491831884220D0F4
:1028C000BA49303188421CD0B8494831884218D0C2
:1028D000B749884215D0B6491831884211D0B44959
:1028E000303188420DD0B2494831884209D0B049D0
:1028F0006031884205D0AE497831884201D0AC4978
:102900009031016821F00101016008E027E100BF7A
:1029100000F07AFCC01B052801D920211CE12068A9
:102920000068C007F4D104F108002168D4E9053C2F
:102930008E4685C809681043D4E907281F43636A97
:1029400038439C4F40EA0C001043394040EA0800ED
:10295000042B40EA010003D1D4E90B1211430843D0
:10296000954909686FF30F01B1F1005F0FD36168FA
:10297000A1F12902052A08D9163A032A05D9083AED
:10298000012A02D94F39032901D840F48010CEF82A
:10299000000000E023E02068676A4069042F20F00F
:1029A000070047EA00070DD1D4E90A01074349B1FE
:1029B0002046FEF799FA28B140206065012184F88D
:1029C0003510CCE0206847612046FEF7ABF994F85B
:1029D0005C203F2102F01F029140816054E0774A61
:1029E00090421BD0754B1433984217D0734B283349
:1029F000984213D0714B3C3398420FD06F4B5033F9
:102A000098420BD06D4B6433984207D06B4B7833B0
:102A1000984203D0694B8C3398427DD184F83510AD
:102A200084F83450664B0168A26801EA030E402A1C
:102A300073D0802A72D00022D4E90378D4E905311A
:102A400042EAD70242EAD8085C4AD4E9077C48EA5D
:102A5000D30848EAD10141EAD701524241EA1C11A8
:102A6000142341EA0E01016020681044B0FBF3F02A
:102A70008000E0652046FEF755F994F85C200121BE
:102A800002F01F02914041602068B04257D0444993
:102A90001831884253D0484551D050454FD0584501
:102AA0004DD042491831884249D04049303188429E
:102AB00045D03E494831884241D03D4988423ED0C8
:102AC0003B49183188423AD039493031884236D0B2
:102AD00037494831884232D03549603188422ED05A
:102AE0003349783188422AD031499031884226D002
:102AF0002F49A831884222D0304988421FD02F491F
:102B0000143188421BD02D492831884217D02B49D7
:102B10003C31884213D002E01DE017E018E027495D
:102B2000503188420BD025496431884207D023496F
:102B30007831884203D021498C31884229D12046FE
:102B4000FEF74AF9A06880280CD00CE0102273E749
:102B50004FF4804270E74021616584F835800120A0
:102B6000BDE8F09F6560216E20790860D4E9190105
:102B700041606068401E072808D82046FEF77AF9B1
:102B8000E06E0560D4E91C01416002E0E56625675E
:102B900065670120656584F835000020E0E70000E6
:102BA0001000024040000240580002407000024005
:102BB000100402403F8010FE0010005C08540258D0
:102BC0000F00FEFF2DE9F84F04008C464FF0000087
:102BD000009014D094F83400012812D094F83550A5
:102BE0000120002184F83400012D0CD0C002606562
:102BF0000120009084F834100098BDE8F88F01207F
:102C0000FBE70220F9E78C4D0226206884F8356046
:102C1000A8428A4D61658A4E8A4FDFF82C82DFF820
:102C20002C92DFF82CA2DFF82CB226D0A84224D0B8
:102C3000B04222D0B84220D040451ED048451CD0DA
:102C400050451AD0584518D08349884215D082493A
:102C50001831884211D08049303188420DD07E49E8
:102C60004831884209D07C496031884205D07A4990
:102C70007831884201D078499031016821F0010112
:102C8000016061462046FEF759F96B492068884289
:102C90002CD0A8422AD0B04228D0B84226D04045F5
:102CA00024D0484522D0504520D058451ED06A4AED
:102CB00090421BD0684A1832904217D0664A303290
:102CC000904213D0644A483290420FD0624A603238
:102CD00090420BD0604A7832904207D05E4A9032E0
:102CE000904203D05C4AA83290420CD1026822F094
:102CF0001E0242F016020260206C88B12068026851
:102D000042F008020BE0026822F00E0242F00A02D2
:102D10000260206C20B12068026842F00402026068
:102D2000206888424BD0A84249D0B04247D0B84230
:102D300045D0404543D0484541D050453FD0584507
:102D40003DD0454A90423AD0434A1832904236D05C
:102D5000414A3032904232D03F4A483290422ED0DF
:102D60003D4A603290422AD03B4A7832904226D087
:102D7000394A9032904222D0374AA83290421ED02F
:102D8000364A90421BD0354A1432904217D0334A0B
:102D90002832904213D0314A3C3290420FD02F4A11
:102DA000503290420BD02D4A6432904207D02B4AC9
:102DB0007832904203D0294A8C3290420DD1206E55
:102DC0000268D20303D5026842F480720260E06EAA
:102DD00018B1026842F4807202602068884226D0EE
:102DE000A84224D0B04222D0B84220D040451ED0C4
:102DF00048451CD050451AD0584518D0164988422D
:102E000015D015491831884211D013493031884204
:102E10000DD011494831884209D00F4960318842AC
:102E200005D00D497831884201D00B4990310168B5
:102E300041F001010160DFE610000240280002407D
:102E400040000240580002407000024088000240EA
:102E5000A0000240B800024010040240085402588A
:102E600070B5044600F0D0F90546601C02D0044855
:102E70000078044400F0C8F9401BA042FAD370BDAA
:102E800034000024F0B5B7B0142130A8FDF76AFA79
:102E90002D480168002955D101210160C0216846F3
:102EA000FDF760FA002012904FF080710646CDE9E0
:102EB0000010684601F0AAFF08B1FEF75AF923484E
:102EC000016841F480510160006830A9022400F4D7
:102ED0008050359003274FF683700C25349581E898
:102EE000D1001B4800F06AF830A948F23710349539
:102EF00081E8D100174800F061F830A94CF2037066
:102F0000349581E8D100144800F058F830A94FF604
:102F10003F00349581E8D100104800F04FF8CDE92A
:102F20003054329630A90E48CDE9337500F046F89A
:102F300020203495CDE930040A4830A9CDE9324744
:102F400000F03CF837B0F0BD00000024D444025833
:102F50000010025800180258000C025800140258C1
:102F600000080258001C0258B0F5805F10B516D159
:102F700000F04AF90A4980B28881CA899042A0EBE0
:102F8000020202D84FF6FF731A440A82C88190B237
:102F9000C01F062803D8BDE810400AF0B3BE10BD1C
:102FA0000C0000244FF0B04110B5D1F88820024247
:102FB00003D0C1F88800FFF7D7FF10BD2DE9F84F07
:102FC00003247D4D00234FF001094FF0B04B4FF02B
:102FD0000F0AE9E009FA03F73A4076D00E7906F0D5
:102FE0000306012E01D0022E18D1D0F808C04FEAF6
:102FF000430ECE6804FA0EF82CEA080C06FA0EF618
:1030000046EA0C068660D0F804C00E792CEA070C5C
:10301000C6F300169E4046EA0C0646600E79F6435B
:10302000B6070BD0C6684FEA43088F6804FA08FC5D
:1030300026EA0C0607FA08F73743C7600E7906F050
:103040000306022E12D1DE080F694FEA437C00EB23
:103050008606B646366A4FEADC6C0AFA0CF807FABE
:103060000CF726EA08063743CEF820700F79066879
:103070004FEA430807F0030704FA08FC07FA08F7C9
:1030800026EA0C06374307604E6816F4403F1CD012
:103090004A4E376847F00207376036689F0706F0E8
:1030A0000206009623F0030606F1B046B6463F0F2F
:1030B000D6F80864DFF808810AFA07FC404526EADA
:1030C0000C0603D14FF0000C41E06CE0DFF8F4C0D7
:1030D000604502D14FF0010C39E0DFF8ECC06045EB
:1030E00002D14FF0020C32E0DFF8E0C0604502D1BF
:1030F0004FF0030C2BE0DFF8D8C0604502D14FF051
:10310000040C24E0DFF8CCC0604502D14FF0050C80
:103110001DE0DFF8C4C0604502D14FF0060C16E098
:10312000DFF8B8C0604502D14FF0070C0FE0DFF8C0
:10313000B0C0604502D14FF0080C08E0DFF8A4C031
:10314000604502D14FF0090C01E04FF00A0C0CFA77
:1031500007FC4CEA060CCEF808C44F68DBF80060A8
:10316000FF0226EA020600D516435F46CBF8006050
:10317000D1F804C0DBF804605FEA8C2C26EA020672
:1031800000D516437E606E684F6826EA0206BF03CC
:1031900000D516436E602E684F6826EA0206FF03CC
:1031A00000D516432E605B1C0A6832FA03F67FF4E2
:1031B00011AFBDE8F88F000080000058F4440258B9
:1031C000000002580004025800080258000C02587F
:1031D000001002580014025800180258001C02582F
:1031E00000200258002402580069084000D0012045
:1031F00070470AB1816170470904FBE70148006824
:10320000000C70470010005C0148806870470000A7
:103210003400002430B590F84120202A24D190F8C1
:103220004020012A20D0012380F84030242280F859
:103230004120202300240268156825F0010515604F
:103240000268156825F480551560026815680D43FD
:10325000156001680A6842F001020A6080F8413096
:1032600080F84040002030BD022030BD30B590F8DD
:103270004120202A22D190F84020012A1ED001238B
:1032800080F84030242280F8412020240025026864
:10329000136823F0010313600268136823F470635A
:1032A00043EA0121116001680A6842F001020A60E4
:1032B00080F8414080F84050002030BD022030BDF1
:1032C00070B5040004D094F84100002510B106E068
:1032D000012070BD204684F8405000F04DF82420B5
:1032E00084F841002068016821F001010160D4E9FF
:1032F000001020F0706008612068816821F40041AE
:103300008160E06821680128A06806D040F404408C
:103310008860E068022803D006E040F40040F7E748
:1033200021684FF40060486020212068114A4368FA
:10333000134343602068C26822F40042C26054F81C
:10334000106B0DCC104340EA0320F06054F81C3C95
:10335000D4E900021043186054F81C0D026842F0D2
:1033600001020260656484F84110256384F84250CC
:10337000002070BD0080000210B5B6B004461421D4
:1033800030A8FCF7EFFFC0216846FCF7EBFF1949B6
:10339000206888422BD10020219008210446CDE9E5
:1033A0000010684601F032FD08B1FDF7E2FE124858
:1033B000016841F002010160006830AB122100F0A9
:1033C000020035904FF44070042283E813000B484C
:1033D00030A9CDE93342FFF7F1FD07480830016815
:1033E00041F400110160006800F40010359036B01F
:1033F00010BD000000540040E04402580004025890
:1034000002488168027811448160704734000024CA
:10341000032010B500F018FA02F070FB0F4A1049B3
:1034200014681368C4F3032203F00F038A5CC95CB9
:1034300002F01F0201F01F01D0400A4A20FA01F1F8
:103440001160094908600F2000F010F808B1012050
:1034500010BD00F0BDF9002010BD00001844025856
:10346000481E0108440000244000002410B5102824
:1034700004468AB02CD200220146372000F0C4F95D
:10348000372000F0B3F9174804601748016841F08D
:1034900020010160006809A900F02000089068463A
:1034A00002F0B8FA0598B0B102F004FB40000F49F1
:1034B00000220F4CB0FBF1F10E4840F2E7330460FC
:1034C000C0E90332491EC0E9011203F01DFD28B115
:1034D00001200AB010BD02F0EDFAE8E7054803F05C
:1034E0008DFDF6E738000024E844025840420F0002
:1034F00000140040AC0700242DE9F041044690F888
:10350000A00016460F4601281DD0012584F8A050C2
:10351000022084F8A10006EB860000EBC6003422EE
:1035200004EB80003830FCF704FF32463946204671
:1035300004F088FB216800204D6284F8A15084F8D3
:10354000A000BDE8F0810220FBE770472DE9F041C3
:103550000446006800274FF00408856B466B690736
:1035600015D5710713D5426B22F00402426320681F
:10357000C0F83C80D4F8A40040F00100C4F8A400D6
:1035800084F8A180204684F8A070FFF7DEFFA8072A
:1035900016D5B00714D520680222436B23F002032E
:1035A00043632068C263D4F8A40040F00200C4F86A
:1035B000A40084F8A180204684F8A070FFF7C5FF1E
:1035C00005EA06004FF00108C0070ED021684A6BDB
:1035D00022F001024A632168C1F83C8084F8A1808E
:1035E000204684F8A07000F091F8280710D5300725
:1035F0000ED520680822436B23F00803436320683C
:10360000C26384F8A180204684F8A07000F0DEF840
:10361000BDE8F0812DE9F041040004D094F8A10048
:10362000002518B107E00120BDE8F081204684F8AC
:10363000A05000F06DF83448022184F8A110012256
:1036400002CC8B6923F070438B6194E84A001943E4
:10365000E3681E4354F8043D31439E693143996148
:1036600021688B6803408B602168A68AA7698B68F4
:103670003B4343EA06438B602168CB680340CB6041
:103680002168A38B276ACE683E4346EA0346CE6094
:1036900021680B6903400B612368A68CA76A19692E
:1036A000394341EA0641196121684B6903404B6186
:1036B0002068A38D266B4169314341EA0341416192
:1036C000236894F8351094F83600DE6A000406F09A
:1036D0007F46DE62236840EA012094F83460D96AAC
:1036E00031430143D9622068416B41F006014163D7
:1036F0002068816941F001018161C4F8A45084F817
:10370000A120002090E7000000F800F070470000C2
:10371000F0B587B0044614216846FCF723FE26491D
:103720002068884245D12548016841F008010160C0
:10373000006800F0080005902048001F016841F46F
:1037400080610160016801F480610591016841F4C4
:1037500000710160016801F400710591016841F494
:1037600080710160006802240025694600F48070C1
:10377000059003260E27FF208DE8F1001048FFF783
:103780001DFC4FF6FF7069468DE8F1000D48FFF70C
:1037900015FC4FF4704069468DE8F1000A48FFF7C8
:1037A0000DFC00220C21582000F02EF8582000F0CB
:1037B0001DF807B0F0BD000000100050E4440258AE
:1037C00000280258002402580020025870470000C8
:1037D000054808B5016841F002010160006800F089
:1037E0000200009008BD0000F4440258002809DBE4
:1037F000410900F01F028900012001F1E021904001
:10380000C1F80001704700000E4BF0B41B680D4674
:10381000C3F30223C3F10706042E00D90426191DA1
:10382000072901D2002300E0DB1E012404FA06F17F
:103830009C40491E2940641E994014402143F0BC1D
:1038400009F072BB0CED00E0064900F0070210B56C
:103850004FF6FF040868044B204040EA022018435A
:10386000086010BD0CED00E00000FA0501680123BE
:10387000C0F80035002280F8F4248869044A40F03A
:1038800000608861486D1043486500207047000063
:103890000300001070470068416200207047F0B5D7
:1038A00003685D6A39B19F6A4C1E00204FF482762E
:1038B00005EB17450BE045EA0240986210E0471C13
:1038C00006EB800053F800C0F8B205EB1C45A0429F
:1038D000F5D34FF4807000EB810045EA02421A50A4
:1038E0000020F0BDD0F8080508F0DBB801EBC102FC
:1038F00000EB8202D0F80805926C08F02EB801EBBC
:10390000C10200EB8202D0F80805D2F8882208F044
:1039100080B8D0F8080508F0C6B80A0601F00F0113
:1039200001EBC10100EB810101D53C3101E001F562
:103930001F71006809F018B901F00F020B0670B58D
:1039400002EBC20104464FF001004FF0000504EB0A
:10395000810103D581F83D003C3103E081F87D52BF
:1039600001F51F710A7094F8BC24012A08D084F86C
:10397000BC04206808F014FE002084F8BC5470BD1C
:10398000022070BD70B54268044601F00F009042FD
:1039900001D9012070BD01F00F024FF000050B06A8
:1039A00002EBC2014FF0010204EB810103D581F863
:1039B0003D203C3103E081F87D5201F51F718D708F
:1039C000087094F8BC04012808D084F8BC2420684E
:1039D00008F056FF002084F8BC5470BD022070BD72
:1039E00010B5044690F8BC0401280AD0012084F8E0
:1039F000BC0420680A0606D501F00F0109F028F979
:103A000003E0022010BD09F005F9002084F8BC0491
:103A100010BD01F00F0101EBC10100EB8100D0F8F6
:103A2000900270472DE9F04101F00F0604460D06A3
:103A30004FF0010006EBC6014FF0000504EB8101D9
:103A400003D581F83D003C3103E081F87D5201F55A
:103A50001F714F788A600B710E7007B14E83022B75
:103A600000D14D7194F8BC24012A09D084F8BC041B
:103A7000206808F0E3FC284684F8BC54BDE8F081D7
:103A80000220FBE770B501F00F05002405EBC5012E
:103A900000EB810101F5227181E81C0001F80B4C5B
:103AA00001F80C5DC368012B00D1CA61027B00687C
:103AB00008F03EFF002070BD70B50D464168044619
:103AC00005F00F00884201D9012070BD29064FF092
:103AD00000064FF0010207D500EBC00104EB8101A5
:103AE00081F83D203C3107E005EBC50104EB810185
:103AF00081F87D6201F51F718A70087094F8BC042A
:103B0000012807D084F8BC24206808F0E5FE2807C7
:103B100002D007E0022070BD217B04F2C44220687D
:103B200008F082FE002084F8BC6470BD70B501F01E
:103B30000F04002504EBC401012600EB810148318C
:103B400081E82C0001F80B6C01F80C4DC368012BC7
:103B500000D1CA61027B006808F0EAFE002070BD57
:103B60002DE9FC5F05680446284609F09EF8002808
:103B70007ED1206809F0C5F8002879D0D5F808086A
:103B8000C0F30D20C4F8FC04206809F0BAF88007DF
:103B900004D52068416901F002014161206809F003
:103BA000B0F8C10604F2C440009034D520688169A1
:103BB00021F0100181612F6A07F00F01C7F3434024
:103BC00001EBC101022804EB810606F51F7602D045
:103BD000062811D01AE047F6F070074216D0C7F356
:103BE0000A12F1681746284609F08FF8F1687069E3
:103BF0003944F160384408E000990822284609F069
:103C000084F87069C7F30A110844706120688169FB
:103C100041F010018161206809F073F800034FF052
:103C2000000A4FF0020B4FF001097CD520680026F6
:103C300009F046F8074674E0F80770D02068F1B242
:103C400009F057F88046C00707D005EB4611C1F8C8
:103C5000089B3146204604F0DDFE5FEA087025D55A
:103C600005EB46110820C1F8080BFC49206800E06C
:103C700042E2026C00EB461001928A42D0F8081B27
:103C800005D9090403D54FF40041C0F8081B2046AC
:103C900000F032FBF1490198884207D9E068012819
:103CA00004D120680121009A08F0BEFD5FEAC860D7
:103CB00004D505EB46111020C1F8080B5FEA8870A7
:103CC0001CD56869000605D5D5F8040840F4806164
:103CD000C5F8041806EBC60004EB800090F87F12CC
:103CE00000F51F70012905D180F803A02046F1B22C
:103CF00000F008FA05EB4611C1F808BB5FEA8860DE
:103D000004D505EB46112020C1F8080B5FEA884076
:103D100005D505EB46114FF40050C1F8080B7F089C
:103D2000761C002F88D1206808F0EBFF40036FD588
:103D3000206808F0BEFF0026074667E0F80763D05A
:103D40002068F1B208F0C3FF8046C00723D0D5F841
:103D5000342806F00F0C05EB461309FA0CF08243E9
:103D6000C5F83428C3F80899E06801280FD106EB9C
:103D7000C60004EB8000D0E911121144816436B909
:103D8000E06C20B920680121009A08F04DFD204622
:103D9000F1B2FFF7ABFD5FEA087004D505EB461101
:103DA0000820C1F808095FEAC86004D505EB461190
:103DB0001020C1F808095FEA486004D505EB4611F8
:103DC0004020C1F808095FEA887016D531462846B8
:103DD00008F03EFF06EBC60004EB800090F83F10B1
:103DE0003C30012905D180F803A02046F1B200F053
:103DF00085F905EB4611C1F808B95FEA086003D5FB
:103E00003146204604F06CFE7F08761C002F95D1C9
:103E1000206808F076FF002811DAD5F8040820F0B1
:103E20000101C5F8041894F8F40401283BD0204699
:103E300000F046FA2068416901F0004141612068C4
:103E400008F05FFF00050BD5D5F80808C00702D0C1
:103E5000204600F079FA2068416901F4006141616F
:103E6000206808F04EFF00010AD52068416901F082
:103E70000061416194F8F404E0B1204600F064FA76
:103E8000206808F03EFFC00472D5D5F8040820F081
:103E90000101C5F804182068102108F0D9FE00219E
:103EA0004FF67F322DE00021204684F8F4A4FFF77E
:103EB000F1FCBFE784F8F4942068406D0121C0F361
:103EC0008300C4F8F8042046FFF7E4FCD8E700BFFD
:103ED00005EB4110C0F80829D0F8003923F400138D
:103EE000C0F80039C0F8082BD0F8003B23F40013C9
:103EF000C0F8003BD0F8003B43F00063C0F8003B43
:103F0000491C60688842E3D8D5F81C0840F00111CC
:103F1000C5F81C18206B68B1D5F8840840F00B0177
:103F2000C5F88418D5F8440840F00B012846C5F8B8
:103F300044180DE0D5F8140842F22B010843C5F8E7
:103F40001408D5F8100840F00B012846C5F81018E1
:103F5000D0F8000820F4FE61C5F80018217B206825
:103F6000009A08F061FC2068416901F480514161C8
:103F7000206808F0C6FE800417D5206808F09EFA75
:103F8000206808F085FE206101F072FD217C236825
:103F9000CAB20146184608F019FF204600F07AF927
:103FA0002068416901F400514161206808F0A9FED0
:103FB000000707D5204600F087F92068416901F025
:103FC00008014161206808F09CFE000616D5A8692A
:103FD000012620F08001A9610DE000BF06EBC600BC
:103FE00004EB800090F87F02012803D12046F1B253
:103FF000FFF793FC761C6068B042EFD8206808F0A9
:1040000080FEC00221D501264F4616E006EBC60110
:1040100005EB461004EB8101D0F8000991F840202F
:10402000012A09D1002807DAF0B281F83F7040F088
:1040300080012046FFF771FC761C6068B042E5D82D
:104040002068416901F480114161206808F059FE3F
:10405000800234D501204B4629E000000A30544F3D
:1040600000EBC00205EB401104EB8202D1F8001B0B
:1040700092F88062012E19D1002917DA94F8FC64B5
:1040800001F4803106F00106B1420FD182F87F328F
:10409000A96941F08002AA616969090606D4D5F8C8
:1040A000040840F40070C5F8040803E0401C61688F
:1040B0008142D5D82068416901F40011416120682E
:1040C00008F01FFE400007D52046FFF70BFC2068D4
:1040D000416901F080414161206808F012FE40070B
:1040E0000AD520684568680702D52046FFF711FC0D
:1040F0002068416829434160BDE8FC9FD0F808056D
:1041000007F030BDD0F8080507F040BD2DE9F041BB
:1041100004008AB005D094F8BD040025266820B1BB
:1041200008E001200AB0BDE8F081204684F8BC54C4
:1041300000F066F8032084F8BD04F06BC00500D4DD
:10414000E560206808F06AFB04F110016846282247
:104150008846FCF7EEF894E80F0008F0BDF9022756
:10416000D8BB2068002108F0F0FD0020012610E0F7
:1041700000EBC001421C04EB810181F83D6081F835
:1041800040504D648D64CD6481F83C00A1F8560028
:10419000D0B261688142EBD8002011E000EBC00191
:1041A000421C04EB810181F87D5281F88052C1F8F4
:1041B0008452C1F88852C1F88C5281F87C02D0B286
:1041C00061688142EAD8282241466846FCF7B1F886
:1041D00094E80F0008F066FA10B184F8BD74A0E707
:1041E000606A84F8385084F8BD64012802D1204602
:1041F000FFF73CFB206808F047FA002092E7000038
:10420000F0B587B0044614216846FCF7ABF81E49A8
:104210002068884236D100F0D9F81C48016841F086
:1042200001010160006802AA0224194F00F0010098
:10423000059003250A26012182E86200E002694612
:10424000CDE900043846FEF7B9FE02AA0021A0021B
:1042500082E86200CDE9000469463846FEF7AEFE0A
:104260000A480838016841F00061016000680022D6
:104270000F2100F0006005906520FFF7C5FA65206A
:10428000FFF7B4FA07B0F0BD00000840E044025860
:104290000000025870B504460069012570B102287B
:1042A00001D0FCF766FFD4F80805294607F0DDFCCD
:1042B000D4F80805BDE8704007F091BC0025F2E78E
:1042C000D0F8080507F0BABCD0F8080507F0C0BC64
:1042D00010B5044690F8BC0401280BD0012084F8E6
:1042E000381084F8BC04206808F05EFD002084F8D3
:1042F000BC0410BD022010BDD0F8082500F2C44156
:10430000104607F0BEBC10B590F8BC140446006817
:10431000012909D0012184F8BC14C16BC90509D455
:10432000A16A012902D005E0022010BD816B41F491
:1043300080318163206808F066FC206808F096F9F7
:10434000002084F8BC0410BD10B50446D0F8080560
:1043500007F0D9FC2068D0F8001E41F00101C0F838
:10436000001E206A002804D00248016841F00601BE
:10437000016010BD10ED00E0134970B50A68D2432A
:10438000520705D5096801F00701814213D118E0F1
:104390000A6822F0070202430A60FEF735FF0A4D61
:1043A0004FF47A760446083D07E000BFFEF72CFF85
:1043B000001BB04201D9012070BD2868C0438004B1
:1043C000F4D4002070BD00000C4802580248016877
:1043D00041F08071016070470C4802582DE9F84F98
:1043E0001E4615468A460446FEF70EFF814694F89F
:1043F000400001280ED001274FF0000884F84070DB
:1044000094F84100012807D05FF0020084F8408052
:10441000BDE8F88F0220FBE74221C4F8448084F80D
:104420004110002220214B462046009604F01AFD40
:104430000028EBD121682868886221686868486292
:104440002168A868C86220682969026822F44002CD
:1044500042F4800211430160E9684FF00062204697
:10446000CAF82810514604F0C3FB01224B4608212C
:104470002046009604F0F6FC0028C7D122680821E7
:10448000D16084F84170C1E72DE9F84F17468B469B
:104490000446FEF7B9FE824694F8400001280ED08B
:1044A00001264FF0000884F8406094F8410001288C
:1044B00007D0022584F840802846BDE8F88F022006
:1044C000FBE74FF00209C4F8448084F841900022D1
:1044D000202153462046009704F0C4FC0500E9D192
:1044E00000225946204604F083FBDBF8240058B92B
:1044F0000122534602212046009704F0B3FC050038
:10450000D8D12168C1F80C9084F84160D2E700004E
:10451000F8B50446FEF778FE05461CB194F8410054
:1045200010B107E00120F8BD204600F047F841F245
:104530008830A06420686FF0FF02A168036802EB76
:10454000012223F4F85111430160A06C00222021C4
:104550002B460090204604F085FC0028E3D1226819
:10456000D4E907352679E168176845EA0665DFF87A
:1045700044C01943104B29430025012607EA0C07C4
:10458000394311602268D4E90517B4F810C0D2F895
:1045900004E039430EEA030E4EEA0C43194351601E
:1045A00021680A6842F001020A60656484F841608B
:1045B000F8BD00002FFFFF00FEF8E0FF2DE9F041FD
:1045C000B6B00446142130A8FBF7CCFEC0216846E3
:1045D000FBF7C8FE2A49206888424DD1002013907D
:1045E0004FF000710446CDE90010684600F00EFC63
:1045F00008B1FCF7BEFD2348016841F48041016029
:10460000006800F4804035901E480C30016841F08D
:1046100040010160016801F040013591016841F0FD
:1046200020010160006832AA022500F020003590C8
:1046300003260A27012182E8C2004020CDE9300587
:10464000114830A9FEF7BAFC09213294DFF83C800A
:104650004FF49860CDE93361CDE9300530A940468B
:10466000FEF7ACFC300232AACDE9300530A9404655
:1046700082E8D000FEF7A2FC36B0BDE8F081000071
:1046800000500052D4440258001802580014025836
:104690002DE9F84F15460E460446FEF7B5FD824655
:1046A0002068816994F8403000F12009012B0DD079
:1046B00001274FF0000884F8407094F84120012A47
:1046C00006D0022084F84080BDE8F88F0220FBE786
:1046D000C4F84480A6B3222284F841200269521C07
:1046E000A2630269521C62632663426922F040623F
:1046F00042F080624261206881610EE0062120461E
:1047000004F0B0FBC8B999F80000216B0870206B69
:10471000401C2063A06B401EA063A06B53464FF06B
:10472000010200950028E9D14FF00201204604F073
:1047300099FB10B922680221D16084F84170C1E769
:10474000FFE7616C012041F008016164BAE70000F5
:1047500010B501F08DF905490968054AC1F3021148
:10476000515C01F01F01C84010BD000020440258F8
:10477000481E01084A4930B5494C0B1D0A680C34E3
:1047800009681D68246802F0030305F00102C1F303
:104790000511C4F3CC04002914FB02F200EE102A28
:1047A000F8EE400A76D0414A9FED3E1ADFED3E1A00
:1047B000B7EE000A23B1012B5AD0022B18D15CE0CE
:1047C000374C283C23689B0612D5394B246801EEF0
:1047D000901A1168C4F3C104F8EE612AE34001EEB7
:1047E000903AC1F30801F8EE611A81EEA22A07E0BF
:1047F00002EE101A1168F8EE422A81EEA22A45E074
:1048000001EE901A1168F8EE611A40EE811A71EE0D
:10481000800A62EE200AC1F3462101EE101AB8EEBA
:10482000411A31EE001AC0EE811ABCEEE11A80ED99
:10483000001A1168C1F3064101EE101AB8EE411AD0
:1048400031EE001AC0EE811ABCEEE11A80ED011AB9
:104850001168C1F3066101EE101AB8EE411A31EE8B
:10486000000A80EE801ABCEEC10A80ED020A30BD5B
:1048700001EE901ADFED0F2A03E001EE901ADFED52
:104880000E2A1168F8EE611A82EEA12AC1F308011E
:10489000B6E7FFE7002101604160816030BD0000A4
:1048A00028440258000000390024744C3044025857
:1048B0000090D0030024744A20BCBE4B494930B557
:1048C000484C0B1D0A68143409681D68246802F0FE
:1048D0000303C5F30012C1F30531C4F3CC0400296E
:1048E00014FB02F200EE102AF8EE400A75D03F4A9F
:1048F0009FED3D1AB7EE000A6BB1DFED3D1A012BBB
:1049000001D0022B64D002EE101A1168F8EE422A90
:1049100081EEA22A21E0334C283C23689B0612D565
:10492000344B246801EE901A1168C4F3C104F8EE08
:10493000612AE34001EE903AC1F30801F8EE611AF2
:1049400081EEA22A0BE001EE901ADFED2B2A00BFC8
:10495000F8EE611A116882EEA12AC1F3080101EE96
:10496000901A1168F8EE611A40EE811A71EE800A11
:1049700062EE200AC1F3462101EE101AB8EE411A88
:1049800031EE001AC0EE811ABCEEE11A80ED001A79
:104990001168C1F3064101EE101AB8EE411A31EE6A
:1049A000001AC0EE811ABCEEE11A80ED011A1168FE
:1049B000C1F3066101EE101AB8EE411A31EE000A99
:1049C00080EE801ABCEEC10A80ED020A30BD04E020
:1049D00001EE901ADFED092ABAE70021016041607B
:1049E0008160F3E728440258000000393844025837
:1049F0000024744A0090D0030024744C20BCBE4BA9
:104A0000494930B5484C0B1D0A681C3409681D68BB
:104A1000246802F00303C5F30022C1F30551C4F377
:104A2000CC04002914FB02F200EE102AF8EE400A32
:104A300075D03F4A9FED3D1AB7EE000A6BB1DFED2E
:104A40003D1A012B01D0022B64D002EE101A11681E
:104A5000F8EE422A81EEA22A21E0334C283C23685A
:104A60009B0612D5344B246801EE901A1168C4F3EA
:104A7000C104F8EE612AE34001EE903AC1F3080167
:104A8000F8EE611A81EEA22A0BE001EE901ADFED3A
:104A90002B2A00BFF8EE611A116882EEA12AC1F339
:104AA000080101EE901A1168F8EE611A40EE811AC1
:104AB00071EE800A62EE200AC1F3462101EE101A5F
:104AC000B8EE411A31EE001AC0EE811ABCEEE11ABE
:104AD00080ED001A1168C1F3064101EE101AB8EE1C
:104AE000411A31EE001AC0EE811ABCEEE11A80EDD7
:104AF000011A1168C1F3066101EE101AB8EE411AED
:104B000031EE000A80EE801ABCEEC10A80ED020A86
:104B100030BD04E001EE901ADFED092ABAE700216A
:104B2000016041608160F3E72844025800000039C9
:104B3000404402580024744A0090D0030024744C6E
:104B400020BCBE4B2DE9F04FAC4A0546DFF8A8A2C9
:104B500080F48070DFF8AC9289B01311AA4C08433E
:104B6000A748AAF104064FF0805C4FF000582CD003
:104B700085F400770F4357D0DFF87CB285F4806767
:104B80000F430BF1080B61D085F400670F4374D01D
:104B900085F480570F436ED085F400570F434FF4D0
:104BA00080394FF4003E67D085F400270F4371D061
:104BB00085F480370F436ED085F480460E436BD06A
:104BC00085F400420A4368D02AE0DAF8001001F0C8
:104BD0000701052924D2DFE801F075BC7D25B1006D
:104BE00006A8FFF7C7FD079809B0BDE8F08F684633
:104BF000FFF764FE0098F7E703A8FFF701FF0398AB
:104C0000F2E72068C0F3C10022FA00F0ECE7226866
:104C1000D20571D561456FD11846E5E74145E3D02E
:104C20000020E1E74846DFE7DAF8001001F4E07120
:104C300080294FD004DC002944D04029F0D188E0FD
:104C4000C029EFD0B1F5807FEAD177E0DBF8001022
:104C500001F46001B1F5800F3CD004DC91B3B1F5F3
:104C6000001FDDD175E0B1F5C00FDBD0B1F5000F4D
:104C7000D6D163E001E018E030E0DBF8001001F08D
:104C8000E061B1F1007F25D008DCD9B1B1F1807FBE
:104C9000C6D15EE049E06CE079E09CE0B1F1407F94
:104CA000C0D0B1F1806FBBD148E0DAF8001001F458
:104CB000E041B1F5005F0DD005DC19B1B1F5805FC1
:104CC000AED146E094E0B1F5405FABD0B1F5804F96
:104CD000A6D133E020688000A2D58DE7DAF8001075
:104CE00001F4E021B1F5403F6CD006DC61B14945EB
:104CF0007AD0714594D157E037E0B1F5802F65D077
:104D0000B1F5A02F8CD10CE000F0D4FE6CE7684622
:104D1000FFF7D4FD019867E703A8FFF771FE049839
:104D200062E721688903F1D47AE7DBF8001011F417
:104D300040310ED0494510D07145F5D13168256814
:104D400001F040516D077FF562AF00297FF45FAF3E
:104D500057E720680001E7D549E720688000E3D5E0
:104D600003A8FFF74DFE05983EE722689203DBD5C6
:104D700054E7306810F480303AD04845D4D12068E8
:104D80000001D1D56846FFF799FD02982CE7DBF8C2
:104D9000001001F0E041B1F1405F13D008DC71B1C7
:104DA000614521D04145BFD120688000B4D437E7A8
:104DB000B1F1804F0AD0B1F1A04FB2D030E7FFF788
:104DC000C7FC11E720684007AED51AE72068C00588
:104DD000AAD521E708E0DAF8001011F04051A0D080
:104DE000614505D041459FD1206800018FD417E768
:104DF0002068800198D5F3E6504402580090D00313
:104E000040787D010080BB00004402582DE9FE4F30
:104E10000546DFF8E48350F8081B0024F64FC94329
:104E2000019005F12800264608F1240800900801A9
:104E30001DD4A86E50B1B0F5801F0CD0B0F5001F86
:104E40000ED0B0F5401F1ED001240FE0386840F4AA
:104E50000030386017E00198022104F027F803E0E1
:104E60000098022104F0B2F804000CD026462888ED
:104E7000C043C00523D4A86D05281ED2DFE800F08A
:104E80000C11161B1B00AA6ED8F8001021F440115B
:104E90001143C8F80010EAE7386840F40030386081
:104EA00009E00198002104F001F803E000980021D6
:104EB00004F08CF8044674B100E0012426462888EA
:104EC000C043800528D4E86D80281ED00CDC90B14A
:104ED00040280ED114E0AA6DD8F8001021F0070187
:104EE0001143C8F80010EAE7C02813D0B0F5807F5E
:104EF00010D001240FE0386840F40030386009E039
:104F00000198002103F0D2FF03E00098002104F093
:104F10005DF804469CB126462888DFF8DC92C04341
:104F200009F12C0940052CD4D5F8A800B0F5800F64
:104F300020D00DDCA0B1B0F5001F0FD115E0EA6D57
:104F4000D8F8001021F4E0711143C8F80010E3E72D
:104F5000B0F5C00F13D0B0F5000F10D001240FE052
:104F6000386840F40030386009E00198002103F00F
:104F70009DFF03E00098002104F028F804467CB16E
:104F800026462888C04300052DD4D5F8AC00B0F1E2
:104F9000007F21D00EDCA8B1B0F1807F10D116E0E7
:104FA000D5F8A820D9F8001021F460011143C9F800
:104FB0000010E6E7B0F1407F13D0B0F1806F10D061
:104FC00001240FE0386840F40030386009E00198AF
:104FD000002103F06BFF03E00098002103F0F6FFCF
:104FE000044674B126462868C04380011FD4E86C8B
:104FF000D8B110280FD0202812D0302815D0012485
:1050000014E0D5F8AC20D9F8001021F0E06111438C
:10501000C9F80010E7E7386840F40030386004E071
:105020000198022103F042FF044674B12646288805
:10503000C043C0042BD4286EB0F5005F20D00DDC37
:10504000A0B1B0F5805F0FD115E06B48EA6C20305D
:10505000016821F0300111430160E8E7B0F5405FDD
:1050600013D0B0F5804F10D001240FE0386840F421
:105070000030386009E00198002103F017FF03E0D9
:105080000098002103F0A2FF04468CB12646288830
:10509000C043800429D4686EB0F5403F23D010DCB3
:1050A00008B3B0F5803F14D0B0F5003F0FD115E044
:1050B0002A6ED8F8001021F4E0411143C8F800101E
:1050C000E5E7B0F5802F0ED0B0F5A02F0BD001246E
:1050D0000AE00198012103F0E9FE03E000980121B4
:1050E00003F074FF044694B126462888C043400468
:1050F0002AD4D5F8B000B0F1405F23D010DC08B35B
:10510000B0F1805F14D0B0F1005F0FD115E06A6E8E
:10511000D8F8001021F4E0211143C8F80010E4E7AA
:10512000B0F1804F0ED0B0F1A04F0BD001240AE0B7
:105130000198012103F0BAFE03E00098012103F079
:1051400045FF044674B126462888C04300041FD496
:10515000286FD8B1B0F1805F0ED0B0F1005F10D0F1
:10516000012414E0D5F8B020D9F8001021F0E04176
:105170001143C9F80010E7E7386840F400303860A0
:1051800004E00198012103F091FE044674B1264623
:105190002868C043C0011ED4A86CD0B101280ED02D
:1051A000022811D0032814D0012413E02A6FD8F864
:1051B000001021F040511143C8F80010E8E73868AA
:1051C00040F40030386004E00198022103F06EFEE4
:1051D0000446ACB126462868DFF81CB0C043ABF1EA
:1051E0001C0B400252D40548016841F480710160F3
:1051F000FEF70AF8824611E02C4402580048025893
:10520000FA48AA6C016821F0030111430160E2E74A
:10521000FDF7FAFFA0EB0A00642835D8F4480068CF
:10522000C005F5D58CBBDFF8C4A3B5F8B4100AF1FE
:10523000240ADAF8000001F4407100F4407088425A
:1052400011D0DAF80010DAF8002021F4407142F4AD
:105250008032CAF80020DAF8002022F48032CAF83E
:105260000020CAF80010D5F8B400B0F5807F1AD13C
:10527000FDF7CAFF029012E0FDF7C6FF0299411A3E
:1052800041F2883081420AD9032426462878DFF883
:105290005CA3C0430AF1080AC00721D03CE0DAF859
:1052A00000008007E8D5D5F8B410C1F30120032829
:1052B00058460DD0016821F47C510160B5F8B42046
:1052C000DAF80010C2F30B021143CAF80010DDE750
:1052D000C84A036802EA111223F47C511143ECE737
:1052E000E86F182816D005DCA0B1082808D01028CF
:1052F00004D10AE020280DD028280BD001240AE090
:105300000198012103F0D2FD03E00098012103F090
:105310005DFE044664B126462878C04380071ED44B
:10532000A86F062819D2DFE800F0160C1116161621
:10533000EA6FDAF8001021F038011143CAF80010C2
:10534000EAE70198012103F0B1FD03E00098012193
:1053500003F03CFE04467CB100E001242646287898
:10536000C04340071FD4D5F89400062819D2DFE8BF
:1053700000F0160C11161616AA6FDAF8001021F0BC
:1053800007011143CAF80010E9E70198012103F071
:105390008DFD03E00098012103F018FE0446A4B13E
:1053A00000E0012426462878C04380062BD4D5F897
:1053B0009000B0F1405F24D011DC10B3B0F1805FF9
:1053C00015D0B0F1005F10D116E0D5F89420D9F8CF
:1053D000001021F007011143C9F80010E3E7B0F114
:1053E000804F0ED0B0F1A04F0BD001240AE00198FD
:1053F000002103F05BFD03E00098022103F0E6FDCD
:10540000044694B126462878C04340062BD4D5F8EC
:105410009C00B0F5406F24D011DC10B3B0F5806F64
:1054200015D0B0F5006F10D116E0D5F89020DAF85D
:10543000001021F0E0411143CAF80010E3E7B0F595
:10544000805F0ED0B0F5A05F0BD001240AE0019878
:10545000002103F02BFD03E00098022103F0B6FDCC
:10546000044694B126462878C04300062BD4D5F8CC
:10547000A000B0F5C04F24D011DC10B3B0F5005F30
:1054800015D0B0F5804F10D116E0D5F89C20D9F892
:10549000001021F4E0511143C9F80010E3E7B0F522
:1054A000004F0ED0B0F5204F0BD001240AE0019838
:1054B000002103F0FBFC03E00098022103F086FDCD
:1054C000044654B126462878C04300071ED4D5F8B8
:1054D0008400B0F5805F0AD00FE0D5F8A020D9F89D
:1054E000001021F460411143C9F80010EBE7009867
:1054F000022103F06BFD00B10126D5F88420DAF813
:10550000001021F440511143CAF800102878C0431C
:10551000C00613D4D5F89800B0F5807F05D1009867
:10552000022103F053FD00B10126D5F89820D9F8E7
:10553000001021F440711143C9F800102868C043DD
:10554000000316D4D5F8A40038B1B0F5803F09D0D7
:10555000B0F5003F0BD001240AE00198002103F0D0
:10556000A5FC03E00098022103F030FD04468CB155
:1055700026462868C043400322D4D5F88800B0F5F9
:10558000801F11D0B0F5001F13D0B0F5401F15D00B
:10559000012414E0D5F8A420D9F8001021F44031FA
:1055A0001143C9F80010E4E7386840F4003038606F
:1055B00004E00098012103F009FD04465CB1264691
:1055C0002868C043C00323D4286DA8B1B0F5803F3C
:1055D00017D001241BE0D5F88820DAF8001021F458
:1055E00040111143CAF80010EAE700004C44025889
:1055F00000480258CFFFFF00386840F400303860A0
:1056000004E00198022103F051FC0446E4B126466F
:105610002868C043800005D40098022103F0D6FC1E
:1056200000B101262868C04380031BD4D5F8800050
:10563000B0B1B0F5807F0FD0B0F5007F10D0B0F5DD
:10564000407F0DD001240CE05A482A6D016821F4F6
:10565000803111430160DBE7386840F40030386086
:10566000ECB326462868C043C00207D46A6FD8F856
:10567000001021F000411143C8F800102868C04311
:10568000C00008D4D5F8B820DBF8001021F4804120
:105690001143CBF800102868C043800207D4EA6E9B
:1056A000D8F8001021F080711143C8F80010286864
:1056B000C04340000CD4DBF8001021F40041CBF8CB
:1056C0000010DBF80010D5F8BC201143CBF8001017
:1056D0002868C04308D437486A6D016800E018E0C4
:1056E00021F04051114301602868C043000208D4F2
:1056F000D5F88C20DAF8001021F440011143CAF8E3
:10570000001028790024C04300F0010020430AD093
:105710000FE0D5F88020DAF8001021F44071114331
:10572000CAF800109EE70198002103F0BFFB00B10A
:1057300006462879C04300F00200204305D10198B5
:10574000012103F0B3FB00B106462879C04300F005
:105750000400204305D10198022103F0A7FB00B10A
:1057600006462879C04300F00800204305D1009880
:10577000002103F02BFC00B106462879C04300F05D
:105780001000204305D10098012103F01FFC00B157
:1057900006462879C04300F02000044304D1009855
:1057A000022103F013FC00B916B10120BDE8FE8F01
:1057B0000020FBE74C4402582DE9F05F04000F463F
:1057C0007ED0DFF83882D8F8000000F00F00B84231
:1057D0000CD2D8F8001021F00F013943C8F800109E
:1057E000D8F8000000F00F00B84269D12078844D4D
:1057F00040070AD52069296801F07001884204D960
:10580000296821F070010143296020787C4E361D03
:1058100000070AD56069316801F07001884204D937
:10582000316821F07001014331602078C0060AD54B
:10583000A069316801F4E061884204D9316821F43B
:10584000E061014331602078DFF8B4B180060BF1EC
:10585000080B0CD5E1695846DBF8002002F0700215
:10586000914204D9026822F070020A430260207853
:1058700080070AD5E068296801F00F01884204D941
:10588000296821F00F01014329602078C0073ED02C
:105890005B49A2682868183920F4706010432860BA
:1058A0006068022818D0032819D00968012819D087
:1058B000490700294ADADFF848A1AAF1080A00E0FE
:1058C00044E0DAF8002022F007020243CAF8002080
:1058D000FDF79AFC814612E009688903E9E7096847
:1058E0008901E6E7C905E4E7FDF78EFCA0EB0901B5
:1058F00041F28830814202D90320BDE8F09F6168FF
:10590000DAF8000000F03800B0EBC10FECD12078DD
:1059100080070AD5E068296801F00F01884204D2A7
:10592000296821F00F0101432960D8F80010404692
:1059300001F00F01B9420BD9016821F00F01394381
:105940000160006800F00F00B84201D00120D4E7E8
:10595000207840070AD52069296801F07001884243
:1059600004D2296821F070010143296020780007E2
:105970000AD56069316801F07001884204D231684B
:1059800021F07001014331602078C0060AD5A0697A
:10599000316801F4E061884204D2316821F4E061A9
:1059A00001433160207880060CD5E1695846DBF868
:1059B000002002F07002914204D2026822F07002CC
:1059C0000A43026000F09AF80E492A682B68C2F375
:1059D000032203F00F038A5CC95C02F01F0201F08E
:1059E0001F01D040084A20FA01F111600749086000
:1059F00007480068BDE8F05FFDF738BD00200052A1
:105A000018440258481E01084400002440000024A5
:105A10003800002470B5144C3F220260124A2468FA
:105A20000832131D114D04F00704446016681C1D54
:105A300006F470668660166806F00F06C660126887
:105A400002F0700202611A6802F0700242611A6884
:105A500002F4E0628261226802F07002C26128688A
:105A600000F00F00086070BD104402580020005282
:105A700030B500F043F80B4A0B490C4B156814681D
:105A8000C5F3032204F00F048A5C095D02F01F02D3
:105A900001F01F01D040064A20FA01F119601060A0
:105AA000084630BD18440258481E0108440000242E
:105AB0004000002400B5FFF7DBFF05490968054AEF
:105AC000C1F30211515C01F01F01C84000BD00008C
:105AD0001C440258481E010800B5FFF7C9FF0549DC
